:0200000280007C
:10000000102C0720C5130800C1130800C1130800F5
:10001000C1130800C1130800C1130800000000004C
:10002000000000000000000000000000650A080059
:10003000C1130800000000009D0A0800D90A08004A
:10004000C1130800C1130800C1130800C113080040
:10005000C1130800C1130800C1130800C113080030
:10006000C1130800C113080000000000311208008D
:1000700045120800591208006D1208000000000027
:10008000000000002D040800C1130800C11308007F
:10009000C1130800C1130800C1130800C1130800F0
:1000A000C113080000000000C1130800C1130800BC
:1000B000C1130800C1130800A1080800C1130800FB
:1000C000C1130800C1130800C1130800C1130800C0
:1000D000C1130800C1130800C1130800C1130800B0
:1000E000C1130800C1130800C1130800C1130800A0
:1000F000C113080010B5054C237833B9044B13B174
:100100000448AFF300800123237010BDAC09072021
:1001100000000000C4470800084B10B51BB1084997
:100120000848AFF300800848036803B910BD074BC7
:10013000002BFBD0BDE81040184700BF00000000B6
:10014000B0090720C4470800C447080000000000A9
:1001500090B92DE9F0410C469046002A0FDD8F182A
:10016000084E094D306821462B6898470134A74254
:10017000F8D14046BDE8F0814FF0FF3070470020D5
:10018000BDE8F081040C0720A40B0720F0B48CB06C
:1001900007460E4601AC114D0FCD0FC40FCD0FC455
:1001A00095E8070084E8070001AA002052F8043B04
:1001B000B6FBF3F3B3FBF7F3B3F5807F05D901305A
:1001C0000B28F3D14FF6FF7005E00A2894BF43EAED
:1001D00000204FF6FF700CB0F0BC7047C04608001E
:1001E00070B506460C46086840B189680E4B9847C2
:1001F00005464FF6FF73984201D10EE00025606876
:1002000040B1A168084B98474FF6FF73984207D05A
:1002100045EA00453560002070BD4FF6FF7070BDA7
:100220004FF6FF7070BD00BF8D01080070B40B6801
:100230004A6802F00F028C8A22430C8922438C7A8E
:1002400042EA44228C7D42EA0442CC7D42EA4442A6
:100250000C7E42EA844200EB4314C4F80022CA68D0
:10026000C4F804220A69C4F80C228A7D3AB18C8B46
:100270004A8B42EA044200EB4314C4F81822846C0F
:100280004FF001129A40D24304EA0205CC7F04FAEF
:1002900003F68C7F9C4044EA06442C438464446CFF
:1002A000224091F8214004FA03F591F820409C4047
:1002B00044EA05442243426401229A4091F82240D4
:1002C0001CB1046A1443046203E0046A24EA0204D1
:1002D000046291F82440012C846E0CBF14439443B3
:1002E000846691F82540012C846E0CBF44EA0242DA
:1002F00024EA02428266032B0CD8DB00C46EFF2284
:100300009A4024EA020291F8231001FA03F31343FE
:10031000C3660CE0043BDB00046FFF229A4024EA32
:10032000020291F8231001FA03F31343036700203C
:1003300070BC70470B69934207D30B68CA6000EB2F
:100340004310C0F80822002070474FF6FF70704736
:10035000012303FA01F14160704700BF012303FA52
:1003600001F18160704700BF10B489014318022475
:1003700044504FF0FF319962196A5A6010BC7047BF
:10038000C0F8C410704700BF89010523435070476F
:10039000890102234350704700EB811108697047BF
:1003A00000EB8111CA61704700EB81114A6270470E
:1003B00000EB8111086A7047F0B486B00224019402
:1003C0000824029420240394802404940A9CE40BBF
:1003D0000594B0EB510F1CD84C0CA0421FD201AEBB
:1003E000012556F8044FB1FBF4F4270C844212D3D4
:1003F000874215D90135052DF3D1002013E006A958
:1004000001EB850151F8141C116033B11D6001200E
:1004100009E0002007E0002005E0012003E00025BE
:10042000002AECD1F1E706B0F0BC704700B583B00C
:1004300001220DF107011048104B984772B6BFF327
:100440005F8F00220E4B1A700E4B1B789DF8071021
:100450000D4AD1549B2B03D100220A4B1A7002E0A3
:100460000133084A13700122054B1A70BFF35F8FE6
:1004700062B603B05DF804FB00800940190D080066
:100480003C010720640A0720C80907202DE9F04332
:1004900085B000224FF4C0013248334B98473348AF
:1004A000334B98475525334C2846A0470028FBD0AE
:1004B0005620A0470028F7D04FF0805155202E4CF1
:1004C000A0474FF080515620A04724202B4B98473F
:1004D0002B4C042120462B4DA84705212046A84738
:1004E000294B019300270297284B039301A920462B
:1004F000274B9847274E4FF00409C6F80090264D29
:100500004FF00508C5F800800B2373606B60B7726D
:10051000AF7237812F8142F2107333612B6140F249
:10052000DC53F360EB60314620461C4FB847294648
:100530002046B84749462046194FB847414620460D
:10054000B8470A480A4B98474FF4E16231462046C3
:10055000144EB0474FF4966229462046B04705B086
:10056000BDE8F08300120E404D0F0800C0D401001A
:1005700001000720E50F0800011008006D130800B6
:10058000004009405D03080040420F0000BD010526
:10059000E1010800A80B0720D00B07202D0208005E
:1005A0005103080035030800F0B583B004460D463A
:1005B000002301931F4B984207D11F461E4E294628
:1005C0003846B0470028FAD119E01C4B984209D1AF
:1005D0001F461B4E01A93846B0470028FAD1019B9F
:1005E0002B7019E0174B984209D11E46144C01A9F3
:1005F0003046A0470028FAD1019B2B7018E0124B1F
:100600009C4209D11E460E4C01A93046A047002845
:10061000FAD1019B2B700BE00C4B9C4208D11E467B
:10062000074C01A93046A0470028FAD1019B2B7046
:1006300003B0F0BD00080E40250E08000080094000
:10064000090A080000C0094000000A4000400A40B2
:1006500070B50C461E4B984208D11E461D4D2146D2
:100660003046A8470028FAD1012070BD1A4B9842A5
:1006700008D11E46194D21463046A8470028FAD118
:10068000012070BD164B984208D11E46134D2146DD
:100690003046A8470028FAD1012070BD114B98427E
:1006A00008D11E460D4D21463046A8470028FAD1F4
:1006B000012070BD0C4B984208D11E46074D2146C3
:1006C0003046A8470028FAD1012070BD002070BD37
:1006D00000080E40150E080000800940F5090800CA
:1006E00000C0094000000A4000400A4030B585B013
:1006F0000820154DA847154C154B1C60154A164B84
:100700001A60164A164B1A60164B01934FF4E133E8
:1007100002934FF4006303930820A84701A92046E1
:10072000114B9847114D2B6800219868104CA04739
:100730002B6800215868A0470E480F4CA0470F486F
:10074000A04705B030BD00BF6D13080000080E4083
:10075000040C072051060800000C0720A90508001A
:10076000A40B072000BD0105DD0D08007005072062
:1007700011190800EC460800B5160800FC460800F0
:1007800000B58BB00A2201A9034B984701A8034B7F
:1007900098470BB05DF804FB0D170800011908001D
:1007A00010B51B20084B9847084C002211462046E4
:1007B000074B984700212046064B984700212046CA
:1007C000054B9847002010BD6D130800000008403D
:1007D000690308008103080091030800F8B5044686
:1007E00000210948094B98472A2303FB04F4064FCC
:1007F0000026074D31463846A847A042FAD30021CB
:100800000148044B9847F8BD0000084089030800E0
:10081000990308009103080030B585B01E20164BDF
:100820009847164C009402AB03AA2146A020144D11
:10083000A847144D029A42F4804200212846124BE8
:100840009847039AB4FBF2F4104AA2FB0432D2098F
:10085000002128460E4B98474FF080420D4B1A60FE
:100860001022002128460C4B9847002128460B4BAC
:10087000984705B030BD00BF6D13080000BD0105ED
:10088000B90308000040084069030800CDCCCCCC77
:10089000A103080000E100E0A903080089030800A3
:1008A00000B583B04FF400120C4B1A630C4B1B685D
:1008B000102B02D100220A4B1A60002109480A4B72
:1008C00098470190019B064A1368013313604FF467
:1008D0000012024B5A6303B05DF804FB00100E4097
:1008E000680A072000400840B103080011F0040F17
:1008F00012D02B4B1B6813F0040F04D0294A136845
:10090000013B136008E013F0080F264A136814BF78
:10091000013303F1FF33136011F0080F12D0204BA5
:100920001B6813F0080F09D013F0040F1D4A136859
:1009300014BF013303F1FF33136003E0194A136856
:10094000013B136011F0400F12D0154B1B6813F0E0
:10095000400F04D0134A1368013B136008E013F002
:10096000800F104A136814BF013303F1FF33136083
:1009700011F0800F12D00A4B1B6813F0800F09D0C2
:1009800013F0400F074A136814BF013303F1FF331C
:1009900013607047034A1368013B1360704700BF40
:1009A00008120E40F80B072030B583B00B4C012223
:1009B000CC2120460A4B98470A4B00934023CC2277
:1009C0000D212046084DA8474FF40052074B1A60EE
:1009D000CC212046064B984703B030BD00120E4094
:1009E0004D0F0800ED080800C511080000E100E007
:1009F000D90F0800436913F0020F1DBFC1F30801AE
:100A0000C161002001207047436913F0010F05D038
:100A10008369C3F308030B6000207047012070470F
:100A200043685A684A6042688A605A6891605960AF
:100A3000416008610368013303607047436882685E
:100A40009A60836842685A6003695A68904204BF9A
:100A500082685A60002202611A68013A1A601868B6
:100A6000704700BF064B19680868B0E8F00F80F3C4
:100A700009884FF0000080F311884EF00D0E70478A
:100A8000E00A0720EFF311804FF0A00181F31188F5
:100A90007047002080F31188704700BFEFF3098092
:100AA0000C4B1A6820E9F00F10602DE908404FF058
:100AB000A00080F3118800F0B5F84FF0000080F33B
:100AC0001188BDE8084019680868B0E8F00F80F3A5
:100AD00009887047E00A072008B54FF08052054B9F
:100AE0001A60054B9847054B98470020044B9847E0
:100AF00008BD00BF04ED00E0850A0800050B0800F2
:100B0000950A08002DE9F0413A4B1B68002B6BD188
:100B1000394B1A6801321A601B6803BB374B1B68DC
:100B20001B681BB1364B984700BFFDE7334B196874
:100B3000344A10681860116033490A6801320A604B
:100B40001B681B6823B94FF0FF32304B1A6006E078
:100B50002A4B1B68DB68DB685A682C4B1A60264BF3
:100B60001A682A4B1B689A4242D3244B1B681B68A5
:100B70006BB1224B1B68DB68DC6863681E4A126835
:100B8000934213D8224E234FDFF8948012E04FF0A7
:100B9000FF321E4B1A60BDE8F081184B1B68DB6802
:100BA000DC686368144A1268934203D9174A1360D9
:100BB000BDE8F081251D2846B047A36A13B104F1B2
:100BC0001800B047E06A3B68984288BF386000EB85
:100BD0008000294608EB80000F4B9847074B1B68A5
:100BE0001B68002BD9D1D2E70C4A1368013313607C
:100BF000BDE8F081DC0A0720E80A07206C0A07201C
:100C0000850A0800EC0A0720E40A072038010720BB
:100C10003D0A0800740A0720210A0800700A07200C
:100C2000780A072010B5224B1B686BB9214B1B6853
:100C300003EB83039B00204AD358CBB91D4B1B68A1
:100C400043B11C4A1C4909E001221C4B1A6010BD2B
:100C500013681BB91A4B984700BFFDE71368013BA7
:100C60001360136803EB830351F82330002BEFD09C
:100C7000104B1B68104A9900C81802EB80004468AA
:100C80006468446002460832944206D1606803EB0F
:100C90008301094A02EB8102506003EB8303064A99
:100CA00002EB83035B68DA68064B1A6010BD00BF75
:100CB000DC0A0720740A0720780A0720F00A0720B8
:100CC000850A0800E00A07200138022815D82DE916
:100CD000F0410E4614469AB10D46DFF838800C4FAD
:100CE000D8F8000015F8011B3B68984700280ADB7C
:100CF000A81B013CF4D1BDE8F0814FF0FF307047F4
:100D00000020BDE8F0814FF0FF30BDE8F08100BF6A
:100D1000000C0720040C0720002A4ED02DE9F04FCC
:100D200085B006460D461746DFF8A4A0DFF8A4906C
:100D3000CDF800A0DFF8A0B0214CCDF804B000231E
:100D40000393564505D129460098C8470028FAD193
:100D500015E05E4507D103A90198A0470028FAD104
:100D6000039B2B7017E0174B9E4208D1984603A9AE
:100D70004046A0470028FAD1039B2B7016E0124B87
:100D80009E4208D1984603A94046A0470028FAD1C0
:100D9000039B2B700AE00D4B9E4207D1984603A996
:100DA0004046A0470028FAD1039B2B700135013F34
:100DB000C5D1002005B0BDE8F08F0020704700BF0E
:100DC000090A080000C0094000000A4000400A402B
:100DD00000080E40250E08000080094010B4AC2326
:100DE00003600B684A68B3FBF2F31B095C1E4FF605
:100DF000FE7294420AD803628B68436040F2022379
:100E0000C0F8203150230360002000E0012010BC16
:100E1000704700BF436913F0020F1ABFC161002081
:100E200001207047436913F0010F1DBF83690B70E8
:100E300000200120704700BF10B50E480E4B9847A8
:100E40003E2100200D4B98470D4CA0470028FCD0B8
:100E50000C4B98470C4A0D4B9A620D4CA04700284A
:100E6000FCD010200B4B98470B4B98470148024B86
:100E7000984710BD00BD0105B1000720E912080028
:100E80003D1308004D130800013F0D2000060E40E1
:100E90005D130800811208007114080010B54FF4AA
:100EA0000042124B5A600B20114CA0470C20A04767
:100EB0000D20A0470E20A0474FF060513B200D4C65
:100EC000A0474FF060515520A0474FF06051562089
:100ED000A04709496820A04708495C20A047084A64
:100EE0004FF440710748084B984710BD501A0E4008
:100EF0006D13080001100800790000280100002887
:100F000001000008000E0E40D51008004264B1F147
:100F1000805F16D004D8C1B1B1F1006F0AD013E0E0
:100F2000B1F1405F11D0B1F1605F0ED0B1F1205F3F
:100F30000AD17047016F036F0B4023EA0203036776
:100F400002E0036F1343036742607047416412F08D
:100F5000010F14BF4166016612F00A0F14BF01624F
:100F6000416212F0020F02D0C0F8801004E012F0CB
:100F7000080F18BFC0F8841041610160704700BFBE
:100F800010B44164019C0CB1416600E001660BB1F4
:100F9000016500E041650AB1016300E04163016160
:100FA000016010BC704700BF12F0100F10D0C0F8E5
:100FB000B01012F0200F14BFC0F8D410C0F8D01039
:100FC00012F0400F14BFC0F8C010C0F8C410704732
:100FD000C0F8B410704700BF01647047C06C704720
:100FE000806C7047430903F5001303F207735B023B
:100FF000DB6B00F01F0023FA00F000F001007047E7
:1010000070B582B00D46430903F5001303F2077370
:101010005C0201F0F043B3F1205F30D006D8B3F1A9
:10102000006F0AD0B3F1805F18D049E0B3F1405FA0
:1010300030D0B3F1605F2DD042E000F01F000126F8
:10104000864032464FF0006120461F4B984715F00E
:10105000010F14BF66662666012032E000F01F0013
:101060000126864032464FF080512046164B984765
:1010700015F0010F14BF66662666012021E000F01E
:101080001F0101262A4606FA01F120460F4B984718
:10109000304616E005F0605200F01F01012605EA17
:1010A00006030093C5F38003B2F1605F14BF002212
:1010B000012206FA01F12046054CA047304600E027
:1010C000002002B070BD00BF0D0F08004D0F0800DA
:1010D000810F080070B582B005460E46144602F036
:1010E000F043B3F1205F26D006D8B3F1006F0AD0E9
:1010F000B3F1805F13D034E0B3F1405F1FD0B3F1A0
:10110000605F1CD02DE00A464FF00061164B9847F7
:1011100014F0010F14BF6E662E66012022E00A460D
:101120004FF08051104B984714F0010F14BF6E66BA
:101130002E66012016E00D4B9847012012E004F0C6
:10114000605204F001030093C4F38003B2F1605FC6
:1011500014BF0022012231462846054CA047012039
:1011600000E0002002B070BD0D0F08004D0F080018
:10117000810F08002DE9F041044688460E4B984740
:10118000054620460D4B9847054013D00C4C04F102
:1011900060062368434508D16168294205D0E368A9
:1011A00040469847636825EA0305B44202D01034EC
:1011B000002DEED1BDE8F081DD0F0800E10F080041
:1011C000F80A0720F8B5174C2668062E28D84FF0E5
:1011D000000C6446144FA64625017D598D4204D16A
:1011E00007EB04156D68954204D00134E4B2A446BF
:1011F000A642F0D20C4D4FEA0E1E05EB0E0445F848
:101200000E106260A3600699E1600136664504BF76
:1012100004490E6011461A46044B98470020F8BD59
:101220000120F8BDF40A0720F80A0720A90F0800DA
:1012300008B50B210148024B984708BD000E0E402F
:101240007511080008B50C210148024B984708BDEC
:1012500000100E407511080008B50D210148024B21
:10126000984708BD00120E407511080008B50E2100
:101270000148024B984708BD00140E407511080044
:10128000184A136B23F0700318431063936E13F026
:10129000080F03D009E0013B03D11EE04FF40063C7
:1012A00010498A6E12F0080FF5D00E4A136B23F026
:1012B000030343F002031363906E10F0080004D0A0
:1012C00000207047013B03D109E04FF4006305495A
:1012D0008A6E12F0080FF5D0704701207047012088
:1012E000704700BF00060E4038B111490B6A114A21
:1012F0001A40114B13430B6270470D48026A0902F2
:1013000089B222F45C1323F0030343F45C1343F02B
:1013100001030B4303620246936E13F0010FFBD0EF
:10132000034A136A43F09B7343F48033136270479C
:1013300000060E40FCFFC8FE02003701024B986E0B
:1013400000F48030704700BF00060E404FF000529E
:10135000014B9A62704700BF00060E40024B986E28
:1013600000F00200704700BF00060E402C281ED877
:101370001F280CD8114B9A6901238340934318D03E
:10138000012303FA00F00D4B18610020704720384C
:101390000A4BD3F808210123834093430BD0012348
:1013A00003FA00F0054BC3F800010020704701204C
:1013B0007047002070470020704700BF00060E40B5
:1013C000FEE700BF08B51E4B1E4A9A4203D01E4BD3
:1013D0001B4A9A4204D31D4B1D4A9A420FD31AE06E
:1013E00017491C4B5B1A23F003030433154A1344BB
:1013F00052F8040B41F8040B9A42F9D1EBE7164B73
:10140000164AD21A22F003021A44043B002143F880
:10141000041B9342FBD1124B23F0604222F07F0267
:1014200010498A6003F16043B3F5801F03D28B68D3
:1014300043F000538B600C4B98470C4B9847FEE7EA
:1014400000000720C4470800AC0907200C0C072047
:10145000AC090720AB090720B00907200F0C0720B3
:101460000000080000ED00E065160800DD1508002A
:101470003E4B1B6B03F00303032B5FD8DFE803F045
:10148000020E2B2B3A4B5B6913F0800F14BF4FF405
:1014900000424FF4FA42374B1A604FE0334B1B6A5D
:1014A00013F0807F03D0344A324B1A6046E0334A4F
:1014B000304B1A602D4B1B6A03F07003102B02D0C7
:1014C000202B04D03AE02E4A2A4B1A6036E02A4AF2
:1014D000284B1A6032E0254B1B6A13F0807F03D043
:1014E000254A244B1A6012E0244A224B1A601F4BF3
:1014F0001B6A03F07003102B02D0202B04D006E0EF
:101500001F4A1C4B1A6002E01B4A1A4B1A60174B09
:101510001B6B03F00303022B0DD1144A936A926AEA
:101520001448C3F30A41036801FB0333D2B2B3FB8F
:10153000F2F3036002E0134A0E4B1A600B4B1B6B75
:1015400003F07003702B07D10A4A13680E49A1FB00
:1015500003135B0813607047044B1B6B0549C3F30F
:1015600002120B68D3400B60704700BF00060E40AC
:10157000101A0E4040010720001BB70000093D0073
:1015800000127A00001C4E0EABAAAAAA094B1B68D7
:1015900013B9094A074B1A60064B1B681A1807490A
:1015A000914204DB1046034A1060184670474FF022
:1015B000FF307047680B0720102C0720FC7F0820A5
:1015C0004FF0FF30704700BF4FF400534B600020D6
:1015D000704700BF012070470020704780B5134A54
:1015E000136801331360124B9847124B9847124B04
:1015F0009847124B9847124B9847124B9847124BFB
:101600009847DFF85C80114E114F4046B04738468E
:10161000B047104D2846104CA047044B18680130C5
:1016200018600E4B98472846A047EEE76C0B072042
:10163000390E08009D0E080019080800A1070800CF
:10164000ED0608008D040800A9090800B516080079
:1016500014470800A0860100DD0708008107080084
:101660000C47080070B50F4E0F4D761BB61018BF13
:10167000002405D0013455F8043B9847A642F9D11F
:101680000A4E0B4D03F088F8761BB61018BF0024E5
:1016900006D0013455F8043B9847A642F9D170BDF5
:1016A00070BD00BFA4470800A4470800AC4708006D
:1016B000A44708000FB410B5074B82B004AC54F82F
:1016C000042B186823468168019400F07BFA02B06D
:1016D000BDE8104004B0704770050720931E222B10
:1016E00010D80A2A10B506D000230C46194400F081
:1016F000EDF9204610BD0028F6DA2D230B7040428C
:101700000123F2E700200870704700BFFFF7E6BF33
:10171000844641EA000313F0030349D1403A23D33E
:101720000B6803604B6843608B688360CB68C36061
:101730000B6903614B6943618B698361CB69C36149
:101740000B6A03624B6A43628B6A8362CB6AC36231
:101750000B6B03634B6B43638B6B8363CB6BC36319
:1017600040304031403ADBD230320BD30B6803605B
:101770004B6843608B688360CB68C3601030103166
:10178000103AF3D20C3205D351F8043B40F8043B35
:10179000043AF9D2043208D0D2071CBF11F8013B39
:1017A00000F8013B01D30B8803806046704700BFFF
:1017B000082A13D38B07B1D010F00303AED0C3F1C6
:1017C0000403D21ADB071CBF11F8013B00F8013BF0
:1017D000A4D331F8023B20F8023B9FE7043AD9D367
:1017E000013A11F8013B00F8013BF9D20B78037084
:1017F0004B7843708B7883706046704770B4840771
:1018000046D0541E002A41D0CDB2034602E0621EEB
:10181000E4B3144603F8015B9A07F8D1032C2ED9E0
:10182000CDB245EA05250F2C45EA054519D92646CE
:1018300003F11002103E0F2E42F8105C42F80C5CCF
:1018400042F8085C42F8045C02F11002F2D8A4F1FC
:10185000100222F00F0204F00F041032032C134484
:101860000DD91E462246043A032A46F8045BFAD8EC
:10187000221F22F003020432134404F003042CB1AB
:10188000C9B21C4403F8011BA342FBD170BC7047D2
:1018900014460346C2E700BFF0B5054689B00846C6
:1018A0000C4600F0E5F8431C144F0393AB6B012684
:1018B00004A9022204940590AC680697079601914A
:1018C0000292B3B1B4F90C309A0406D4626E43F4B8
:1018D000005322F40052A38162662146284601AAE1
:1018E00001F0F6FB002814BF4FF0FF300A2009B0CA
:1018F000F0BD284601F03CFAE4E700BF14470800B9
:10190000024B01461868FFF7C7BF00BF70050720EC
:1019100000290CBF022200224FF4806300F000B8BF
:101920002DE9F043514D83B02D6804460F46904693
:101930001E4615B1AB6B002B79D0B8F1020F04D065
:10194000B8F1010F7FD8002E7DDB2146284601F03B
:101950007BF9216B41B104F14003994202D0284642
:1019600001F0CEFA00232363B4F90C300022A26107
:1019700062601A0654D423F44A6323F00303B8F1D7
:10198000020FA38139D001AB6A462146284601F0F7
:1019900055FDA3891843A08126B327B3AB6B002B59
:1019A0004DD0009BB4F90C009E421CBF40F4006077
:1019B000A081B8F1010F08BF40F0010083B208BF59
:1019C000A08103F0080080B227602761666118B328
:1019D00013F001002FD000207642A661A06003B072
:1019E000BDE8F083009E304601F09CFD074668B3D9
:1019F000A38943F08003A381D0E7002004F14302D0
:101A000043F0020300250121A381A5602260226129
:101A1000616103B0BDE8F083A06003B0BDE8F0836E
:101A20002169284601F06CFAB4F90C30A3E7284686
:101A300001F09EF981E7A66003B0BDE8F083284677
:101A400001F096F9ADE74FF0FF30E2E7DDF80090E6
:101A5000B14506D0484601F065FD074608B14E463F
:101A6000C6E7B4F90C304FF0FF30C7E77005072028
:101A700020F0030110F00300C0F1000051F8043B16
:101A800000F1040C4FEACC0C6FF000021CBF22FAEC
:101A90000CF213434FF0010C4CEA0C2C4CEA0C4CAA
:101AA000A3EB0C0222EA030212EACC1204BF51F8A3
:101AB000043B0430F4D0C2F1000102EA0102B2FAA0
:101AC00082F2C2F11F0200EBD2007047F0B58BB07A
:101AD0006F461546DFF870E004460E46BEE80F007C
:101AE0000FC7BEE80F000FC79EE80300AB1E47F804
:101AF000040B222B397022D8711E0846002300E007
:101B00001346B4FBF5F205FB12440AAF3C4414F84B
:101B1000287C144600F8017F5A1C002CF0D1B454E4
:101B2000F2184BB1013411F8015F1778181B844289
:101B30000F7002F80159F5DB30460BB0F0BD002004
:101B400030700BB0F0BD00BF204708004B6E2DE990
:101B5000F0479C0492462CD5936812683BB30F461D
:101B6000804602F1080919E96000B60817D0043D63
:101B7000002401E0A64210D03A4655F8041F404622
:101B800001F05EF9431C04F10104F3D10023CAF80B
:101B90000830CAF80430BDE8F087DAF80830A3EB63
:101BA0008603CAF8083009F10809002BDBD10020B0
:101BB000ECE701F08DFA0023CAF80830CAF80430C7
:101BC000BDE8F0872DE9F04FABB01C460091904680
:101BD0000493059018B1836B002B00F0DE80009811
:101BE000B0F90C108AB2950407D4436E41F4005248
:101BF00023F400538281436692B2110740F1B18011
:101C0000009B1B69002B00F0AC8002F01A020A2A2C
:101C100000F0B5800DF1680AD346002302930F93BC
:101C20000E93CDF834A098F800304446FBB1252B34
:101C300002D11CE0252B03D014F8013F002BF9D171
:101C4000C8EB04059DB10E9B0F9A01332A44072B64
:101C5000CBF80080CBF804500F920E937BDD002A66
:101C600040F01F85D346029B0E922B4402932378AB
:101C7000002B00F03B844FF0000300218DF82F3043
:101C800004F10108637808460E460C464FF0FF3217
:101C9000019208F10108A3F12002582A00F28B8377
:101CA000DFE812F03D0389038903450389038903B3
:101CB00089038903890389037E006B0289038600F7
:101CC00070028903CC015D025D025D025D025D026E
:101CD0005D025D025D025D02890389038903890358
:101CE000890389038903890389038903D10189034E
:101CF0008903890389038903890389038903890384
:101D000089031A0289038903890389038903E50288
:101D100089038903080389038903890389038903E4
:101D2000890389038903890389032B0382038903B8
:101D3000890389035E03820389038903630389039B
:101D400070038D028B00E002890393028903B202C3
:101D5000890389034A030BF1080B029B2B4402936E
:101D600085E70099059800F057FE002840F045856A
:101D7000009B9A8902F01A020A2A7FF44BAF00995D
:101D8000B1F90E30002BFFF645AF234642460598C9
:101D900000F00CFE2BB0BDE8F08F00F0E9FF1EE76D
:101DA000049A134614680433002C049302DA644244
:101DB00046F0040698F800306BE74FF000030498F3
:101DC0008DF82F30034630218DF83010019978229C
:101DD000002906948DF83120046803F104034FF0C4
:101DE000000546F00202C0F20C8526F0800654EA97
:101DF000050246F00206049340F0B584B348019B07
:101E0000002B40F0628499465746002301930393C8
:101E1000019B039A9342B8BF13461D46B9F1000FC8
:101E200000D0013516F00203079318BF023516F0F3
:101E30008403089340F0E882069B5C1B002C40F36F
:101E4000E382102C40F33C85DFF88492DDF838E023
:101E5000DC460F9AC3461023A84670464D46DDF86F
:101E6000149007E000F1020E08460CF1080C103C3B
:101E7000102C13DD411C103207290F92CCF80050B2
:101E8000CCF804300E91EDDD002A40F0A582103C24
:101E9000102C10464FF0010ED446EBDCA9467046DC
:101EA0004546D846E346224407280F92CBF80090D7
:101EB000CBF804400E9000F36D839DF82F300BF1AA
:101EC000080B00F1010E002B40F0A782079B002BAE
:101ED00000F0BA8202320CA90223BEF1070F0F9262
:101EE000CDF838E08BE80A0040F37083002A40F018
:101EF0000084089B4FF0010E802B1046D34640F023
:101F0000A782069B5C1B002C40F3A282102C40F39E
:101F1000F884DFF8C091DE461023C346A8464D463C
:101F2000DDF8149007E000F1020C08460EF1080EEF
:101F3000103C102C13DD411C103207290F92CEF8F3
:101F40000050CEF804300E91EDDD002A40F00C83F5
:101F5000103C102C4FF0010C1046D646EBDCA94685
:101F60004546D846F3462244BCF1070F0F92CBF802
:101F70000090CBF80440CDF838C000F3C883019B33
:101F800003990BF1080B5C1A002C0CF1010E604652
:101F900000F364820399BEF1070F0A440F92CBF855
:101FA0000070CBF80410CDF838E040F3C582002A69
:101FB00040F0328370070E9238D5069B5C1B002CD4
:101FC00034DDD346102C40F39684DFF804910E994B
:101FD0004F461026DDF8149006E0881C19460BF1D8
:101FE000080B103C102C13DD4B1C1032072B0F92EA
:101FF000CBF80070CBF804600E93EEDD002A40F0C1
:102000008582103C102C4FF001001146D346EBDCCA
:10201000B946224407280F92CBF80090CBF8044031
:102020000E9040F39282002A40F00C84029B069AA4
:10203000AA42ACBF9B185B19029390E246F080065F
:1020400098F8003025E60694002940F0858446F093
:102050001006B30640F104830499073121F007010B
:10206000D1E9002314461D4608310491002A73F17A
:102070000003C0F27C83019B9DF82F90002BC0F2DF
:102080000B8354EA050326F0800600F0DE80002D65
:1020900008BF0A2CC0F0DE805746204629460A2297
:1020A000002302F07DF9303207F8012D2046294641
:1020B00000230A2202F074F904460D4654EA05038F
:1020C000EBD1C7EB0A030393A2E600BF6C470800FD
:1020D00088470800484708000694002940F03884E3
:1020E00046F0100616F0200300F0A1824FF0000227
:1020F000049B8DF82F20073323F0070303F1080218
:10210000D3E90045019B0492002B0ADB54EA050346
:1021100026F0800605D1019B002B00F027840024C7
:1021200000254FF000095746E20842EA4572E908E7
:1021300004F007030D461446303354EA050207F84D
:10214000013DF1D1F407BCD5302BBAD030227B1E33
:1021500007F8012CC3EB0A0203921F4658E6A3F1CD
:102160003002002418F8013B04EB840402EB440421
:10217000A3F13002092AF5D98DE598F80030012144
:102180002B2086E598F8003008F101052A2B00F095
:10219000CC83A3F13002092AA84698BF002500F29B
:1021A000B58318F8013B05EB850502EB4505A3F166
:1021B0003002092AF5D945EAE57201926BE50694E9
:1021C00000298FD08DF82F008CE74FF00003049A80
:1021D000069417688DF82F30141D019B002F00F016
:1021E0007F83002BC0F253831A460021384601F04A
:1021F0004DFC002800F08E83C31B0393002304943E
:102200009DF82F90019303E60694002940F09D83EA
:1022100016F0200934D116F0100303D116F040094E
:1022200040F01F83049A002513461468019A8DF824
:102230002F90002A03F10403C0F2278354EA050219
:1022400026F0800604937FF422AF019B002B3FF41D
:10225000DBAD00242AAF303407F8414DC7EB0A0349
:102260000393D5E546F0200698F8003011E5069472
:10227000002940F0758346F0100616F02009CAD0F8
:102280004FF00002049B8DF82F20073323F0070343
:1022900003F10802D3E90045019B0492002BC0F230
:1022A000F98154EA050326F080064FF000097FF417
:1022B000EEAECAE70694002940F05583B206B24854
:1022C00041D5049A073222F0070202F10801049175
:1022D000D2E9004516F0010900F07E8154EA0502BA
:1022E00040F02B824FF000038DF82F30019B002B24
:1022F000C0F2F38226F0800681E5049A4FF00001D7
:10230000136801258DF840301346043306948DF888
:102310002F100493039510AF0023019382E598F8E2
:10232000003000287FF4B5AC01212020B1E446F054
:10233000010698F80030ACE40694002940F02A83A6
:10234000B2069248BDD40499F7060A4600F19D8171
:10235000750640F19A8104320C8804920025B9E791
:1023600046F0400698F8003093E498F800306C2B63
:1023700003BF98F8013046F0200608F1010846F046
:10238000100686E4002940F00283B40640F1208262
:10239000049A134604330493029B1168DD171A460E
:1023A0002B46C1E900233EE4069400293FF451AED8
:1023B0008DF82F004DE60694002940F0E582002BB1
:1023C00000F094808DF840304FF0000301258DF827
:1023D0002F30039510AF9FE70DAA00994846099347
:1023E000FFF7B4FB002840F088800E98D4460F9A7F
:1023F00000F1010E099B3AE50DAA00990598FFF737
:10240000A5FB002879D1D3460E989DF82F300F9A5E
:1024100000F1010E002B3FF459AD01320DF12F01F7
:102420000123BEF1070F0F92CDF838E08BE80A00C8
:1024300040F3C080002A40F04D810799002940F008
:10244000BF809E461046D346089B802B3FF459AD73
:10245000019B03995C1A002C7FF79CAD102CDFF8D0
:10246000309125DDDC461023C346A8464D46DDF8F5
:10247000149007E000F1020E08460CF1080C103C25
:10248000102C11DD411C103207290F92CCF800509E
:10249000CCF804300E91EDDDD2B9103C102C4FF089
:1024A000010E1046D446EDDCA9464546D846E34623
:1024B0002244BEF1070F0F92CBF80090CBF80440F6
:1024C000CDF838E02EDC0BF1080B0EF1010E61E5C2
:1024D0000DAA009948460193FFF738FB68B90E989A
:1024E000D4460F9A00F1010E019BC8E70F9B23B160
:1024F00005980DAA0099FFF729FB009B9B895A06B6
:1025000000F17B8102982BB0BDE8F08F0DAA0099F5
:102510004846FFF71BFB0028EFD10E99D3460F9AD0
:10252000481C5EE5002A40F0FA80D346039A012356
:102530001B920F921A970E930BF1080B710704D59B
:10254000069B5C1B002C3FF73DAD029B0699A94200
:10255000ACBF5B185B190293002A40F0AD800023EA
:102560000E93D346FFF75FBB0DAA00994846079329
:10257000FFF7ECFA0028C0D10E98D6460F9A00F16A
:10258000010C079BD4E400BF584708006C470800C3
:1025900048470800002A7FF42FAF9DF82F30002B0A
:1025A00000F0F38001231A469E46D3460DF12F0119
:1025B0001B931A9170460BF1080B0EF1010E85E486
:1025C0009E46D3460CA902221A911B9270460BF12B
:1025D000080B0EF1010E37E7019B8DF82F90002BB1
:1025E000C0F21B8154EA050326F080063FF407ACD5
:1025F0005746230943EA0573290904F00F020D46E3
:102600001C46835C07F8013D54EA0503F1D1C7EB92
:102610000A030393FFF7FCBB0DAA00990598FFF787
:1026200095FA00287FF469AFD3460F9A86E716F033
:10263000100200F0B58004998DF82F300A460C681E
:102640000199043200294FF00005C0F2528154EA8A
:10265000050126F0800604923FF45DAD994662E5DF
:10266000049AF706134609D4750607D5B2F9004057
:102670000433E517049322462B46F7E41C68043321
:10268000E517049322462B46F0E4146804320492C2
:1026900000251FE64FF0000954EA05037FF4F7AC6C
:1026A000D8E50DAA00990598FFF750FA00287FF4A5
:1026B00024AFD346FFF751BB0DAA00990598FFF749
:1026C00045FA00283FF44BAF17E7002400254FF0F0
:1026D00000098DE70DAA00990598FFF737FA002841
:1026E0007FF40BAF0E98D3460F9A00F1010EFFF75F
:1026F000EDBB0DAA00990598FFF728FA00287FF492
:10270000FCAE0E98D3460F9A00F1010E9CE6002A0B
:1027100040F0C8804FF0010E1046D34698E60DAA4F
:1027200000990598FFF712FA00287FF4E6AE0E9B99
:10273000D3460F9A03F1010E2CE48DF831304FF09F
:10274000000330228DF83020019A8DF82F30002AB6
:1027500046F00203C0F2BB8026F0800646F0020677
:102760004FF0000944E74FF000098C4840E7019B17
:1027700064424FF02D0965EB4505002B8DF82F9035
:10278000FFF685AC26F0800681E4079B002B63D022
:102790000CAB02221A931B924FF0010ED34615E7A1
:1027A00016F040093BD004998DF82F200B460C8879
:1027B0000199043300294FF00005C0F28C8054EADF
:1027C000050126F0800604933FF4A5AC9146AAE4E7
:1027D000F0060AD4710608D5049A136804320492EC
:1027E000BDF808201A80FFF71EBA049A1368043255
:1027F0000492029A1A60FFF716BA4FF0FF30FFF703
:10280000C9BA1646654854EA050204934FF0000918
:102810007FF4EEAE00240025EAE6049BF3E7049A79
:102820008DF82F9013461468019A0433002A4FF054
:10283000000550DB54EA050226F0800604937FF47D
:1028400072AC68E40DAA00990598FFF77FF900289B
:102850007FF453AE0F9A78E610464FF0010ED34640
:10286000F6E504998DF82F300A460C880199043258
:1028700000294FF0000555DB54EA050126F08006DB
:10288000049299467FF403ACDFE4049304E73846EE
:102890000494FFF7EDF8002303909DF82F90019327
:1028A000FFF7B6BA0DAA00990598FFF74FF900286F
:1028B0007FF423AE0E98D3460F9A00F1010EC7E5C0
:1028C0000E980F9A0130DFF8DC90FFF7ECBA1E4645
:1028D0004FF000098CE6049323E44FF0000999E7D8
:1028E000062B28BF06230393049423EAE3752C4F99
:1028F00012E5049215E40E98DFF8A8900130FFF776
:1029000088BBF446DFF8A090FFF72DBB00220192B0
:10291000FFF7C1B9019B0494039301909DF82F9098
:10292000FFF776BA04929946B6E6049A1368043221
:10293000002B0193049298F80130A846BFF6A9A98C
:102940004FF0FF320192FFF7A4B98DF82F005FE43A
:102950008DF82F00FFF7C4BB8DF82F00FFF777BB72
:102960008DF82F0087E48DF82F00A7E49946F30730
:1029700005D52AAF302307F8413DFFF7A2BB019BE5
:1029800057460393FFF744BA8DF82F0017E58DF8EB
:102990002F00FAE48DF82F00D2E400BF6C47080046
:1029A000804708008847080048470800F0B50C46F3
:1029B0008989ADF26C4D656E21F00201666AADF851
:1029C0000C10E169E789199500250791099606958C
:1029D0001AAE4FF4806569460096049602950595F7
:1029E000ADF80E700646FFF7EDF8051E07DB304622
:1029F000694600F029F9002818BF4FF0FF35BDF8EF
:102A00000C305B0603D5A38943F04003A38128461D
:102A10000DF26C4DF0BD00BF38B5304B054618685F
:102A20000C4610B1836B002B38D0B4F90C2093B254
:102A300018070CD52069A8B113F001021ED06369F4
:102A400000225B42A361A260F0B1002038BDD9062C
:102A50003BD5580725D4206942F00803A3819BB2D7
:102A60000028E9D103F42072B2F5007FE4D02846B3
:102A7000214600F013FDA3892069DDE7990758BFBF
:102A80006269A2600028E0D1B4F90C301A06DDD5E5
:102A900043F04003A3814FF0FF3038BD00F068F9E8
:102AA000C3E7216B51B104F14003994204D0284699
:102AB00000F026FAB4F90C200023236320690023D8
:102AC00022F0240284E80900C6E742F0400209230C
:102AD0002B604FF0FF30A28138BD00BF700507208A
:102AE000024B13B1024800F005B870470000000027
:102AF000852D0800002301461A46184601F058BBF0
:102B0000B1F90C302DE9F0419AB20D46110780461B
:102B10003CD46A6843F40063002AAB8173DDAC6A7D
:102B2000002C4BD09BB203F48052002192B2D8F813
:102B30000060C8F80010002A69D02A6D5F0705D52B
:102B400069682B6B521A0BB1EB6BD21A0023E9693F
:102B50004046A047441C3CD0B5F90C30296923F409
:102B600000630022AB81DB0485E8060049D4296BB1
:102B7000C8F8006011B305F14003994202D0404605
:102B800000F0BEF900202863BDE8F0812E69AEB1E7
:102B900090072C680CBF6B6900232E60A41BAB60F0
:102BA0000AE0234632466F6AE9694046B847002882
:102BB000A4EB0004064404DD002CF2DC0020BDE898
:102BC000F081AB894FF0FF3043F04003AB81BDE8AB
:102BD000F081D8F800201D2AF3D81A4BD34003F017
:102BE000010383F00104002BEBD0B5F90C30296907
:102BF00023F400632960D9046C60AB81B7D5002A47
:102C0000B5D12865B3E7EA6B002A88DCD6E7012353
:102C1000E9694046A047431C024602D0AB89AC6A32
:102C20008CE7D8F80030002BF8D01D2B01D0162BE4
:102C300002D1C8F80060C1E7AB8943F04003AB8123
:102C4000BDE8F0810100402010B5044682B008B113
:102C5000836B53B1B1F90C0008B902B010BD204626
:102C600002B0BDE81040FFF74BBF019100F080F8C3
:102C70000199EFE7014900F0AFBB00BF79420800BE
:102C80002DE9F04F074635487D68002407F53B7273
:102C900004230321F863C7F8E412C7F8E822C7F851
:102CA000E04283B02C606C60AC606C66EC812C619F
:102CB0006C61AC61AB81214605F15C000822FEF736
:102CC0009DFDDFF89CB0BE68DFF898A0DFF8989013
:102CD000DFF8988001230922C5F820B0C5F824A0A8
:102CE000C5F82890C5F82C80ED612146F381B281AA
:102CF00006F15C0034607460B460746634617461C1
:102D0000B46108220193FEF779FDFD6812200222CA
:102D1000F661C6F820B0C6F824A0C6F82890C6F818
:102D20002C802146A881EA812C606C60AC606C66C6
:102D30002C616C61AC6105F15C000822FEF75EFD60
:102D4000019BED61C5F820B0C5F824A0C5F8289016
:102D5000C5F82C80BB6303B0BDE8F08F752C08006C
:102D6000E13F0800054008004140080061400800BC
:102D7000836B03B17047FFF783BF00BF704700BF8D
:102D8000704700BF38B5074D074C2C1BA41005D069
:102D9000013C55F8043D9847002CF9D1BDE8384076
:102DA00001F004BDBC470800B84708002DE9F04118
:102DB00082B006460F46144600F03AFB012832D096
:102DC00004F15C033A4601A9304601F0A3F9B0F1E1
:102DD000FF3F804620D070B39DF80410002508E026
:102DE00023685A1C226019700135454523D201AB76
:102DF000595DA368013B002BA360F1DAA2699342FD
:102E000001DB0A29ECD12246304601F02DF9431CA2
:102E1000EAD102B0BDE8F081A38943F04003A38169
:102E200002B0BDE8F0817B1EFE2BC9D8F9B2804606
:102E30008DF80410D2E7384602B0BDE8F08100BF3B
:102E4000B2F90C3013F4005F0AD110B4546E43F49D
:102E5000005344F400545466938110BCFFF7A6BF9E
:102E6000FFF7A4BFF8B50C46224F064600F0B8FEA7
:102E7000BB685D6825F00305291B01F6EF7121F49D
:102E80007F6121F00F01A1F58054B4F5805F07DB6D
:102E90000021304601F092F8BB682B44984204D0E0
:102EA000304600F09FFE0020F8BD6142304601F040
:102EB00085F801300DD0104BBA6819682D1B45F00C
:102EC00001053046091B5560196000F08BFE01209A
:102ED000F8BD0021304601F071F8BA68831A0F2B53
:102EE000DEDD064C0449246843F00103001B5360F7
:102EF0000860D5E7980507207C0B0720A409072068
:102F0000002945D02DE9F0410D46804600F068FECD
:102F100055F8047C6A49A5F1080427F00103E2187A
:102F20008E685068B24220F0030062D0FE07506005
:102F30000BD455F8087C01F1080EE41BA5683B444E
:102F400075456FD0E768EF60BD6015186D68ED07D7
:102F500042D543F001026260E350B3F5007F18D21E
:102F6000DB0848689D100122013351F8337002FAE2
:102F700005F501EBC3022843083AE260A760486008
:102F800041F83340FC604046BDE8F04100F02ABE05
:102F900070475A0A042A53D89A0902F139077F0068
:102FA00002F1380501EB870051F8272008389042DC
:102FB00043494DD0516821F003018B4202D29268FF
:102FC0009042F7D1D068E060A2608460D46040464F
:102FD000BDE8F04100F006BE95683A4F0344BD429B
:102FE0003FD0D06843F00102E86085606260E35042
:102FF000B3E7FF07034407D455F8085C641BE26895
:10300000A0682B44C26090602F4A43F00100126810
:10301000606093428C60B6D32C4B40461968FFF732
:1030200021FFB0E711184968C90744D491680344E7
:10303000D26843F00100CA6091606060E350A2E78B
:10304000142A17D802F15C077F0002F15B05A9E79B
:10305000AA104B68012505FA02F213434B600246A1
:10306000B1E743F001024C610C61E560A56062606C
:10307000E35088E7542A06D81A0B02F16F077F0045
:1030800002F16E058EE7B2F5AA7F06D8DA0B02F1DF
:1030900078077F0002F1770584E740F254508242BE
:1030A00006D89A0C02F17D077F0002F17C0579E7D2
:1030B000FE277E2576E743F001026260E35062E777
:1030C00098050720A0050720A0090720780B0720F6
:1030D0009368002B00F0AB802DE9F04F8B8985B011
:1030E0000C4619070290164628D5226932B303F020
:1030F00002081FFA88F0356878B34FF00009C84617
:10310000DFF8D0A2B8F1000F00F08B80D045434625
:103110004A4628BF5346E1690298676AB8470028C3
:1031200040F3A580B36881441B1AC0EB0808B36064
:10313000002BE7D1002005B0BDE8F08F21460298B2
:10314000FFF76AFC002840F03C81A389356803F052
:1031500002081FFA88F00028CFD113F0010940F0CF
:1031600090804F460196002F56D09A05D4F80880DB
:103170005FD54745C246C0F0BF8013F4906F00F0A2
:10318000BD8062692068216902EB4208C1EB000A38
:1031900008EBD8780AF101004FEA68083844404546
:1031A000424684BF804642465B0540F1F2801146AC
:1031B000029800F0BFF98346002800F005815246CE
:1031C0002169FEF7A5FAA38923F4906343F08003F5
:1031D000A381CAEB08030BEB0A00C4F81480BA46BB
:1031E000B846C4F810B02060A3605246494600F0CB
:1031F00093FCA0682368C8EB0000A06038465344E5
:103200002360019A814493683F1A1B1A9360002B34
:1032100090D0A389002FA8D1D5F800906F68083509
:10322000A1E7D5F80090D5F8048008356AE70020BA
:10323000704720682369984203D86269974280F0FA
:103240008380B84528BFB8464946424600F064FC32
:10325000A3682268C8EB03034244A3602260002BEA
:1032600048D121460298FFF7EFFC002842D0B4F97C
:103270000C3043F040034FF0FF30A38105B0BDE8B0
:10328000F08F8046824681460190B9F1000F29D027
:10329000019B002B4BD0C845C34628BFCB462068B6
:1032A00023695F469842626903D9A36813449B452A
:1032B0005CDC934524DB1346676A5246E169029859
:1032C000B847071ED3DDB8EB070827D0B368BA4468
:1032D000DB1BC7EB0909B360002B3FF42BAFB9F13F
:1032E000000FD5D10023D5F800A0D5F804900193A4
:1032F0000835CAE7404684E7B846BA46206874E70E
:103300005A46514600F008FCA2682368CBEB020243
:103310005B44B8EB0708A2602360D7D1214602982E
:10332000FFF792FC0028A2D1CDF80480CEE74A46F0
:103330000A21504600F0AAFB00283DD001300123AD
:10334000CAEB00080193A6E76FF00043BB4228BF19
:103350003B4693FBF2F3E16902FB03F302984A4612
:10336000666AB04700283FF74CAF80E71A465146DF
:10337000039300F0D1FB2268039B21461A4422608C
:103380000298FFF761FC039B00287FF470AF1F4693
:1033900099E7029800F028FC834600287FF419AFD3
:1033A000029D21692846FFF7ABFDB4F90C300C22D1
:1033B00023F080032A605CE7012309F101080193EF
:1033C00069E74FF0FF30B6E6029A0C231360B4F9B8
:1033D0000C304EE700FCFF7F2DE9F84310F53876FE
:1033E0001ED0884607464FF000097568B468013D55
:1033F00010D4A389013D012B08D9B4F90E30013353
:1034000004D021463846C04749EA00096B1C04F144
:103410006804EED13668002EE7D14846BDE8F8834F
:10342000B1464846BDE8F883004870477405072058
:10343000014B1868704700BF9405072070B50E4611
:10344000B1F90E1090B0002914461D4614DB01AAF4
:1034500000F054FF00280FDB029A4FF4806302F45F
:103460007042A2F50052B2FA82F24FF400605209A3
:103470002A60236010B070BDB289002002F0800283
:1034800092B228601AB14023236010B070BD10467C
:103490004FF48063236010B070BD00BF8A890B4673
:1034A000920706D501F1430201211A601A615961A0
:1034B0007047F0B583B001AB6A460C460546FFF78E
:1034C000BDFF00990646284600F034F8B4F90C30E8
:1034D000D0B19DE80600124F43F08003EF63A38153
:1034E0002060206161611AB93343A38103B0F0BD4C
:1034F0002846B4F90E1000F015FFB4F90C3000287E
:10350000F2D043F00103EFE79A05EFD404F1430250
:1035100043F002030121A381226022616161E5E79A
:10352000752C0800024B0146186800F003B800BF74
:10353000700507202DE9F04F01F10B05162D83B022
:10354000064640F2A08035F0070500F1C080A94290
:1035500000F2BD8000F044FBB5F5FC7FC0F0908226
:103560006B0A00F0BB80042B00F27781A80900F100
:10357000390E4FEA4E013830BE4F07EB81014C68DF
:103580000839A14207D1AEE0002A80F2AE80E4689B
:10359000A14200F0A880636823F003035A1B0F2A9E
:1035A000F2DDB4493C6901F1080E744500F0A881D0
:1035B000636823F003035A1B0F2A00F38E81002A4D
:1035C000C1F814E0C1F810E080F29380B3F5007FF9
:1035D00080F05C81DB084A684FEAA3094FF0010CD8
:1035E000013351F833800CFA09F901EBC30C49EAB5
:1035F0000202ACF1080CC4F80CC0C4F808804A60A0
:1036000041F83340C8F80C40831001249C40944298
:103610007CD8144206D120F003006400144200F16B
:103620000400FAD007EBC009CC468046DCF80C1049
:103630008C4507D166E1002A80F27481C9688C4507
:1036400000F060814B6823F003035A1B0F2AF2DD60
:103650000C46CB6854F808CF45F00108C1F8048047
:103660000D4442F00101CCF80C303046C3F808C0DC
:103670007D613D61C5F80CE0C5F808E06960AA50BD
:1036800000F0B0FA1FE0102921D800F0A9FA1025A7
:1036900006230220774F07EB83035C68A3F108023F
:1036A000944200F038816368E16823F00303234407
:1036B0005A68A56842F00102E96030468D605A60A0
:1036C00000F090FA0834204603B0BDE8F08F0024E3
:1036D00020460C23336003B0BDE8F08F80214FF00B
:1036E000400E3F2048E770465BE723445A68E16894
:1036F000DFE723445A68304642F001025A6008343A
:1037000000F070FA204603B0BDE8F08FBC68636833
:1037100023F00308A84504D3C5EB08030F2B00F3DF
:103720008C80554BDFF860911A68D9F800302A4434
:10373000013304EB080A00F0608102F580520F3279
:1037400022F47F6222F00F0211463046019200F00F
:1037500035FCB0F1FF3F8346019A00F05881824565
:1037600000F2FC80454BDA4519681144196000F0FD
:103770005381D9F80000DFF810E101301BBFCAEB1C
:103780000B0A5144CEF800B019601BF0070100F09D
:103790001781C1F10800C1F58051834408315A44B2
:1037A000C2F30B02C2EB010949463046019300F017
:1037B00005FC431C019B00F03F81CBEB00024A4417
:1037C00042F001021968BC424944C7F808B01960C8
:1037D000CBF80420DFF8A49016D0B8F10F0F40F218
:1037E000FD806268A8F10C0323F0070302F00102D8
:1037F000E0184FF0050E1A430F2B6260C0F804E08A
:10380000C0F808E000F21C811D4BBC681A689142A8
:1038100088BF19601B4B1A689142626888BF1960A3
:1038200022F003029542A2EB050301D80F2B04DC22
:10383000304600F0D7F9002445E745F0010243F097
:103840000103254462603046BD6008346B6000F0BF
:10385000C9F9204603B0BDE8F08F142B71D9542B61
:1038600000F2A480280B00F16F0E4FEA4E016E307B
:1038700082E600BF98050720780B07207C0B072005
:10388000740B0720700B0720A40907205A0A042A8A
:103890005ED9142A00F2B38002F15C0149005B3268
:1038A00007EB810C57F82110ACF1080C8C45DFF8C0
:1038B000D88100F088804A6822F00302934202D245
:1038C00089688C45F7D1D1F80CC07A68C4F80CC06F
:1038D000A160CCF80840CC6096E645F0010742F0C4
:1038E00001032544676030464D610D61C5F80CE069
:1038F000C5F808E06B60AA50083400F073F9E2E6FE
:103900004A6881E608F1010818F0030F0CF1080C71
:103910007FF48CAE30E0DC68A34208BF02303FF495
:1039200040AEC0E60C460B445A68C96854F8085FBC
:1039300042F001025A603046E9608D6000F052F9B1
:10394000C1E603F15C0E03F15B004FEA4E0113E6A2
:103950009A0902F1390149003832A1E7BC424A4BC9
:103960003FF400AF9C68626822F003025AE759F8FE
:103970000839994540F0828010F0030F00F1FF30C4
:10398000F5D17B6823EA04037B6064009C423FF628
:10399000BDAE002C3FF4BAAE1C4240467FF442AEAE
:1039A00064001C4200F10400FAD03BE6B3F5AA7FA4
:1039B00018D8E80B00F1780E4FEA4E017730DBE5BE
:1039C0004FF48051EBE60121D8F80430921001FA4F
:1039D00002F21A43C8F80420614677E70123CBF8C6
:1039E000043025E740F25452934220D8A80C00F14D
:1039F0007D0E4FEA4E017C30BEE51032A4E6542A1B
:103A000026D81A0B02F16F0149006E3248E7BC68F4
:103A1000626822F0030205E7CAF30B0000287FF476
:103A2000A8AE4244BB6842F001025A60ECE6FE21B7
:103A30004FF07F0E7E209FE501224FF00009C1E686
:103A400004F108013046FFF75BFAD9F80010DBE615
:103A5000B2F5AA7F05D8DA0B02F178014900773276
:103A60001EE740F254518A4205D89A0C02F17D01BA
:103A700049007C3214E7FE217E2211E77B6884E74F
:103A8000E808431C5B0005E698050720830770B42F
:103A9000CDB23DD0531E02B30278AA421ED0421CC2
:103AA00004E0D3B10478013BAC4217D012F0030F0D
:103AB000104602F10102F4D1032B11D853B302785E
:103AC000AA420BD00344421C02E00178A94205D06F
:103AD0009342104602F10102F7D1002070BC7047FA
:103AE00004460E0206F47F462E4346EA0646226846
:103AF00020467240A2F1013121EA020212F0803F19
:103B000004F10404DBD1043B032B2046EFD8D5E7B6
:103B10001346D1E71846E1E78842F0B50DD98B1876
:103B200098420AD28118002A51D09A1A13F8014DEE
:103B3000934201F8014DF9D1F0BD0F2A48D941EA6D
:103B400000039B0746D1154600F1100401F1100354
:103B500053F8106C103D44F8106C53F80C6C0F2D9A
:103B600044F80C6C53F8086C04F1100444F8186C19
:103B700053F8046C03F1100344F8146CE8D8A2F174
:103B8000100323F00F0302F00F0E1033BEF1030FEA
:103B90001944034421D90E4674461D1F56F8047B70
:103BA000043C032C45F8047FF8D8AEF1040424F05B
:103BB000030404342344214402F0030262B1013BB4
:103BC0000A4411F8014B8A4203F8014FF9D1F0BDC4
:103BD0000346F3E70346F2E7F0BD7246EEE700BFA7
:103BE000704700BF704700BF2DE9F04F174683B004
:103BF000002900F08F800D46814607F10B04FFF786
:103C0000EFFF55F804EC162C2EF00306A5F108087A
:103C10003CD810221446A7423DD8964242DAC64B01
:103C200008EB060099688842416800F0D78021F0CF
:103C3000010303445B68DB074CD51EF0010F00F065
:103C40009D8039464846FFF775FC074600283AD064
:103C500055F8043CA0F1080223F0010343449A42C2
:103C600000F03E81321F242A00F22B81132A00F239
:103C7000FF8003462A4611681960516859609268AE
:103C80009A6029464846FFF73BF91CE024F00704F8
:103C9000002C2246BFDA0C230020C9F8003003B004
:103CA000BDE8F08F2F46331B0F2BD8F804201DD80A
:103CB00002F00102324308EB0601C8F804204B6809
:103CC00043F001034B604846FFF78CFF384603B0D2
:103CD000BDE8F08F21F003013144914220DBC3683D
:103CE00082682F46D3600E469A60DCE702F001023C
:103CF00008EB0401144343F00102C8F804400B44EC
:103D00004A605A68083142F001025A604846FFF79B
:103D1000F7F8D8E7114603B0BDE8F04FFFF70ABC4B
:103D20001EF0010F8DD155F8083CC3EB080ADAF8F4
:103D3000043023F0030C01EB0C0E964526DB5746AE
:103D4000C3688168321FCB60996057F8081FDAF8A2
:103D50000C30242ACB60996000F2C980132A40F20B
:103D600092802B681B2ACAF808306B68CAF80C309E
:103D700000F2CD8008350AF1100385E055F8083CC3
:103D8000C3EB080ADAF8043023F0030C06EB0C034B
:103D90009342FFF656AF5746DAF80C1057F8080F63
:103DA000321F242AC160886000F2AA80132A40F2E0
:103DB000A58029681B2ACAF808106968CAF80C107F
:103DC00000F2BC8008350AF1100229681E46116015
:103DD0006968D0465160AB68936064E721F0030BDB
:103DE00004F11000B344834557DA1EF0010F7FF44D
:103DF00028AF55F8081CC1EB080ADAF8041021F0C6
:103E0000030CE3445845C1DC5746DAF80C1057F868
:103E1000080F321F242AC160886000F2B180132A83
:103E200040F2A28029681B2ACAF808106968CAF8FB
:103E30000C1000F2AC8008350AF1100229681160FC
:103E400069685160A9689160C4EB0B020AEB040138
:103E500042F0010299604A60DAF80430484603F003
:103E600001031C43CAF80440FFF7BCFE38462EE7A6
:103E70002B681B2A03606B68436026D800F1080397
:103E800005F10802F7E63B462A6876461A606A683A
:103E9000D0465A60AA689A6005E7C4EB0B0B08EBA2
:103EA00004014BF0010299604A6055F8043C484611
:103EB00003F001031C4345F8044CFFF793FE28462A
:103EC00005E72946FFF728FEDBE6AB68242A836076
:103ED000EB68C36027D000F1100305F11002CAE6B9
:103EE00050F8043C2F4623F003031E44DBE629462A
:103EF00038467646D046FFF70FFED4E63A4664E7EA
:103F0000294638461E46D046FFF706FECBE6AB688C
:103F1000242ACAF81030EB68CAF814301AD01035C9
:103F20000AF11803B0E72A6900F118030261696910
:103F300005F1180241619EE698050720A968242A28
:103F4000CAF81010E968CAF814100FD010350AF139
:103F500018023AE72A690AF12003CAF818206A69A8
:103F60001835CAF81C208FE73A4667E729690AF135
:103F70002002CAF8181069691835CAF81C1024E71D
:103F8000294638460193FFF7C7FD019B5CE7A96806
:103F9000242ACAF81010E968CAF8141003D01035A2
:103FA0000AF118024AE729690AF12002CAF8181032
:103FB00069691835CAF81C1040E700BF38B5074CCE
:103FC0000023054608462360FDF7E0FA431C00D0B5
:103FD00038BD2368002BFBD02B6038BD080C0720B0
:103FE00010B50C46B1F90E1000F0C4F9002803DB3F
:103FF000236D0344236510BDA38923F48053A3815B
:1040000010BD00BF2DE9F0410C46B1F90C101F4660
:10401000CB051646054607D5B4F90E10022300223B
:1040200000F092F9B4F90C1021F48051A1813B46C3
:104030003246B4F90E102846BDE8F04100F0A2B8AF
:1040400010B50C46B1F90E1000F07EF9A389421CA0
:104050000EBF23F4805343F480532065A38110BD29
:10406000B1F90E1000F0F6B8F8B50E461446074642
:1040700010B1836B002B4AD0B4F90C20A36991B224
:104080000807A36038D52369002B35D08904F5B221
:1040900015D522686169D31A8B421CDA0133A168F5
:1040A000501C0139A1602060167062699A421AD0D2
:1040B000A389DB0701D50A2D15D02846F8BD616E0E
:1040C00042F4005221F40051A281226861666169C4
:1040D000D31A8B42E2DB21463846FEF7B5FD40B9E4
:1040E00022680123DBE721463846FEF7ADFD0028B4
:1040F000E3D04FF0FF30F8BD21463846FEF78CFC88
:104100000028F6D1B4F90C20236991B2BEE7FEF77E
:104110002FFEB1E72DE9F041054686B01E460C465C
:10412000A1B1104B1746D3F80080FFF77DF9009638
:1041300003463A4621462846C047431C03D1002285
:104140008A2332602B6006B0BDE8F081054B1F6802
:10415000FFF76AF900960346224603A92846B847A6
:10416000EBE700BFA809072021B1FF2A04D80A7095
:1041700001207047084670478A2303604FF0FF30E4
:10418000704700BF70B50D46084C114606461A46EA
:10419000284600232360FCF797FD431C00D070BD28
:1041A0002368002BFBD0336070BD00BF080C0720D4
:1041B0002DE9F047254C064625688846D5F8484144
:1041C00092469946C4B360681F2817DC411C76B13B
:1041D00004EB8003C3F888A0D4F888510122824000
:1041E0001543022EC4F88851C3F808911ED0831CD1
:1041F0006160002044F82380BDE8F087144B03B3CE
:104200004FF4C870FFF78EF90446D0B1D5F84831A5
:10421000002784E888003846C5F848410121C4F8E1
:104220008871C4F88C71002EE1D0D1E7D4F88C31BC
:104230001A43C4F88C21DAE705F5A674C5F848419D
:10424000C1E74FF0FF30BDE8F08700BF1C47080012
:104250002535080038B5074C00230546084623607D
:10426000FDF7AEF9431C00D038BD2368002BFBD00E
:104270002B6038BD080C072000293DD070B50546DD
:104280000C4608B1836B7BB3B4F90C300BB900203A
:1042900070BD21462846FEF733FCE36A064633B17B
:1042A000E169284698470028B8BF4FF0FF36A38938
:1042B0001B061CD4216B41B104F14003994202D08A
:1042C0002846FEF71DFE00232363616C21B12846BA
:1042D000FEF716FE00236364FEF750FD0023A38162
:1042E000FEF74EFD304670BDFEF742FDCCE721697A
:1042F0002846FEF705FEDDE70020704738B50B467F
:10430000074C05461146184600232360FDF75CF96B
:10431000431C00D038BD2368002BFBD02B6038BD78
:10432000080C072038B5074C0023054608462360D3
:10433000FDF750F9431C00D038BD2368002BFBD09B
:104340002B6038BD080C072070B50D46084C11468F
:1043500006461A46284600232360FDF73DF9431C14
:1043600000D070BD2368002BFBD0336070BD00BF50
:10437000080C072070B50D46084C114606461A4633
:10438000284600232360FBF7E3FE431C00D070BDEA
:104390002368002BFBD0336070BD00BF080C0720E2
:1043A00053B94AB9002908BF00281CBF4FF0FF319C
:1043B0004FF0FF3000F082B9ADF1080C6DE904CE8A
:1043C00000F006F8DDF804E0DDE9022304B07047F0
:1043D0002DE9F04F8C460C460546099E002B4FD127
:1043E0008A4217466BD9B2FA82FEBEF1000F0BD09B
:1043F000CEF1200520FA05F501FA0EF345EA030C8B
:1044000002FA0EF700FA0EF5390CBCFBF1F0BAB265
:1044100001FB10C300FB02F84FEA154C4CEA0344C1
:10442000A04509D9E41900F1FF3380F02881A045A7
:1044300040F2258102383C44C8EB0404B4FBF1F39C
:1044400001FB134C03FB02F2ACB244EA0C418A427A
:1044500009D9C91903F1FF3480F00F818A4240F273
:104460000C81023B39448A1A43EA00400021002EA5
:1044700063D022FA0EF2002386E80C00BDE8F08F2C
:104480008B4207D9002E56D0002186E8110008463D
:10449000BDE8F08FB3FA83F1002940F09380A34286
:1044A00002D3824200F2FE80851A64EB03039C462D
:1044B0000120002E41D086E82010BDE8F08F12B90F
:1044C0000127B7FBF2F7B7FA87FEBEF1000F36D12E
:1044D000E41B4FEA17481FFA87F90121B4FBF8F3F0
:1044E00008FB134409FB03F24FEA154C4CEA044461
:1044F000A24207D9E41903F1FF3002D2A24200F22E
:10450000D3800346A41AB4FBF8F008FB104809FB5B
:1045100000F9ACB244EA0842914507D9D21900F13A
:10452000FF3402D2914500F2BA802046C9EB020264
:1045300040EA03409BE731463046BDE8F08F07FA7A
:104540000EF7CEF1200C24FA0CF34FEA1748B3FB18
:10455000F8FA1FFA87F908FB1A3520FA0CFC04FA5E
:104560000EF40AFB09FB4CEA040C4FEA1C4242EA37
:1045700005439B4500FA0EF50AD9DB190AF1FF3213
:1045800080F08B809B4540F28880AAF1020A3B4470
:10459000CBEB0303B3FBF8F008FB103300FB09F48B
:1045A0001FFA8CFC4CEA03439C4207D9DB1900F14B
:1045B000FF326ED29C426CD902383B441C1B40EA4D
:1045C0000A418BE7C1F1200E8B4022FA0EFC4CEA27
:1045D000030C24FA0EF74FEA1C49B7FBF9FA1FFA4D
:1045E0008CF309FB1A7720FA0EF88C400AFB03F5CE
:1045F00048EA04044FEA144848EA0747BD4202FA71
:1046000001F200FA01FB09D917EB0C070AF1FF30A0
:1046100041D2BD423FD9AAF1020A67447F1BB7FBD2
:10462000F9F509FB157705FB03F3A4B244EA074744
:10463000BB4208D917EB0C0705F1FF3027D2BB426C
:1046400025D9023D674445EA0A40A0FB0289FF1ACA
:104650004F4545464C4614D329D066B3BBEB050302
:1046600067EB040707FA0EFECB40CF404EEA030388
:1046700086E888000021BDE8F08F2346F3E618465F
:10468000DAE6B8EB020569EB0C040138E5E705460C
:10469000D9E7104692E78246C0E7924678E70238AB
:1046A0003A4443E7084604E7023B3C442AE7C34553
:1046B000E7D33C46D1E73146BDE8F08F704700BFF5
:1046C00001000000020000000400000008000000DB
:1046D00010000000200000004000000080000000EA
:1046E000000100000002000000040000436F6E7330
:1046F0006F6C652072656164790A00003D3D3D3D47
:104700003D3D3D3D3D3D3D3D3D0A000068656A73D0
:10471000616E00000A00000043000000480107200D
:104720003031323334353637383961626364656627
:104730006768696A6B6C6D6E6F7071727374757691
:104740007778797A00000000303030303030303007
:10475000303030303030303030313233343536373D
:10476000383941424344454600000000303132337D
:10477000343536373839616263646566000000009D
:10478000286E756C6C29000020202020202020201D
:104790002020202020202020F8B500BFF8BC08BC35
:1047A0009E467047E12A080019010800F8B500BFCD
:0C47B000F8BC08BC9E467047F5000800ED
:0847BC0014FCFF7F0100000066
:1047C400BFF35F8F0138FBD1704700BF4FF48063A4
:1047D400204A136002F5007213601F4B1B6A13F02A
:1047E400807F07D11D4A1C4B1A621A46936E13F040
:1047F400010FFBD01A4A184B1A621A46936E13F42F
:10480400803FFBD0144A136B23F0030343F00103EE
:104814001363936E13F0080FFBD0124A0E4B9A6287
:104824001A46936E13F0020FFBD011220A4B1A633F
:104834001A46936E13F0080FFBD01222064B1A632C
:104844001A46936E13F0080FFBD0074A074B1A6001
:10485400704700BF000A0E4000060E4009083700EA
:1048640009083701013F0D2000BD01054001072063
:104874001B4B984206D800231A4A136002F50072B3
:1048840013607047184B984207D84FF48073154A49
:10489400136002F5007213607047144B984207D8F6
:1048A4004FF400730F4A136002F5007213607047EF
:1048B4000F4B984207D84FF440730A4A136002F52D
:1048C4000072136070470B4B984294BF4FF480639F
:1048D4004FF4A063034A136002F50072136070473B
:1048E400BFEA2101000A0E407FF0FA02FF8FD003D5
:1048F400FFB3C4047F4A5D05FFFFFFFF0100000012
:1049040000093D00000000000000000034040720FE
:104914009C0407200405072000000000000000009C
:104924000000000000000000000000000000000083
:10493400000000000000000000000000184708000C
:104944000000000000000000000000000000000063
:104954000000000000000000000000000000000053
:104964000000000000000000000000000000000043
:104974000000000000000000000000000000000033
:104984000000000000000000000000000000000023
:104994000000000000000000000000000000000013
:1049A4000000000000000000000000000000000003
:1049B40001000000000000000E33CDAB34126DE6A0
:1049C400ECDE05000B000000000000000000000009
:1049D40000000000000000000000000000000000D3
:1049E40000000000000000000000000000000000C3
:1049F40000000000000000000000000000000000B3
:104A040000000000000000000000000000000000A2
:104D34004801072041534349490000000000000096
:104D4400000000000000000000000000000000005F
:104D5400000000000100000000000000000000004E
:104D64009805072098050720A0050720A00507201F
:104D7400A8050720A8050720B0050720B0050720CF
:104D8400B8050720B8050720C0050720C00507207F
:104D9400C8050720C8050720D0050720D00507202F
:104DA400D8050720D8050720E0050720E0050720DF
:104DB400E8050720E8050720F0050720F00507208F
:104DC400F8050720F805072000060720000607203D
:104DD40008060720080607201006072010060720EB
:104DE400180607201806072020060720200607209B
:104DF400280607202806072030060720300607204B
:104E040038060720380607204006072040060720FA
:104E140048060720480607205006072050060720AA
:104E2400580607205806072060060720600607205A
:104E3400680607206806072070060720700607200A
:104E440078060720780607208006072080060720BA
:104E5400880607208806072090060720900607206A
:104E64009806072098060720A0060720A00607201A
:104E7400A8060720A8060720B0060720B0060720CA
:104E8400B8060720B8060720C0060720C00607207A
:104E9400C8060720C8060720D0060720D00607202A
:104EA400D8060720D8060720E0060720E0060720DA
:104EB400E8060720E8060720F0060720F00607208A
:104EC400F8060720F8060720000707200007072038
:104ED40008070720080707201007072010070720E6
:104EE4001807072018070720200707202007072096
:104EF4002807072028070720300707203007072046
:104F040038070720380707204007072040070720F5
:104F140048070720480707205007072050070720A5
:104F24005807072058070720600707206007072055
:104F34006807072068070720700707207007072005
:104F440078070720780707208007072080070720B5
:104F54008807072088070720900707209007072065
:104F64009807072098070720A0070720A007072015
:104F7400A8070720A8070720B0070720B0070720C5
:104F8400B8070720B8070720C0070720C007072075
:104F9400C8070720C8070720D0070720D007072025
:104FA400D8070720D8070720E0070720E0070720D5
:104FB400E8070720E8070720F0070720F007072085
:104FC400F8070720F8070720000807200008072033
:104FD40008080720080807201008072010080720E1
:104FE4001808072018080720200807202008072091
:104FF4002808072028080720300807203008072041
:1050040038080720380807204008072040080720F0
:1050140048080720480807205008072050080720A0
:105024005808072058080720600807206008072050
:105034006808072068080720700807207008072000
:1050440078080720780807208008072080080720B0
:105054008808072088080720900807209008072060
:105064009808072098080720A0080720A008072010
:10507400A8080720A8080720B0080720B0080720C0
:10508400B8080720B8080720C0080720C008072070
:10509400C8080720C8080720D0080720D008072020
:1050A400D8080720D8080720E0080720E0080720D0
:1050B400E8080720E8080720F0080720F008072080
:1050C400F8080720F808072000090720000907202E
:1050D40008090720080907201009072010090720DC
:1050E400180907201809072020090720200907208C
:1050F400280907202809072030090720300907203C
:1051040038090720380907204009072040090720EB
:10511400480907204809072050090720500907209B
:10512400580907205809072060090720600907204B
:1051340068090720680907207009072070090720FB
:1051440078090720780907208009072080090720AB
:10515400880907208809072090090720900907205B
:0C51640000000200FFFFFFFF694108008F
:04000003800013C5A1
:00000001FF
