S01000004672656552544F532E737265634A
S21408000048CE0720F1350800ED350800ED35080024
S214080010ED350800ED350800ED3508000000000055
S214080020000000000000000000000000591808004A
S214080030ED35080000000000D51808001119080062
S214080040ED350800ED350800ED350800ED350800FB
S214080050ED350800ED350800ED350800ED350800EB
S214080060ED350800ED350800000000005D34080096
S2140800707134080085340800993408000000000030
S21408008000000000E9010800ED350800ED3508001D
S214080090ED350800ED350800ED350800ED350800AB
S2140800A0ED35080000000000ED350800ED350800C5
S2140800B0ED350800ED35080005170800ED35080091
S2140800C0ED350800ED350800ED350800ED3508007B
S2140800D0ED350800ED350800ED350800ED3508006B
S2140800E0ED350800ED350800ED350800ED3508005B
S2140800F0ED35080010B5054C237833B9044B13B119
S2140801000448AFF300800123237010BDE0090720E0
S214080110000000006C860800084B10B51BB10849A3
S2140801200848AFF300800848036803B910BD074BBA
S214080130002BFBD0BDE81040184700BF00000000A9
S214080140E40907206C8608006C860800000000009A
S21408015090B92DE9F0410C469046002A0FDD8F181D
S214080160084E094D306821462B6898470134A74247
S214080170F8D14046BDE8F0814FF0FF3070470020C8
S214080180BDE8F0812CAE072080AD07200B699342AE
S21408019007D30B68CA6000EB4310C0F8082200209B
S2140801A070474FF6FF70704710B489014318022451
S2140801B044504FF0FF319962196A5A6010BC704774
S2140801C0C0F8C410704700BF890105234350704724
S2140801D0890102234350704700EB81110869704774
S2140801E000EB8111086A704700B583B001220DF153
S2140801F007011048104B984772B6BFF35F8F00226E
S2140802000E4B1A700E4B1B789DF807100D4AD154EA
S2140802109B2B03D100220A4B1A7002E00133084ACE
S21408022013700122054B1A70BFF35F8F62B603B0D6
S2140802305DF804FB00800940612F08006401072070
S214080240980A0720FC09072070B5B0F5487F06D342
S21408025040F698030246984228BF1A4601E04FF433
S2140802604872B1F5487F06D340F69803994228BFEE
S21408027019460C4601E04FF44874054E05493046C9
S214080280054DA847224605493046A84770BD00BF19
S2140802900040094084AD07208D010800ACAD07205A
S2140802A038B5064D40F2DC5205492846054CA047AD
S2140802B040F2DC5204492846A04738BD00400940B1
S2140802C084AD07208D010800ACAD072008B50648A8
S2140802D0064B98477322064B1A70064B00225A8024
S2140802E09A801A8008BD00BF587D0800314F080064
S2140802F0D4AD0720DCAD07202DE970431C4E1D4BFE
S2140803001868B0471C4D16A3D3E90023A8471B4C12
S21408031000221B4BA047804689461A4B1868B047F0
S21408032011A3D3E90023A8470022154BA04702468D
S2140803300B4640464946144CA047144B9847144A67
S21408034080FB0223C218C317C3EBE22340F6A612AB
S21408035002FB1303002BB8BF9B1898B2BDE8708346
S2140803600000000000607E400000000000887E401C
S21408037005430800D8AD0720D143080025460800E5
S21408038000006240F0AD07206940080031490800C7
S214080390412943D4000000002DE9F8430C466422A6
S2140803A02F4B1A702F498842B8BF0846B0F5967F7B
S2140803B0A8BF4FF496702C4B18802C4B188058808A
S2140803C0988080EAE072A2EBE072294B294931EA6C
S2140803D0200128BF19462848284B984724B90022E8
S2140803E0274B1A70BDE8F8830122254B1A709440F3
S2140803F0244F254B1868B847244E15A3D3E9002385
S214080400B047234D0022234BA84780468946224BF7
S2140804101868B84710A3D3E90023B04700221D4B3D
S214080420A84702460B46404649461C4DA8471C4B63
S214080430984720441B4B186084EAE471A1EBE471EA
S21408044019480E4B9847BDE8F88300BFAFF3008005
S2140804500000000000607E400000000000887E402B
S214080460D4AD0720D4FEFFFF9A0A0720DCAD07208C
S214080470747D0800687D0800807D0800E54C08004B
S2140804809C0A072005430800D8AD0720D14308007A
S2140804902546080000006240F0AD07206D400800C1
S2140804A031490800A00A0720A07D080008B5732275
S2140804B0034B1A700022034B1A70034B984708BD6B
S2140804C0D4AD07209C0A0720A102080000000000FF
S2140804D02DE9704F4A4B1B78722B32D0732B00F0E5
S2140804E08580642B3ED1474C474B1868A047824608
S2140804F08B46464B1868A047454E3DA3D3E90023D4
S214080500B047444D0022444BA84780468946434B93
S2140805101868A04738A3D3E90023B04700223E4B0B
S214080520A84702460B46404649463D4CA047024669
S2140805300B46504659463B4CA0473B4B984704460B
S21408054011E03A4B98473A4B1C88041B40F2D343B9
S2140805509C42C8BFA4F6A614364B9C4203DA04F69F
S214080560A61400E0002421463348344B9847244B11
S2140805701B78642B31D1E31D0E2B05D8304B9847DA
S2140805800024304B1C802BE0002C11DD2E4B83FB07
S2140805900423E417C4EB231404EB84046400323405
S2140805A024B22A4BB3F900309C42A8BF1C4617E079
S2140805B0002C14DA244B83FB0423E417C4EB23141F
S2140805C004EB84046400323C24B2204BB3F90030B8
S2140805D09C4205DA5B421CB202E0002400E00024DC
S2140805E021461B48154B9847164B1C80BDE8708F54
S2140805F00000000000607E400000000000887E408A
S214080600D4AD072005430800A00A0720D8AD072068
S214080610D14308002546080000006240F0AD0720D8
S2140806206D4008006940080031490800F9020800D2
S214080630A40A07202DFBFFFFEC7D0800E54C080008
S214080640AD040800DCAD07201F85EB519A0A072089
S214080650047E080008B5124B1B78722B0FD0732B3C
S2140806601AD0642B1AD10F4B998801F2DC5158889E
S21408067000F2DC5089B280B20B4B984708BD094B94
S2140806809988C1F5BB610431588800F2DC5089B2FC
S21408069080B2054B984708BD044B984708BD00BF75
S2140806A0D4AD0720DCAD072049020800A1020800E7
S2140806B008B50848084B9847084B1B780BB1084BF9
S2140806C098470020074B9847074B98470748024B20
S2140806D0984708BD187E0800E54C08009C0A0720C5
S2140806E0D1040800F106080055060800287E080010
S2140806F02DE9F04F85B0734D734C2868A047734BAF
S214080700C3E90001724E3068A047724BC3E9000186
S214080710714B19787148724CA0473268296871483D
S214080720A047714C04F148055034704B0A22013A30
S21408073075E9020164E90201D3E91001C3E912016F
S214080740083B012AF3D1614BD3E90089DFF898B159
S214080750CBE900895F4BD3E90067DFF890A1CAE9C7
S2140807600067634C634BD3E900236349D1E9000172
S214080770A047CDE90001614DDBE902234046494622
S214080780A8475F4BD3E90023A04700225D4BA0474C
S214080790DFF8A891DDE90023C847DFF8A481CDE992
S2140807A002010A460146C8E90012DAE90223304681
S2140807B03946A847544BD3E90023A0470022514B9B
S2140807C0A047DDE90023C847DFF87891C9E90001AA
S2140807D000224C4BA0474D4EB04707460022494BD7
S2140807E0DDE90201A047B0473A46014648483C4F73
S2140807F0B847D9E90023D8E90001A847DFF84881B7
S214080800C8E9000100223F4BA047B04701464148CF
S214080810B847D8E900234049D1E90001A047DFF8E6
S2140808202C81C8E900010022364BA047B047014694
S2140808303A48B8473A4C3B4BD3E90023D8E900017D
S214080840A047394BD3E90023A04780468946374B53
S214080850C3E90089DFF8F8A002460B46DAE900018A
S214080860A847CDE9020102460B46CAE90023304DE7
S214080870D5E9002340464946A04780468946C5E94B
S21408088000892C4DB5F900000F4B98470A460146DB
S214080890CDE9001213460246DDE90201A047B0473B
S2140808A00FFA80FAA5F802A0DDE90023404649467B
S2140808B0A047B04702B2AA8051461F48B84705B0BD
S2140808C0BDE8F08FD8AD072005430800700B072059
S2140808D0F0AD0720600B0720D4AD07203C7E08004B
S2140808E0E54C0800507E0800100B0720C00A0720B9
S2140808F0D143080030010720480107206940080056
S2140809005001072000408F40400107203149080069
S214080910747E0800887E080038010720987E080044
S2140809206D400800A80A0720B80A072008AE072066
S214080930F8AD0720DCAD0720A47E08002546080091
S214080940800B0720780B0720680B0720B00A0720C3
S21408095000AE07202DE9F84F90461F46104E401A65
S214080960B04782468B46C7EB0800B04706460F4698
S2140809700C4D0D4C32463B4630463946A84706468F
S2140809800F4652465B4650465946A84702460B460F
S21408099030463946A047054B9847BDE8F88F00BF54
S2140809A005430800D14308006D4008001D3E0800B6
S2140809B02DE9F04784B0C3EB0208C1EB0009964C5A
S2140809C0A04704460D46954F4846B847944E2246DB
S2140809D02B46B047CDE900014046B84722462B468D
S2140809E0B04704460D46002200238E4EB047002826
S2140809F000F0F08000220023DDE90001DFF844A2C1
S214080A00D047002840F0C780DBE000220023DDE95D
S214080A100001DFF810A2D047002840F0BF8000226F
S214080A20002320462946D047D8B100220023DDE916
S214080A300001DFF80CA2D047002840F0B280002260
S214080A40002320462946DFF8F8A1D04748B10022FF
S214080A500023DDE90001DFF8CCA1D047002840F0EC
S214080A60A380DFF8B8A188EAE870A0EBE870D04762
S214080A70CDE9020189EAE970A0EBE970D0470246A1
S214080A800B46DDE90201DFF89881C04780468946B3
S214080A900022002320462946DFF8A8A1D04798B1AF
S214080AA000220023DDE90001D047A8B140464946A8
S214080AB05D4B984700225D4B5D4CA04752A3D3E997
S214080AC00023574CA0479BE00022002320462946D7
S214080AD0DFF870A1D047C8B100220023DDE9000185
S214080AE0DFF85CA1D04788B1404649464E4B984748
S214080AF000224E4B4E4CA04743A3D3E90023484C54
S214080B00A04700224B4B4C4CA04779E0002200231C
S214080B1020462946DFF828A1D047D0B10022002376
S214080B20DDE90001D047D8B1404649463E4B9847D4
S214080B3000223E4B3E4CA04733A3D3E90023384C53
S214080B40A04702460B4632A1D1E900013B4CA0471C
S214080B5056E00022002320462946394CA04738B3E1
S214080B6000220023DDE90001364CA04718B34046B2
S214080B7049462D4B984700222C4B2D4CA04722A3C4
S214080B80D3E90023264CA04702460B4600202E49F0
S214080B902A4CA04734E00020002131E000202549F7
S214080BA02EE0002021492BE019A1D1E9000127E019
S214080BB00020002124E00020002121E000201D491B
S214080BC01EE00022002320462946DFF878A0D047FA
S214080BD058B92AE70022002320462946DFF864A0F1
S214080BE0D04700287FF411AF29E700220023DDE96B
S214080BF00001DFF830A0D04700283FF416AFDDE745
S214080C0004B0BDE8F08700BFF1D4C853FB21094003
S214080C100000000000E07040550908000543080081
S214080C2025460800A1480800D93A08000080664012
S214080C30D1430800008056406D400800694008000F
S214080C40B5480800F1480800008076402DE9F843CA
S214080C501A4CA0470746894600220023DDE908010A
S214080C60174CA04710B13C464D4601E000242546E7
S214080C70DDE9082338464946124EB04740B1DDE95B
S214080C80082338464946104CA04704460D4610E04F
S214080C90DDE9082338464946DFF83080C04740B1CA
S214080CA03A464B46DDE90801074CA047044601F1E1
S214080CB0004520462946BDE8F88300BFB10908006C
S214080CC0A1480800F148080069400800B54808002F
S214080CD010B50022064B074CA04703A3D3E9002310
S214080CE0054CA04710BD00BFF1D4C853FB210940EE
S214080CF000806640D143080025460800F0B583B05A
S214080D001248134B98470122124B1A60124D134C87
S214080D101E46A84701902378732B04D10020306024
S214080D200F4B9847F5E73368002BF2D00D4B196840
S214080D304A1C1A600C48064FB8470C4B98470C4894
S214080D40B847642101A80B4B9847E2E7B87E08002D
S214080D50E54C0800E8AD0720BD230800D4AD072001
S214080D6001280800ECAD0720CC7E0800B106080074
S214080D7044830800012608002DE9F04383B002A941
S214080D8041F8040D2348244CA04701992348A0475E
S214080D9001992348A047019904312248A047019B9E
S214080DA019682148A047019B59682048A047204D4C
S214080DB00226B0461F4F204CC5F83080B84700239F
S214080DC01A4619461D480068A04701280AD11C483B
S214080DD0DFF84490C847019B5B681868194B98472A
S214080DE01948C84700231A46194618480068A047F5
S214080DF001280AD11648DFF82090C847019B1B68CF
S214080E001868104B98471048C8476E630520114B62
S214080E109847D1E7D47E0800E54C0800F87E08001D
S214080E201C7F0800507F0800847F0800B47F0800F5
S214080E3000120E40BD230800811E080018AE0720C9
S214080E40EC810800BD220800E47F080014AE0720E5
S214080E50E87F0800912608002DE9F04F9FB0A648C5
S214080E60A64B9847DFF894B20120A54B9847A248AE
S214080E70D847A44B9847A44F07AC3D460FCD0FC4A0
S214080E8095E8070084E8070007F11C040EAE4C3707
S214080E90354620686168A268E3680FC510342E4698
S214080EA0BC42F5D120686168A26807C6A289A37B00
S214080EB03280B37006AD0EAC0DF1770A934F944EA0
S214080EC055F8040FB847B047804689462046D847A5
S214080ED0404649468F4B98478F4B98478F4B9847C5
S214080EE00934A245ECD105230222114610468C4E41
S214080EF0B04704460D468B48D847864F20462946B5
S214080F00B847854DA847854CA04702231A460421B2
S214080F101846B047804689468348D84740464946DB
S214080F20B847A847A04702231A4619461846B047A6
S214080F30804689467D48D84740464946B847A84728
S214080F40A04702231A460A211846B0478046894613
S214080F507748D84740464946B847A847A047022397
S214080F601A4601211846734EB047B847A847A04707
S214080F700123022219461046B047B847A847A0479B
S214080F800123052202210846B047B847A847A047CC
S214080F900123022200211046B047B847A847A047B9
S214080FA002231A4604211846B047B847A847A04760
S214080FB00123022203211046B047B847A847A04796
S214080FC00123052202210846B047B847A847A0478C
S214080FD00023022206211046B047B847A847A04774
S214080FE00323022204211046B047B847A847A04763
S214080FF00523022211461046B047B847A847A0471F
S2140810000523012203210220B047B847A847A04776
S2140810100523022219461046B047B847A847A047F6
S2140810200323012211460220B047B847A847A04725
S2140810300523022211461046B047B847A847A047DE
S2140810400623012200210220B047B847A847A04738
S2140810500723062202210820B047B847A847A0471A
S2140810603548D84700220023CDE9002302231A4634
S21408107004211846DFF8D890C847B8478046DFF8F6
S214081080D4A00021D04703902C48D8470020A0477A
S2140810902B48D84702231A4604211846B047B847B3
S2140810A0A847A0472748D8474046A847A047264805
S2140810B0D8472648D847DFF854800398C047CDE974
S2140810C000010123022219461046C847B847059072
S2140810D001460398D04704901848D8470398A8476D
S2140810E0A0471748D8470123022219461046B0479A
S2140810F0B847A847A0472FE04C800800E54C0800F2
S21408110091260800BD230800F07F08002943080040
S214081110D10C0800814908003D4C080069150800F4
S214081120550908005080080090800800D080080004
S21408113010810800B1090800508108007481080071
S2140811408481080094810800A8810800CC810800E2
S2140811504D0C08002D4A08004548D8470598A8476A
S214081160A0474448D8474448D8470498C047CDE9DC
S214081170000102231A4601211846C847B8470590B9
S21408118001460498D04703903C48D8470498A84797
S214081190A0473B48D84702231A4601211846B047BD
S2140811A0B847A847A0473248D8470598A847A04751
S2140811B03048D8473348D8470398C047CDE9000198
S2140811C00523022219461046C847B8470490014628
S2140811D00398D04782462948D8470398A847A04787
S2140811E02748D8470523022219461046B047B8476D
S2140811F0A847A0471E48D8470498A847A0471D48B0
S214081200D8472048D8475046C047CDE900010523AF
S214081210022219461046C847804689461748D847C6
S2140812205046A847A0471648D8470523022219461D
S2140812301046B047B847A847A0470D48D847404685
S2140812404946B847A847A0470A48D8474FF4004237
S2140812500D4B5A630D48D84700231A4619460C48C2
S21408126000680C4CA04700200B4B9847FCE500BFD5
S21408127094810800A8810800F0810800748108009D
S2140812808481080014820800000E0E403882080088
S21408129018AE0720D11C0800012808002DE9F04FD9
S2140812A083B0294C2046294DA8470120284B98474B
S2140812B02046A847274B9847002401944FF08062A1
S2140812C0254B1A63254B98474FF47A71C820244B50
S2140812D09847C8212348A847234B1C60234B1C600B
S2140812E0DFF898A04FF4FA6949465046174DA847C4
S2140812F04846DFF85C80C047174E4FF08067776334
S2140813001B48A8472346224621461A480068DFF8A5
S21408131070B0D8472046184B98470120C0470A485F
S214081320A8470C4B9847019437630C4B98474FF4E3
S2140813307A71C8200A4B9847C8210A48A8470A4B1A
S2140813401C600A4B1C60CFE740820800E54C08008A
S21408135091260800BD23080000100E4085130800DB
S2140813609903080044820800ECAD0720E8AD072082
S2140813705C82080014AE0720012808005082080086
S214081380D11C0800014B1868704700BF880B07205F
S214081390F0B583B004460D46002301931F4B9842D0
S2140813A007D11F461E4E29463846B0470028FAD1B0
S2140813B019E01C4B984209D11F461B4E01A9384616
S2140813C0B0470028FAD1019B2B7019E0174B9842BA
S2140813D009D11E46144C01A93046A0470028FAD168
S2140813E0019B2B7018E0124B9C4209D11E460E4CEE
S2140813F001A93046A0470028FAD1019B2B700BE0C4
S2140814000C4B9C4208D11E46074C01A93046A04703
S2140814100028FAD1019B2B7003B0F0BD00080E40DF
S2140814206D300800008009407117080000C00940A8
S21408143000000A4000400A4070B50C461E4B984211
S21408144008D11E461D4D21463046A8470028FAD129
S214081450012070BD1A4B984208D11E46194D2146E8
S2140814603046A8470028FAD1012070BD164B98428E
S21408147008D11E46134D21463046A8470028FAD103
S214081480012070BD114B984208D11E460D4D2146CD
S2140814903046A8470028FAD1012070BD0C4B984268
S2140814A008D11E46074D21463046A8470028FAD1DF
S2140814B0012070BD002070BD00080E405D30080099
S2140814C0008009405D17080000C0094000000A4077
S2140814D000400A4030B585B00820154DA847154C81
S2140814E0154B1C60154A164B1A60164A164B1A609E
S2140814F0164B01934FF4E13302934FF400630393C2
S2140815000820A84701A92046114B9847114D2B687B
S21408151000219868104CA0472B6800215868A047FF
S2140815200E480F4CA0470F48A04705B030BD00BF77
S2140815309935080000080E402CAE0720391408001C
S21408154028AE07209113080080AD072000BD0105CE
S21408155025300800A0050720414F080064820800CF
S214081560E54C08007482080000B58BB00A2201A971
S214081570034B984701A8034B98470BB05DF804FB4C
S2140815803D4D0800314F080010B51B20084B984702
S214081590084C002211462046074B98470021204653
S2140815A0064B984700212046054B9847002010BD5B
S2140815B09935080000000840A9010800C101080084
S2140815C0D1010800F8B5044600210948094B984798
S2140815D02A2303FB04F4064F0026074D31463846F7
S2140815E0A847A042FAD300210148044B9847F8BD03
S2140815F000000840C9010800D9010800D101080008
S2140816002DE9F8430E4E4FF400477763DFF84C8019
S2140816104FF00069C8F830900A4D2B6801332B60EC
S21408162009480A4CA0470A48A0470A48A04729681C
S2140816300948A047C8F834903763BDE8F88300BF68
S214081640000E0E4024AE072084820800E54C0800F1
S2140816508C820800A0820800B482080000100E40A1
S21408166070B582B01A481B4DA84700261A4B1E6054
S2140816700C201A4B98471A4C32464FF480412046A5
S214081680184B98471848A847184B009350234FF410
S21408169080420C212046164EB0474FF48041204623
S2140816A0144B9847144B4FF480521A604FF400625C
S2140816B01A604FF000662661C4F8A0600F48A84775
S2140816C066630F48A8474FF48043636302B070BD53
S2140816D0BC820800E54C080024AE072099350800AF
S2140816E000100E4095310800DC820800011608003C
S2140816F0F13308002132080000E100E0FC8208000F
S2140817001883080000B583B04FF400120C4B1A6318
S2140817100C4B1B68102B02D100220A4B1A600021C2
S21408172009480A4B98470190019B064A13680133FB
S21408173013604FF40012024B5A6303B05DF804FBC3
S21408174000100E408C0B072000400840E1010800FE
S214081750014B0360704700BF01474E52436913F0C0
S214081760020F1DBFC1F30801C161002001207047A8
S214081770436913F0010F05D08369C3F308030B60B0
S214081780002070470120704700F1080343604FF0BF
S214081790FF328260C360036100230360704700BFA6
S2140817A000230361704700BF43685A684A6042686E
S2140817B08A605A689160596041600861036801331D
S2140817C00360704710B40C68B4F1FF3F01D1036999
S2140817D00AE000F10803C2681268944204D35B6802
S2140817E05A6812689442FAD25A684A6091608B60C6
S2140817F05960086103680133036010BC704700BF76
S214081800436882689A60836842685A6003695A68BF
S214081810904204BF82685A60002202611A68013A40
S2140818201A601868704700BF03480068006880F3AD
S214081830088862B600DF00BF08ED00E04FF080734E
S21408184040F8043C40F8081C002340F80C3C40F8DC
S214081850202C4038704700BF064B19680868B0E867
S214081860F00F80F309884FF0000080F311884EF0DF
S2140818700D0E704754AC07204FF08052014B1A608B
S214081880704700BF04ED00E0EFF311804FF0A001B1
S21408189081F311887047002008B5034B9847034A20
S2140818A013680133136008BD89180800580107201B
S2140818B080F31188704700BF08B5044A1368013BD7
S2140818C0136013B90020024B984708BD580107203B
S2140818D0B1180800EFF309800C4B1A6820E9F00FDE
S2140818E010602DE908404FF0A00080F3118800F042
S2140818F035FF4FF0000080F31188BDE808401968EE
S2140819000868B0E8F00F80F30988704754AC0720E1
S21408191008B54FF08052054B1A60054B9847054BA3
S21408192098470020044B984708BD00BF04ED00E028
S21408193089180800DD230800B1180800034A044B7C
S2140819401A600722043B1A60704700BF1F48010050
S21408195014E000E010B5094B1A6842F470021A60E9
S2140819601A6842F070421A60054B98470024054BE7
S2140819701C60054B9847204610BD00BF20ED00E0D0
S2140819803D1908005801072029180800124A00E0E7
S2140819901A4613688342FBD310B451685418A04201
S2140819A003D1406801445160104641684418A34278
S2140819B00CD10A4B1B689C4206D0636819444160E8
S2140819C013681B68036002E0046000E0036090424E
S2140819D018BF106010BC704794AB072090AB072068
S2140819E038B50446294B9847294B1B689BB9294AA2
S2140819F0294B13600021516049F6F0729818244D5F
S214081A00286049F6F475595199505A601860234A67
S214081A101368103B1360002C2ED004F1100212F04D
S214081A20070F1CBF22F007020832511E49F6FE7344
S214081A30994223D817490C6801E021461C4663687A
S214081A409A4202D92368002BF7D1114B1B689C4297
S214081A5016D00D68103523680B6063689B1A202B18
S214081A6004D9A018436062600D4B98470B4A136868
S214081A7061685B1A136004E0002502E0002500E0B8
S214081A800025084B9847284638BD00BFAD230800F8
S214081A9090AB072094AB0720900B07205C0107202B
S214081AA08D190800FD24080080B110B50446084BBF
S214081AB09847084A54F80C1C13680B441360A4F1A2
S214081AC01000054B9847054B984710BD704700BF58
S214081AD0AD2308005C0107208D190800FD240800C6
S214081AE010B50446036C3BB903681BBB4068134B30
S214081AF09847002363601DE06AB91A468068104B51
S214081B009847A268236C1344A3606268934211D373
S214081B102368A3600EE01A46C068094B9847236CF2
S214081B205B42E2681A44E26021688A4202D262682E
S214081B301344E360A36B0133A36310BD552B080061
S214081B40414D080038B50346006858B11A6CDC6881
S214081B501444DC605D68AC4228BFD8600846D96883
S214081B60014B984738BD00BF414D0800F8B50446FC
S214081B701E4B9847A36C002B13DD636A1BB910E055
S214081B80636A23B90DE004F12406194D194F30464F
S214081B90A84700B1B847A36C013BA364A36C002B0D
S214081BA0EEDC4FF0FF33A364134B98470F4B984770
S214081BB0636C002B13DD23691BB910E0236923B976
S214081BC00DE004F110060A4D0A4F3046A84700B14A
S214081BD0B847636C013B6364636C002BEEDC4FF024
S214081BE0FF336364044B9847F8BD00BF9918080094
S214081BF06D2908009D2A0800B918080038B518B9D4
S214081C00174B984700BFFDE70D460446154B984707
S214081C102268216CE36B03FB01F3D0186060002098
S214081C20A063A2605B1A1344E3604FF0FF3363645B
S214081C30A36455B923697BB104F110000A4B984791
S214081C40012809D1094B984706E004F11000084D11
S214081C50A84704F12400A847064B9847012038BD3A
S214081C6089180800991808006D29080079180800CE
S214081C7089170800B9180800F8B5A0B10D46174628
S214081C80064650200E4B9847044660B105FB06F002
S214081C9001300B4B9847206040B92046094B9847BF
S214081CA001E000BFFDE7084B9847FAE7E6632564BE
S214081CB001212046054B984784F84D702046F8BD0C
S214081CC0E1190800A91A080089180800FD1B080071
S214081CD02DE9F04F85B00192009318B9384B984714
S214081CE000BFFDE78A46044629B9036C2BB1344B7E
S214081CF0984700BFFDE7002700E00027314EDFF8D1
S214081D00ECB0314DB047A26BE36B9A4212D2009A00
S214081D10514620462D4B9847636A3BB104F1240090
S214081D202B4B9847012801D12A4B9847264B9847B2
S214081D30012042E0019B1BB9234B984700203CE05A
S214081D4017B902A8D8470127A847234B9847B04792
S214081D50636CB3F1FF3F04BF00236364A36CB3F165
S214081D60FF3F04BF0023A364A84701A902A81B4B92
S214081D709847E0B9B047D4F83890D4F83C80A847DC
S214081D80C1450ED1019904F11000154B984720461D
S214081D90144B9847144B98470028B3D10D4B9847D7
S214081DA0B0E720460F4B98470F4B9847AAE72046C0
S214081DB00C4B98470C4B9847002005B0BDE8F08FB1
S214081DC08918080099180800B9180800E11A0800C8
S214081DD06D29080079180800AD230800192A08009C
S214081DE0C92808006D1B0800FD240800F129080012
S214081DF02DE9F04118B91E4B984700BFFDE70E467F
S214081E0015469846044629B9036C1BB1184B9847E3
S214081E1000BFFDE7164B98470746A26BE36B9A424E
S214081E2018D2424631462046124B9847A36CB3F167
S214081E30FF3F0AD1636A7BB104F124000E4B984732
S214081E4060B16DB101242C600BE0A36C0133A36470
S214081E50012406E0002404E0012402E0012400E056
S214081E6001243846054B98472046BDE8F08100BF58
S214081E7089180800E11A08006D290800B11808003A
S214081E802DE9F04F85B0019218B9464B984700BF28
S214081E90FDE789469A46044629B9036C2BB1414B9F
S214081EA0984700BFFDE7002700E000273E4EDFF812
S214081EB028B13E4DB047A36B43B3E5684946204674
S214081EC03B4B9847BAF1000F12D1A36B013BA363B3
S214081ED0236813B9374B98476060236993B104F1B8
S214081EE01000354B984701280CD1344B984709E029
S214081EF0E560636A33B104F124002F4B984708B1B4
S214081F002E4B9847294B9847012048E0019B1BB960
S214081F10264B9847002042E017B902A8D847012761
S214081F20A847274B9847B047636CB3F1FF3F04BFF9
S214081F3000236364A36CB3F1FF3F04BF0023A364CC
S214081F40A84701A902A81F4B984710BBB047D4F86A
S214081F503880A847B8F1000F15D1236823B9B047D1
S214081F606068194B9847A847019904F12400174B55
S214081F7098472046164B9847164B9847002899D1FD
S214081F800E4B984796E72046114B9847114B9847B3
S214081F9090E720460E4B98470E4B9847002005B012
S214081FA0BDE8F08F8918080099180800B9180800C5
S214081FB0451B0800A92A08006D290800791808009A
S214081FC0AD230800192A0800D52A0800C9280800E1
S214081FD06D1B0800FD240800F129080038B50446E2
S214081FE00D460D4B9847636CB3F1FF3F04BF0023C3
S214081FF06364A36CB3F1FF3F04BF0023A364074BDD
S2140820009847A36B23B9294604F12400044B984744
S2140820102046044B984738BD99180800B918080098
S214082020292908006D1B080010B50F4B1B6858605F
S2140820300E4B1B68984207D20D4B18680A4B196856
S21408204004310C4B984710BD04460B4B1868064BDA
S21408205019680431074B9847084B1B689C423CBFDD
S214082060064B1C6010BD00BF54AC072070AC0720A0
S21408207074AC0720C5170800B0AB0720600107201E
S2140820802DE9F04F83B00C9FDDF834800E9E01904A
S21408209018B9624B984700BFFDE7894615469B4628
S2140820A0042F03D95D4B984700BFFDE74C205C4BD7
S2140820B098470446002800F0AB80002E40F0A58024
S2140820C0A800574B9847206318B92046554B9847A1
S2140820D09EE0AA00A521544B984705F18045013D8E
S2140820E0236B03EB850323F007050A22494604F110
S2140820F034004E4B9847002384F83D303E46042F64
S21408210028BF0426E662A66404F104094846DFF8F8
S2140821106CA1D04704F11800D0472461C6F1050623
S214082120A66164625A4601992846414B9847206042
S21408213010F0070F03D0394B984700BFFDE7B8F1FA
S214082140000F01D0C8F800403A4B98473A4A13683F
S21408215001331360394B1B680BBB384B1C60136884
S214082160012B26D1364D05F16408364E2846B04771
S21408217014354545FAD1DFF808814046314DA84761
S214082180314E3046A8473148A8473148A847314815
S214082190A847314BC3F80080304B1E6009E0304B2F
S2140821A01B6833B9254B1B68DB6A9F4224BF234B49
S2140821B01C60E06A2B4B1B68984284BF294B18604A
S2140821C0294A1368236401331360284B1B68984216
S2140821D084BF264B186000EB80004946184B03EB7B
S2140821E08000234B9847234B98471D4B1B6843B1E9
S2140821F0124B1B68DB6A9F4205D91F4B9847012084
S21408220008E0012006E0012004E00663304660E7A7
S2140822104FF0FF3003B0BDE8F08F00BF8918080004
S214082220E1190800A91A08002D4E0800FD500800FC
S2140822303D1808009918080094AC072054AC0720ED
S214082240ECAB072089170800D4AB072058AC07204A
S214082250C0AB07209CAB0720B0AB072074AC0720A8
S214082260B8AB072098AC072078AC0720E8AB072067
S214082270A9170800B918080079180800A117080057
S2140822807CAC072008B518B9094B984700BFFDE78E
S2140822904169084A914207D1806A074B984205D09F
S2140822A0B0FA80F0400908BD002008BD002008BD2F
S2140822B0891808009CAB072058AC072038B518B911
S2140822C0164B984700BFFDE70446154B1B68984217
S2140822D023D0144B98472046134B984701281AD109
S2140822E0251D2846114B9847E06A114B1B689842F3
S2140822F084BF0F4B186000EB800029460D4B03EB9C
S21408230080000D4B9847064B1B68E26ADB6A9A42C8
S21408231001D30A4B98470A4B984738BD89180800D6
S21408232054AC0720991808008522080001180800F0
S214082330E8AB0720ECAB0720A917080079180800B7
S214082340B918080010B584B00023039302930193CC
S214082350009382220D490E480E4CA04701280ED144
S2140823600D4B984701280AD10C4B984701220C4B75
S2140823701A6000220B4B1A600B4B984704E018B9FA
S214082380064B984700BFFDE704B010BD4883080019
S214082390D9260800812008004D2C08008918080056
S2140823A0B8AB072070AC072055190800024A136816
S2140823B001331360704700BF50AC072010B5044BBC
S2140823C09847044B1C68044B9847204610BD00BF2E
S2140823D09918080070AC0720B91808002DE9F041D4
S2140823E03A4B1B68002B6BD1394B1A6801321A60BE
S2140823F01B6803BB374B1B681B681BB1364B9847DB
S21408240000BFFDE7334B1968344A1068186011603E
S21408241033490A6801320A601B681B6823B94FF003
S214082420FF32304B1A6006E02A4B1B68DB68DB6815
S2140824305A682C4B1A60264B1A682A4B1B689A4215
S21408244042D3244B1B681B686BB1224B1B68DB68A6
S214082450DC6863681E4A1268934213D8224E234FDC
S214082460DFF8948012E04FF0FF321E4B1A60BDE88A
S214082470F081184B1B68DB68DC686368144A1268CE
S214082480934203D9174A1360BDE8F081251D2846F4
S214082490B047A36A13B104F11800B047E06A3B6876
S2140824A0984288BF386000EB8000294608EB800019
S2140824B00F4B9847074B1B681B68002BD9D1D2E7F0
S2140824C00C4A136801331360BDE8F08150AC07204E
S2140824D070AC0720B0AB07208918080074AC07203A
S2140824E06CAC07206001072001180800E8AB07203D
S2140824F0A9170800B4AB0720ECAB07202DE9F84372
S214082500304B1B681BB9304B984700BFFDE72F4B75
S21408251098472C4B1A68013A1A601B68002B49D159
S2140825202B4B1B6803BB002447E0D8F80C30DC684C
S21408253004F11800B84704F104094846B847E06AA9
S2140825403368984288BF306000EB80004946214BCC
S21408255003EB8000204B9847204B1B68E26ADB6A37
S2140825609A4228BF012504E00025DFF890801C4F1A
S2140825701C4ED8F80030002BD7D11B4B1B6863B114
S214082580194B1B687BB1194D174CA8472368013BAC
S21408259023602368002BF8D105E0012D03D0144BE7
S2140825A01B68012B08D10022114B1A60114B984763
S2140825B0012402E0002400E000240F4B9847204640
S2140825C0BDE8F88350AC0720891808009918080059
S2140825D094AC0720ECAB0720A917080054AC0720DA
S2140825E001180800E8AB0720B4AB0720DD23080075
S2140825F090AC072079180800B918080058AC0720CE
S21408260038B518B91A4B984700BFFDE70C4605467B
S21408261019B9174B984700BFFDE7164B98472B6824
S2140826201C44154A1268934207D9A3421CD9124B78
S2140826301B682C609C420FD906E0A34212D80E4BAA
S2140826401B689C420ED80FE00C4B186804300C4BE5
S214082650984720460B4B98470B4B984730B90B4B7F
S214082660984738BD2C60EFE72C60F5E738BD00BF0B
S21408267089180800AD23080070AC072054AC072062
S2140826800118080029200800FD2408007918080009
S21408269010B580B10446094B9847094B1B681C4483
S2140826A0084B18680430084B98472046074B98474D
S2140826B0074B984708B9074B984710BDAD23080045
S2140826C070AC072054AC0720011808002920080021
S2140826D0FD2408007918080080B5154D154FDFF859
S2140826E07480154E19E0C0473C68B047ACB1134B30
S2140826F09847FB68DC68201D114B9847114A1368F9
S214082700013B13602B68013B2B600F4B9847206BEF
S214082710DFF84490C8472046C8472B68002BE2D10C
S2140827200A4B1B68012BDCD9094B9847D7E700BF33
S214082730BCAB0720C0AB0720FD240800991808008A
S2140827400118080094AC0720B9180800ECAB07205D
S21408275079180800AD230800A91A080010B5224BFE
S2140827601B686BB9214B1B6803EB83039B00204A4D
S214082770D358CBB91D4B1B6843B11C4A1C4909E00A
S21408278001221C4B1A6010BD13681BB91A4B9847D8
S21408279000BFFDE71368013B1360136803EB830370
S2140827A051F82330002BEFD0104B1B68104A9900C5
S2140827B0C81802EB80004468646844600246083221
S2140827C0944206D1606803EB8301094A02EB810252
S2140827D0506003EB8303064A02EB83035B68DA6800
S2140827E0064B1A6010BD00BF50AC0720E8AB0720A8
S2140827F0ECAB072090AC07208918080054AC0720DB
S21408280038B50446264B9847264B1B68A34200D08B
S21408281014BB244B1D682C1D2046234B9847AB6AD7
S2140828200BB332E0214B1B6813B1214B984738BDD8
S214082830204B1A68204B1B689A4203D10022194B7A
S2140828401A6038BD1D4B984738BD294619481C4B99
S21408285098471C4B984738BD251D2846124B984765
S214082860A36A3BB9F1E721461248154B9847154B22
S2140828709847D7E704F118000B4B984729460D48A8
S2140828800F4B98470F4B984738BD05F11800064B75
S2140828909847214607480A4B98470A4B9847C1E786
S2140828A09918080054AC072001180800B8AB072090
S2140828B0791808009CAB072094AC07205D27080011
S2140828C0A9170800B918080038B518B90E4B984764
S2140828D000BFFDE70C460D4D296818310C4B98478C
S2140828E0286804300B4B9847B4F1FF3F05D1296898
S2140828F004310948094B984738BD094B18682044E5
S214082900084B984738BD00BF8918080054AC072004
S214082910C5170800011808009CAB0720A91708006F
S21408292070AC07202920080038B518B9094B984715
S21408293000BFFDE70D46084C21681831074B98473D
S21408294020680430064B9847064B18682844064B00
S214082950984738BD8918080054AC0720A9170800FE
S2140829600118080070AC07202920080038B5C3688D
S214082970DC681CB9164B984700BFFDE704F118053C
S2140829802846144B9847144B1B689BB9251D2846A8
S214082990104B9847E06A114B1B68984284BF0F4B50
S2140829A0186000EB800029460D4B03EB80000D4BAA
S2140829B0984703E029460C480A4B98470B4B1B6878
S2140829C0E06ADB6A984234BF0020012038BD00BFA9
S2140829D0891808000118080050AC0720E8AB072043
S2140829E0ECAB0720A917080058AC072054AC072002
S2140829F008B518B9054B984700BFFDE7044A1268A2
S214082A000260044A1268426008BD00BF89180800C0
S214082A106CAC072070AC072038B518B9194B984726
S214082A2000BFFDE70D46044619B9164B984700BF88
S214082A30FDE7154B98472B68B3F1FF3F18D0134AAC
S214082A4012682168914204D0114A1268616891425E
S214082A5010D90F4A11686068091A8B420CD9126897
S214082A60121A9B1A2B6020460A4B9847002404E04B
S214082A70002402E0012400E00124074B9847204682
S214082A8038BD00BF89180800991808006CAC0720E4
S214082A9070AC0720F1290800B91808000122014B7C
S214082AA01A60704790AC0720014B1868704700BF43
S214082AB054AC0720054B1B6833B1054B1B68002B2D
S214082AC00CBF01200220704700207047B8AB0720D3
S214082AD050AC0720002831D038B5C36A18490968B1
S214082AE0C96A8B4229D216490968C96AC1F1050123
S214082AF0816103EB8303134901EB83034169994220
S214082B0017D10546041D20460F4B98470C4B1B68EB
S214082B10D86AE8620D4B1B68984284BF0B4B186056
S214082B2000EB80002146074B03EB8000084B9847D4
S214082B3038BD034B1B68DB6AC36238BD704700BFED
S214082B4054AC0720ECAB072001180800E8AB0720B8
S214082B50A9170800E8B138B5C16A826C914217D047
S214082B600446051D28460B4B9847A06CE062C0F14A
S214082B700503A361084B1B68984284BF064B186080
S214082B8000EB80002946054B03EB8000044B984772
S214082B9038BD704701180800E8AB0720ECAB0720E3
S214082BA0A917080008B54160006191420AD8D21AF0
S214082BB083699A4211D2011D0A4B18680A4B984736
S214082BC0002008BD9A4201D2994208D2011D074B3F
S214082BD01868054B9847002008BD012008BD01204D
S214082BE008BD00BFD0AC0720C51708009CAC07205E
S214082BF070B50D4B98470D4B1B688BB90C4D284686
S214082C000C4EB0470C4C2046B0470C4B1D600C4B86
S214082C101C6000220C2105200A4B9847034B1860BD
S214082C20094B984770BD00BF99180800CCAC072020
S214082C30A0AC072089170800B4AC07209CAC072076
S214082C40D0AC0720791C0800B918080010B584B065
S214082C500B4B98470B4B1B6863B1002303930293F7
S214082C600193042200924FF4827207490748084CE1
S214082C70A04718B9074B984700BFFDE704B010BD3A
S214082C80F12B0800CCAC072054830800A12D0800BF
S214082C90812008008918080030B585B00F4C2568D3
S214082CA0CDB11C460191029203906CB90C4B984723
S214082CB001284FF000030CBF089A1A4601A90748D6
S214082CC00068084CA04707E00023224601A92846CA
S214082CD0054CA04700E0002005B030BDCCAC07206E
S214082CE0B52A0800D11C0800F11D08002DE9F04798
S214082CF082B08146224B98478046224B1B689842F2
S214082D0034D224E0DA68D2F800A0DB68DC68251D37
S214082D102846B847636A20469847E369012B18D1C6
S214082D20A36953449A4506D26360246129463068ED
S214082D30154B98470DE0002100910B465246204659
S214082D40124CA04728B9124B984700BFFDE7114E12
S214082D50114F33681A68002AD4D1104A10680D49F2
S214082D60086013600123C9F8003002E00023C9F8A0
S214082D700030044BC3F80080404602B0BDE8F08738
S214082D80BD230800C8AC0720C5170800992C080002
S214082D90891808009CAC072001180800D0AC07204A
S214082DA02DE9F04387B04D4DDFF860814C4B1B682A
S214082DB01A68002A00F08880DB681E68494B984726
S214082DC003A8494B98470746039B002B30D18642F9
S214082DD024D8464B9847424B1B68DB68DC68201DA6
S214082DE0C047E369012B14D1A16933463A463144FA
S214082DF020463F4FB84701280BD1002100910B46CB
S214082E00324620463B4EB04718B93B4B984700BF62
S214082E10FDE7636A204698470CE00026F11B286801
S214082E20364B9847314B984720B9354B984701E0C1
S214082E302E4B984702A82C4B98470746314EDFF88A
S214082E40B09039E0059C1CB163690BB1201DC047E2
S214082E50039B022B20D0032B2BD0002B2CD10499BC
S214082E60A0690B463A4601442046C847012823D1A4
S214082E70636A20469847E369012B1DD1A2690021A1
S214082E8000910B460498024420461A4CA04798B96D
S214082E90194B984700BFFDE70499A16119B9164B6D
S214082EA0984700BFFDE73B463A4639442046C847A0
S214082EB002E02046144B984700231A4603A92868C0
S214082EC0B0470028BED171E7064B984703A8064BC3
S214082ED098470746039B002B9FD0A9E7CCAC072052
S214082EE09CAC0720AD230800ED2C0800FD24080044
S214082EF0A52B0800992C080089180800DD1F080073
S214082F0079180800811E0800A91A08000118080088
S214082F100138022815D82DE9F0410E4614469AB114
S214082F200D46DFF838800C4FD8F8000015F8011B5E
S214082F303B68984700280ADBA81B013CF4D1BDE88B
S214082F40F0814FF0FF3070470020BDE8F0814FF069
S214082F50FF30BDE8F08100BF28AE07202CAE072062
S214082F60002A4ED02DE9F04F85B006460D46174686
S214082F70DFF8A4A0DFF8A490CDF800A0DFF8A0B092
S214082F80214CCDF804B000230393564505D12946B5
S214082F900098C8470028FAD115E05E4507D103A96E
S214082FA00198A0470028FAD1039B2B7017E0174B0F
S214082FB09E4208D1984603A94046A0470028FAD161
S214082FC0039B2B7016E0124B9E4208D1984603A925
S214082FD04046A0470028FAD1039B2B700AE00D4B09
S214082FE09E4207D1984603A94046A0470028FAD132
S214082FF0039B2B700135013FC5D1002005B0BDE805
S214083000F08F0020704700BF7117080000C0094005
S21408301000000A4000400A4000080E406D300800D4
S2140830200080094010B4AC2303600B684A68B3FB01
S214083030F2F31B095C1E4FF6FE7294420AD803622E
S2140830408B68436040F20223C0F8203150230360A7
S214083050002000E0012010BC704700BF436913F051
S214083060020F1ABFC161002001207047436913F0A0
S214083070010F1DBF83690B7000200120704700BF39
S21408308010B50E480E4B98473E2100200D4B98472A
S2140830900D4CA0470028FCD00C4B98470C4A0D4B0B
S2140830A09A620D4CA0470028FCD010200B4B98477E
S2140830B00B4B98470148024B984710BD00BD0105C9
S2140830C0A500072015350800693508007935080079
S2140830D0013F0D2000060E4089350800AD34080073
S2140830E09D36080010B54FF40042124B5A600B206C
S2140830F0114CA0470C20A0470D20A0470E20A04743
S2140831004FF060513B200D4CA0474FF060515520C2
S214083110A0474FF060515620A04709496820A047AD
S21408312008495C20A047084A4FF440710748084BF6
S214083130984710BD501A0E40993508002D320800E1
S214083140790000280100002801000008000E0E4043
S214083150013308004264B1F1805F16D004D8C1B1CB
S214083160B1F1006F0AD013E0B1F1405F11D0B1F1B0
S214083170605F0ED0B1F1205F0AD17047016F036F10
S2140831800B4023EA0203036702E0036F1343036757
S21408319042607047416412F0010F14BF4166016631
S2140831A012F00A0F14BF0162416212F0020F02D039
S2140831B0C0F8801004E012F0080F18BFC0F884109A
S2140831C041610160704700BF10B44164019C0CB1B6
S2140831D0416600E001660BB1016500E041650AB191
S2140831E0016300E041630161016010BC704700BFE5
S2140831F012F0100F10D0C0F8B01012F0200F14BF45
S214083200C0F8D410C0F8D01012F0400F14BFC0F8A1
S214083210C010C0F8C4107047C0F8B410704700BF9C
S21408322001647047C06C7047806C704770B582B098
S2140832300D46430903F5001303F207735C0201F019
S214083240F043B3F1205F30D006D8B3F1006F0AD050
S214083250B3F1805F18D049E0B3F1405F30D0B3F1E6
S214083260605F2DD042E000F01F00012686403246FF
S2140832704FF0006120461F4B984715F0010F14BF0A
S21408328066662666012032E000F01F0001268640AA
S21408329032464FF080512046164B984715F0010FDE
S2140832A014BF66662666012021E000F01F0101268D
S2140832B02A4606FA01F120460F4B9847304616E094
S2140832C005F0605200F01F01012605EA0603009388
S2140832D0C5F38003B2F1605F14BF0022012206FA2C
S2140832E001F12046054CA047304600E0002002B019
S2140832F070BD00BF5531080095310800C931080077
S21408330070B582B005460E46144602F0F043B3F197
S214083310205F26D006D8B3F1006F0AD0B3F1805FDD
S21408332013D034E0B3F1405F1FD0B3F1605F1CD018
S2140833302DE00A464FF00061164B984714F0010F2F
S21408334014BF6E662E66012022E00A464FF08051B2
S214083350104B984714F0010F14BF6E662E660120B6
S21408336016E00D4B9847012012E004F0605204F076
S21408337001030093C4F38003B2F1605F14BF002218
S214083380012231462846054CA047012000E00020CF
S21408339002B070BD5531080095310800C9310800E3
S2140833A02DE9F041044688460E4B984705462046C8
S2140833B00D4B9847054013D00C4C04F16006236863
S2140833C0434508D16168294205D0E36840469847D6
S2140833D0636825EA0305B44202D01034002DEED106
S2140833E0BDE8F0812532080029320800D8AC07204D
S2140833F0F8B5174C2668062E28D84FF0000C6446F9
S214083400144FA64625017D598D4204D107EB0415B5
S2140834106D68954204D00134E4B2A446A642F0D2C0
S2140834200C4D4FEA0E1E05EB0E0445F80E106260B2
S214083430A3600699E1600136664504BF04490E603C
S21408344011461A46044B98470020F8BD0120F8BDDF
S214083450D4AC0720D8AC0720F131080008B50B21FA
S2140834600148024B984708BD000E0E40A1330800DD
S21408347008B50C210148024B984708BD00100E40BD
S214083480A133080008B50D210148024B984708BD2E
S21408349000120E40A133080008B50E210148024B61
S2140834A0984708BD00140E40A1330800184A136B4D
S2140834B023F0700318431063936E13F0080F03D0BD
S2140834C009E0013B03D11EE04FF4006310498A6E01
S2140834D012F0080FF5D00E4A136B23F0030343F0DF
S2140834E002031363906E10F0080004D000207047A3
S2140834F0013B03D109E04FF4006305498A6E12F0D8
S214083500080FF5D07047012070470120704700BFAC
S21408351000060E4038B111490B6A114A1A40114B81
S21408352013430B6270470D48026A090289B222F4F7
S2140835305C1323F0030343F45C1343F001030B43CB
S21408354003620246936E13F0010FFBD0034A136A18
S21408355043F09B7343F480331362704700060E40B3
S214083560FCFFC8FE02003701024B986E00F480305C
S214083570704700BF00060E404FF00052014B9A629B
S214083580704700BF00060E40024B986E00F002001F
S214083590704700BF00060E402C281ED81F280CD8DF
S2140835A0114B9A6901238340934318D0012303FAE9
S2140835B000F00D4B18610020704720380A4BD3F8EE
S2140835C008210123834093430BD0012303FA00F01C
S2140835D0054BC3F800010020704701207047002003
S2140835E070470020704700BF00060E40FEE700BF89
S2140835F008B51E4B1E4A9A4203D01E4B1B4A9A42D7
S21408360004D31D4B1D4A9A420FD31AE017491C4B88
S2140836105B1A23F003030433154A134452F8040BC9
S21408362041F8040B9A42F9D1EBE7164B164AD21A20
S21408363022F003021A44043B002143F8041B934279
S214083640FBD1124B23F0604222F07F0210498A60B9
S21408365003F16043B3F5801F03D28B6843F0005331
S2140836608B600C4B98470C4B9847FEE700000720EA
S2140836706C860800DC09072044AE0720E00907200E
S214083680DB090720E409072047AE072000000800EA
S21408369000ED00E0954C0800093808003E4B1B6B0F
S2140836A003F00303032B5FD8DFE803F0020E2B2B8F
S2140836B03A4B5B6913F0800F14BF4FF400424FF487
S2140836C0FA42374B1A604FE0334B1B6A13F0807F81
S2140836D003D0344A324B1A6046E0334A304B1A60FD
S2140836E02D4B1B6A03F07003102B02D0202B04D03E
S2140836F03AE02E4A2A4B1A6036E02A4A284B1A60C5
S21408370032E0254B1B6A13F0807F03D0254A244BF2
S2140837101A6012E0244A224B1A601F4B1B6A03F0F9
S2140837207003102B02D0202B04D006E01F4A1C4B37
S2140837301A6002E01B4A1A4B1A60174B1B6B03F001
S2140837400303022B0DD1144A936A926A1448C3F3F2
S2140837500A41036801FB0333D2B2B3FBF2F30360FA
S21408376002E0134A0E4B1A600B4B1B6B03F07003F8
S214083770702B07D10A4A13680E49A1FB03135B088E
S21408378013607047044B1B6B0549C3F302120B68A2
S214083790D3400B60704700BF00060E40101A0E405C
S2140837A068010720001BB70000093D0000127A00D8
S2140837B0001C4E0EABAAAAAA094B1B6813B9094AE5
S2140837C0074B1A60064B1B681A180749914204DB18
S2140837D01046034A1060184670474FF0FF3070478F
S2140837E048AD072048CE0720FC7F08204FF0FF3062
S2140837F0704700BF4FF400534B600020704700BF6F
S2140838000120704700207047F0B585B004207E4B35
S21408381098477E4B18607E4B98477E4B98477E4B62
S21408382098477E4B98470B207D4DA8470C20A84705
S2140838300D20A8470E20A8477A4C4FF400132361A2
S214083840C4F8A0302920A8477748784B9847784B83
S21408385098477848784B98474FF080632361C4F8B8
S214083860A0302363754B4FF400421A61C3F8A020BA
S2140838701A6303F5806302221A61C3F8A0201A634C
S2140838804FF400221A61C3F8A0201A636C4B9847BD
S2140838906C4D00242C606C4B1C606C4B1C606C4898
S2140838A06C4B98470322214601206B4B98472860AB
S2140838B020B1234622462146684CA0470322002111
S2140838C00120654B9847604B186020B100231A46C4
S2140838D01946624CA0470322002101205E4B9847F8
S2140838E05A4B186020B100231A4619465B4CA0476D
S2140838F000231A46194653480068584CA047002328
S2140839001A46194650480068554CA0475548514C29
S214083910A0475548A047002303930293534A0192B1
S214083920022200924FF4007251495248524CA04766
S21408393010B15248474B9847344B1B6800220392F5
S21408394002924F4A0192032200924FF400724D49A8
S2140839504D48494CA04710B14C483E4B98474C48F8
S2140839603C4DA847294C2368404A1A602368494FAB
S2140839705F60434A9A601B681868474EB0472368DA
S2140839805B681868B04723689B681868B047214684
S2140839904248A84721684248A84721684148A8479E
S2140839A0216804314048A847236819683F48A84753
S2140839B0236859683E48A847236800220392029263
S2140839C00197022200924FF400723A493A482A4C6C
S2140839D0A04708B13948A84739481E4B98470B4CAA
S2140839E000230393029301930123009323684FF463
S2140839F0007234493448204DA847344B984723680A
S214083A00334ADA60FEE700BFE119080038AE07203F
S214083A10E530080081300800D5140800891508002C
S214083A209935080000100E4000C00B4051170800DA
S214083A30CD020800A0860100C5150800000E0E403D
S214083A406116080018AE072014AE072010AE07202F
S214083A505C830800E54C0800791C0800D11C0800A7
S214083A60811E0800748308009083080034AE07207F
S214083A70A4830800590E080081200800AC830800BB
S214083A803CAE0720C8830800FD0C0800D883080051
S214083A90F883080030AE07200128080030840800A4
S214083AA05484080074840800A4840800D484080099
S214083AB004850800348508009D1208003C85080027
S214083AC05885080070850800790D08004523080009
S214083AD06C010720000000002DE9F84FC04B21F0CC
S214083AE000469E420D468A4604460FDDBD4B9E4262
S214083AF000F3B28000F0AD80BB4BBC49BC4CBAF1B9
S214083B00000FC8BF19462046BDE8F88FB94B9E423D
S214083B1000F3BC80A3F1DE739E4240F3A7804FF00B
S214083B20FF3B22462B462046294600F051FC02461B
S214083B300B468046894600F04BFC91A3D3E9002348
S214083B4006460F4600F044FC8FA3D3E9002300F096
S214083B508DFA32463B4600F03BFC8DA3D3E90023A2
S214083B6000F084FA32463B4600F032FC8AA3D3E9DA
S214083B70002300F07BFA32463B4600F029FC88A377
S214083B80D3E9002300F072FA32463B4600F020FCE8
S214083B9085A3D3E9002300F069FA42464B4600F0B5
S214083BA017FC83A3D3E90023804689463046394666
S214083BB000F00EFC80A3D3E9002300F055FA324645
S214083BC03B4600F005FC7EA3D3E9002300F04CFA40
S214083BD032463B4600F0FCFB7BA3D3E9002300F00B
S214083BE043FA32463B4600F0F3FB79A3D3E90023B9
S214083BF000F03AFA32463B4600F0EAFBBBF1FF3FDC
S214083C0002460B4669D04046494600F02FFA22463F
S214083C102B4600F0DDFB784E784B4FEACB0B5E4424
S214083C209B44DBE9002300F01FFA22462B4600F0EF
S214083C301BFA02460B46D6E9000100F015FABAF15F
S214083C40000F0446BFF65FAF01F100412046BDE80D
S214083C50F88F00283FF450AF224620462B462946C8
S214083C6000F004FA04462046BDE8F88F5AA3D3E9C4
S214083C70002300F0FBF90022614B00F039FE002813
S214083C803FF44DAF29462046BDE8F88F00F0C2F84D
S214083C905C4B04469E420D462FDCA3F550239E42FD
S214083CA054DC02460B4600F0E1F90022544B00F0C3
S214083CB0DBF9002206460F464FF080432046294689
S214083CC000F0D4F902460B463046394600F0AAFC06
S214083CD04FF0000B04460D4623E74046494600F0E1
S214083CE0C5F922462B4600F073FB02460B462046D3
S214083CF0294600F0B9F9044605E7434B9E421ADC0C
S214083D000022424B00F0B0F9002206460F463F4B11
S214083D102046294600F05CFB0022394B00F0A6F945
S214083D2002460B463046394600F07CFC4FF0020B44
S214083D3004460D46F5E602460B460020344900F0D8
S214083D4071FC4FF0030B04460D46EAE600222C4BA6
S214083D5000F08AF9002206460F46294B20462946D7
S214083D6000F084F902460B463046394600F05AFC05
S214083D704FF0010B04460D46D3E600BFAFF30080B4
S214083D8011DA22E33AAD903FEB0D76244B7BA93F40
S214083D90513DD0A0660DB13F6E204CC5CD45B73F0E
S214083DA0FF8300922449C23F0D5555555555D53FBA
S214083DB02F6C6A2C44B4A2BF9AFDDE522DDEAD3FAE
S214083DC06D9A74AFF2B0B33F711623FEC671BC3F4E
S214083DD0C4EB98999999C93F9C7500883CE4377E4E
S214083DE0FFFF0F440000F07FFB21F93FFB21F9BFDE
S214083DF0182D4454FFFFDB3F988508007885080097
S214083E000000F03FFFFFF23FFF7F03400000F83F4F
S214083E100000F0BF21F00041704700BF2DE9F04FC9
S214083E208BB004460D4600F055F8284B064693F925
S214083E3000A00F46BAF1FF3F12D022462B46204676
S214083E40294600F05FFD834650B94FF000084FF052
S214083E5000092046294642464B4600F02BFD20B96D
S214083E60304639460BB0BDE8F08F194A0123CDF825
S214083E7020B0CDE90445CDE9024501920093BAF198
S214083E80000F15D042464B464046494600F0CAFB4E
S214083E90BAF1020FCDE906010CD100F0F5FE212398
S214083EA00360089B63B9DDE906010BB0BDE8F08F37
S214083EB0CDE90689684600F0D1F80028F1D1ECE78C
S214083EC000F0E2FE089B0360EDE700BF70010720E4
S214083ED0B88508002DE9F0415F4E0C46B6460E4000
S214083EE07645054600F0988000290B46024674DDA4
S214083EF05FEA215E7FD0AEF2FF3EC3F313031EF0E7
S214083F00010F43F4801363D100273E4603EBD271BA
S214083F100B444FEA6E0E520016204FF40011741828
S214083F209C424FEAD2754FEA420202DC1B1B661817
S214083F300F44013805EB43034FEA5101EFD184469D
S214083F4020244FF0004109E020D003EBD275013C55
S214083F504FEA51012B444FEA420220D09E4201EB21
S214083F600C05F1DA002D05EB010C09DBB04695428D
S214083F70A3EB060300D9013B4646521B0844E4E778
S214083F80BCF1000FF2DB06F10108F0E7954217D8FE
S214083F90002D05EB010C49DB98460023ECE713439C
S214083FA010D140087B1003F17F5303F50013FA077E
S214083FB003EB0E57394648BF40F00040BDE8F08195
S214083FC03346C2E7411C35D000F001031844E8E741
S214083FD05B0003EBD273520096E721F000460643D7
S214083FE0ECD079BB8E46D30AAEF1150E5205002BDF
S214083FF0F9D0DD0221D4002100E001465B00DC0296
S21408400001F10100F9D5C0F1200422FA04F4234393
S214084010C1EB0E0E82406EE702460B4600F0D8F95A
S2140840202A46234600F022F8BDE8F081BCF1000FCE
S214084030A9DAB1E701372046B4E720244FF0FF316C
S2140840400020E2E702460B4600F00EF802460B4652
S21408405000F0E8FAB2E700BF0000F07F00207047E3
S21408406081F0004102E000BF83F0004330B54FEA1C
S21408407041044FEA430594EA050F08BF90EA020F89
S2140840801FBF54EA000C55EA020C7FEA645C7FEA1C
S214084090655C00F0E2804FEA5454D4EB5555B8BF3F
S2140840A06D420CDD2C4480EA020281EA030382EAB0
S2140840B0000083EA010180EA020281EA0303362D42
S2140840C088BF30BD11F0004F4FEA01314FF4801C15
S2140840D04CEA113102D0404261EB410113F0004F27
S2140840E04FEA03334CEA133302D0524263EB4303DE
S2140840F094EA050F00F0A780A4F10104D5F1200E7C
S2140841000DDB02FA0EFC22FA05F2801841F10001D6
S21408411003FA0EF2801843FA05F359410EE0A5F1AA
S21408412020050EF1200E012A03FA0EFC28BF4CF0DB
S214084130020C43FA05F3C01851EBE37101F0004591
S21408414007D54FF0000EDCF1000C7EEB00006EEB9E
S2140841500101B1F5801F1BD3B1F5001F0CD3490828
S2140841605FEA30004FEA3C0C04F101044FEA44527F
S21408417012F5800F80F09A80BCF1004F08BF5FEA06
S214084180500C50F1000041EB045141EA050130BDE6
S2140841905FEA4C0C404141EB010111F4801FA4F189
S2140841A00104E9D191F0000F04BF01460020B1FADE
S2140841B081F308BF2033A3F10B03B3F120020CDA16
S2140841C00C3208DD02F1140CC2F10C0201FA0CF0F4
S2140841D021FA02F10CE002F11402D8BFC2F1200C59
S2140841E001FA02F120FA0CFCDCBF41EA0C0190400F
S2140841F0E41AA2BF01EB0451294330BD6FEA040458
S2140842001F3C1CDA0C340EDC04F11404C4F1200242
S21408421020FA04F001FA02F340EA030021FA04F354
S21408422045EA030130BDC4F10C04C4F1200220FAAB
S21408423002F001FA04F340EA0300294630BD21FAE9
S21408424004F0294630BD94F0000F83F4801306BFAF
S21408425081F480110134013D4EE77FEA645C18BFA3
S2140842607FEA655C29D094EA050F08BF90EA020F3A
S21408427005D054EA000C04BF1946104630BD91EA32
S214084280030F1EBF0021002030BD5FEA545C05D135
S2140842904000494128BF41F0004130BD14F5800474
S2140842A03CBF01F5801130BD01F0004545F0FE41E8
S2140842B041F470014FF0000030BD7FEA645C1ABF1D
S2140842C0194610467FEA655C1CBF0B46024650EA54
S2140842D0013406BF52EA033591EA030F41F4002180
S2140842E030BD00BF90F0000F04BF0021704730B506
S2140842F04FF4806404F132044FF000054FF00001DB
S21408430050E700BF90F0000F04BF0021704730B59B
S2140843104FF4806404F1320410F0004548BF404270
S2140843204FF000013EE700BF42004FEAE2014FEAC5
S21408433031014FEA02701FBF12F07F4393F07F4FA0
S21408434081F06051704792F0000F14BF93F07F4FD2
S214084350704730B54FF4607401F0004521F0004115
S21408436020E700BF50EA010208BF704730B54FF09B
S21408437000050AE050EA010208BF704730B511F0A0
S214084380004502D5404261EB41014FF4806404F1D8
S21408439032045FEA915C3FF4DCAE4FF003025FEA5A
S2140843A0DC0C18BF03325FEADC0C18BF033202EBE2
S2140843B0DC02C2F1200300FA03FC20FA02F001FA3C
S2140843C003FE40EA0E0021FA02F11444C1E600BFDB
S2140843D070B54FF0FF0C4CF4E06C1CEA11541DBF8E
S2140843E01CEA135594EA0C0F95EA0C0F00F0DEF859
S2140843F02C4481EA030621EA4C5123EA4C5350EA3E
S214084400013518BF52EA033541F4801143F480138E
S21408441038D0A0FB02CE4FF00005E1FB02E506F01F
S2140844200042E0FB03E54FF00006E1FB03569CF074
S214084430000F18BF4EF0010EA4F1FF04B6F5007F7A
S21408444064F5407404D25FEA4E0E6D4146EB0606EC
S21408445042EAC62141EA55514FEAC52040EA5E5075
S2140844604FEACE2EB4F1FD0C88BFBCF5E06F1ED81F
S214084470BEF1004F08BF5FEA500E50F1000041EB56
S214084480045170BD06F0004646EA010140EA020003
S21408449081EA0301B4EB5C04C2BFD4EB0C0541EA25
S2140844A0045170BD41F480114FF0000E013C00F33A
S2140844B0AB8014F1360FDEBF002001F0004170BD5E
S2140844C0C4F10004203C35DA0C341BDC04F1140477
S2140844D0C4F1200500FA05F320FA04F001FA05F203
S2140844E040EA020001F0004221F0004110EBD370D0
S2140844F021FA04F642EB06015EEA430E08BF20EAFC
S214084500D37070BDC4F10C04C4F1200500FA04F39E
S21408451020FA05F001FA04F240EA020001F0004130
S21408452010EBD37041F100015EEA430E08BF20EAA3
S214084530D37070BDC4F1200500FA05F24EEA020EEB
S21408454020FA04F301FA05F243EA020321FA04F01A
S21408455001F0004121FA04F220EA020000EBD370D1
S2140845605EEA430E08BF20EAD37070BD94F0000FD1
S2140845700FD101F00046400041EB010111F4801F05
S21408458008BF013CF7D041EA060195F0000F18BFB6
S214084590704703F00046520043EB030313F4801FF2
S2140845A008BF013DF7D043EA0603704794EA0C0FAC
S2140845B00CEA135518BF95EA0C0F0CD050EA4106C2
S2140845C018BF52EA4306D1D181EA030101F000413F
S2140845D04FF0000070BD50EA410606BF1046194667
S2140845E052EA430619D094EA0C0F02D150EA013673
S2140845F013D195EA0C0F05D152EA03361CBF1046B4
S21408460019460AD181EA030101F0004141F0FE4152
S21408461041F470014FF0000070BD41F0FE4141F4D6
S214084620780170BD70B54FF0FF0C4CF4E06C1CEAD6
S21408463011541DBF1CEA135594EA0C0F95EA0C0F8B
S21408464000F0A7F8A4EB050481EA030E52EA033546
S2140846504FEA013100F088804FEA03334FF0805567
S21408466045EA131343EA12634FEA022245EA111594
S21408467045EA10654FEA00260EF000419D4208BF45
S214084680964244F1FD0404F5407402D25B084FEAF2
S2140846903202B61A65EB03055B084FEA32024FF49E
S2140846A080104FF4002CB6EB020E75EB030E22BFFB
S2140846B0B61A754640EA0C005B084FEA3202B6EBBB
S2140846C0020E75EB030E22BFB61A754640EA5C006A
S2140846D05B084FEA3202B6EB020E75EB030E22BFFA
S2140846E0B61A754640EA9C005B084FEA3202B6EBFB
S2140846F0020E75EB030E22BFB61A754640EADC00BA
S21408470055EA060E18D04FEA051545EA16754FEA1B
S21408471006164FEAC30343EA52734FEAC2025FEA39
S2140847201C1CC0D111F4801F0BD141EA00014FF0C8
S21408473000004FF0004CB6E711F4801F04BF014399
S2140847400020B4F1FD0C88BFBCF5E06F3FF6AFAEB5
S214084750B5EB030C04BFB6EB020C5FEA500C50F145
S214084760000041EB045170BD0EF0004E4EEA1131C8
S21408477014EB5C04C2BFD4EB0C0541EA045170BDCF
S21408478041F480114FF0000E013C90E645EA060E13
S2140847908DE60CEA135594EA0C0F08BF95EA0C0F41
S2140847A03FF43BAF94EA0C0F0AD150EA01347FF489
S2140847B034AF95EA0C0F7FF425AF104619462CE760
S2140847C095EA0C0F06D152EA03353FF4FDAE1046C3
S2140847D0194622E750EA410618BF52EA43067FF414
S2140847E0C5AE50EA41047FF40DAF52EA43057FF4A4
S2140847F0EBAE12E74FF0FF3C06E000BF4FF0010CAF
S21408480002E000BF4FF0010C4DF804CD4FEA410C12
S2140848107FEA6C5C4FEA430C18BF7FEA6C5C1BD0DF
S21408482001B050EA410C0CBF52EA430C91EA030F60
S21408483002BF90EA020F0020704710F1000F91EABD
S214084840030F58BF994208BF90422CBFD8176FEA8B
S214084850E37040F0010070474FEA410C7FEA6C5C59
S21408486002D150EA013C07D14FEA430C7FEA6C5C60
S214084870D6D152EA033CD3D05DF8040B704700BF8C
S2140848808446104662468C461946634600E000BFDA
S21408489001B5FFF7B7FF002848BF10F1000F01BDAC
S2140848A04DF808EDFFF7F4FF0CBF012000205DF877
S2140848B008FB00BF4DF808EDFFF7EAFF34BF0120FC
S2140848C000205DF808FB00BF4DF808EDFFF7E0FF95
S2140848D094BF012000205DF808FB00BF4DF808EDE6
S2140848E0FFF7CEFF94BF012000205DF808FB00BF4D
S2140848F04DF808EDFFF7C4FF34BF012000205DF82F
S21408490008FB00BF4FEA410C7FEA6C5C02D150EA14
S214084910013C0AD14FEA430C7FEA6C5C02D152EAAA
S214084920033C02D14FF0000070474FF0010070477B
S2140849304FEA410212F5001215D211D56FF47873BA
S214084940B3EB625212D94FEAC12343F0004343EA5D
S214084950505311F0004F23FA02F018BF4042704738
S2140849604FF00000704750EA013005D111F00040C2
S21408497008BF6FF0004070474FF00000704700BF58
S2140849804FEA4102B2F1E04324BFB3F5001CDCF164
S214084990FE5C0DD901F0004C4FEAC0024CEA50709C
S2140849A0B2F1004F40EB830008BF20F001007047CB
S2140849B011F0804F21D113F13872BCBF01F00040CE
S2140849C0704741F480114FEA5252C2F11802C2F100
S2140849D0200C10FA0CF320FA02F018BF40F0010081
S2140849E04FEAC1234FEAD32303FA0CFC40EA0C0033
S2140849F023FA02F34FEA4303CCE77FEA625307D170
S214084A0050EA01331EBF4FF0FE4040F440007047A6
S214084A1001F0004040F0FE4040F40000704700BF40
S214084A2080F0004002E000BF81F0004142001FBF56
S214084A305FEA410392EA030F7FEA226C7FEA236C5F
S214084A406AD04FEA1262D2EB1363C1BFD218414054
S214084A5048404140B8BF5B42192B88BF704710F0EA
S214084A60004F40F4000020F07F4018BF404211F08D
S214084A70004F41F4000121F07F4118BF494292EAF5
S214084A80030F3FD0A2F1010241FA03FC10EB0C0021
S214084A90C3F1200301FA03F100F0004302D54942AE
S214084AA060EB4000B0F5000F13D3B0F1807F06D35B
S214084AB040084FEA310102F10102FE2A51D2B1F153
S214084AC0004F40EBC25008BF20F0010040EA030048
S214084AD07047490040EB000010F4000FA2F10102F5
S214084AE0EDD1B0FA80FCACF1080CB2EB0C0200FA7F
S214084AF00CF0AABF00EBC25052421843BCBFD040CD
S214084B001843704792F0000F81F4000106BF80F446
S214084B1000000132013BB5E74FEA41037FEA226C09
S214084B2018BF7FEA236C21D092EA030F04D092F0D4
S214084B30000F08BF0846704790EA010F1CBF002008
S214084B40704712F07F4F04D1400028BF40F0004065
S214084B50704712F100723CBF00F50000704700F085
S214084B60004343F0FE4040F4000070477FEA2262AC
S214084B7016BF08467FEA23630146420206BF5FEA7D
S214084B80412390EA010F40F4800070474FF000037D
S214084B9004E000BF10F0004348BF40425FEA000C44
S214084BA008BF704743F0964301464FF000001CE0EC
S214084BB050EA010208BF70474FF000030AE000BF42
S214084BC050EA010208BF704711F0004302D5404280
S214084BD061EB41015FEA010C02BF844601460020F2
S214084BE043F0B64308BFA3F18053A3F50003BCFA0D
S214084BF08CF2083AA3EBC25310DB01FA02FC6344BA
S214084C0000FA02FCC2F12002BCF1004F20FA02F2C0
S214084C1043EB020008BF20F00100704702F12002B3
S214084C2001FA02FCC2F1200250EA4C0021FA02F214
S214084C3043EB020008BF20EADC7070474FEA4002E8
S214084C40B2F1FE4F0FD34FF09E03B3EB12620DD9AD
S214084C504FEA002343F0004310F0004F23FA02F017
S214084C6018BF404270474FF00000704712F1610FBE
S214084C7001D1420205D110F0004008BF6FF0004095
S214084C8070474FF000007047014B1868704700BF28
S214084C90A005072070B50F4E0F4D761BB61018BF2F
S214084CA0002405D0013455F8043B9847A642F9D1AC
S214084CB00A4E0B4D03F0C4FC761BB61018BF002432
S214084CC006D0013455F8043B9847A642F9D170BD82
S214084CD070BD00BF4C8608004C8608005486080045
S214084CE04C8608000FB410B5074B82B004AC54F8D5
S214084CF0042B186823468168019400F0AFFA02B0C6
S214084D00BDE8104004B07047A0050720931E222B6C
S214084D1010D80A2A10B506D000230C46194400F00D
S214084D2021FA204610BD0028F6DA2D230B704042E3
S214084D300123F2E700200870704700BFFFF7E6BFC0
S214084D40844641EA000313F0030349D1403A23D3CB
S214084D500B6803604B6843608B688360CB68C360EE
S214084D600B6903614B6943618B698361CB69C361D6
S214084D700B6A03624B6A43628B6A8362CB6AC362BE
S214084D800B6B03634B6B43638B6B8363CB6BC363A6
S214084D9040304031403ADBD230320BD30B680360E8
S214084DA04B6843608B688360CB68C36010301031F3
S214084DB0103AF3D20C3205D351F8043B40F8043BC2
S214084DC0043AF9D2043208D0D2071CBF11F8013BC6
S214084DD000F8013B01D30B8803806046704700BF8C
S214084DE0082A13D38B07B1D010F00303AED0C3F153
S214084DF00403D21ADB071CBF11F8013B00F8013B7D
S214084E00A4D331F8023B20F8023B9FE7043AD9D3F3
S214084E10013A11F8013B00F8013BF9D20B78037010
S214084E204B7843708B7883706046704770B48407FD
S214084E3046D0541E002A41D0CDB2034602E0621E78
S214084E40E4B3144603F8015B9A07F8D1032C2ED96D
S214084E50CDB245EA05250F2C45EA054519D926465B
S214084E6003F11002103E0F2E42F8105C42F80C5C5C
S214084E7042F8085C42F8045C02F11002F2D8A4F189
S214084E80100222F00F0204F00F041032032C134411
S214084E900DD91E462246043A032A46F8045BFAD879
S214084EA0221F22F003020432134404F003042CB138
S214084EB0C9B21C4403F8011BA342FBD170BC70475F
S214084EC014460346C2E700BFF0B5054689B0084653
S214084ED00C4600F0E5F8431C144F0393AB6B012611
S214084EE004A9022204940590AC68069707960191D7
S214084EF00292B3B1B4F90C309A0406D4626E43F445
S214084F00005322F40052A38162662146284601AA6D
S214084F1001F02AFC002814BF4FF0FF300A2009B021
S214084F20F0BD284601F070FAE4E700BF44830800A5
S214084F30024B01461868FFF7C7BF00BFA005072049
S214084F4000290CBF022200224FF4806300F000B84C
S214084F502DE9F043514D83B02D6804460F46904620
S214084F601E4615B1AB6B002B79D0B8F1020F04D0F2
S214084F70B8F1010F7FD8002E7DDB2146284601F0C8
S214084F80AFF9216B41B104F14003994202D028469B
S214084F9001F002FB00232363B4F90C300022A2615F
S214084FA062601A0654D423F44A6323F00303B8F164
S214084FB0020FA38139D001AB6A462146284601F084
S214084FC089FDA3891843A08126B327B3AB6B002BB2
S214084FD04DD0009BB4F90C009E421CBF40F4006004
S214084FE0A081B8F1010F08BF40F0010083B208BFE6
S214084FF0A08103F0080080B227602761666118B3B5
S21408500013F001002FD000207642A661A06003B0FE
S214085010BDE8F083009E304601F0D0FD074668B331
S214085020A38943F08003A381D0E7002004F143025C
S21408503043F0020300250121A381A56022602261B6
S214085040616103B0BDE8F083A06003B0BDE8F083FB
S2140850502169284601F0A0FAB4F90C30A3E72846DF
S21408506001F0D2F981E7A66003B0BDE8F0832846D0
S21408507001F0CAF9ADE74FF0FF30E2E7DDF800903F
S214085080B14506D0484601F099FD074608B14E4698
S214085090C6E7B4F90C304FF0FF30C7E7A005072085
S2140850A020F0030110F00300C0F1000051F8043BA3
S2140850B000F1040C4FEACC0C6FF000021CBF22FA79
S2140850C00CF213434FF0010C4CEA0C2C4CEA0C4C37
S2140850D0A3EB0C0222EA030212EACC1204BF51F830
S2140850E0043B0430F4D0C2F1000102EA0102B2FA2D
S2140850F082F2C2F11F0200EBD200704740EA0103B9
S2140851009B0770B42BD1032A29D90C46034621469F
S21408511054F8046BA6F1013525EA060515F0803F1C
S21408512006D1043A032A43F8046B2146EFD8A2B105
S2140851300C78013A1C70013101333CB16AB111F8A0
S214085140014B013A03F8014B002CF7D12AB11A4457
S214085150002103F8011B9A42FBD170BC7047034636
S214085160E5E700BFF0B58BB06F461546DFF870E090
S21408517004460E46BEE80F000FC7BEE80F000FC76E
S2140851809EE80300AB1E47F8040B222B397022D882
S214085190711E0846002300E01346B4FBF5F205FB33
S2140851A012440AAF3C4414F8287C144600F8017FE1
S2140851B05A1C002CF0D1B454F2184BB1013411F833
S2140851C0015F1778181B84420F7002F80159F5DB47
S2140851D030460BB0F0BD002030700BB0F0BD00BFFD
S2140851E0C88508004B6E2DE9F0479C0492462CD5DE
S2140851F0936812683BB30F46804602F1080919E91E
S2140852006000B60817D0043D002401E0A64210D07E
S2140852103A4655F8041F404601F05EF9431C04F16F
S2140852200104F3D10023CAF80830CAF80430BDE8F0
S214085230F087DAF80830A3EB8603CAF8083009F1D5
S2140852400809002BDBD10020ECE701F08DFA0023DB
S214085250CAF80830CAF80430BDE8F0872DE9F04FE0
S214085260ABB01C46009190460493059018B1836B2A
S214085270002B00F0DE800098B0F90C108AB2950476
S21408528007D4436E41F4005223F4005382814366E8
S21408529092B2110740F1B180009B1B69002B00F009
S2140852A0AC8002F01A020A2A00F0B5800DF1680AEE
S2140852B0D346002302930F930E93CDF834A098F8A4
S2140852C000304446FBB1252B02D11CE0252B03D029
S2140852D014F8013F002BF9D1C8EB04059DB10E9BCD
S2140852E00F9A01332A44072BCBF80080CBF80450DA
S2140852F00F920E937BDD002A40F01F85D346029B53
S2140853000E922B4402932378002B00F03B844FF038
S214085310000300218DF82F3004F101086378084651
S2140853200E460C464FF0FF32019208F10108A3F131
S2140853302002582A00F28B83DFE812F03D03890327
S2140853408903450389038903890389038903890334
S2140853507E006B028903860070028903CC015D0219
S2140853605D025D025D025D025D025D025D025D0238
S21408537089038903890389038903890389038903C0
S21408538089038903D101890389038903890389036A
S214085390890389038903890389031A028903890310
S2140853A0890389038903E5028903890308038903B6
S2140853B08903890389038903890389038903890380
S2140853C089032B0382038903890389035E03820307
S2140853D0890389036303890370038D028B00E00247
S2140853E0890393028903B202890389034A030BF1EE
S2140853F0080B029B2B44029385E70099059800F05A
S21408540057FE002840F04585009B9A8902F01A024C
S2140854100A2A7FF44BAF0099B1F90E30002BFFF63D
S21408542045AF23464246059800F00CFE2BB0BDE873
S214085430F08F00F0E9FF1EE7049A13461468043359
S214085440002C049302DA644246F0040698F800300A
S2140854506BE74FF0000304988DF82F300346302191
S2140854608DF8301001997822002906948DF831209D
S214085470046803F104034FF0000546F00202C0F288
S2140854800C8526F0800654EA050246F002060493C8
S21408549040F0B584B348019B002B40F062849946DF
S2140854A05746002301930393019B039A9342B8BF80
S2140854B013461D46B9F1000F00D0013516F0020359
S2140854C0079318BF023516F08403089340F0E88265
S2140854D0069B5C1B002C40F3E382102C40F33C85B3
S2140854E0DFF88492DDF838E0DC460F9AC3461023CE
S2140854F0A84670464D46DDF8149007E000F1020E07
S21408550008460CF1080C103C102C13DD411C103218
S21408551007290F92CCF80050CCF804300E91EDDD38
S214085520002A40F0A582103C102C10464FF0010EC1
S214085530D446EBDCA94670464546D846E3462244A0
S21408554007280F92CBF80090CBF804400E9000F393
S2140855506D839DF82F300BF1080B00F1010E002B20
S21408556040F0A782079B002B00F0BA8202320CA9F3
S2140855700223BEF1070F0F92CDF838E08BE80A0039
S21408558040F37083002A40F00084089B4FF0010E19
S214085590802B1046D34640F0A782069B5C1B002C47
S2140855A040F3A282102C40F3F884DFF8C091DE4660
S2140855B01023C346A8464D46DDF8149007E000F1D0
S2140855C0020C08460EF1080E103C102C13DD411C88
S2140855D0103207290F92CEF80050CEF804300E91FC
S2140855E0EDDD002A40F00C83103C102C4FF0010C27
S2140855F01046D646EBDCA9464546D846F34622442E
S214085600BCF1070F0F92CBF80090CBF80440CDF80A
S21408561038C000F3C883019B03990BF1080B5C1A8A
S214085620002C0CF1010E604600F364820399BEF16B
S214085630070F0A440F92CBF80070CBF80410CDF889
S21408564038E040F3C582002A40F0328370070E9295
S21408565038D5069B5C1B002C34DDD346102C40F353
S2140856609684DFF804910E994F461026DDF81490BC
S21408567006E0881C19460BF1080B103C102C13DDAD
S2140856804B1C1032072B0F92CBF80070CBF8046037
S2140856900E93EEDD002A40F08582103C102C4FF069
S2140856A001001146D346EBDCB946224407280F9280
S2140856B0CBF80090CBF804400E9040F39282002A74
S2140856C040F00C84029B069AAA42ACBF9B185B1952
S2140856D0029390E246F0800698F8003025E6069495
S2140856E0002940F0858446F01006B30640F104838E
S2140856F00499073121F00701D1E9002314461D4615
S21408570008310491002A73F10003C0F27C83019BE0
S2140857109DF82F90002BC0F20B8354EA050326F061
S214085720800600F0DE80002D08BF0A2CC0F0DE8060
S2140857305746204629460A22002302F07DF93032D1
S21408574007F8012D2046294600230A2202F074F99C
S21408575004460D4654EA0503EBD1C7EB0A03039348
S214085760A2E600BF1486080030860800F085080008
S2140857700694002940F0388446F0100616F02003F8
S21408578000F0A1824FF00002049B8DF82F2007330B
S21408579023F0070303F10802D3E90045019B0492AE
S2140857A0002B0ADB54EA050326F0800605D1019B88
S2140857B0002B00F02784002400254FF000095746E8
S2140857C0E20842EA4572E90804F007030D46144663
S2140857D0303354EA050207F8013DF1D1F407BCD589
S2140857E0302BBAD030227B1E07F8012CC3EB0A02F6
S2140857F003921F4658E6A3F13002002418F8013B2E
S21408580004EB840402EB4404A3F13002092AF5D918
S2140858108DE598F8003001212B2086E598F80030B1
S21408582008F101052A2B00F0CC83A3F13002092ADF
S214085830A84698BF002500F2B58318F8013B05EB8B
S214085840850502EB4505A3F13002092AF5D945EA94
S214085850E57201926BE5069400298FD08DF82F002B
S2140858608CE74FF00003049A069417688DF82F30DB
S214085870141D019B002F00F07F83002BC0F253837A
S2140858801A460021384601F04DFC002800F08E83A9
S214085890C31B0393002304949DF82F90019303E6FB
S2140858A00694002940F09D8316F0200934D116F09E
S2140858B0100303D116F0400940F01F83049A002510
S2140858C013461468019A8DF82F90002A03F10403F2
