:0200000280007C
:10000000F8CE07204D340800493408004934080070
:100010004934080049340800493408000000000051
:100020000000000000000000000000008916080029
:1000300049340800000000000517080041170800B7
:10004000493408004934080049340800493408009C
:10005000493408004934080049340800493408008C
:10006000493408004934080000000000B932080093
:10007000CD320800E1320800F5320800000000002F
:100080000000000001050800493408004934080058
:10009000493408004934080049340800493408004C
:1000A00049340800000000004934080051010800EC
:1000B000493408004934080049340800493408002C
:1000C000493408004934080049340800493408001C
:1000D000493408004934080049340800493408000C
:1000E00049340800493408004934080049340800FC
:1000F0004934080010B5054C237833B9044B13B1CB
:100100000448AFF300800123237010BDE0090720ED
:100110000000000088920800084B10B51BB1084988
:100120000848AFF300800848036803B910BD074BC7
:10013000002BFBD0BDE81040184700BF00000000B6
:10014000E409072088920800889208000000000057
:1001500030B583B000211448144B98470190019B9F
:100160004FF08062124B1A631248134B9847114D9F
:10017000124C2846A04710F0807FFAD00D48104B53
:100180009847104CB4FBF0F40F4D28682044400809
:100190000E4B18600E4B98472C604FF08062044B5A
:1001A0005A6303B030BD00BF00000840FD030800E3
:1001B00000100E4000000C40110208001D02080053
:1001C0001902080000EE020098AD07209CAD072040
:1001D000A513080090B92DE9F0410C469046002A7D
:1001E0000FDD8F18084E094D306821462B6898475F
:1001F0000134A742F8D14046BDE8F0814FF0FF300E
:1002000070470020BDE8F081D8AE0720A0AD0720E0
:1002100002230360704700BF006A7047006B70479D
:10022000F0B48CB007460E4601AC114D0FCD0FC493
:100230000FCD0FC495E8070084E8070001AA00204D
:1002400052F8043BB6FBF3F3B3FBF7F3B3F5807F4F
:1002500005D901300B28F3D14FF6FF7005E00A28CD
:1002600094BF43EA00204FF6FF700CB0F0BC70471B
:10027000F489080070B506460C46086840B18968E4
:100280000E4B984705464FF6FF73984201D10EE09A
:100290000025606840B1A168084B98474FF6FF738E
:1002A000984207D045EA00453560002070BD4FF602
:1002B000FF7070BD4FF6FF7070BD00BF21020800D7
:1002C00070B40B684A6802F00F028C8A22430C89D2
:1002D00022438C7A42EA44228C7D42EA0442CC7D5D
:1002E00042EA44420C7E42EA844200EB4314C4F8E2
:1002F0000022CA68C4F804220A69C4F80C228A7D64
:100300003AB18C8B4A8B42EA044200EB4314C4F8A6
:100310001822846C4FF001129A40D24304EA02057D
:10032000CC7F04FA03F68C7F9C4044EA06442C43BD
:100330008464446C224091F8214004FA03F591F85A
:1003400020409C4044EA05442243426401229A40F2
:1003500091F822401CB1046A1443046203E0046A69
:1003600024EA0204046291F82440012C846E0CBF3C
:1003700014439443846691F82540012C846E0CBF8D
:1003800044EA024224EA02428266032B0CD8DB00D4
:10039000C46EFF229A4024EA020291F8231001FA67
:1003A00003F31343C3660CE0043BDB00046FFF223E
:1003B0009A4024EA020291F8231001FA03F313434E
:1003C0000367002070BC70470B69934207D30B682A
:1003D000CA6000EB4310C0F80822002070474FF6B7
:1003E000FF707047012303FA01F14160704700BFBD
:1003F000012303FA01F18160704700BF00EB811116
:10040000086A70472B4B994249D8A3F57A53994211
:100410002BD910B4284CA4FB0234A40B043C274B6A
:100420000B449B00B2FBF3F2043AFF2C39D90023B2
:1004300001336408FF2C02D9072BF9D10AE0FF2A07
:1004400008D9062B00D905E001335208FF2A01D94B
:10045000062BF9D9120292B21B0403F4E0231A43CB
:10046000E4B222430261002021E04900B2FBF1F234
:10047000043AFF2A07D9002301335208FF2A03D97F
:10048000072BF9D100E00023110289B21B0403F409
:10049000E0230B43D2B21A430261002070470120CF
:1004A0007047FF2A88BF0023CED80023D2E710BCB4
:1004B000704700BF801A0600F11976050012FD3F53
:1004C00038B504460D464FF0FF338362036A80233C
:1004D0000360036B0823036020230360042303608D
:1004E0000A684968054B9847012814BF002001207D
:1004F0006B7A012B04BF4023236038BD050408003C
:1005000000B583B001220DF107011048104B984748
:1005100072B6BFF35F8F00220E4B1A700E4B1B7822
:100520009DF807100D4AD1549B2B03D100220A4B92
:100530001A7002E00133084A13700122054B1A7049
:10054000BFF35F8F62B603B05DF804FB0080094023
:10055000912D080064010720980A0720FC09072054
:100560002DE9F04184B02F482F4B984700224FF4DB
:10057000C0012E482E4B98472E482F4B98475525A3
:100580002E4C2846A0470028FBD05620A047002824
:10059000F7D04FF080515520294CA0474FF08051A3
:1005A0005620A0472420274B9847274C042120465B
:1005B000264DA84705212046A847254B0193002634
:1005C0000296244B039301A92046234B98472349C5
:1005D0004FF00408C1F80080214D05272F600B2340
:1005E0004B606B608E72AE720E812E8142F2107380
:1005F0000B612B6140F2DC53CB60EB602046194E5F
:10060000B04729462046B04741462046164DA847E8
:1006100039462046A8470748074B984704B0BDE82D
:10062000F08100BF208A0800C145080000120E407A
:10063000D52F0800C0D40100010007206D3008004C
:1006400089300800F533080000400940F103080034
:1006500040420F0000BD010575020800A4AD07204F
:10066000CCAD0720C1020800E503080070B5B0F565
:10067000487F06D340F698030246984228BF1A46A0
:1006800001E04FF44872B1F5487F06D340F6980375
:10069000994228BF19460C4601E04FF44874054EB4
:1006A00005493046054DA847224605493046A8472A
:1006B00070BD00BF00400940A4AD0720C903080079
:1006C000CCAD072038B5064D40F2DC52054928462E
:1006D000054CA04740F2DC5204492846A04738BDEB
:1006E00000400940A4AD0720C9030800CCAD072095
:1006F00008B50948094B9847094B9847094B984753
:100700007322094B1A70094A002353809380138087
:10071000074A137008BD00BF2C8A0800C1450800B5
:100720006105080015150800F4AD0720FCAD072091
:100730009C0A0720024B187880F00100704700BF28
:100740009C0A072008B57322064B1A700023064A3C
:100750001370064A13800648064B9847064B984785
:1007600008BD00BFF4AD07209C0A0720FCAD0720A0
:10077000DC8A08004D430800C506080000000000A0
:100780002DE970431E4E1F4B1868B0471E4D18A32D
:10079000D3E90023A8471D4C00221D4BA0478046EB
:1007A00089461C4B1868B04713A3D3E90023A84718
:1007B0000022174BA04702460B4640464946164CBE
:1007C000A047164B9847164A80FB0223C218C3174E
:1007D000C3EBE22340F6A61202FB130318B2002873
:1007E000BCBF9B1818B280B2BDE87083AFF3008025
:1007F0000000000000607E400000000000887E4095
:10080000AD3C0800F8AD0720793D0800CD3F080059
:100810000000624010AE0720113A0800AD42080007
:10082000412943D4000000002DE9704F284B1B786C
:10083000642B02D0722B2ED03FE0264C264B18683A
:10084000A04782468B46254B1868A047244E1CA320
:10085000D3E90023B047234D0022234BA84780460D
:100860008946224B1868A04717A3D3E90023B04755
:1008700000221D4BA84702460B46404649461C4CE9
:10088000A04702460B46504659461A4CA0471A4B01
:100890009847BDE8708F194B9847194B1B88181A59
:1008A00040F2D3439842C8BFA0F6A610154B984219
:1008B00004DA00F6A610BDE8708F0020BDE8708F46
:1008C0000000000000607E400000000000887E40C4
:1008D000F4AD0720AD3C0800A00A0720F8AD0720C2
:1008E000793D0800CD3F08000000624010AE0720AF
:1008F000153A0800113A0800AD42080081070800C7
:10090000A40A07202DFBFFFF08B5384B9847384B4A
:100910001B78642B02D0722B30D05FE0031D082BB4
:1009200003D8344B984700205DE0002811DD324B9E
:1009300083FB0023C017C0EBE300013000EB800015
:10094000400000B22D4BB3F900309842A8BF1846C2
:1009500049E0002844DA284B83FB0023C043C00F42
:10096000C0EBE30000EB8000400000B2234BB3F982
:1009700000305A42904236DA10B234E0431D0A2B5E
:1009800003D81C4B984700202DE0002811DD1C4B9C
:1009900083FB0023C017C0EB2310013000EB800065
:1009A000800000B2154BB3F900309842A8BF18463A
:1009B00019E0002816DA124B83FB0023C043C00F56
:1009C000C0EB231000EB8000800000B20B4BB3F9AA
:1009D00000305A42904206DA10B204E0002002E0F1
:1009E000002000E00020074B188008BD29080800FF
:1009F000F4AD072045070800676666669A0A072077
:100A00001F85EB51FCAD072008B5124B1B78722BEC
:100A10000FD0732B1AD0642B1AD10F4B998801F287
:100A2000DC51588800F2DC5089B280B20B4B9847F9
:100A300008BD094B9988C1F5BB610431588800F2A3
:100A4000DC5089B280B2054B984708BD044B9847EB
:100A500008BD00BFF4AD0720FCAD07206D060800FF
:100A6000C506080008B5044B1B780BB1034B98472B
:100A7000034B984708BD00BF9C0A072009090800DE
:100A8000090A0800000000002DE9F04F83B0904CE7
:100A9000904B1868A047804689468F4BC3E9008970
:100AA0008E4B1868A04706460F468D4BC3E900677A
:100AB0008C4C04F1480550348B490A20013875E903
:100AC000022364E90223D1E91023C1E91223083982
:100AD0000128F3D1DFF80CB2CBE90089DFF808A2D6
:100AE000CAE90067814C824BD3E900238149D1E9EF
:100AF0000001A047CDE900017F4DDBE9022340461C
:100B00004946A8476EA3D3E90023A04700227B4BA8
:100B1000A047DFF840B2DDE90023D8478046894688
:100B2000774BC3E90089DAE9022330463946A84702
:100B300065A3D3E90023A0470022704BA047DDE95D
:100B40000023D84702460B466E4CC4E900236E4B87
:100B50001B78722B03D1206001F100416160694B69
:100B6000D3E9004522462B4640464946674EB047EA
:100B7000DFF878A10022664BD047664BCDE9000133
:100B80000A460146C3E90012DFF86CB122462B4643
:100B900040464946D84706460F465F4BC3E90067C3
:100BA0005E4BB3F900004A4B9847DDE90023D84774
:100BB00004460D465A4BC3E900455A4BD3E900237E
:100BC00030463946D04706460F46574BC3E90067C3
:100BD000564BD3E9002320462946D0478046894614
:100BE0000022534B20462946DFF854A1D04748B194
:100BF0000022504B404649463C4CA0474E4BC3E96F
:100C0000000113E000224D4B204629464C4CA047E2
:100C100018B9494BC3E9008908E042464B464046B3
:100C200049463A4CA047444BC3E90001DFF8DCA039
:100C3000444BD3E9002330463946D047424BD3E9F1
:100C40000023D04704460D46404BC3E90045404EC3
:100C500002460B46D6E90001274FB8478046894631
:100C6000C6E90089DFF8F0B0DBE900232046294619
:100C7000D04706460F46CBE90067DFF8E0B02E4BC1
:100C8000D3E90023DBE90001D04704460D46CBE958
:100C90000045DFF888B002460B4640464946D0473B
:100CA000DFF8BC80C047ABF8020022462B46304636
:100CB0003946D047C047ABF8040003B0BDE8F08F19
:100CC0000000000000607E400000000000887E40C0
:100CD000AD3C0800F8AD0720800B072010AE0720C0
:100CE000600B0720100B0720C00A0720793D080081
:100CF0004001072050010720113A080000408F40B2
:100D0000680B0720980B0720F4AD0720153A080060
:100D10000000E03F700B0720780B0720FCAD072098
:100D2000880B072048010720B80A07203801072050
:100D30000000694000000840B00A07200000494058
:100D400099420800A80A0720900B072030AE072020
:100D500018AE0720CD3F080028AE072020AE0720A0
:100D6000AD420800F8B50E480E4B98470E4F0D4E99
:100D70000E4D3846B0470520A8470D4B98470D4803
:100D80000D4B98470D4B984700231A4619460C48BF
:100D900000680C4CA04700200B4B9847E9E700BFC8
:100DA000208B08004D4308003C8B0800C12408003C
:100DB000ED210800808D5B00010007207111080003
:100DC00080AE0720011B0800312608002DE9F843FA
:100DD0001448154B9847DFF87890DFF87880124C6C
:100DE000002600270520C8474046A0470F4B9847DC
:100DF0000F48A04732463B460E49D1E900010E4D4F
:100E0000A8470028EED00D48A0470D48A047002372
:100E10001A4619460B4800680B4DA84700200B4B9B
:100E20009847DFE7848B08004D430800ED21080058
:100E30009C8B0800C0AE072049420800EC8B0800DC
:100E4000088C080090AE0720011B0800312608001E
:100E5000C1240800708C08002DE9F04182B01D48C3
:100E60001D4B984701221D4B1A60DFF898801C4FDC
:100E70001E46C0470190B84738B11A48164B9847EC
:100E800000203060184B9847F3E73368002BF0D010
:100E9000164B19684A1C1A6015480F4CA047154D8F
:100EA000A847154B98471548A047142101A8144C92
:100EB000A047A847142101A8A047A847142101A8CA
:100EC000A047A847142101A8A047A847142101A8BA
:100ED000A047CEE7108C08004D43080008AE07205D
:100EE00035070800288C0800312608000CAE0720C2
:100EF000348C0800650A0800890A08002C8E080056
:100F000031240800ED2108002DE9F0418046174EFC
:100F1000174D184CB04700231A4619462868A047B9
:100F200001280BD11448154FB8471548B847D8F8D1
:100F300008301868134B98471348B84700231A46DF
:100F4000194612480068A04701280BD10A480B4FE8
:100F5000B8470F48B847D8F804301868094B984785
:100F60000948B84705200B4B9847D3E7ED21080007
:100F700038AE0720B11C08003C8C08004D43080027
:100F8000408C0800ED200800588C080090AE072027
:100F9000648C0800C12408002DE9F04782B0234882
:100FA000234B984700200021224BC3E90001012276
:100FB000214B1A601E4CDFF8B8A006460F464FF0D2
:100FC0000008DFF8B0901D4D0520A8475046A04707
:100FD0001B4B9847184B1B68012BF5D11948A047AC
:100FE00001A91948194B98471948A0470198194B6E
:100FF0009847019B012B04D10E4BC3E900671648AB
:10100000A047019B022B04D10A4BC3E90089134876
:10101000A0471348A04700231A4619461148006804
:10102000114DA8470020114B9847CCE7788C080059
:101030004D430800C0AE072094AE0720C12408002D
:10104000ED210800948C0800B88C08007543080056
:10105000BC8C0800A5130800CC8C0800F88C080094
:101060001C8D080038AE0720011B0800312608003F
:101070004C8C08000000F03F2DE9F04782B082461A
:101080002448254CA0472548A047254E25464FF02B
:101090000009DFF8CC800520B0472248A847224B42
:1010A0009847002200232149D1E90001204CA047A4
:1010B00008B12048A847CDF804904FF080621E4B3D
:1010C0001A631E4B98471E4BC3F800901D4C01231A
:1010D0002360DAF8103018681B4B984723685BB11F
:1010E0001A4F3224C04721463846A8472046B04709
:1010F000144B1B68002BF5D11548A8474B464A46B0
:10110000494614480068144CA0474846134B98477A
:10111000C1E700BF2C8D08004D430800448D080036
:10112000C1240800488D0800ED210800C0AE07204A
:1011300049420800548D080000100E406511080057
:101140000CAE072008AE0720ED200800808D0800B7
:101150008C8D0800ACAE0720011B0800312608006A
:10116000650A0800014B1868704700BFA00B0720F4
:1011700000B585B00D4B02930D4B019300238DF804
:101180000D3017200B4B984701A90B480B4B984784
:1011900020B90B480B4B9847012003E00A48094B44
:1011A0009847002005B05DF804FB00BFA086010051
:1011B00000BD0105F533080000000940C104080026
:1011C0009C8D08004D430800B08D0800F0B583B039
:1011D00004460D46002301931F4B984207D11F463A
:1011E0001E4E29463846B0470028FAD119E01C4B5C
:1011F000984209D11F461B4E01A93846B047002826
:10120000FAD1019B2B7019E0174B984209D11E4669
:10121000144C01A93046A0470028FAD1019B2B703D
:1012200018E0124B9C4209D11E460E4C01A93046D3
:10123000A0470028FAD1019B2B700BE00C4B9C427D
:1012400008D11E46074C01A93046A0470028FAD114
:10125000019B2B7003B0F0BD00080E409D2E0800CE
:1012600000800940A115080000C0094000000A40A4
:1012700000400A4070B50C461E4B984208D11E46ED
:101280001D4D21463046A8470028FAD1012070BDE7
:101290001A4B984208D11E46194D21463046A847A0
:1012A0000028FAD1012070BD164B984208D11E4685
:1012B000134D21463046A8470028FAD1012070BDC1
:1012C000114B984208D11E460D4D21463046A84785
:1012D0000028FAD1012070BD0C4B984208D11E465F
:1012E000074D21463046A8470028FAD1012070BD9D
:1012F000002070BD00080E408D2E080000800940BF
:101300008D15080000C0094000000A4000400A4056
:1013100030B585B00820154DA847154C154B1C60FD
:10132000154A164B1A60164A164B1A60164B019353
:101330004FF4E13302934FF4006303930820A8476E
:1013400001A92046114B9847114D2B680021986840
:10135000104CA0472B6800215868A0470E480F4C3E
:10136000A0470F48A04705B030BD00BFF5330800C7
:1013700000080E40D8AE072075120800D4AE072032
:10138000CD110800A0AD072000BD0105552E0800B5
:1013900098050720D1450800EC8D08004D43080052
:1013A000FC8D080000B58BB00A2201A9034B9847B9
:1013B00001A8034B98470BB05DF804FBCD43080030
:1013C000C14508004F4BDA6B02F0CC004E490B6868
:1013D0004340086013F0040F28D012F0040F12D01D
:1013E00012F0080F07D1494801680131016013F07C
:1013F000080F36D139E0454801680139016013F022
:10140000080F1CD131E012F0080F07D03F480168E7
:101410000131016013F0080F27D015E03B48016847
:101420000139016013F0080F1FD015E013F0080F09
:101430001BD012F0080F0CD012F0040F04D0334868
:1014400001680131016010E0304801680139016034
:101450000BE012F0040F04D12C4801680131016047
:1014600003E02A4801680139016013F0400F28D0D9
:1014700012F0400F12D012F0800F07D124490A68F1
:1014800001320A6013F0800F36D1704720490A6894
:10149000013A0A6013F0800F32D01BE012F0800F87
:1014A00007D01B490A6801320A6013F0800F16D179
:1014B000704717490A68013A0A6013F0800F1FD07D
:1014C00015E013F0800F1BD012F0800F0CD012F03B
:1014D000400F04D00E4A13680133136070470C4A62
:1014E0001368013B1360704712F0400F04D1084AA3
:1014F0001368013313607047054A1368013B13609A
:10150000704700BF00120E4004AE0720F8AD072060
:1015100010AE072030B583B00F48104B9847104CE1
:101520000122CC2120460F4B98470F4B00934023BC
:10153000CC220D2120460D4DA8474FF400520C4BF4
:101540001A60CC2120460B4B984700230A4A1360AF
:101550000A4A136003B030BD0C8E0800C145080074
:1015600000120E40D52F0800C51308004D320800A8
:1015700000E100E061300800F8AD072010AE072060
:10158000014B0360704700BF01474E52436913F09F
:10159000020F1DBFC1F30801C16100200120704787
:1015A000436913F0010F05D08369C3F308030B608F
:1015B000002070470120704700F1080343604FF09E
:1015C000FF328260C360036100230360704700BF85
:1015D00000230361704700BF43685A684A6042684D
:1015E0008A605A68916059604160086103680133FC
:1015F0000360704710B40C68B4F1FF3F01D1036978
:101600000AE000F10803C2681268944204D35B68E0
:101610005A6812689442FAD25A684A6091608B60A4
:101620005960086103680133036010BC704700BF54
:10163000436882689A60836842685A6003695A689E
:10164000904204BF82685A60002202611A68013A1F
:101650001A601868704700BF03480068006880F38C
:10166000088862B600DF00BF08ED00E04FF080732D
:1016700040F8043C40F8081C002340F80C3C40F8BB
:10168000202C4038704700BF064B19680868B0E846
:10169000F00F80F309884FF0000080F311884EF0BE
:1016A0000D0E70476CAC07204FF08052014B1A6052
:1016B000704700BF04ED00E0EFF311804FF0A00190
:1016C00081F311887047002008B5034B9847034AFF
:1016D00013680133136008BDB916080058010720CC
:1016E00080F31188704700BF08B5044A1368013BB6
:1016F000136013B90020024B984708BD580107201A
:10170000E1160800EFF309800C4B1A6820E9F00F8E
:1017100010602DE908404FF0A00080F3118800F020
:1017200035FF4FF0000080F31188BDE808401968CC
:101730000868B0E8F00F80F3098870476CAC0720A8
:1017400008B54FF08052054B1A60054B9847054B82
:1017500098470020044B984708BD00BF04ED00E007
:10176000B91608000D220800E1160800034A044BD0
:101770001A600722043B1A60704700BF1F4801002F
:1017800014E000E010B5094B1A6842F470021A60C8
:101790001A6842F070421A60054B98470024054BC6
:1017A0001C60054B9847204610BD00BF20ED00E0AF
:1017B0006D1708005801072059160800124A00E06A
:1017C0001A4613688342FBD310B451685418A042E0
:1017D00003D1406801445160104641684418A34257
:1017E0000CD10A4B1B689C4206D0636819444160C7
:1017F00013681B68036002E0046000E0036090422D
:1018000018BF106010BC7047ACAB0720A8AB072016
:1018100038B50446294B9847294B1B689BB9294A80
:10182000294B13600021516049F6F0729818244D3D
:10183000286049F6F475595199505A601860234A46
:101840001368103B1360002C2ED004F1100212F02C
:10185000070F1CBF22F007020832511E49F6FE7323
:10186000994223D817490C6801E021461C46636859
:101870009A4202D92368002BF7D1114B1B689C4276
:1018800016D00D68103523680B6063689B1A202BF7
:1018900004D9A018436062600D4B98470B4A136847
:1018A00061685B1A136004E0002502E0002500E097
:1018B0000025084B9847284638BD00BFDD210800A9
:1018C000A8AB0720ACAB0720A80B07205C010720C2
:1018D000BD1708002D23080080B110B50446084B41
:1018E0009847084A54F80C1C13680B441360A4F181
:1018F0001000054B9847054B984710BD704700BF37
:10190000DD2108005C010720BD1708002D23080019
:1019100010B50446036C3BB903681BBB4068134B0E
:101920009847002363601DE06AB91A468068104B2F
:101930009847A268236C1344A3606268934211D352
:101940002368A3600EE01A46C068094B9847236CD1
:101950005B42E2681A44E26021688A4202D262680D
:101960001344E360A36B0133A36310BD8529080012
:10197000D143080038B50346006858B11A6CDC68DA
:101980001444DC605D68AC4228BFD8600846D96862
:10199000014B984738BD00BFD1430800F8B5044655
:1019A0001E4B9847A36C002B13DD636A1BB910E034
:1019B000636A23B90DE004F12406194D194F30462E
:1019C000A84700B1B847A36C013BA364A36C002BEC
:1019D000EEDC4FF0FF33A364134B98470F4B98474F
:1019E000636C002B13DD23691BB910E0236923B955
:1019F0000DE004F110060A4D0A4F3046A84700B129
:101A0000B847636C013B6364636C002BEEDC4FF002
:101A1000FF336364044B9847F8BD00BFC916080044
:101A20009D270800CD280800E916080038B518B928
:101A3000174B984700BFFDE70D460446154B9847E6
:101A40002268216CE36B03FB01F3D0186060002077
:101A5000A063A2605B1A1344E3604FF0FF3363643A
:101A6000A36455B923697BB104F110000A4B984770
:101A7000012809D1094B984706E004F11000084DF0
:101A8000A84704F12400A847064B9847012038BD19
:101A9000B9160800C91608009D270800A9160800F5
:101AA000B9150800E9160800F8B5A0B10D461746AB
:101AB000064650200E4B9847044660B105FB06F0E1
:101AC00001300B4B9847206040B92046094B98479E
:101AD00001E000BFFDE7084B9847FAE7E66325649D
:101AE00001212046054B984784F84D702046F8BDEB
:101AF00011180800D9180800B91608002D1A080096
:101B00002DE9F04F85B00192009318B9384B9847F2
:101B100000BFFDE78A46044629B9036C2BB1344B5C
:101B2000984700BFFDE7002700E00027314EDFF8AF
:101B3000ECB0314DB047A26BE36B9A4212D2009ADF
:101B4000514620462D4B9847636A3BB104F124006F
:101B50002B4B9847012801D12A4B9847264B984791
:101B6000012042E0019B1BB9234B984700203CE039
:101B700017B902A8D8470127A847234B9847B04771
:101B8000636CB3F1FF3F04BF00236364A36CB3F144
:101B9000FF3F04BF0023A364A84701A902A81B4B71
:101BA0009847E0B9B047D4F83890D4F83C80A847BB
:101BB000C1450ED1019904F11000154B98472046FC
:101BC000144B9847144B98470028B3D10D4B9847B6
:101BD000B0E720460F4B98470F4B9847AAE720469F
:101BE0000C4B98470C4B9847002005B0BDE8F08F90
:101BF000B9160800C9160800E916080011190800EE
:101C00009D270800A9160800DD21080049280800C2
:101C1000F92608009D1908002D2308002128080036
:101C20002DE9F04118B91E4B984700BFFDE70E465D
:101C300015469846044629B9036C1BB1184B9847C2
:101C400000BFFDE7164B98470746A26BE36B9A422D
:101C500018D2424631462046124B9847A36CB3F146
:101C6000FF3F0AD1636A7BB104F124000E4B984711
:101C700060B16DB101242C600BE0A36C0133A3644F
:101C8000012406E0002404E0012402E0012400E035
:101C900001243846054B98472046BDE8F08100BF37
:101CA000B9160800111908009D270800E116080060
:101CB0002DE9F04F85B0019218B9464B984700BF07
:101CC000FDE789469A46044629B9036C2BB1414B7E
:101CD000984700BFFDE7002700E000273E4EDFF8F1
:101CE00028B13E4DB047A36B43B3E5684946204653
:101CF0003B4B9847BAF1000F12D1A36B013BA36392
:101D0000236813B9374B98476060236993B104F196
:101D10001000354B984701280CD1344B984709E007
:101D2000E560636A33B104F124002F4B984708B192
:101D30002E4B9847294B9847012048E0019B1BB93F
:101D4000264B9847002042E017B902A8D847012740
:101D5000A847274B9847B047636CB3F1FF3F04BFD8
:101D600000236364A36CB3F1FF3F04BF0023A364AB
:101D7000A84701A902A81F4B984710BBB047D4F849
:101D80003880A847B8F1000F15D1236823B9B047B0
:101D90006068194B9847A847019904F12400174B34
:101DA00098472046164B9847164B9847002899D1DC
:101DB0000E4B984796E72046114B9847114B984792
:101DC00090E720460E4B98470E4B9847002005B0F1
:101DD000BDE8F08FB9160800C9160800E91608001A
:101DE00075190800D92808009D270800A9160800C1
:101DF000DD2108004928080005290800F926080007
:101E00009D1908002D2308002128080038B5044634
:101E10000D460D4B9847636CB3F1FF3F04BF0023A1
:101E20006364A36CB3F1FF3F04BF0023A364074BBB
:101E30009847A36B23B9294604F12400044B984723
:101E40002046044B984738BDC9160800E91608001B
:101E5000592708009D19080010B50F4B1B685860E2
:101E60000E4B1B68984207D20D4B18680A4B196835
:101E700004310C4B984710BD04460B4B1868064BB9
:101E800019680431074B9847084B1B689C423CBFBC
:101E9000064B1C6010BD00BF6CAC072088AC07204F
:101EA0008CAC0720F5150800C8AB0720600107209F
:101EB0002DE9F04F83B00C9FDDF834800E9E019029
:101EC00018B9624B984700BFFDE7894615469B4607
:101ED000042F03D95D4B984700BFFDE74C205C4BB6
:101EE00098470446002800F0AB80002E40F0A58003
:101EF000A800574B9847206318B92046554B984780
:101F00009EE0AA00A521544B984705F18045013D6C
:101F1000236B03EB850323F007050A22494604F1EE
:101F200034004E4B9847002384F83D303E46042F42
:101F300028BF0426E662A66404F104094846DFF8D7
:101F40006CA1D04704F11800D0472461C6F1050602
:101F5000A66164625A4601992846414B9847206021
:101F600010F0070F03D0394B984700BFFDE7B8F1D9
:101F7000000F01D0C8F800403A4B98473A4A13681E
:101F800001331360394B1B680BBB384B1C60136863
:101F9000012B26D1364D05F16408364E2846B04750
:101FA00014354545FAD1DFF808814046314DA84740
:101FB000314E3046A8473148A8473148A8473148F4
:101FC000A847314BC3F80080304B1E6009E0304B0E
:101FD0001B6833B9254B1B68DB6A9F4224BF234B28
:101FE0001C60E06A2B4B1B68984284BF294B186029
:101FF000294A1368236401331360284B1B689842F5
:1020000084BF264B186000EB80004946184B03EB59
:102010008000234B9847234B98471D4B1B6843B1C7
:10202000124B1B68DB6A9F4205D91F4B9847012062
:1020300008E0012006E0012004E00663304660E786
:102040004FF0FF3003B0BDE8F08F00BFB9160800B5
:1020500011180800D9180800BD4408008D47080071
:102060006D160800C9160800ACAC07206CAC072040
:1020700004AC0720B9150800ECAB072070AC0720B2
:10208000D8AB0720B4AB0720C8AB07208CAC072027
:10209000D0AB0720B0AC072090AC072000AC0720E5
:1020A000D9150800E9160800A9160800D11508007E
:1020B00094AC072008B518B9094B984700BFFDE755
:1020C0004169084A914207D1806A074B984205D07E
:1020D000B0FA80F0400908BD002008BD002008BD0E
:1020E000B9160800B4AB072070AC072038B518B992
:1020F000164B984700BFFDE70446154B1B689842F6
:1021000023D0144B98472046134B984701281AD1E7
:10211000251D2846114B9847E06A114B1B689842D1
:1021200084BF0F4B186000EB800029460D4B03EB7A
:1021300080000D4B9847064B1B68E26ADB6A9A42A7
:1021400001D30A4B98470A4B984738BDB916080087
:102150006CAC0720C9160800B5200800311608002D
:1021600000AC072004AC0720D9150800A916080008
:10217000E916080010B584B000230393029301937D
:10218000009382220D490E480E4CA04701280ED123
:102190000D4B984701280AD10C4B984701220C4B54
:1021A0001A6000220B4B1A600B4B984704E018B9D9
:1021B000064B984700BFFDE704B010BD308E080005
:1021C00009250800B11E08007D2A0800B91608007C
:1021D000D0AB072088AC072085170800024A136897
:1021E00001331360704700BF68AC072010B5044B83
:1021F0009847044B1C68044B9847204610BD00BF0D
:10220000C916080088AC0720E91608002DE9F0413E
:102210003A4B1B68002B6BD1394B1A6801321A609C
:102220001B6803BB374B1B681B681BB1364B9847B9
:1022300000BFFDE7334B1968344A1068186011601D
:1022400033490A6801320A601B681B6823B94FF0E2
:10225000FF32304B1A6006E02A4B1B68DB68DB68F4
:102260005A682C4B1A60264B1A682A4B1B689A42F4
:1022700042D3244B1B681B686BB1224B1B68DB6885
:10228000DC6863681E4A1268934213D8224E234FBB
:10229000DFF8948012E04FF0FF321E4B1A60BDE869
:1022A000F081184B1B68DB68DC686368144A1268AD
:1022B000934203D9174A1360BDE8F081251D2846D3
:1022C000B047A36A13B104F11800B047E06A3B6855
:1022D000984288BF386000EB8000294608EB8000F8
:1022E0000F4B9847074B1B681B68002BD9D1D2E7CF
:1022F0000C4A136801331360BDE8F08168AC072015
:1023000088AC0720C8AB0720B91608008CAC0720A2
:1023100084AC0720600107203116080000AC0720BC
:10232000D9150800CCAB072004AC07202DE9F843F1
:10233000304B1B681BB9304B984700BFFDE72F4B54
:1023400098472C4B1A68013A1A601B68002B49D138
:102350002B4B1B6803BB002447E0D8F80C30DC682B
:1023600004F11800B84704F104094846B847E06A88
:102370003368984288BF306000EB80004946214BAB
:1023800003EB8000204B9847204B1B68E26ADB6A16
:102390009A4228BF012504E00025DFF890801C4FF9
:1023A0001C4ED8F80030002BD7D11B4B1B6863B1F3
:1023B000194B1B687BB1194D174CA8472368013B8B
:1023C00023602368002BF8D105E0012D03D0144BC6
:1023D0001B68012B08D10022114B1A60114B984742
:1023E000012402E0002400E000240F4B984720461F
:1023F000BDE8F88368AC0720B9160800C9160800C4
:10240000ACAC072004AC0720D91508006CAC072041
:102410003116080000AC0720CCAB07200D220800C5
:10242000A8AC0720A9160800E916080070AC072020
:1024300038B518B91A4B984700BFFDE70C4605465A
:1024400019B9174B984700BFFDE7164B98472B6803
:102450001C44154A1268934207D9A3421CD9124B57
:102460001B682C609C420FD906E0A34212D80E4B89
:102470001B689C420ED80FE00C4B186804300C4BC4
:10248000984720460B4B98470B4B984730B90B4B5E
:10249000984738BD2C60EFE72C60F5E738BD00BFEA
:1024A000B9160800DD21080088AC07206CAC0720B5
:1024B00031160800591E08002D230800A91608002F
:1024C00010B580B10446094B9847094B1B681C4462
:1024D000084B18680430084B98472046074B98472C
:1024E000074B984708B9074B984710BDDD210800F6
:1024F00088AC07206CAC072031160800591E080074
:102500002D230800A916080080B5154D154FDFF8DA
:102510007480154E19E0C0473C68B047ACB1134B0E
:102520009847FB68DC68201D114B9847114A1368D7
:10253000013B13602B68013B2B600F4B9847206BCE
:10254000DFF84490C8472046C8472B68002BE2D1EB
:102550000A4B1B68012BDCD9094B9847D7E700BF12
:10256000D4AB0720D8AB07202D230800C9160800DC
:1025700031160800ACAC0720E916080004AC0720AF
:10258000A9160800DD210800D918080010B5224B53
:102590001B686BB9214B1B6803EB83039B00204A2C
:1025A000D358CBB91D4B1B6843B11C4A1C4909E0E9
:1025B00001221C4B1A6010BD13681BB91A4B9847B7
:1025C00000BFFDE71368013B1360136803EB83034F
:1025D00051F82330002BEFD0104B1B68104A9900A4
:1025E000C81802EB80004468646844600246083200
:1025F000944206D1606803EB8301094A02EB810231
:10260000506003EB8303064A02EB83035B68DA68DE
:10261000064B1A6010BD00BF68AC072000AC072055
:1026200004AC0720A8AC0720B91608006CAC072042
:1026300038B50446264B9847264B1B68A34200D06A
:1026400014BB244B1D682C1D2046234B9847AB6AB6
:102650000BB332E0214B1B6813B1214B984738BDB7
:10266000204B1A68204B1B689A4203D10022194B59
:102670001A6038BD1D4B984738BD294619481C4B78
:1026800098471C4B984738BD251D2846124B984744
:10269000A36A3BB9F1E721461248154B9847154B01
:1026A0009847D7E704F118000B4B984729460D4887
:1026B0000F4B98470F4B984738BD05F11800064B54
:1026C0009847214607480A4B98470A4B9847C1E765
:1026D000C91608006CAC072031160800D0AB0720E3
:1026E000A9160800B4AB0720ACAC07208D25080064
:1026F000D9150800E916080038B518B90E4B9847E7
:1027000000BFFDE70C460D4D296818310C4B98476A
:10271000286804300B4B9847B4F1FF3F05D1296876
:1027200004310948094B984738BD094B18682044C3
:10273000084B984738BD00BFB91608006CAC07209D
:10274000F515080031160800B4AB0720D9150800AC
:1027500088AC0720591E080038B518B9094B9847AE
:1027600000BFFDE70D46084C21681831074B98471C
:1027700020680430064B9847064B18682844064BDF
:10278000984738BDB91608006CAC0720D915080069
:102790003116080088AC0720591E080038B5C368F8
:1027A000DC681CB9164B984700BFFDE704F118051B
:1027B0002846144B9847144B1B689BB9251D284687
:1027C000104B9847E06A114B1B68984284BF0F4B2F
:1027D000186000EB800029460D4B03EB80000D4B89
:1027E000984703E029460C480A4B98470B4B1B6857
:1027F000E06ADB6A984234BF0020012038BD00BF88
:10280000B91608003116080068AC072000AC072094
:1028100004AC0720D915080070AC07206CAC072069
:1028200008B518B9054B984700BFFDE7044A126880
:102830000260044A1268426008BD00BFB916080071
:1028400084AC072088AC072038B518B9194B9847D5
:1028500000BFFDE70D46044619B9164B984700BF67
:10286000FDE7154B98472B68B3F1FF3F18D0134A8B
:1028700012682168914204D0114A1268616891423D
:1028800010D90F4A11686068091A8B420CD9126876
:10289000121A9B1A2B6020460A4B9847002404E02A
:1028A000002402E0012400E00124074B9847204661
:1028B00038BD00BFB9160800C916080084AC07204F
:1028C00088AC072021280800E91608000122014BE6
:1028D0001A607047A8AC0720014B1868704700BF0A
:1028E0006CAC0720054B1B6833B1054B1B68002BF4
:1028F0000CBF01200220704700207047D0AB07209A
:1029000068AC0720002831D038B5C36A1849096877
:10291000C96A8B4229D216490968C96AC1F1050101
:10292000816103EB8303134901EB830341699942FE
:1029300017D10546041D20460F4B98470C4B1B68CA
:10294000D86AE8620D4B1B68984284BF0B4B186035
:1029500000EB80002146074B03EB8000084B9847B3
:1029600038BD034B1B68DB6AC36238BD704700BFCC
:102970006CAC072004AC07203116080000AC07201F
:10298000D9150800E8B138B5C16A826C914217D0F8
:102990000446051D28460B4B9847A06CE062C0F129
:1029A0000503A361084B1B68984284BF064B18605F
:1029B00000EB80002946054B03EB8000044B984751
:1029C00038BD70473116080000AC072004AC072062
:1029D000D915080008B54160006191420AD8D21AA1
:1029E00083699A4211D2011D0A4B18680A4B984715
:1029F000002008BD9A4201D2994208D2011D074B1E
:102A00001868054B9847002008BD012008BD01202B
:102A100008BD00BFE8AC0720F5150800B4AC0720DE
:102A200070B50D4B98470D4B1B688BB90C4D284664
:102A30000C4EB0470C4C2046B0470C4B1D600C4B65
:102A40001C6000220C2105200A4B9847034B18609C
:102A5000094B984770BD00BFC9160800E4AC0720B9
:102A6000B8AC0720B9150800CCAC0720B4AC0720DF
:102A7000E8AC0720A91A0800E916080010B584B0D0
:102A80000B4B98470B4B1B6863B1002303930293D6
:102A90000193042200924FF4827207490748084CC0
:102AA000A04718B9074B984700BFFDE704B010BD19
:102AB000212A0800E4AC07203C8E0800D12B080036
:102AC000B11E0800B916080030B585B00F4C256856
:102AD000CDB11C460191029203906CB90C4B984702
:102AE00001284FF000030CBF089A1A4601A90748B5
:102AF0000068084CA04707E00023224601A92846A9
:102B0000054CA04700E0002005B030BDE4AC072034
:102B1000E5280800011B0800211C08002DE9F047EA
:102B200082B08146224B98478046224B1B689842D0
:102B300034D224E0DA68D2F800A0DB68DC68251D16
:102B40002846B847636A20469847E369012B18D1A5
:102B5000A36953449A4506D26360246129463068CC
:102B6000154B98470DE0002100910B465246204638
:102B7000124CA04728B9124B984700BFFDE7114EF1
:102B8000114F33681A68002AD4D1104A10680D49D1
:102B9000086013600123C9F8003002E00023C9F87F
:102BA0000030044BC3F80080404602B0BDE8F08717
:102BB000ED210800E0AC0720F5150800C92A08003F
:102BC000B9160800B4AC072031160800E8AC07209D
:102BD0002DE9F04387B04D4DDFF860814C4B1B6809
:102BE0001A68002A00F08880DB681E68494B984705
:102BF00003A8494B98470746039B002B30D18642D8
:102C000024D8464B9847424B1B68DB68DC68201D84
:102C1000C047E369012B14D1A16933463A463144D8
:102C200020463F4FB84701280BD1002100910B46A9
:102C3000324620463B4EB04718B93B4B984700BF41
:102C4000FDE7636A204698470CE00026F11B2868E0
:102C5000364B9847314B984720B9354B984701E0A0
:102C60002E4B984702A82C4B98470746314EDFF869
:102C7000B09039E0059C1CB163690BB1201DC047C1
:102C8000039B022B20D0032B2BD0002B2CD104999B
:102C9000A0690B463A4601442046C847012823D183
:102CA000636A20469847E369012B1DD1A269002180
:102CB00000910B460498024420461A4CA04798B94C
:102CC000194B984700BFFDE70499A16119B9164B4C
:102CD000984700BFFDE73B463A4639442046C8477F
:102CE00002E02046144B984700231A4603A928689F
:102CF000B0470028BED171E7064B984703A8064BA2
:102D000098470746039B002B9FD0A9E7E4AC072018
:102D1000B4AC0720DD2108001D2B08002D2308007E
:102D2000D5290800C92A0800B91608000D1E080098
:102D3000A9160800B11C0800D918080031160800AF
:102D40000138022815D82DE9F0410E4614469AB1F3
:102D50000D46DFF838800C4FD8F8000015F8011B3D
:102D60003B68984700280ADBA81B013CF4D1BDE86A
:102D7000F0814FF0FF3070470020BDE8F0814FF048
:102D8000FF30BDE8F08100BFD4AE0720D8AE0720E9
:102D9000002A4ED02DE9F04F85B006460D46174665
:102DA000DFF8A4A0DFF8A490CDF800A0DFF8A0B071
:102DB000214CCDF804B000230393564505D1294694
:102DC0000098C8470028FAD115E05E4507D103A94D
:102DD0000198A0470028FAD1039B2B7017E0174BEE
:102DE0009E4208D1984603A94046A0470028FAD140
:102DF000039B2B7016E0124B9E4208D1984603A904
:102E00004046A0470028FAD1039B2B700AE00D4BE7
:102E10009E4207D1984603A94046A0470028FAD110
:102E2000039B2B700135013FC5D1002005B0BDE8E3
:102E3000F08F0020704700BFA115080000C00940B6
:102E400000000A4000400A4000080E409D2E080085
:102E50000080094010B4AC2303600B684A68B3FBE0
:102E6000F2F31B095C1E4FF6FE7294420AD803620D
:102E70008B68436040F20223C0F820315023036086
:102E8000002000E0012010BC704700BF436913F030
:102E9000020F1ABFC161002001207047436913F07F
:102EA000010F1DBF83690B7000200120704700BF18
:102EB00010B50E480E4B98473E2100200D4B984709
:102EC0000D4CA0470028FCD00C4B98470C4A0D4BEA
:102ED0009A620D4CA0470028FCD010200B4B98475D
:102EE0000B4B98470148024B984710BD00BD0105A8
:102EF000B100072071330800C5330800D53308003E
:102F0000013F0D2000060E40E5330800093308009C
:102F1000F934080010B54FF40042164B5A600B20EC
:102F2000154CA0470C20A0470D20A0470E20A0471D
:102F30004FF060513B20114CA0474FF0605155209D
:102F4000A0474FF060515620A0470D496820A04788
:102F50000C495C20A0470C4A4FF440710B480C4BC5
:102F600098474FF000612C20A0474FF000612D20C2
:102F7000A04710BD501A0E40F533080089300800F4
:102F8000790000280100002801000008000E0E4012
:102F90005D3108004264B1F1805F16D004D8C1B140
:102FA000B1F1006F0AD013E0B1F1405F11D0B1F17F
:102FB000605F0ED0B1F1205F0AD17047016F036FDF
:102FC0000B4023EA0203036702E0036F1343036726
:102FD00042607047416412F0010F14BF4166016600
:102FE00012F00A0F14BF0162416212F0020F02D008
:102FF000C0F8801004E012F0080F18BFC0F8841069
:1030000041610160704700BF10B44164019C0CB184
:10301000416600E001660BB1016500E041650AB15F
:10302000016300E041630161016010BC704700BFB3
:1030300012F0100F10D0C0F8B01012F0200F14BF13
:10304000C0F8D410C0F8D01012F0400F14BFC0F870
:10305000C010C0F8C4107047C0F8B410704700BF6B
:1030600001647047C06C7047806C7047430903F57A
:10307000001303F207735B02DB6B00F01F0023FAFF
:1030800000F000F00100704770B582B00D464309B2
:1030900003F5001303F207735C0201F0F043B3F190
:1030A000205F30D006D8B3F1006F0AD0B3F1805F53
:1030B00018D049E0B3F1405F30D0B3F1605F2DD05C
:1030C00042E000F01F000126864032464FF00061CA
:1030D00020461F4B984715F0010F14BF6666266601
:1030E000012032E000F01F000126864032464FF0FA
:1030F00080512046164B984715F0010F14BF6666A5
:103100002666012021E000F01F0101262A4606FA6A
:1031100001F120460F4B9847304616E005F060520B
:1031200000F01F01012605EA06030093C5F38003A2
:10313000B2F1605F14BF0022012206FA01F12046BD
:10314000054CA047304600E0002002B070BD00BF33
:10315000952F0800D52F08000930080070B582B0FF
:1031600005460E46144602F0F043B3F1205F26D028
:1031700006D8B3F1006F0AD0B3F1805F13D034E00A
:10318000B3F1405F1FD0B3F1605F1CD02DE00A4661
:103190004FF00061164B984714F0010F14BF6E6694
:1031A0002E66012022E00A464FF08051104B9847CE
:1031B00014F0010F14BF6E662E66012016E00D4B51
:1031C0009847012012E004F0605204F001030093DC
:1031D000C4F38003B2F1605F14BF002201223146C4
:1031E0002846054CA047012000E0002002B070BD39
:1031F000952F0800D52F0800093008002DE9F0416F
:10320000044688460E4B9847054620460D4B984786
:10321000054013D00C4C04F160062368434508D1E7
:103220006168294205D0E36840469847636825EA0B
:103230000305B44202D01034002DEED1BDE8F08178
:103240006530080069300800F0AC0720F8B5174C6D
:103250002668062E28D84FF0000C6446144FA64668
:1032600025017D598D4204D107EB04156D68954207
:1032700004D00134E4B2A446A642F0D20C4D4FEA89
:103280000E1E05EB0E0445F80E106260A360069951
:10329000E1600136664504BF04490E6011461A46D6
:1032A000044B98470020F8BD0120F8BDECAC072086
:1032B000F0AC07203130080008B50B210148024B63
:1032C000984708BD000E0E40FD31080008B50C21DE
:1032D0000148024B984708BD00100E40FD31080020
:1032E00008B50D210148024B984708BD00120E4059
:1032F000FD31080008B50E210148024B984708BD72
:1033000000140E40FD310800184A136B23F07003BF
:1033100018431063936E13F0080F03D009E0013BCC
:1033200003D11EE04FF4006310498A6E12F0080FBB
:10333000F5D00E4A136B23F0030343F0020313632B
:10334000906E10F0080004D000207047013B03D1BC
:1033500009E04FF4006305498A6E12F0080FF5D0BA
:103360007047012070470120704700BF00060E40E3
:1033700038B111490B6A114A1A40114B13430B62C1
:1033800070470D48026A090289B222F45C1323F0E7
:10339000030343F45C1343F001030B43036202464F
:1033A000936E13F0010FFBD0034A136A43F09B7333
:1033B00043F480331362704700060E40FCFFC8FEE2
:1033C00002003701024B986E00F48030704700BF56
:1033D00000060E404FF00052014B9A62704700BF4A
:1033E00000060E40024B986E00F00200704700BFCE
:1033F00000060E402C281ED81F280CD8114B9A69A5
:1034000001238340934318D0012303FA00F00D4BAE
:1034100018610020704720380A4BD3F80821012397
:10342000834093430BD0012303FA00F0054BC3F80C
:1034300000010020704701207047002070470020E5
:10344000704700BF00060E40FEE700BF08B51E4BE8
:103450001E4A9A4203D01E4B1B4A9A4204D31D4B6C
:103460001D4A9A420FD31AE017491C4B5B1A23F0EE
:1034700003030433154A134452F8040B41F8040BB8
:103480009A42F9D1EBE7164B164AD21A22F0030200
:103490001A44043B002143F8041B9342FBD1124B16
:1034A00023F0604222F07F0210498A6003F16043FA
:1034B000B3F5801F03D28B6843F000538B600C4B35
:1034C00098470C4B9847FEE70000072088920800B9
:1034D000DC090720F8AE0720E0090720DB090720F8
:1034E000E4090720FBAE07200000080000ED00E023
:1034F000FD420800653608003E4B1B6B03F00303DA
:10350000032B5FD8DFE803F0020E2B2B3A4B5B69ED
:1035100013F0800F14BF4FF400424FF4FA42374BC0
:103520001A604FE0334B1B6A13F0807F03D0344A9C
:10353000324B1A6046E0334A304B1A602D4B1B6AFF
:1035400003F07003102B02D0202B04D03AE02E4A57
:103550002A4B1A6036E02A4A284B1A6032E0254B83
:103560001B6A13F0807F03D0254A244B1A6012E0B7
:10357000244A224B1A601F4B1B6A03F07003102B66
:1035800002D0202B04D006E01F4A1C4B1A6002E038
:103590001B4A1A4B1A60174B1B6B03F00303022BD9
:1035A0000DD1144A936A926A1448C3F30A4103681E
:1035B00001FB0333D2B2B3FBF2F3036002E0134A20
:1035C0000E4B1A600B4B1B6B03F07003702B07D173
:1035D0000A4A13680E49A1FB03135B081360704786
:1035E000044B1B6B0549C3F302120B68D3400B60FD
:1035F000704700BF00060E40101A0E4068010720F9
:10360000001BB70000093D0000127A00001C4E0E9E
:10361000ABAAAAAA094B1B6813B9094A074B1A603F
:10362000064B1B681A180749914204DB1046034AEF
:103630001060184670474FF0FF30704760AD0720AC
:10364000F8CE0720FC7F08204FF0FF30704700BF06
:103650004FF400534B600020704700BF01207047BB
:103660000020704770B584B004208F4B98478F4B73
:1036700018608F4B98478F4B98478F4B98470B207C
:103680008E4EB0470C20B0470D20B0470E20B047FB
:103690008B4C4FF080652561C4F8A0502920B047BD
:1036A0008848894B9847894B98478948894B984760
:1036B0002561C4F8A0502563874B4FF400421A617E
:1036C000C3F8A0201A6303F5806302221A61C3F8CD
:1036D000A0201A634FF400221A61C3F8A0201A63D5
:1036E0007E4D00242C607E4B1C607E4B1C607E4B0C
:1036F0001C607E4B1C607E487E4B9847032221460F
:1037000001207D4B9847286020B123462246214660
:103710007A4CA047032200210120774B9847704B39
:10372000186020B100231A461946744CA0470322A2
:1037300000210120704B98476A4B186020B100238C
:103740001A4619466D4CA0470322002101206A4BFE
:103750009847654B186020B100231A461946674CFC
:10376000A047032200210120634B98475F4B18605C
:1037700020B100231A461946604CA04700231A4680
:103780001946584800685D4CA04700231A46194660
:10379000534800685A4CA0475A48564CA0475A48CC
:1037A000A047002303930293584A019202220092F9
:1037B0004FF4007256495748574CA04710B157482C
:1037C0004C4B9847002303930293554A01920222DF
:1037D00000924FF40072534953484F4CA04710B128
:1037E0005248444B9847002303930293504A019256
:1037F000022200924FF400724E494F48464CA047B7
:1038000010B14E483B4B9847284B1B68002203924F
:1038100002924B4A0192022200924FF400724949EF
:1038200049483D4CA04710B14848324B98471F4B80
:103830001B68002203920292454A019203220092E1
:103840004FF4007243494448334CA04710B14348F9
:10385000284B98474248274DA847144C23682B4AC9
:103860001A6023682E4A5A60314A9A60344ADA60F4
:10387000374A1A611B6818683A4EB04723685B687C
:103880001868B04723689B681868B0472368DB68EE
:103890001868B04723681B691868B047214632484A
:1038A000A847216862E000BF11180800F0AE0720A9
:1038B000152F0800B12E080011130800F533080079
:1038C00000100E4000C00B4081150800F1060800F2
:1038D000C027090001000720000E0E4080AE07201F
:1038E00038AE072090AE0720ACAE0720A8AE072068
:1038F000448E08004D430800A91A0800011B080067
:10390000B11C08005C8E0800788E0800DCAE072031
:103910008C8E0800650D0800B11E08009C8E080002
:10392000ECAE0720BC8E0800990F0800C88E080076
:10393000E4AE0720E48E0800CD0D0800EC8E0800F0
:10394000E8AE0720048F080079100800108F0800E7
:10395000E0AE07202C8F0800590E08003C8F0800AD
:10396000588F080031260800908F08001B48A84790
:103970001B4E21683046A847216804313046A847CD
:10398000216808313046A84721680C311548A847FE
:1039900023681968144E3046A84723685968304692
:1039A000A847236899683046A8472368D9680F4814
:1039B000A8470F48A84700230393029301930123CC
:1039C000009323684FF400720A490B480B4DA84737
:1039D0000B4B984723680B4A5A61FEE7B48F0800E7
:1039E000D48F080004900800349008006490080008
:1039F00094900800AC900800090F0800B11E080060
:103A0000752108006C01072081F0004102E000BF31
:103A100083F0004330B54FEA41044FEA430594EA8E
:103A2000050F08BF90EA020F1FBF54EA000C55EAC9
:103A3000020C7FEA645C7FEA655C00F0E2804FEA9A
:103A40005454D4EB5555B8BF6D420CDD2C4480EA7C
:103A5000020281EA030382EA000083EA010180EAAC
:103A6000020281EA0303362D88BF30BD11F0004FFA
:103A70004FEA01314FF4801C4CEA113102D0404230
:103A800061EB410113F0004F4FEA03334CEA13336B
:103A900002D0524263EB430394EA050F00F0A78083
:103AA000A4F10104D5F1200E0DDB02FA0EFC22FA7E
:103AB00005F2801841F1000103FA0EF2801843FA72
:103AC00005F359410EE0A5F120050EF1200E012A63
:103AD00003FA0EFC28BF4CF0020C43FA05F3C018A1
:103AE00051EBE37101F0004507D54FF0000EDCF11A
:103AF000000C7EEB00006EEB0101B1F5801F1BD3C3
:103B0000B1F5001F0CD349085FEA30004FEA3C0CC6
:103B100004F101044FEA445212F5800F80F09A80BC
:103B2000BCF1004F08BF5FEA500C50F1000041EBC0
:103B3000045141EA050130BD5FEA4C0C404141EBC4
:103B4000010111F4801FA4F10104E9D191F0000FEB
:103B500004BF01460020B1FA81F308BF2033A3F16E
:103B60000B03B3F120020CDA0C3208DD02F1140C65
:103B7000C2F10C0201FA0CF021FA02F10CE002F1A0
:103B80001402D8BFC2F1200C01FA02F120FA0CFC99
:103B9000DCBF41EA0C019040E41AA2BF01EB0451E2
:103BA000294330BD6FEA04041F3C1CDA0C340EDCE0
:103BB00004F11404C4F1200220FA04F001FA02F323
:103BC00040EA030021FA04F345EA030130BDC4F1E1
:103BD0000C04C4F1200220FA02F001FA04F340EAD6
:103BE0000300294630BD21FA04F0294630BD94F087
:103BF000000F83F4801306BF81F480110134013D6E
:103C00004EE77FEA645C18BF7FEA655C29D094EADE
:103C1000050F08BF90EA020F05D054EA000C04BF5C
:103C20001946104630BD91EA030F1EBF0021002047
:103C300030BD5FEA545C05D14000494128BF41F0E6
:103C4000004130BD14F580043CBF01F5801130BD4A
:103C500001F0004545F0FE4141F470014FF00000D5
:103C600030BD7FEA645C1ABF194610467FEA655C86
:103C70001CBF0B46024650EA013406BF52EA033528
:103C800091EA030F41F4002130BD00BF90F0000F16
:103C900004BF0021704730B54FF4806404F1320452
:103CA0004FF000054FF0000150E700BF90F0000F0B
:103CB00004BF0021704730B54FF4806404F1320432
:103CC00010F0004548BF40424FF000013EE700BF02
:103CD00042004FEAE2014FEA31014FEA02701FBF92
:103CE00012F07F4393F07F4F81F06051704792F064
:103CF000000F14BF93F07F4F704730B54FF46074DE
:103D000001F0004521F0004120E700BF50EA010228
:103D100008BF704730B54FF000050AE050EA0102D5
:103D200008BF704730B511F0004502D5404261EB45
:103D300041014FF4806404F132045FEA915C3FF486
:103D4000DCAE4FF003025FEADC0C18BF03325FEA1F
:103D5000DC0C18BF033202EBDC02C2F1200300FAD4
:103D600003FC20FA02F001FA03FE40EA0E0021FAF9
:103D700002F11444C1E600BF70B54FF0FF0C4CF4E3
:103D8000E06C1CEA11541DBF1CEA135594EA0C0F99
:103D900095EA0C0F00F0DEF82C4481EA030621EAD4
:103DA0004C5123EA4C5350EA013518BF52EA03350F
:103DB00041F4801143F4801338D0A0FB02CE4FF0C1
:103DC0000005E1FB02E506F00042E0FB03E54FF0F1
:103DD0000006E1FB03569CF0000F18BF4EF0010EE9
:103DE000A4F1FF04B6F5007F64F5407404D25FEAE5
:103DF0004E0E6D4146EB060642EAC62141EA555198
:103E00004FEAC52040EA5E504FEACE2EB4F1FD0CD9
:103E100088BFBCF5E06F1ED8BEF1004F08BF5FEA57
:103E2000500E50F1000041EB045170BD06F0004609
:103E300046EA010140EA020081EA0301B4EB5C04B6
:103E4000C2BFD4EB0C0541EA045170BD41F48011AE
:103E50004FF0000E013C00F3AB8014F1360FDEBFD3
:103E6000002001F0004170BDC4F10004203C35DAAF
:103E70000C341BDC04F11404C4F1200500FA05F332
:103E800020FA04F001FA05F240EA020001F00042D3
:103E900021F0004110EBD37021FA04F642EB060149
:103EA0005EEA430E08BF20EAD37070BDC4F10C0473
:103EB000C4F1200500FA04F320FA05F001FA04F237
:103EC00040EA020001F0004110EBD37041F1000123
:103ED0005EEA430E08BF20EAD37070BDC4F120052E
:103EE00000FA05F24EEA020E20FA04F301FA05F296
:103EF00043EA020321FA04F001F0004121FA04F23E
:103F000020EA020000EBD3705EEA430E08BF20EA0D
:103F1000D37070BD94F0000F0FD101F00046400047
:103F200041EB010111F4801F08BF013CF7D041EAC9
:103F3000060195F0000F18BF704703F000465200CD
:103F400043EB030313F4801F08BF013DF7D043EA9E
:103F50000603704794EA0C0F0CEA135518BF95EA54
:103F60000C0F0CD050EA410618BF52EA4306D1D1DB
:103F700081EA030101F000414FF0000070BD50EAFA
:103F8000410606BF1046194652EA430619D094EA84
:103F90000C0F02D150EA013613D195EA0C0F05D16E
:103FA00052EA03361CBF104619460AD181EA0301C2
:103FB00001F0004141F0FE4141F470014FF000007A
:103FC00070BD41F0FE4141F4780170BD70B54FF015
:103FD000FF0C4CF4E06C1CEA11541DBF1CEA135595
:103FE00094EA0C0F95EA0C0F00F0A7F8A4EB050477
:103FF00081EA030E52EA03354FEA013100F088806E
:104000004FEA03334FF0805545EA131343EA126336
:104010004FEA022245EA111545EA10654FEA0026EB
:104020000EF000419D4208BF964244F1FD0404F5A4
:10403000407402D25B084FEA3202B61A65EB030500
:104040005B084FEA32024FF480104FF4002CB6EBBD
:10405000020E75EB030E22BFB61A754640EA0C003D
:104060005B084FEA3202B6EB020E75EB030E22BF7D
:10407000B61A754640EA5C005B084FEA3202B6EBBE
:10408000020E75EB030E22BFB61A754640EA9C007D
:104090005B084FEA3202B6EB020E75EB030E22BF4D
:1040A000B61A754640EADC0055EA060E18D04FEA0B
:1040B000051545EA16754FEA06164FEAC30343EAAB
:1040C00052734FEAC2025FEA1C1CC0D111F4801F78
:1040D0000BD141EA00014FF000004FF0004CB6E771
:1040E00011F4801F04BF01430020B4F1FD0C88BF10
:1040F000BCF5E06F3FF6AFAEB5EB030C04BFB6EB1B
:10410000020C5FEA500C50F1000041EB045170BD0D
:104110000EF0004E4EEA113114EB5C04C2BFD4EB3A
:104120000C0541EA045170BD41F480114FF0000EBE
:10413000013C90E645EA060E8DE60CEA135594EA3A
:104140000C0F08BF95EA0C0F3FF43BAF94EA0C0F3D
:104150000AD150EA01347FF434AF95EA0C0F7FF4B2
:1041600025AF104619462CE795EA0C0F06D152EA06
:1041700003353FF4FDAE1046194622E750EA4106EA
:1041800018BF52EA43067FF4C5AE50EA41047FF4FB
:104190000DAF52EA43057FF4EBAE12E74FF0FF3C60
:1041A00006E000BF4FF0010C02E000BF4FF0010C31
:1041B0004DF804CD4FEA410C7FEA6C5C4FEA430CAA
:1041C00018BF7FEA6C5C1BD001B050EA410C0CBFF9
:1041D00052EA430C91EA030F02BF90EA020F00205B
:1041E000704710F1000F91EA030F58BF994208BFC2
:1041F00090422CBFD8176FEAE37040F0010070477F
:104200004FEA410C7FEA6C5C02D150EA013C07D1D5
:104210004FEA430C7FEA6C5CD6D152EA033CD3D020
:104220005DF8040B704700BF8446104662468C461A
:104230001946634600E000BF01B5FFF7B7FF00284D
:1042400048BF10F1000F01BD4DF808EDFFF7F4FF76
:104250000CBF012000205DF808FB00BF4DF808ED01
:10426000FFF7EAFF34BF012000205DF808FB00BF24
:104270004DF808EDFFF7E0FF94BF012000205DF846
:1042800008FB00BF4DF808EDFFF7CEFF94BF0120FB
:1042900000205DF808FB00BF4DF808EDFFF7C4FFF4
:1042A00034BF012000205DF808FB00BF4FEA410247
:1042B00012F5001215D211D56FF47873B3EB625278
:1042C00012D94FEAC12343F0004343EA505311F09F
:1042D000004F23FA02F018BF404270474FF0000031
:1042E000704750EA013005D111F0004008BF6FF06F
:1042F000004070474FF00000704700BF70B50F4E90
:104300000F4D761BB61018BF002405D0013455F8A8
:10431000043B9847A642F9D10A4E0B4D04F09EFF8C
:10432000761BB61018BF002406D0013455F8043BA4
:104330009847A642F9D170BD70BD00BF68920800D1
:104340006892080070920800689208000FB410B5D7
:10435000074B82B004AC54F8042B186823468168DC
:10436000019400F0C3FA02B0BDE8104004B07047F9
:10437000980507200FB410B5074B82B004AC54F871
:10438000042B186823464168019401F0D9F902B062
:10439000BDE8104004B0704798050720931E222BFB
:1043A00010D80A2A10B506D000230C46194400F094
:1043B00021FA204610BD0028F6DA2D230B7040426A
:1043C0000123F2E700200870704700BFFFF7E6BF47
:1043D000844641EA000313F0030349D1403A23D352
:1043E0000B6803604B6843608B688360CB68C36075
:1043F0000B6903614B6943618B698361CB69C3615D
:104400000B6A03624B6A43628B6A8362CB6AC36244
:104410000B6B03634B6B43638B6B8363CB6BC3632C
:1044200040304031403ADBD230320BD30B6803606E
:104430004B6843608B688360CB68C3601030103179
:10444000103AF3D20C3205D351F8043B40F8043B48
:10445000043AF9D2043208D0D2071CBF11F8013B4C
:1044600000F8013B01D30B8803806046704700BF12
:10447000082A13D38B07B1D010F00303AED0C3F1D9
:104480000403D21ADB071CBF11F8013B00F8013B03
:10449000A4D331F8023B20F8023B9FE7043AD9D37A
:1044A000013A11F8013B00F8013BF9D20B78037097
:1044B0004B7843708B7883706046704770B4840784
:1044C00046D0541E002A41D0CDB2034602E0621EFF
:1044D000E4B3144603F8015B9A07F8D1032C2ED9F4
:1044E000CDB245EA05250F2C45EA054519D92646E2
:1044F00003F11002103E0F2E42F8105C42F80C5CE3
:1045000042F8085C42F8045C02F11002F2D8A4F10F
:10451000100222F00F0204F00F041032032C134497
:104520000DD91E462246043A032A46F8045BFAD8FF
:10453000221F22F003020432134404F003042CB1BE
:10454000C9B21C4403F8011BA342FBD170BC7047E5
:1045500014460346C2E700BFF0B5054689B00846D9
:104560000C4600F0E5F8431C144F0393AB6B012697
:1045700004A9022204940590AC680697079601915D
:104580000292B3B1B4F90C309A0406D4626E43F4CB
:10459000005322F40052A38162662146284601AAF4
:1045A00002F052FA002814BF4FF0FF300A2009B081
:1045B000F0BD284601F0C8FFE4E700BF2C8E0800DC
:1045C000024B01461868FFF7C7BF00BF98050720D8
:1045D00000290CBF022200224FF4806300F000B8D3
:1045E0002DE9F043514D83B02D6804460F469046A7
:1045F0001E4615B1AB6B002B79D0B8F1020F04D079
:10460000B8F1010F7FD8002E7DDB2146284601F04E
:10461000F5FE216B41B104F14003994202D02846D6
:1046200002F02AF900232363B4F90C300022A261BE
:1046300062601A0654D423F44A6323F00303B8F1EA
:10464000020FA38139D001AB6A462146284602F009
:10465000E3FBA3891843A08126B327B3AB6B002BE0
:104660004DD0009BB4F90C009E421CBF40F400608A
:10467000A081B8F1010F08BF40F0010083B208BF6C
:10468000A08103F0080080B227602761666118B33B
:1046900013F001002FD000207642A661A06003B085
:1046A000BDE8F083009E304602F02AFC074668B35E
:1046B000A38943F08003A381D0E7002004F14302E3
:1046C00043F0020300250121A381A560226022613D
:1046D000616103B0BDE8F083A06003B0BDE8F08382
:1046E0002169284602F0C8F8B4F90C30A3E728463F
:1046F00001F02AFF81E7A66003B0BDE8F0832846F9
:1047000001F022FFADE74FF0FF30E2E7DDF8009067
:10471000B14506D0484602F0F3FB074608B14E46C5
:10472000C6E7B4F90C304FF0FF30C7E79805072013
:1047300020F0030110F00300C0F1000051F8043B29
:1047400000F1040C4FEACC0C6FF000021CBF22FAFF
:104750000CF213434FF0010C4CEA0C2C4CEA0C4CBD
:10476000A3EB0C0222EA030212EACC1204BF51F8B6
:10477000043B0430F4D0C2F1000102EA0102B2FAB3
:1047800082F2C2F11F0200EBD200704740EA01033F
:104790009B0770B42BD1032A29D90C460346214626
:1047A00054F8046BA6F1013525EA060515F0803FA3
:1047B00006D1043A032A43F8046B2146EFD8A2B18C
:1047C0000C78013A1C70013101333CB16AB111F827
:1047D000014B013A03F8014B002CF7D12AB11A44DE
:1047E000002103F8011B9A42FBD170BC70470346BD
:1047F000E5E700BFF0B58BB06F461546DFF870E017
:1048000004460E46BEE80F000FC7BEE80F000FC7F4
:104810009EE80300AB1E47F8040B222B397022D808
:10482000711E0846002300E01346B4FBF5F205FBB9
:1048300012440AAF3C4414F8287C144600F8017F67
:104840005A1C002CF0D1B454F2184BB1013411F8B9
:10485000015F1778181B84420F7002F80159F5DBCD
:1048600030460BB0F0BD002030700BB0F0BD00BF83
:10487000BC9008004B6E2DE9F0479C0492462CD565
:10488000936812683BB30F46804602F1080919E9A4
:104890006000B60817D0043D002401E0A64210D005
:1048A0003A4655F8041F404601F0B6FE431C04F199
:1048B0000104F3D10023CAF80830CAF80430BDE877
:1048C000F087DAF80830A3EB8603CAF8083009F15C
:1048D0000809002BDBD10020ECE702F0B5F800233B
:1048E000CAF80830CAF80430BDE8F0872DE9F04F67
:1048F000ABB01C46009190460493059018B1836BB1
:10490000002B00F0DE800098B0F90C108AB29504FC
:1049100007D4436E41F4005223F40053828143666E
:1049200092B2110740F1B180009B1B69002B00F08F
:10493000AC8002F01A020A2A00F0B5800DF1680A74
:10494000D346002302930F930E93CDF834A098F82A
:1049500000304446FBB1252B02D11CE0252B03D0AF
:1049600014F8013F002BF9D1C8EB04059DB10E9B53
:104970000F9A01332A44072BCBF80080CBF8045060
:104980000F920E937BDD002A40F01F85D346029BD9
:104990000E922B4402932378002B00F03B844FF0BF
:1049A000000300218DF82F3004F1010863780846D8
:1049B0000E460C464FF0FF32019208F10108A3F1B8
:1049C0002002582A00F28B83DFE812F03D038903AE
:1049D00089034503890389038903890389038903BB
:1049E0007E006B028903860070028903CC015D02A0
:1049F0005D025D025D025D025D025D025D025D02BF
:104A00008903890389038903890389038903890346
:104A100089038903D10189038903890389038903F0
:104A2000890389038903890389031A028903890396
:104A3000890389038903E50289038903080389033C
:104A40008903890389038903890389038903890306
:104A500089032B0382038903890389035E0382038D
:104A6000890389036303890370038D028B00E002CD
:104A7000890393028903B202890389034A030BF174
:104A8000080B029B2B44029385E70099059801F0DF
:104A90009DFB002840F04585009B9A8902F01A0290
:104AA0000A2A7FF44BAF0099B1F90E30002BFFF6C4
:104AB00045AF23464246059800F00CFE2BB0BDE8FA
:104AC000F08F01F041FD1EE7049A13461468043389
:104AD000002C049302DA644246F0040698F8003091
:104AE0006BE74FF0000304988DF82F300346302118
:104AF0008DF8301001997822002906948DF8312024
:104B0000046803F104034FF0000546F00202C0F20E
:104B10000C8526F0800654EA050246F0020604934E
:104B200040F0B584B348019B002B40F06284994665
:104B30005746002301930393019B039A9342B8BF06
:104B400013461D46B9F1000F00D0013516F00203DF
:104B5000079318BF023516F08403089340F0E882EB
:104B6000069B5C1B002C40F3E382102C40F33C8539
:104B7000DFF88492DDF838E0DC460F9AC346102354
:104B8000A84670464D46DDF8149007E000F1020E8D
:104B900008460CF1080C103C102C13DD411C10329F
:104BA00007290F92CCF80050CCF804300E91EDDDBF
:104BB000002A40F0A582103C102C10464FF0010E48
:104BC000D446EBDCA94670464546D846E346224427
:104BD00007280F92CBF80090CBF804400E9000F31A
:104BE0006D839DF82F300BF1080B00F1010E002BA7
:104BF00040F0A782079B002B00F0BA8202320CA97A
:104C00000223BEF1070F0F92CDF838E08BE80A00BF
:104C100040F37083002A40F00084089B4FF0010E9F
:104C2000802B1046D34640F0A782069B5C1B002CCD
:104C300040F3A282102C40F3F884DFF8C091DE46E6
:104C40001023C346A8464D46DDF8149007E000F156
:104C5000020C08460EF1080E103C102C13DD411C0E
:104C6000103207290F92CEF80050CEF804300E9182
:104C7000EDDD002A40F00C83103C102C4FF0010CAD
:104C80001046D646EBDCA9464546D846F3462244B4
:104C9000BCF1070F0F92CBF80090CBF80440CDF891
:104CA00038C000F3C883019B03990BF1080B5C1A11
:104CB000002C0CF1010E604600F364820399BEF1F2
:104CC000070F0A440F92CBF80070CBF80410CDF810
:104CD00038E040F3C582002A40F0328370070E921C
:104CE00038D5069B5C1B002C34DDD346102C40F3DA
:104CF0009684DFF804910E994F461026DDF8149043
:104D000006E0881C19460BF1080B103C102C13DD33
:104D10004B1C1032072B0F92CBF80070CBF80460BD
:104D20000E93EEDD002A40F08582103C102C4FF0EF
:104D300001001146D346EBDCB946224407280F9206
:104D4000CBF80090CBF804400E9040F39282002AFA
:104D500040F00C84029B069AAA42ACBF9B185B19D8
:104D6000029390E246F0800698F8003025E606941B
:104D7000002940F0858446F01006B30640F1048314
:104D80000499073121F00701D1E9002314461D469B
:104D900008310491002A73F10003C0F27C83019B67
:104DA0009DF82F90002BC0F20B8354EA050326F0E8
:104DB000800600F0DE80002D08BF0A2CC0F0DE80E7
:104DC0005746204629460A22002303F083FC30324E
:104DD00007F8012D2046294600230A2203F07AFC19
:104DE00004460D4654EA0503EBD1C7EB0A030393CF
:104DF000A2E600BF0891080024910800E490080092
:104E00000694002940F0388446F0100616F020037E
:104E100000F0A1824FF00002049B8DF82F20073391
:104E200023F0070303F10802D3E90045019B049234
:104E3000002B0ADB54EA050326F0800605D1019B0E
:104E4000002B00F02784002400254FF0000957466E
:104E5000E20842EA4572E90804F007030D461446E9
:104E6000303354EA050207F8013DF1D1F407BCD50F
:104E7000302BBAD030227B1E07F8012CC3EB0A027C
:104E800003921F4658E6A3F13002002418F8013BB4
:104E900004EB840402EB4404A3F13002092AF5D99F
:104EA0008DE598F8003001212B2086E598F8003038
:104EB00008F101052A2B00F0CC83A3F13002092A66
:104EC000A84698BF002500F2B58318F8013B05EB12
:104ED000850502EB4505A3F13002092AF5D945EA1B
:104EE000E57201926BE5069400298FD08DF82F00B2
:104EF0008CE74FF00003049A069417688DF82F3062
:104F0000141D019B002F00F07F83002BC0F2538300
:104F10001A460021384602F0EBFA002800F08E8392
:104F2000C31B0393002304949DF82F90019303E681
:104F30000694002940F09D8316F0200934D116F024
:104F4000100303D116F0400940F01F83049A002596
:104F500013461468019A8DF82F90002A03F1040378
:104F6000C0F2278354EA050226F0800604937FF4FA
:104F700022AF019B002B3FF4DBAD00242AAF30347D
:104F800007F8414DC7EB0A030393D5E546F0200629
:104F900098F8003011E50694002940F0758346F03A
:104FA000100616F02009CAD04FF00002049B8DF8BD
:104FB0002F20073323F0070303F10802D3E900454C
:104FC000019B0492002BC0F2F98154EA050326F0FC
:104FD00080064FF000097FF4EEAECAE70694002980
:104FE00040F05583B206B24841D5049A073222F008
:104FF000070202F108010491D2E9004516F0010907
:1050000000F07E8154EA050240F02B824FF000034D
:105010008DF82F30019B002BC0F2F38226F0800622
:1050200081E5049A4FF00001136801258DF84030A6
:105030001346043306948DF82F100493039510AF94
:105040000023019382E598F8003000287FF4B5AC86
:1050500001212020B1E446F0010698F80030ACE4CC
:105060000694002940F02A83B2069248BDD40499E0
:10507000F7060A4600F19D81750640F19A810432D7
:105080000C8804920025B9E746F0400698F80030F5
:1050900093E498F800306C2B03BF98F8013046F089
:1050A000200608F1010846F0100686E4002940F0C9
:1050B0000283B40640F12082049A13460433049319
:1050C000029B1168DD171A462B46C1E900233EE416
:1050D000069400293FF451AE8DF82F004DE606945A
:1050E000002940F0E582002B00F094808DF84030DC
:1050F0004FF0000301258DF82F30039510AF9FE787
:105100000DAA009948460993FFF7B4FB002840F028
:1051100088800E98D4460F9A00F1010E099B3AE55B
:105120000DAA00990598FFF7A5FB002879D1D34671
:105130000E989DF82F300F9A00F1010E002B3FF4CE
:1051400059AD01320DF12F010123BEF1070F0F926E
:10515000CDF838E08BE80A0040F3C080002A40F028
:105160004D810799002940F0BF809E461046D346E6
:10517000089B802B3FF459AD019B03995C1A002CCE
:105180007FF79CAD102CDFF8309125DDDC46102335
:10519000C346A8464D46DDF8149007E000F1020E24
:1051A00008460CF1080C103C102C11DD411C10328B
:1051B00007290F92CCF80050CCF804300E91EDDDA9
:1051C000D2B9103C102C4FF0010E1046D446EDDC45
:1051D000A9464546D846E3462244BEF1070F0F9242
:1051E000CBF80090CBF80440CDF838E02EDC0BF182
:1051F000080B0EF1010E61E50DAA009948460193D6
:10520000FFF738FB68B90E98D4460F9A00F1010EEB
:10521000019BC8E70F9B23B105980DAA0099FFF7E2
:1052200029FB009B9B895A0600F17B8102982BB0D9
:10523000BDE8F08F0DAA00994846FFF71BFB002838
:10524000EFD10E99D3460F9A481C5EE5002A40F034
:10525000FA80D346039A01231B920F921A970E935A
:105260000BF1080B710704D5069B5C1B002C3FF764
:105270003DAD029B0699A942ACBF5B185B19029336
:10528000002A40F0AD8000230E93D346FFF75FBBAA
:105290000DAA009948460793FFF7ECFA0028C0D101
:1052A0000E98D6460F9A00F1010C079BD4E400BF7C
:1052B000F490080008910800E4900800002A7FF4A8
:1052C0002FAF9DF82F30002B00F0F38001231A46FA
:1052D0009E46D3460DF12F011B931A9170460BF198
:1052E000080B0EF1010E85E49E46D3460CA902225E
:1052F0001A911B9270460BF1080B0EF1010E37E765
:10530000019B8DF82F90002BC0F21B8154EA0503FE
:1053100026F080063FF407AC5746230943EA05739D
:10532000290904F00F020D461C46835C07F8013D75
:1053300054EA0503F1D1C7EB0A030393FFF7FCBB63
:105340000DAA00990598FFF795FA00287FF469AF38
:10535000D3460F9A86E716F0100200F0B580049944
:105360008DF82F300A460C680199043200294FF05D
:105370000005C0F2528154EA050126F0800604922D
:105380003FF45DAD994662E5049AF706134609D4E9
:10539000750607D5B2F900400433E5170493224699
:1053A0002B46F7E41C680433E517049322462B468A
:1053B000F0E414680432049200251FE64FF000095F
:1053C00054EA05037FF4F7ACD8E50DAA00990598D7
:1053D000FFF750FA00287FF424AFD346FFF751BB04
:1053E0000DAA00990598FFF745FA00283FF44BAF46
:1053F00017E7002400254FF000098DE70DAA00995A
:105400000598FFF737FA00287FF40BAF0E98D346C4
:105410000F9A00F1010EFFF7EDBB0DAA0099059858
:10542000FFF728FA00287FF4FCAE0E98D3460F9AB7
:1054300000F1010E9CE6002A40F0C8804FF0010EFA
:105440001046D34698E60DAA00990598FFF712FA80
:1054500000287FF4E6AE0E9BD3460F9A03F1010EAF
:105460002CE48DF831304FF0000330228DF83020DD
:10547000019A8DF82F30002A46F00203C0F2BB805B
:1054800026F0800646F002064FF0000944E74FF090
:1054900000098C4840E7019B64424FF02D0965EB01
:1054A0004505002B8DF82F90FFF685AC26F0800681
:1054B00081E4079B002B63D00CAB02221A931B9252
:1054C0004FF0010ED34615E716F040093BD0049982
:1054D0008DF82F200B460C880199043300294FF0DA
:1054E0000005C0F28C8054EA050126F08006049382
:1054F0003FF4A5AC9146AAE4F0060AD4710608D59B
:10550000049A136804320492BDF808201A80FFF749
:105510001EBA049A136804320492029A1A60FFF7C2
:1055200016BA4FF0FF30FFF7C9BA1646654854EA7D
:10553000050204934FF000097FF4EEAE002400252D
:10554000EAE6049BF3E7049A8DF82F90134614685B
:10555000019A0433002A4FF0000550DB54EA05029B
:1055600026F0800604937FF472AC68E40DAA0099DB
:105570000598FFF77FF900287FF453AE0F9A78E67D
:1055800010464FF0010ED346F6E504998DF82F3002
:105590000A460C880199043200294FF0000555DBBA
:1055A00054EA050126F08006049299467FF403AC84
:1055B000DFE4049304E738460494FFF7B9F80023C6
:1055C00003909DF82F900193FFF7B6BA0DAA0099AA
:1055D0000598FFF74FF900287FF423AE0E98D346C5
:1055E0000F9A00F1010EC7E50E980F9A0130DFF80F
:1055F000DC90FFF7ECBA1E464FF000098CE60493EE
:1056000023E44FF0000999E7062B28BF06230393F4
:10561000049423EAE3752C4F12E5049215E40E98E6
:10562000DFF8A8900130FFF788BBF446DFF8A090C0
:10563000FFF72DBB00220192FFF7C1B9019B049433
:10564000039301909DF82F90FFF776BA0492994644
:10565000B6E6049A13680432002B0193049298F87A
:105660000130A846BFF6A9A94FF0FF320192FFF71B
:10567000A4B98DF82F005FE48DF82F00FFF7C4BBAD
:105680008DF82F00FFF777BB8DF82F0087E48DF89A
:105690002F00A7E49946F30705D52AAF302307F872
:1056A000413DFFF7A2BB019B57460393FFF744BA66
:1056B0008DF82F0017E58DF82F00FAE48DF82F00F4
:1056C000D2E400BF089108001C9108002491080052
:1056D000E4900800F0B50C468989ADF26C4D656E1A
:1056E00021F00201666AADF80C10E169E7891995AD
:1056F00000250791099606951AAE4FF48065694614
:105700000096049602950595ADF80E700646FFF7D3
:10571000EDF8051E07DB3046694600F06FFE0028F5
:1057200018BF4FF0FF35BDF80C305B0603D5A389D9
:1057300043F04003A38128460DF26C4DF0BD00BF3D
:105740002DE9F04F8B46B1F90C10D9B0074688040B
:10575000059309D4DBF8643041F4005123F400537D
:10576000ABF80C10CBF86430164616F8011B00237A
:105770000693039399460793DFF8D4A40B9179B36A
:10578000DAF800C00CEB01035B7803F0080303F0C8
:10579000FF054BB3DBF804301A4612E0DBF80030AB
:1057A000DAF800101A7801330A445278120710D53B
:1057B000DBF8042009F10109013ACBF80030CBF8FD
:1057C0000420002AEADC5946384602F033F9002862
:1057D000E4D03246164616F8011B0B910029CFD1B2
:1057E000079859B0BDE8F08F252940F082802C46FB
:1057F0005378721C782B00F25F82DFE813F093007D
:105800005D025D025D025D025D025D025D025D02A0
:105810005D025D025D025D025D025D025D025D0290
:105820005D025D025D025D025D025D025D025D0280
:105830005D025D025D025D025D025D025D025D0270
:105840005D025D025D025D0279005D025D025D0246
:105850005D02A3015D025D025D025D025D029B01CE
:105860009B019B019B019B019B019B019B019B0158
:105870009B015D025D025D025D025D025D025D02F3
:105880005D025D025D0289015D025D025D025D02F5
:105890005D025D025D02BA015D025D02A8015D026A
:1058A0005D025D025D025D025D025D025D027701E7
:1058B0005D025D0242015D025D025D025D025D020C
:1058C0005D025D02150109015D025D025D020401D8
:1058D000BF015D025D02FC005D02EB00DF00D10054
:1058E0005D025D02C9005D0298005D025D02770104
:1058F0001646DBF80430002B40F33F82DBF8003023
:1059000016F8012C197891427FF46AAFDBF8042075
:105910000133013ACBF80420CBF8003009F101093A
:10592000324657E74FF0FF3059B0BDE8F08FDBF853
:1059300004300292002B40F35582C34B032606939A
:105940000A230393DBF8003001E0CBF8003093F832
:1059500000E00CEB0E02507800F0080202F0FF01AC
:10596000002A00F06A82DBF8042009F10109013AFB
:10597000002ACBF8042003F10103E6DC594638463F
:1059800002F058F8002840F08781DAF800C0D9E723
:10599000DBF804300292002B40F32E820226D1E77E
:1059A000DBF804300292002B45F4087540F3A68022
:1059B000A54B0326069310230393C3E7DBF80430BB
:1059C0000292002B40F3CB809F4B032606930823C3
:1059D0000393B7E7EB06029200F127816E0740F1CF
:1059E000DF81059916460B683246A3F800900B46F6
:1059F00004330593EEE673786C2B00F0C68145F016
:105A000001051646F5E6737845F004051646F0E6FE
:105A1000DBF804300292002B40F382808B4B03268C
:105A200006930A2303938DE7DBF804300292002BE0
:105A300040F3D081002C08BF012415F0010340F091
:105A4000A980EA0640F185811D460BE01A44CBF897
:105A50000020594638461D44E41A01F0EBFF0028A7
:105A600040F06E819BE80C00A342EFDB1B1B22443D
:105A7000CBF804302544CBF80020029EA9443246DE
:105A8000A8E60DF160081146404602F06FF8DBF819
:105A900004300646002B40F3C881002CDBF80010D0
:105AA00008BF4FF0FF34EB06087840F1C180029444
:105AB000002500E0087818F800300131002B00F0D4
:105AC0004381DBF804300135013BA5428BE80A0035
:105AD00000F00F81002BEDDC5946384601F0AAFF9B
