S01000004672656552544F532E737265634A
S214080000D8350720412908003D2908003D29080061
S2140800103D2908003D2908003D2908000000000089
S214080020000000000000000000000000451F080057
S2140800303D290800000000008D1F08004919080027
S2140800403D2908003D2908003D2908003D290800EB
S2140800503D2908003D2908003D2908003D290800DB
S2140800603D2908003D29080000000000B1270800C7
S214080070C5270800D9270800ED270800000000005B
S21408008000000000490908003D2908003D2908002D
S2140800903D2908003D29080099030800A90308001F
S2140800A03D290800000000003D2908003D290800F9
S2140800B03D2908003D290800B91C08003D2908000C
S2140800C03D2908003D2908003D2908003D2908006B
S2140800D03D2908003D2908003D2908003D2908005B
S2140800E03D2908003D2908003D2908003D2908004B
S2140800F03D29080010B5054C237833B9044B13B1D5
S2140801000448AFF300800123237010BDA80B072016
S21408011000000000CC6E08000C4B43B10C4810B52C
S2140801200C49AFF300800C48036823B910BD0A4891
S214080130036833B97047094B002BF7D0BDE8104069
S2140801401847064B002BF5D0184700BF00000000E4
S214080150CC6E0800AC0B0720CC6E08000000000030
S2140801602DE9F04383B00746002301930301804A34
S214080170D55828467F4B9847064628467E4B9847CC
S214080180064016F4005F31D14FF0000816F4805F81
S2140801907ED116F4507F02D1B8F1000F1FD0744BF1
S2140801A003EB071340F202215868744B984716F47D
S2140801B0807F04BF02232B604FF400512846704C02
S2140801C0A0474FF480512846A0476E4B03EBC7075D
S2140801D0786820B1002301AA19466B4CA047019BFA
S2140801E0002B40F0BE8003B0BDE8F083604B03EB05
S2140801F007134FF400715868604B98474FF4005146
S21408020028465F4B984700242B6A13F0040F06D144
S2140802100134B4F1FF3FF7D14FF0010801E04FF089
S214080220000802232B60594B03EBC70253F83730FC
S2140802305268134413F8013C6B632B6A13F0010FE2
S2140802400DD10134B4F1FF3FF7D14E4B03EBC70392
S2140802505868002800F088804FF0010804E0494BF1
S21408026003EBC703586828B1002301AA1946DFF82C
S2140802701891C847B4F1FF3F88D0424B53F837006F
S214080280002883D0002301AA19463F4CA0477DE7E3
S214080290374B03EB071302215868384B98474FF43F
S2140802A080512846364B984700242B6A13F0020FD5
S2140802B003D10134B4F1FF3FF7D102232B60334B4F
S2140802C053F8372003EBC7035968286B531803F80D
S2140802D0020C2B6A13F0020F20D10134B4F1FF3F51
S2140802E0F7D1284B03EBC703586800283FF451AFF3
S2140802F0002301AA1946DFF89090C847B4F1FF3FDB
S2140803003FF447AF224B53F8370000283FF441AF7D
S214080310002301AA19461C4CA0473AE7B4F1FF3F50
S2140803200ED02B6B0A4402F8013C00242B6A13F00B
S214080330010F0FD10134B4F1FF3FF7D14FF0010898
S214080340104B03EBC703586800283FF422AF4FF062
S214080350FF34CDE70B4B03EBC70358680028C7D11B
S214080360CCE70C4B98473EE74FF001080EE700BF76
S214080370146908003F09080043090800F10408004A
S21408038039090800E40B072031200800D40B0720A1
S214080390C40B0720651F080008B50020014B9847C6
S2140803A008BD00BF6101080008B50120014B984749
S2140803B008BD00BF6101080030B4094A094B03F1C3
S2140803C0480500249A605968186800FB0122DA601C
S2140803D019751C611833AB42F4D130BC704700BFA6
S2140803E0F40B072038010720F0B41E4B03F1480130
S2140803F0002703E01F46183399420CD01A7D002ABE
S214080400F9D01A688242F6D3002FF3D03D68AA4284
S21408041038BF1F46EFE70FB3B868796801B33C6981
S21408042014F0010F16D03D68002328440133DBB2D0
S2140804308B4211D21E4624FA03F212F0010FF4D1B1
S214080440012303FA06F634433C613B7D013B3B75CA
S214080450F0BC70470026F3E70020F9E70020F7E72E
S2140804600020F5E738010720F0B4114A002303E01E
S21408047001331832032B19D091688842F8D3D5680F
S214080480A842F5D20A4A5D00EE18F6009719431AF4
S2140804909159B3FBF1F3DBB2012101FA03F3396991
S2140804A021EA030139613B7D01333B75F0BC704797
S2140804B0380107202DE9F04180B90C469046002AFD
S2140804C00FDD8F18084E094D306821462B6898476F
S2140804D00134BC42F8D14046BDE8F0814FF0FF3801
S2140804E0F9E78046F7E700BFAC150720C4140720D5
S2140804F021F4FE7121F001018905890D016270471A
S214080500F0B48CB007460E4601AC114D0FCD0FC4A3
S2140805100FCD0FC495E8070084E8070001AA00235A
S21408052052F8040BB6FBF0F0B0FBF7F0B0F5807F9E
S21408053007D901330B2BF3D14FF6FF700CB0F0BC84
S21408054070470A2B94BF40EA03204FF6FF70F5E782
S2140805503469080070B506460D460C6844B18968CB
S21408056020460C4B984704464FF6FF7398420CD02B
S214080570686840B1A968074B98474FF6FF739842DA
S21408058005D044EA004434600024204670BD044682
S214080590FBE700BF0105080070B40A684B6803F063
S2140805A00F038C8A23430C8923438C7A43EA44231B
S2140805B08C7D43EA0443CC7D43EA44430C7E43EAFD
S2140805C0844300EB4214C4F80032CB68C4F8043203
S2140805D00B69C4F80C328B7D3BB18C8B4B8B43EA92
S2140805E0044300EB4214C4F81832856C4FF001132C
S2140805F09340DB431D40CC7F04FA02F68C7F944080
S21408060044EA06442C438464446C234091F8214011
S21408061004FA02F591F82040944044EA054423433E
S21408062043640123934091F8224034B3046A1C4380
S214080630046291F82440012C846E0CBF1C439C4332
S214080640846691F82540012C846E0CBF44EA034367
S21408065024EA03438366032A14D9043AD200046FB3
S214080660FF23934024EA030491F8233003FA02F2A6
S21408067022430267002070BC7047046A24EA030419
S2140806800462D6E7D500C36EFF24AC4023EA040311
S21408069091F82320AA401A43C266EBE70B699342F7
S2140806A002D24FF6FF7070470B68CA6000EB431023
S2140806B0C0F8082200207047012303FA01F14160C0
S2140806C07047012303FA01F18160704700EB81113E
S2140806D0086A70472A4B994249D8A3F57A53994233
S2140806E02BD910B4274CA4FB0234A40B043C264B8D
S2140806F00B449B00B2FBF3F2043AFF2C39D90021D5
S21408070001316408FF2C0DD90729F9D113029BB2D1
S214080710090401F4E0210B43E4B2234303610020FB
S21408072010BC7047FF2AF1D90629EFD801315208C4
S214080730FF2AEBD90629F9D9E8E74900B2FBF1F216
S214080740043AFF2A11D9002301335208FF2A01D997
S214080750072BF9D1110289B21B0403F4E0230B43DB
S214080760D2B21A430261002070470023F2E7012044
S2140807707047FF2A88BF0021D8D80021C6E700BFE7
S214080780801A0600F11976050012FD3F38B50446B2
S2140807900D464FF0FF338362036A80230360036BC2
S2140807A00823036020230360042303600A6849685B
S2140807B0054B9847012814BF002001206B7A012BAF
S2140807C004BF4023236038BDD50608000A4659B141
S2140807D003780129C4BF417841EA0323022A04DDCD
S2140807E0827842EA032300E0002318467047000098
S2140807F0F8B5CC68002C4FD00B4605468E6800200E
S21408080068604A68120202F4407242F48052097C18
S214080810090401F4FE010A436A60E860596818464C
S214080820224B9847E860012C0FD001232B6000204C
S2140808302B6A13F4807F36D147F22F5147F2305790
S2140808404FF0010E4FF0020C19E003232B60012035
S214080850EEE70A4670460CE008B9C5F800C013F083
S214080860020FF6D070462B6B3370013C01363A46C1
S21408087064B12B6A13F4807F11D1511E8AB1012C02
S214080880EAD013F0020FEED10A46F1E72B6A13F00E
S214080890010FFBD02B6A00E001242046F8BD052492
S2140808A0FBE70924F9E70524F7E700BFCD070800AA
S2140808B070B5CD68002D35D00B4604468E680020EE
S2140808C060600A7C120402F4FE024968090201F418
S2140808D040710A436260E06059681846154B9847AD
S2140808E0E060236A13F4807F06D005251BE05DB11F
S2140808F0236A13F4807F18D113F0040FF7D03378E7
S2140809006363013D0136F2E7236A13F4807F0ED154
S21408091013F0040FF8D002232360236A13F0010FA4
S214080920FBD000E00125284670BD0525FBE7052518
S214080930F9E700BFCD0708008162036A7047006ABE
S2140809407047C06A7047000000B583B001220DF1F9
S21408095007011048104B984772B6BFF35F8F002206
S2140809600E4B1A700E4B1B789DF807100D4AD15483
S2140809709B2B0BD001330A4A13700122074B1A70BF
S214080980BFF35F8F62B603B05DF804FB0022044B2A
S2140809901A70F2E70080094085220800F001072057
S2140809A060120720C41107204268936850681B1A13
S2140809B06433054880FB0320DA17C2EB6012642014
S2140809C000FB1230704700BF1F85EB5108B50B4679
S2140809D001781846014B984708BD00BFED19080076
S2140809E04368826893421ABF0268D05C002070474A
S2140809F008B54068014B984708BD00BFE1090800E4
S214080A0043688268934210D010B401460268D05CEE
S214080A100133074C84FB0324DA17C2EB6412642400
S214080A2004FB12334B6010BC70470020704700BFB1
S214080A301F85EB5102688368D15483685A1C0549A0
S214080A4081FB0231D317C3EB6113642101FB132327
S214080A50836070471F85EB51F8B53E483E4B984774
S214080A603E4B1B6883B15B6818683D4CA0473B4DFE
S214080A702B685868A0472B689B681868A0472B689F
S214080A809868A0472868A0470C20364DA847334CDE
S214080A9020601023036026680C20A847706023682F
S214080AA05E686420A847306027687B6800265E601A
S214080AB07B689E600C20A847B86023689F686420FF
S214080AC0A847386023689A6856609B689E60264BDD
S214080AD01B6883B15B681868214CA047224D2B68B9
S214080AE05868A0472B689B681868A0472B689868C2
S214080AF0A0472868A0470C201A4DA8471A4C206023
S214080B000823036026680C20A847706023685E6880
S214080B106420A847306027687B6800265E607B688C
S214080B209E600C20A847B86023689F686420A84782
S214080B30386023689A6856609B689E600B4B984797
S214080B400B480C4B98472368202198680A4B98470F
S214080B50F8BD00BF60690800853C0800CC14072073
S214080B6069040800E903080004150720911908001D
S214080B70001BB70001000720350A0800F8B5804BAF
S214080B801B6818787F4B98477F4B1D7800221A7091
S214080B9055B11C461D447A4F7C4E14F8011F3B681D
S214080BA05868B047AC42F8D1754B1C682046784B5D
S214080BB0984710380A2800F2D980DFE810F00B00B2
S214080BC01D003100450054007E00880092009C00FD
S214080BD0B300CB0020466F4B984701284CDD606871
S214080BE06D4CA047664B1B685868A0476B4B18703F
S214080BF000F0030098713FE02046664B98470228AD
S214080C003ADD6068644CA0475D4E33685868A04774
S214080C10624D687033685868A0474000A8702BE09B
S214080C2020465C4B9847022826DD60685A4CA04749
S214080C30534E33685868A047584DE870336858686C
S214080C40A0474000287117E02046524B98470128D5
S214080C5012DD6068504CA047494B1B685868A0478F
S214080C604E4B587108E060684B4B984701464C4B12
S214080C7018704C484C4B98474C4B1B681878414B9F
S214080C8098474B4C04F10A07484E404D14F8011B90
S214080C9033685868A847BC42F8D1444B1C682046BD
S214080CA03C4B98470A2800F08D80014641483E4B49
S214080CB098473E4E374D384FDBE06068364B9847CE
S214080CC00146374B18703748374B9847D4E7606863
S214080CD0314B98470146324B18703248324B98478A
S214080CE0CAE760682C4B984701462D4B18702D486C
S214080CF02D4B9847C0E72046264B98470128BBDD72
S214080D006068254CA0470146254B18702548264B99
S214080D1098471B4B1B685868A047002100B2264B13
S214080D209847A9E720461B4B98470128A4DD60682A
S214080D30194CA04701461A4B18701A481A4B984780
S214080D400F4B1B685868A0474FF0FF3100B21B4B8B
S214080D50984791E76068104B98470146104B187003
S214080D601048114B9847164B984785E72046094B7D
S214080D709847002880DD6068074B98477CE700BFE7
S214080D8004150720691A08006C130720350A08009E
S214080D90F1090800A9090800010A08001415072027
S214080DA0C814072068690800393A0800CC140720D8
S214080DB07813072078690800B9100800ED110800B4
S214080DC0A91208006068364CA04700EB8000800037
S214080DD0344B1860344D2B685868A04700EB8000E9
S214080DE08000324B18602B685868A04700EB8000DC
S214080DF080002F4B18602B685868A04700EB8000CF
S214080E0080002C4B18602B685868A04700EB8000C1
S214080E108000294B18602B685868A04700EB8000B4
S214080E208000264B18602B685868A04700EB8000A7
S214080E308000234B18602B685868A04700EB80009A
S214080E408000204B18602B685868A04700EB80008D
S214080E5080001D4B18602B685868A04700EB800080
S214080E6080001A4B18602E46194D274612E0606817
S214080E70B84734682046A8470028F8D1154C236898
S214080E809868074B984723681978134B9847F8BD16
S214080E906068B84734682046A8470028F8D1EDE7C8
S214080EA0010A0800DC140720CC14072000150720C8
S214080EB0FC140720F0140720E8140720EC14072079
S214080EC0D8140720E0140720E4140720F414072099
S214080ED0A909080004150720ED1908002DE9F041B6
S214080EE084B02F482F4B984700224FF4C0012E4855
S214080EF02E4B98472E482F4B984755252E4C56264E
S214080F002846A0470028FBD03046A0470028F7D040
S214080F104FF080515520294CA0474FF0805156205D
S214080F20A0472420264B9847264C04212046264DC9
S214080F30A84705212046A847244B01930026029679
S214080F40234B039301A92046224B984722494FF08A
S214080F500408C1F80080214D05272F600B234B603D
S214080F606B608E72AE720E812E8142F210730B6128
S214080F702B6140F2DC53CB60EB602046184EB0473E
S214080F8029462046B04741462046164DA8473946CA
S214080F902046A8470648074B984704B0BDE8F081A6
S214080FA0A0690800853C080000120E40D7240800F7
S214080FB0C0D401000100072069250800852508001F
S214080FC0E928080000400940C306080040420F0010
S214080FD000BD0105550508002015072048150720FF
S214080FE099050800B906080070B540F69803024649
S214080FF0984228BF1A468B4228BF0B461C460A4E04
S214081000B2F5487F38BF4FF4487208493046084D55
S214081010A8472246B4F5487F38BF4FF448720549BA
S2140810203046A84770BD00BF00400940201507207D
S2140810309D0608004815072038B5064D40F2DC52D4
S21408104005492846054CA04740F2DC520449284684
S214081050A04738BD00400940201507209D06080017
S2140810604815072008B50948094B9847094B98477B
S214081070094B98477322094B1A70094A0023538074
S21408108093801380074A137008BD00BFFC690800E8
S214081090853C0800DD0E0800611E08007015072054
S2140810A07815072061120720024B187880F0010097
S2140810B0704700BF611207202DE9F0470D466422ED
S2140810C0374B1A70374C8442B8BF0446B4F5967F3F
S2140810D0A8BF4FF49674344B1C80002C42DB84EA7D
S2140810E0E476A6EBE476324630493148314B9847E9
S2140810F0002D30D00122304B1A70304B1E80AA4685
S2140811002F4F304B1868B8472F4E21A3D3E900233A
S214081110B0472E4C00222E4BA047804689462D4BC2
S2140811201868B8471CA3D3E90023B0470022284B09
S214081130A04702460B4640464946274CA047274B41
S214081140984700EB4500264B186051462548194B32
S2140811509847BDE8F0870022174B1A70124B1C8080
S214081160BDE8F08784EAE476A6EBE47632461E49C4
S2140811700F48104B9847002DEDD001220E4B1A70E1
S2140811800E4B1E80AA466D42BAE700BFAFF300803A
S2140811900000000000607E400000000000887E40DE
S2140811A070150720D4FEFFFF78150720F0690800A1
S2140811B0D0690800393A0800611207206212072031
S2140811C0993308007415072065340800B9360800F6
S2140811D0000062408415072001310800993908008C
S2140811E064120720AC690800C469080070B572224A
S2140811F0224B1A706FF063058542B8BF0546642D0A
S214081200A8BF64251E4C84FB01346318CC17C4EBB6
S21408121023244FF4B47303FB141424B2194B1D8013
S21408122085EAE576A6EBE5763246174B174931EAA6
S214081230250128BF19461648164B9847002C16DB7A
S2140812400122154B1A70154B1E8040F6A61303FB99
S21408125004F30B4A82FB03121A44DB17C3EB222360
S2140812600F4A1380A1B20F480A4B984770BD002258
S214081270094B1A70034B1D8070BD00BF7015072000
S214081280B7600BB6781507200C6A0800146A0800C1
S214081290206A0800393A08006112072062120720FF
S2140812A068120720406A080008B57322064B1A70B1
S2140812B00023064A1370064A13800648064B9847CA
S2140812C0064B984708BD00BF701507206112072017
S2140812D0781507205C6A0800393A080039100800B3
S2140812E02DE970431E4E1F4B1868B0471E4D18A3B5
S2140812F0D3E90023A8471D4C00221D4BA047804673
S21408130089461C4B1868B04713A3D3E90023A8479F
S2140813100022174BA04702460B4640464946164C45
S214081320A047164B9847164B83FB00231A18C3177B
S214081330C3EBE22340F6A61202FB130318B20028FA
S214081340BCBF9B1818B280B2BDE87083AFF30080AC
S2140813500000000000607E400000000000887E401C
S214081360993308007415072065340800B936080054
S2140813700000624084150720FD30080099390800EF
S214081380412943D4000000002DE9704F284B1B78F4
S214081390642B04D0722B30D00020BDE8708F254C0B
S2140813A0254B1868A04782468B46244B1868A047EA
S2140813B0234E1BA3D3E90023B047224D0022224B1D
S2140813C0A84780468946214B1868A04716A3D3E944
S2140813D00023B04700221C4BA84702460B4640464F
S2140813E049461B4CA04702460B4650465946194CE0
S2140813F0A047194B9847BDE8708F184B9847184B6D
S2140814001B88181A40F2D3439842C8BFA0F6A61005
S214081410144B9842C1DA00F6A610BDE8708F00BFDC
S2140814200000000000607E400000000000887E404B
S21408143070150720993308006412072074150720D2
S21408144065340800B9360800000062408415072095
S21408145001310800FD30080099390800E11208003B
S214081460681207202DFBFFFF08B5384B9847384B06
S2140814701B78642B05D0722B35D00023354A138091
S21408148008BD031D082B13D9002815DD324B83FB36
S2140814900023C017C0EBE300013000EB80035B00BD
S2140814A01BB22E4AB2F900209342A8BF1346E5E7BE
S2140814B02B4B98470023E1E7002801DB0023DDE7F4
S2140814C0254B83FB0023C043C00FC0EBE30000EBB3
S2140814D0800043001BB2214AB2F9002051428B42D9
S2140814E0CCDA0BB2CAE7431D0A2B13D9002815DD40
S2140814F01C4B83FB0023C017C0EB2310013000EB06
S21408150080039B001BB2154AB2F900209342A8BF7D
S2140815101346B3E7124B98470023AFE7002801DBD2
S2140815200023ABE70F4B83FB0023C043C00FC0EB81
S214081530231000EB800083001BB2084AB2F9002093
S21408154051428B429ADA0BB298E700BF891308001B
S21408155070150720781507206766666662120720EA
S214081560A91208001F85EB5108B5124B1B78722B81
S21408157010D0732B1BD0642B00D008BD0E4B998857
S21408158001F2DC51588800F2DC5089B280B20B4B6D
S214081590984708BD084B9988C1F5BB61043158883F
S2140815A000F2DC5089B280B2044B984708BD044B61
S2140815B09847E2E77015072078150720E90F080016
S2140815C03910080008B5044B1B7813B9034B984725
S2140815D008BD034B9847F9E761120720691508000C
S2140815E069140800000000002DE9F04F83B0A24CF3
S2140815F0A24B1868A04780468946A14BC3E90089D4
S214081600A04B1868A04706460F469F4BC3E90067DD
S2140816109E4C04F148039E4A73E90201C3E902019D
S21408162072E90201C2E90201A342F5D1DFF85CB211
S214081630CBE90089DFF8C0A2CAE90067954C964B4B
S214081640D3E900239549D1E90001A047CDE9000177
S214081650934DDBE9022340464946A84782A3D3E9CF
S2140816600023A04700228F4BA047DFF890B2DDE9A1
S2140816700023D847804689468B4BC3E90089DAE9B8
S214081680022330463946A84779A3D3E90023A04762
S2140816900022844BA047DDE90023D84705460C46C0
S2140816A002460B468149C1E90023814B93F800A006
S2140816B0BAF1720F00F09E802A46234640464946F5
S2140816C07C4EB04700227C4B724EB04706460F460B
S2140816D07A4BC3E90067DFF8C8B12A462346404676
S2140816E04946D84704460D46754BC3E90045754B31
S2140816F0B3F90000604B984732463B46D847064643
S2140817000F46714BC3E90067BAF1730F00F09E806D
S214081710DFF880816D4BD3E9002320462946C04771
S21408172004460D466A4BC3E900456A4BD3E90023D5
S21408173030463946C047804689460022664B3046C2
S2140817403946DFF8BCA1D047002800F0DF80002229
S214081750624B404649464F4EB047614BC3E90001CD
S214081760DFF850A15F4BD3E9002320462946D0472F
S2140817705D4BD3E90023D04704460D465B4BC3E9CF
S21408178000455B4E02460B46D6E90001444FB84773
S21408179080468946C6E90089DFF858B1DBE90023A8
S2140817A020462946D04706460F46CBE90067DFF8AD
S2140817B054B14B4BD3E90023DBE90001D04704467C
S2140817C00D46CBE90045DFF8FCB002460B4640461E
S2140817D04946D047DFF83081C047ABF802002246BA
S2140817E02B4630463946D047C047ABF8040003B00E
S2140817F0BDE8F08F0D6004F100424A60284E2A4684
S214081800234640464946B04700222B4B214FB8474F
S21408181082468B46294BC3E900AB2A4623464046F8
S2140818204946244CA04704460D46254BC3E90045C7
S214081830244BB3F90000104B984752465B46B04716
S21408184006460F46204BC3E9006761E700220023DF
S2140818502749C1E900232749C1E90023194B00227B
S2140818605A809A80C3E700BF0000000000607E40F0
S2140818700000000000887E40993308007415072091
S214081880901207208415072098120720B012072008
S21408189048130720653408009801072080010720B0
S2140818A0FD30080000408F405013072058130720CB
S2140818B070150720013108000000E03F601307207C
S2140818C0A012072078150720A812072088010720ED
S2140818D08012072090010720000069400000084099
S2140818E0881207207812072070120720A0150720F4
S2140818F0881507209815072000130720B936080012
S21408190085390800901507209939080000220A4BE7
S21408191030463946094EB04718B9094BC3E900891D
S2140819201EE742464B4640464946064EB047044BDD
S214081930C3E9000114E700BF0000494085390800E4
S2140819408812072001310800024A13680133136021
S214081950704700BF681307200022064B1A60064B24
S21408196006495960F020064981F823009A60072244
S2140819701A6070476813072010E000E01F4801004F
S21408198000ED00E0014B1868704700BF6813072099
S21408199000B585B00D4B02930D4B019300238DF8CF
S2140819A00D3017200B4B984701A90B480B4B98474F
S2140819B030B10B480B4B9847002005B05DF804FB88
S2140819C00948084B98470120F7E700BFA0860100A2
S2140819D000BD0105E9280800000009408D07080039
S2140819E0906A0800393A08007C6A080070B58AB020
S2140819F00646082904D0102916D001200AB070BD62
S214081A006C46134D0FCD0FC42B682360114B1E7008
S214081A1008228DF81020029369460F480F4B984706
S214081A20B0FA80F04009E9E705AC0D4D0FCD0FC4BC
S214081A302B6823600B4B1E7010228DF8242007930A
S214081A4005A90548054B9847B0FA80F04009D5E740
S214081A50A00107208413072000000940B1080800E9
S214081A60B40107208813072030B58BB0082804D0A7
S214081A70102814D001200BB030BD6C46114D0FCD88
S214081A800FC42B68236069460F48104B984708B167
S214081A900020F0E70E480F4B98470120EBE705AC0F
S214081AA00D4D0FCD0FC42B68236005A90648074BBC
S214081AB0984708B10020DEE70548064B98470120FE
S214081AC0D9E700BFC801072000000940F107080051
S214081AD0A86A0800393A0800DC010720F0B583B088
S214081AE004460D4600230193204B98420DD0204B08
S214081AF0984212D01F4B984219D01F4B9C4220D0B8
S214081B001E4B9C4227D003B0F0BD1F461C4E2946EC
S214081B103846B0470028FAD1EFE71F46194E01A904
S214081B203846B0470028FAD1019B2B70E8E71E46D6
S214081B30144C01A93046A0470028FAD1019B2B7007
S214081B40E1E71E460F4C01A93046A0470028FAD107
S214081B50019B2B70D7E71E460A4C01A93046A047C2
S214081B600028FAD1019B2B70CDE700BF00080E4075
S214081B700080094000C0094000000A4000400A40B2
S214081B8093230800E91E080070B50C461E4B9842C1
S214081B900DD01E4B984213D01D4B984219D01D4BA2
S214081BA098421FD01C4B984225D0002070BD1E4678
S214081BB01A4D21463046A8470028FAD1012070BDA4
S214081BC01E46174D21463046A8470028FAD1012060
S214081BD070BD1E46124D21463046A8470028FAD149
S214081BE0012070BD1E460E4D21463046A8470028E7
S214081BF0FAD1012070BD1E46094D21463046A84739
S214081C000028FAD1012070BD00080E400080094067
S214081C1000C0094000000A4000400A40832308002C
S214081C20D51E080030B585B00820154DA847154CB8
S214081C30154B1C60154A164B1A60164A164B1A6046
S214081C40164B01934FF4E13302934FF4006303936A
S214081C500820A84701A92046114B9847114D2B6824
S214081C6000219868104CA0472B6800215868A047A8
S214081C700E480F4CA0470F48A04705B030BD00BF20
S214081C80E928080000080E40AC150720891B080044
S214081C90A8150720DD1A0800C414072000BD010592
S214081CA04D230800F8010720953C0800C06A080084
S214081CB0393A0800D06A080000B583B00F48104BC0
S214081CC098474FF400120F4B1A630F4B1B68102BE4
S214081CD010D000210D480E4B98470190019B0A4AE8
S214081CE01368013313604FF40012064B5A6303B0AF
S214081CF05DF804FB0022044B1A60EAE7E06A080075
S214081D00393A080000100E408C130720004008409F
S214081D10CD0608004E4BDA6B02F0CC004D490B6836
S214081D204340086013F0040F44D012F0040F1AD092
S214081D3012F0080F0BD1484801680131016013F012
S214081D40080F1AD0444801680139016015E0424876
S214081D5001680139016013F0080F0ED03E4801688B
S214081D600131016009E012F0080F1BD03A480168FB
S214081D700131016013F0080F25D113F0400F50D041
S214081D8012F0400F35D012F0800F2AD133490A6876
S214081D9001320A6013F0800F22D0304A1368013BE4
S214081DA0136070472C4801680139016013F0080F6A
S214081DB0E3D010E013F0080FDFD012F0080F07D0BA
S214081DC012F0040FCAD12448016801390160D4E72B
S214081DD012F0040FB6D12048016801310160CCE743
S214081DE070471E490A68013A0A6013F0800FD8D077
S214081DF020E012F0800F0CD018490A6801320A60F9
S214081E0013F0800F04D0154A1368013B136070471F
S214081E10704712490A68013A0A6013F0800FC0D06A
S214081E2010E013F0800FBCD012F0800F07D012F02D
S214081E30400FE8D0094A136801331360704712F060
S214081E40400FAAD1054A136801331360704700BFD4
S214081E5000120E40801507207415072084150720E9
S214081E6030B583B01048114CA0471148A047114C14
S214081E700122CC212046104B9847104B0093402354
S214081E80CC220D2120460E4DA8474FF400520D4B8C
S214081E901A60CC2120460C4B984700230B4A136047
S214081EA00B4A136003B030BDEC6A0800853C080096
S214081EB0FC6A080000120E40D7240800151D08000A
S214081EC04127080000E100E05D250800741507209A
S214081ED084150720436913F0020F1DBFC1F30801DC
S214081EE0C161002001207047436913F0010F05D037
S214081EF08369C3F308030B6000207047012070470E
S214081F0043685A684A6042688A605A6891605960AD
S214081F10416008610368013303607047436882685C
S214081F209A60836842685A6003695A68904204BF98
S214081F3082685A60002202611A68013A1A601868B4
S214081F4070470000064B19680868B0E8F00F80F381
S214081F5009884FF0000080F311884EF00D0E704788
S214081F60901307204FF08052014B1A60704700BF4D
S214081F7004ED00E0EFF311804FF0A00181F3118823
S214081F807047002080F3118870470000EFF309803F
S214081F900C4B1A6820E9F00F10602DE908404FF046
S214081FA0A00080F3118800F08BF84FF0000080F353
S214081FB01188BDE8084019680868B0E8F00F80F393
S214081FC0098870479013072010B50446036C5BB960
S214081FD003681BB1A36B0133A36310BD4068124BA3
S214081FE0984700236360F5E76AB91A4680680F4B7E
S214081FF09847A368226C1344A36062689342E9D3A7
S2140820002368A360E6E71A46C068084B9847226C20
S2140820105242E3681344E36021688B42DAD263686D
S2140820201A44E260D6E700BFE5210800613A0800D6
S2140820302DE9F04190B10E4615469846044689B1FA
S2140820401B4B98470746A26BE36B9A4211D30024B2
S2140820503846184B98472046BDE8F081144B9847F9
S21408206000BFFDE7036C002BEAD0114B984700BF72
S214082070FDE74246314620460F4B9847A36CB3F11E
S214082080FF3F0AD1636A6BB104F124000B4B9847F3
S21408209050B15DB101242C60DAE7A36C0133A36468
S2140820A00124D5E70124D3E70124D1E70124CFE7AB
S2140820B0751F0800851F0800C91F08006121080051
S2140820C0214B1B68EBB910B5204B1B6803EB830349
S2140820D09B001F4AD358C3B91C4B1B686BB11B4ADD
S2140820E01B491368013B1360136803EB830351F81D
S2140820F0233053B91368002BF3D1164B984700BF0B
S214082100FDE70122144B1A607047104B1B68104AF3
S2140821109900C81802EB8000446864684460194453
S21408212002460832944209D003EB8303084A02EBBE
S21408213083035B68DA68094B1A6010BD6068044A56
S21408214002EB81025060EFE7F8130720FC13072024
S21408215094130720751F0800001407209013072003
S21408216038B5C368DC681CB304F118052846154B57
S2140821709847154B1B68FBB9251D2846114B9847F1
S214082180E06A124B1B68984284BF104B186000EB3D
S214082190800029460E4B03EB80000E4B98470E4BEB
S2140821A01B68E06ADB6A984234BF0020012038BD0D
S2140821B00A4B984700BFFDE729460948054B98474C
S2140821C0EDE700BF1D1F0800F8130720FC130720C3
S2140821D094130720011F080090130720751F080096
S2140821E004140720E8B138B50446C16A826C9142E7
S2140821F016D0051D28460B4B9847A06CE062C0F128
S2140822000503A361084B1B68984284BF064B1860F9
S21408221000EB80002946054B03EB8000044B9847EB
S21408222038BD70471D1F0800FC13072094130720AD
S214082230011F08000138022815D82DE9F0410E467E
S21408224014469AB10D46DFF838800C4FD8F80000CF
S21408225015F8011B3B68984700280ADBA81B013CB9
S214082260F4D1BDE8F0814FF0FF3070471046BDE866
S214082270F0814FF0FF30BDE8F08100BFA8150720B9
S214082280AC150720002A51D02DE9F04F83B005463B
S2140822900C4692468A44264FDFF8A890254E1DE045
S2140822A021463846C8470028FAD121E09B46DFF881
S2140822B0988001A95846C0470028FAD1019B237088
S2140822C019E09B46DFF8808001A95846C0470028D9
S2140822D0FAD1019B23700134544523D0002301937F
S2140822E0BD42DDD0144B9D42E0D0144B9D42E8D051
S2140822F0134B9D420BD0B542EDD1DFF84C8001A9B7
S2140823003046C0470028FAD1019B2370E3E79B4676
S214082310DFF8348001A95846C0470028FAD1019B47
S2140823202370D8E7002003B0BDE8F08F0020704780
S21408233000080E4000400A400080094000C00940DE
S21408234000000A4093230800E91E080010B4AC23D6
S21408235003600B684A68B3FBF2F31B095C1E4FF672
S214082360FE7294420BD803628B68436040F20223E5
S214082370C0F8203150230360002010BC70470120AD
S214082380FBE7436913F0020F1ABFC1610020012062
S2140823907047436913F0010F1DBF83690B70002057
S2140823A00120704710B50E480E4B98473E21002076
S2140823B00D4B98470D4CA0470028FCD00C4B98476F
S2140823C00C4A0D4B9A620D4CA0470028FCD01020F2
S2140823D00B4B98470B4B98470148024B984710BD44
S2140823E000BD0105B100072065280800B9280800C7
S2140823F0C9280800013F0D2000060E40D92808000D
S21408240001280800D929080010B54FF400421A4BD5
S2140824105A600B20194CA0470C20A0470D20A04757
S2140824200E20A0474FF060513B20154CA0474FF0B8
S21408243060515520A0474FF060515620A0471149DB
S2140824406820A04710495C20A047104A4FF4407106
S2140824500F48104B98474FF000612C20A0474FF0CC
S21408246000612D20A0474FF000612B20A0474FF0B9
S21408247000612A20A04710BD501A0E40E92808001F
S21408248085250800790000280100002801000008BA
S214082490000E0E40552608004264B1F1805F16D043
S2140824A00BD849B1B1F1006F05D1036F016F0B402E
S2140824B023EA0203036742607047B1F1405FFBD02E
S2140824C0B1F1605FF8D0B1F1205FF4D17047036FC7
S2140824D013430367EFE7416412F0010F14BF416628
S2140824E0016612F00A0F14BF0162416212F0020F71
S2140824F007D112F0080F18BFC0F8841041610160B8
S2140825007047C0F88010F9E710B4019C416444B9DC
S214082510016643B1016542B941630161016010BCBF
S21408252070474166F5E74165F5E70163F5E712F0A0
S214082530100F10D0C0F8B01012F0200F14BFC0F85B
S214082540D410C0F8D01012F0400F14BFC0F8C01056
S214082550C0F8C4107047C0F8B410704701647047DC
S214082560C06C7047806C7047430903F5001303F28C
S21408257007735B02DB6B00F01F0023FA00F000F025
S2140825800100704770B582B00D46430903F5001385
S21408259003F207735C0201F0F043B3F1205F31D019
S2140825A016D8B3F1006F1BD0B3F1805F16D100F0D8
S2140825B01F000126864032464FF080512046224BA7
S2140825C0984715F0010F14BF66662666012017E0C7
S2140825D0B3F1405F21D0B3F1605F1ED000200FE05A
S2140825E000F01F000126864032464FF00061204664
S2140825F0154B984715F0010F14BF6666266601202E
S21408260002B070BD00F01F0101262A4606FA01F145
S21408261020460E4B98473046F2E705F0605200F029
S2140826201F01012605EA06030093C5F38003B2F1ED
S214082630605F14BF0022012206FA01F12046044C0E
S214082640A0473046DCE700BF99240800D7240800D6
S2140826500925080070B582B005460E46144602F0F5
S214082660F043B3F1205F27D011D8B3F1006F16D02E
S214082670B3F1805F11D10A464FF08051194B984745
S21408268014F0010F14BF6E662E66012012E0B3F137
S214082690405F15D0B3F1605F12D000200AE00A460A
S2140826A04FF000610F4B984714F0010F14BF6E6689
S2140826B02E66012002B070BD0B4B98470120F9E743
S2140826C004F0605204F001030093C4F38003B2F1EF
S2140826D0605F14BF0022012231462846034CA047FB
S2140826E00120E7E799240800D724080009250800F0
S2140826F02DE9F041044688460E4B98470546204685
S2140827000D4B9847054013D00C4C04F1600603E0C7
S214082710B4420DD010345DB120684045F8D16168E8
S2140827202942F5D0E3689847636825EA0305EFE78A
S214082730BDE8F08161250800652508001814072003
S214082740F8B5184C2668062E29D84FF0000C6446B3
S214082750154F04E00134E4B2A446A64209D3A646BF
S21408276025017D598D42F5D107EB04156D68954214
S214082770F0D10D4D4FEA0E1E05EB0E0445F80E106F
S2140827806260A3600699E1600136664504BF0549A4
S2140827900E6011461A46054B98470020F8BD0120E2
S2140827A0F8BD00BF88140720181407202F25080036
S2140827B008B50B210148024B984708BD000E0E408D
S2140827C0F126080008B50C210148024B984708BDB9
S2140827D000100E40F126080008B50D210148024BEE
S2140827E0984708BD00120E40F126080008B50E21CD
S2140827F00148024B984708BD00140E40F126080011
S214082800174A136B23F0700318431063936E13F084
S214082810080F0AD14FF4006311498A6E12F0080FA8
S21408282003D1013BF9D1012070470D4A136B23F001
S214082830030343F002031363936E13F0080F0AD1E1
S2140828404FF4006306498A6E12F0080F05D1013B63
S214082850F9D101207047002070470020704700BF5C
S21408286000060E40C8B9114A136A090289B223F451
S2140828705C1323F0030343F45C1343F001030B4398
S2140828801362936E13F0010FFBD0084A136A43F0E5
S2140828909B7343F480331362704704490B6A044AF7
S2140828A01A40044B13430B62704700BF00060E40E5
S2140828B0FCFFC8FE02003701024B986E00F4803019
S2140828C0704700BF00060E404FF00052014B9A6258
S2140828D0704700BF00060E40024B986E00F00200DC
S2140828E0704700BF00060E402C281ED81F280CD89C
S2140828F0114B9A6901238340934318D0012303FAA6
S21408290000F00D4B18610020704720380A4BD3F8AA
S21408291008210123834093430BD0012303FA00F0D8
S214082920054BC3F8000100207047012070470020BF
S21408293070470020704700BF00060E40FEE7000004
S21408294008B51C4B1C4A9A4210D01C4B194A9A428E
S2140829500CD2013B9B1A23F0030304331344164995
S21408296051F8040B42F8040B9A42F9D1144B154A55
S2140829709A420AD2013B9B1A23F0030304331344FA
S214082980002142F8041B9342FBD10F4B23F0604210
S21408299022F07F020D498A6003F16043B3F5801F79
S2140829A003D28B6843F000538B60094B9847094B5A
S2140829B09847FEE700000720CC6E0800A80B072003
S2140829C0D8150720A80B07200000080000ED00E037
S2140829D0E9390800B13008003D4B1B6B03F00303D0
S2140829E0032B0ED8DFE803F0021C3838394B5B6936
S2140829F013F0800F14BF4FF400424FF4FA42364BE0
S214082A001A60334B1B6B03F07003702B57D0304B98
S214082A101A6B3149C2F302120B68D3400B60704739
S214082A202B4B1B6A13F0807F03D02C4A2A4B1A6064
S214082A30E7E72B4A284B1A60254B1B6A03F07003FE
S214082A40102B05D0202BDCD1244A234B1A60D8E75C
S214082A50244A214B1A60D4E71D4B1B6A13F0807F6B
S214082A600CD01E4A1C4B1A60194B1B6B03F0030351
S214082A70022B16D01C4A184B1A60C2E7184A164B87
S214082A801A60134B1B6A03F07003102B05D0202B1B
S214082A90EAD1124A104B1A60E6E7124A0E4B1A6041
S214082AA0E2E70B4A916A926A0B48C1F30A41036847
S214082AB001FB0333D2B2B3FBF2F30360A1E7064A85
S214082AC013680A49A1FB03135B081360704700BF2D
S214082AD000060E40101A0E40F4010720001BB7002F
S214082AE000093D0000127A00001C4E0EABAAAAAAE6
S214082AF00A4B1B6853B1094B1B681A1808499142C0
S214082B0008DB1046054A106018467047054A034B0E
S214082B101A60F0E74FF0FF30704700BF8C140720AC
S214082B20FC7F0820D83507204FF0FF3070474FF459
S214082B3000534B6000207047012070470020704704
S214082B4038B5214B9847214D29782148214CA04774
S214082B5069782148A047A9782048A047E9782048FE
S214082B60A04729791F48A04769791F48A047A9792F
S214082B701E48A0471E4B19681E48A0471E4B1968DA
S214082B801E48A0471E4B19681E48A0471E4B1968CA
S214082B901E48A0471E4B19681E48A0471E4B1968BA
S214082BA01E48A0471E4B19681E48A0471E4B1968AA
S214082BB01E48A0471E4B19681E48A0471E4B19689A
S214082BC01E48A04738BD00BF7D0B08001415072017
S214082BD0106B0800393A0800246B08003C6B0800A4
S214082BE0506B0800686B0800806B0800946B080040
S214082BF0DC140720A86B080000150720BC6B08002B
S214082C00FC140720D06B0800F0140720E46B0800BB
S214082C10E8140720F86B0800EC1407200C6C080072
S214082C20D8140720206C0800E0140720386C080029
S214082C30E4140720506C0800F4140720646C08009D
S214082C402DE9F041174600B2204B9847204E214DFB
S214082C50DFF89880204C0BE0A047A5FB00235B0913
S214082C60642202FB130078B11C4B98470CE0EFB9BE
S214082C70B04740BBA047A5FB0023DB0803EB830354
S214082C8003EB83039842E7D0A047A5FB00235B0924
S214082C90642202FB13000028E9D1114B98470F4B1A
S214082CA0984741F270700F4B9847E0E7A047A8FB9B
S214082CB00023DB094FF4FA6202FB13003C28D7D145
S214082CC0094B9847C6E7BDE8F08100BFB910080071
S214082CD0A91008001F85EB5185190800C5150800BE
S214082CE0E915080001000720412B0800D34D6210A3
S214082CF02DE9F041174609B200B2204B9847204EFE
S214082D00204DDFF89880204C0BE0A047A5FB002359
S214082D105B09642202FB130078B11C4B98470CE051
S214082D20EFB9B04740BBA047A5FB0023DB0803EB81
S214082D30830303EB83039842E7D0A047A5FB002351
S214082D405B09642202FB13000028E9D1104B984760
S214082D500E4B984741F270700E4B9847E0E7A04735
S214082D60A8FB0023DB094FF4FA6202FB13003C2899
S214082D70D7D1094B9847C6E7BDE8F081ED110800A2
S214082D80A91008001F85EB5185190800C51508000D
S214082D90E915080001000720412B0800D34D6210F2
S214082DA070B5174C174E184D08E0A047A5FB002332
S214082DB05B094FF4FA7202FB1300B0B1A047A6FBFA
S214082DC00023DB0803EB830303EB83039842ECD171
S214082DD0A047A5FB00235B094FF4FA7202FB130019
S214082DE00028E2D0094B9847DFE7094B9847074B7E
S214082DF09847084B984741F27070074B984770BD44
S214082E00851908001F85EB51D34D6210C5150800BB
S214082E10E91508007D0B08000100072038B50446B0
S214082E20204B9847012C07D0032C20D004B138BD7E
S214082E301D481E4B984738BD1D481C4B98471D4CCF
S214082E400023237021211C4B18681C4B98471C48EC
S214082E501C4B98472378143BDBB2012BE7D91A4D55
S214082E60A8472378143BDBB2012BF9D838BD17489E
S214082E700E4B98470F4C0023237023210E4B1868DF
S214082E800E4B98470E480F4B98472378143BDBB2F7
S214082E90012BCCD90C4DA8472378143BDBB2012B69
S214082EA0F9D8C4E77D0B0800906C0800393A08008A
S214082EB0A86C0800C814072004150720CD090800C8
S214082EC0C0C62D0001000720A12D0800BC6C080014
S214082ED038B50D480D4B98470D4C00232370252117
S214082EE00C4B18680C4B98470C480D4B98472378A2
S214082EF0163BDBB2012B06D90A4DA8472378163BAA
S214082F00DBB2012BF9D838BD786C0800393A0800CE
S214082F10C814072004150720CD090800C0C62D00D0
S214082F2001000720A12D08002DE9884806464D4CCB
S214082F30A0474D4F38464D4DA847A0473846A847A6
S214082F40A0474B48DFF84C91C847324640F6AC518C
S214082F504FF49670DFF850B1D847464CA047A047C4
S214082F60454F3846A8474548C84732464FF4877104
S214082F706420DFF82481C047A047A0473846A84702
S214082F8032464FF4FA61C820D847A047A0473846CB
S214082F90A8473B48C8473246B4216420C047A047E4
S214082FA0A0473846A847324640F2DC514FF4C8706E
S214082FB0D847A047A0473846A8473248C847DFF84A
S214082FC0ECA09AF802103246B4316420C047A047F5
S214082FD0A0473846A8479AF806002B4B984732462B
S214082FE0B4216420C047A047A0473846A8472748CA
S214082FF0C847324687216420C047A047A0473846BE
S214083000A847324640F60C314FF49670D847A0478A
S214083010A0473846A84732469AF804106420C047A6
S214083020A047A0473846A8479AF80630B3B91848C4
S214083030184B9847324600216420174B98470D4C8A
S214083040A047A0470C48094B9847144E114D144CFE
S2140830503046A8472046054B9847F9E7114B98474E
S214083060E5E700BF412B0800808D5B0001000720C4
S214083070D06C0800E9150800804F1200DC6C0800C8
S214083080E86C0800F46C08001D2E0800106D080097
S2140830901C6D0800393A0800F12C0800246D080059
S2140830A0C0C62D00D12E0800412C08001415072094
S2140830B008B5084B9847084B9847084B9847084B5D
S2140830C09847084B9847084B9847084B984701205D
S2140830D0074B9847A523080009240800251C080064
S2140830E0B903080065100800590A080059190800AD
S2140830F0292F080081F0004102E000BF83F000435A
S21408310030B54FEA41044FEA430594EA050F08BF75
S21408311090EA020F1FBF54EA000C55EA020C7FEA39
S214083120645C7FEA655C00F0E2804FEA5454D4EBB6
S2140831305555B8BF6D420CDD2C4480EA020281EA80
S214083140030382EA000083EA010180EA020281EAB8
S2140831500303362D88BF30BD11F0004F4FEA01310A
S2140831604FF4801C4CEA113102D0404261EB410119
S21408317013F0004F4FEA03334CEA133302D052429F
S21408318063EB430394EA050F00F0A780A4F101045B
S214083190D5F1200E0DDB02FA0EFC22FA05F2801895
S2140831A041F1000103FA0EF2801843FA05F359417B
S2140831B00EE0A5F120050EF1200E012A03FA0EFCFA
S2140831C028BF4CF0020C43FA05F3C01851EBE37124
S2140831D001F0004507D54FF0000EDCF1000C7EEB41
S2140831E000006EEB0101B1F5801F1BD3B1F5001F7F
S2140831F00CD349085FEA30004FEA3C0C04F101049E
S2140832004FEA445212F5800F80F09A80BCF1004FC6
S21408321008BF5FEA500C50F1000041EB045141EA48
S214083220050130BD5FEA4C0C404141EB010111F449
S214083230801FA4F10104E9D191F0000F04BF0146F4
S2140832400020B1FA81F308BF2033A3F10B03B3F1D2
S21408325020020CDA0C3208DD02F1140CC2F10C0262
S21408326001FA0CF021FA02F10CE002F11402D8BFC0
S214083270C2F1200C01FA02F120FA0CFCDCBF41EA8C
S2140832800C019040E41AA2BF01EB0451294330BD5B
S2140832906FEA04041F3C1CDA0C340EDC04F1140438
S2140832A0C4F1200220FA04F001FA02F340EA03000F
S2140832B021FA04F345EA030130BDC4F10C04C4F155
S2140832C0200220FA02F001FA04F340EA0300294635
S2140832D030BD21FA04F0294630BD94F0000F83F47F
S2140832E0801306BF81F480110134013D4EE77FEA62
S2140832F0645C18BF7FEA655C29D094EA050F08BFAE
S21408330090EA020F05D054EA000C04BF194610468E
S21408331030BD91EA030F1EBF0021002030BD5FEAD2
S214083320545C05D14000494128BF41F0004130BDFA
S21408333014F580043CBF01F5801130BD01F000454E
S21408334045F0FE4141F470014FF0000030BD7FEAC1
S214083350645C1ABF194610467FEA655C1CBF0B46BC
S214083360024650EA013406BF52EA033591EA030FD3
S21408337041F4002130BD00BF90F0000F04BF0021CB
S214083380704730B54FF4806404F132044FF00005FE
S2140833904FF0000150E700BF90F0000F04BF002177
S2140833A0704730B54FF4806404F1320410F00045DD
S2140833B048BF40424FF000013EE700BF42004FEAD8
S2140833C0E2014FEA31014FEA02701FBF12F07F4355
S2140833D093F07F4F81F06051704792F0000F14BF52
S2140833E093F07F4F704730B54FF4607401F0004596
S2140833F021F0004120E700BF50EA010208BF7047ED
S21408340030B54FF000050AE050EA010208BF7047E1
S21408341030B511F0004502D5404261EB41014FF44A
S214083420806404F132045FEA915C3FF4DCAE4FF04E
S21408343003025FEADC0C18BF03325FEADC0C18BF35
S214083440033202EBDC02C2F1200300FA03FC20FA86
S21408345002F001FA03FE40EA0E0021FA02F11444D3
S214083460C1E600BF70B54FF0FF0C4CF4E06C1CEAE8
S21408347011541DBF1CEA135594EA0C0F95EA0C0F5D
S21408348000F0DEF82C4481EA030621EA4C5123EAD0
S2140834904C5350EA013518BF52EA033541F48011FF
S2140834A043F4801338D0A0FB02CE4FF00005E1FBB2
S2140834B002E506F00042E0FB03E54FF00006E1FBFC
S2140834C003569CF0000F18BF4EF0010EA4F1FF043F
S2140834D0B6F5007F64F5407404D25FEA4E0E6D417F
S2140834E046EB060642EAC62141EA55514FEAC52090
S2140834F040EA5E504FEACE2EB4F1FD0C88BFBCF50C
S214083500E06F1ED8BEF1004F08BF5FEA500E50F1BC
S214083510000041EB045170BD06F0004646EA010182
S21408352040EA020081EA0301B4EB5C04C2BFD4EBB4
S2140835300C0541EA045170BD41F480114FF0000EAD
S214083540013C00F3AB8014F1360FDEBF002001F01B
S214083550004170BDC4F10004203C35DA0C341BDC95
S21408356004F11404C4F1200500FA05F320FA04F067
S21408357001FA05F240EA020001F0004221F000419B
S21408358010EBD37021FA04F642EB06015EEA430E0E
S21408359008BF20EAD37070BDC4F10C04C4F120053E
S2140835A000FA04F320FA05F001FA04F240EA0200F1
S2140835B001F0004110EBD37041F100015EEA430EC2
S2140835C008BF20EAD37070BDC4F1200500FA05F2E2
S2140835D04EEA020E20FA04F301FA05F243EA020361
S2140835E021FA04F001F0004121FA04F220EA020070
S2140835F000EBD3705EEA430E08BF20EAD37070BDB6
S21408360094F0000F0FD101F00046400041EB010195
S21408361011F4801F08BF013CF7D041EA060195F077
S214083620000F18BF704703F00046520043EB030331
S21408363013F4801F08BF013DF7D043EA060370471E
S21408364094EA0C0F0CEA135518BF95EA0C0F0CD029
S21408365050EA410618BF52EA4306D1D181EA03016F
S21408366001F000414FF0000070BD50EA410606BF69
S2140836701046194652EA430619D094EA0C0F02D1AE
S21408368050EA013613D195EA0C0F05D152EA0336F3
S2140836901CBF104619460AD181EA030101F0004111
S2140836A041F0FE4141F470014FF0000070BD41F05A
S2140836B0FE4141F4780170BD70B54FF0FF0C4CF434
S2140836C0E06C1CEA11541DBF1CEA135594EA0C0F53
S2140836D095EA0C0F00F0A7F8A4EB050481EA030EA0
S2140836E052EA03354FEA013100F088804FEA033387
S2140836F04FF0805545EA131343EA12634FEA022255
S21408370045EA111545EA10654FEA00260EF0004115
S2140837109D4208BF964244F1FD0404F5407402D267
S2140837205B084FEA3202B61A65EB03055B084FEAF8
S21408373032024FF480104FF4002CB6EB020E75EBF5
S214083740030E22BFB61A754640EA0C005B084FEA1D
S2140837503202B6EB020E75EB030E22BFB61A75469A
S21408376040EA5C005B084FEA3202B6EB020E75EBE5
S214083770030E22BFB61A754640EA9C005B084FEA5D
S2140837803202B6EB020E75EB030E22BFB61A75466A
S21408379040EADC0055EA060E18D04FEA051545EA59
S2140837A016754FEA06164FEAC30343EA52734FEA02
S2140837B0C2025FEA1C1CC0D111F4801F0BD141EA7B
S2140837C000014FF000004FF0004CB6E711F4801FE0
S2140837D004BF01430020B4F1FD0C88BFBCF5E06FC0
S2140837E03FF6AFAEB5EB030C04BFB6EB020C5FEAD0
S2140837F0500C50F1000041EB045170BD0EF0004E25
S2140838004EEA113114EB5C04C2BFD4EB0C0541EA56
S214083810045170BD41F480114FF0000E013C90E653
S21408382045EA060E8DE60CEA135594EA0C0F08BF17
S21408383095EA0C0F3FF43BAF94EA0C0F0AD150EA16
S21408384001347FF434AF95EA0C0F7FF425AF1046A9
S21408385019462CE795EA0C0F06D152EA03353FF4D1
S214083860FDAE1046194622E750EA410618BF52EA4E
S21408387043067FF4C5AE50EA41047FF40DAF52EA22
S21408388043057FF4EBAE12E74FF0FF3C06E000BFBF
S2140838904FF0010C02E000BF4FF0010C4DF804CDCC
S2140838A04FEA410C7FEA6C5C4FEA430C18BF7FEA8C
S2140838B06C5C1BD001B050EA410C0CBF52EA430CBA
S2140838C091EA030F02BF90EA020F0020704710F13A
S2140838D0000F91EA030F58BF994208BF90422CBFC9
S2140838E0D8176FEAE37040F0010070474FEA410CC2
S2140838F07FEA6C5C02D150EA013C07D14FEA430CE0
S2140839007FEA6C5CD6D152EA033CD3D05DF8040B50
S214083910704700BF8446104662468C461946634682
S21408392000E000BF01B5FFF7B7FF002848BF10F159
S214083930000F01BD4DF808EDFFF7F4FF0CBF01209E
S21408394000205DF808FB00BF4DF808EDFFF7EAFF1A
S21408395034BF012000205DF808FB00BF4DF808EDD5
S214083960FFF7E0FF94BF012000205DF808FB00BFCA
S2140839704DF808EDFFF7CEFF94BF012000205DF854
S21408398008FB00BF4DF808EDFFF7C4FF34BF012061
S21408399000205DF808FB00BF4FEA410212F500124E
S2140839A015D211D56FF47873B3EB625212D94FEA79
S2140839B0C12343F0004343EA505311F0004F23FA63
S2140839C002F018BF404270474FF00000704750EAB8
S2140839D0013005D111F0004008BF6FF00040704775
S2140839E04FF00000704700BF70B50F4E0F4D761BA6
S2140839F0B61018BF002405D0013455F8043B984784
S214083A00A642F9D10A4E0B4D03F04AFA761BB610B9
S214083A1018BF002406D0013455F8043B9847A64240
S214083A20F9D170BD70BD00BFAC6E0800AC6E080062
S214083A30B46E0800AC6E08000FB410B5074B82B021
S214083A4004AC54F8042B186823468168019400F0E7
S214083A505FFA02B0BDE8104004B07047F8010720CE
S214083A60844641EA000313F0030349D1403A23D3BE
S214083A700B6803604B6843608B688360CB68C360E1
S214083A800B6903614B6943618B698361CB69C361C9
S214083A900B6A03624B6A43628B6A8362CB6AC362B1
S214083AA00B6B03634B6B43638B6B8363CB6BC36399
S214083AB040304031403ADBD230320BD30B680360DB
S214083AC04B6843608B688360CB68C36010301031E6
S214083AD0103AF3D20C3205D351F8043B40F8043BB5
S214083AE0043AF9D2043208D0D2071CBF11F8013BB9
S214083AF000F8013B01D30B8803806046704700BF7F
S214083B00082A13D38B07B1D010F00303AED0C3F145
S214083B100403D21ADB071CBF11F8013B00F8013B6F
S214083B20A4D331F8023B20F8023B9FE7043AD9D3E6
S214083B30013A11F8013B00F8013BF9D20B78037003
S214083B404B7843708B7883706046704770B48607EE
S214083B5046D0541E002A41D0CAB2034602E014F1E9
S214083B60FF343BD303F8012B9D07F8D1032C2ED93D
S214083B70CDB245EA05250F2C45EA054519D926464E
S214083B8003F11002103E0F2E42F8105C42F80C5C4F
S214083B9042F8085C42F8045C02F11002F2D8A4F17C
S214083BA0100222F00F0204F00F041032032C134404
S214083BB00DD91E462246043A032A46F8045BFAD86C
S214083BC0221F22F003020432134404F003042CB12B
S214083BD0C9B21C4403F8011B9C42FBD170BC704759
S214083BE014460346C2E700BFF0B5054689B0084646
S214083BF00C46012700F01EF90226C3192049039334
S214083C00AB6B04AA04940590AC68079702960691D5
S214083C10019253B3636E13F0010FB4F90C309AB2E5
S214083C2001D1900525D5910406D4626E43F400535D
S214083C3022F40052A3816266284601AA214601F0B2
S214083C4063FB636E00280CBF0A254FF0FF35DA07C2
S214083C5002D4A3899B0502D5284609B0F0BDA06DFD
S214083C6001F008FD284609B0F0BD284601F040F9E5
S214083C70D0E7A06D01F0FCFCB4F90C309AB2D2E79C
S214083C80086C0800024B01461868FFF7ADBF00BF76
S214083C90F801072000290CBF022200224FF4806397
S214083CA000F000B82DE9F043614D83B02D68044656
S214083CB00F4690461E4615B1AB6B002B64D0B8F184
S214083CC0020F06D0B8F1010F00F29F80002EC0F256
S214083CD09C80636ED80734D52146284601F0B0F894
S214083CE0216B41B104F14003994202D0284601F005
S214083CF025FA002323630022B4F90C30A26162601F
S214083D001A063AD423F44A6323F00303B8F1020FE1
S214083D10A3811DD001AB6A462146284601F0ACFCBB
S214083D20A3891843A081002E32D1009E304601F0A8
S214083D301BFD074600286BD0A38943F08003A381A8
S214083D4028E0A3899905C7D4A06D01F091FCC3E7C4
S214083D50002500260120616E04F1430243F00203A9
S214083D60A660CE07A38160612260226101D498050F
S214083D703ED5284603B0BDE8F0832169284601F001
S214083D80DDF9B4F90C30BDE7284601F0B1F896E73E
S214083D90002FCBD0AB6B002B33D0009BB4F90C2094
S214083DA09E421CBF42F40062A281B8F1010F04BF14
S214083DB042F00102A28192B212F00803276027613E
S214083DC066610ED0D1071AD50023656E764215F0C7
S214083DD00105A661A36009D00025284603B0BDE802
S214083DE0F083A360656E15F00105F5D19305C0D480
S214083DF0A06D01F03FFC284603B0BDE8F083A6603E
S214083E00F0E7284601F074F8C7E74FF0FF35B0E74B
S214083E10DDF80090B14504D0484601F0A5FC0746F9
S214083E2020B9B4F90C304FF0FF3592E74E4683E7D9
S214083E30F801072020F0030110F00300C0F100008D
S214083E4051F8043B00F1040C4FEACC0C6FF000026A
S214083E501CBF22FA0CF213434FF0010C4CEA0C2C50
S214083E604CEA0C4CA3EB0C0222EA030212EACC1230
S214083E7004BF51F8043B0430F4D0C2F1000102EA52
S214083E800102B2FA82F2C2F11F0200EBD2007047BA
S214083E902DE9F84F4B6E93469C042FD5936812680D
S214083EA053B30E46074602F1080919E920045FEAEB
S214083EB09A0817D00024043D01E0A04510D03246E9
S214083EC055F8041F384601F0B5F8431C04F1010400
S214083ED0F3D10023CBF80830CBF80430BDE8F88FD0
S214083EE0DBF808302AF0030AA3EB0A03CBF80830FD
S214083EF009F10809002BD8D10020EAE701F004FAF6
S214083F000023CBF80830CBF80430BDE8F88F00BFA4
S214083F102DE9F04FADB01D468B46904607930690A8
S214083F2018B1836B002B00F0F380DBF86430BBF924
S214083F300C00DF0781B202D48E0540F1FC808C04A9
S214083F400AD4DBF8643040F4005123F40053ABF88D
S214083F500C10CBF8643089B2080740F1B380DBF860
S214083F601030002B00F0AE8001F01A030A2B00F088
S214083F70B58000230DF1700AD1460B930393119375
S214083F801093CDF83CA0CDF810B098F80030444611
S214083F90FBB1252B02D11CE0252B03D014F8013FDA
S214083FA0002BF9D1A4EB08059DB1109B119A01339B
S214083FB02A44072BC9F80080C9F8045011921093B8
S214083FC07ADD002A40F0B584D146039B10922B4434
S214083FD003932378002B00F0E58300204FF00003BE
S214083FE004F101088DF83730627806460546034620
S214083FF04FF0FF3408F10108A2F12001582900F219
S214084000D982DFE811F02802D702D7023002D70299
S214084010D702D702D702D702D702A0008802D70253
S214084020A800B802D702A601AB01AB01AB01AB01F1
S214084030AB01AB01AB01AB01AB01D702D702D7028C
S214084040D702D702D702D702D702D702D702B901BA
S214084050D702D702D702D702D702D702D702D7028B
S214084060D702D7029E01D702D702D702D702D702B5
S214084070A201D702D7025A02D702D702D702D7021E
S214084080D702D702D702D702D702D7026102220286
S214084090D702D702D70276022202D702D7027B02BD
S2140840A0D702FC0189011002D202D7029502D70274
S2140840B0AD00D702D702350209F10809039B2B4445
S2140840C0039386E75946069800F0AAFD18BBBBF886
S2140840D00C1001F01A030A2B7FF44BAFBBF90E3015
S2140840E0002BFFF646AFDBF86430DB0705D48F05F8
S2140840F003D4DBF8580001F0BDFA2B464246594671
S214084100069800F049FD039003982DB0BDE8F08F9F
S21408411000F0EEFE09E7DBF86430D90704D4BBF8F4
S2140841200C309A0540F1AE844FF0FF3303930398A2
S2140841302DB0BDE8F08FDBF8580001F099FABBF90E
S2140841400C0081B2FBE607990A460D680432002D7A
S214084150079202DA6D4243F0040398F8002049E714
S21408416008959E0600F15A840799DD060A4600F16E
S214084170EF83580640F1EC83002701220E880431AD
S21408418007914FF0000100258DF83710611C00F0EC
S214084190178123F08001029156EA070140F0158145
S2140841A0002C40F05B83002A40F0B68313F001032E
S2140841B0059300F0558430230DF1B00B0BF8413D04
S2140841C0059BA342B8BF234601930DB10133019363
S2140841D0029B13F00203099302D0019B023301935A
S2140841E0029B13F084030A9340F01582089B019AF9
S2140841F09D1A002D40F30F82102D40F38484109BE7
S214084200CE461027A146119AC54E1946069C07E0C9
S21408421001F1020C01460EF1080E103D102D11DDBD
S214084220481C1032072811928EE8C0001090EFDD67
S214084230002A40F0D981103D102D11464FF0010C90
S214084240D646EDDC4C466146F1462A4407291192CB
S214084250C9F80060C9F80450109100F3EB829DF885
S214084260375009F10809481C002D40F0DC81099BED
S214084270002B00F0F68102210EAB0A4407281192A3
S2140842801090C9F80410C9F8003040F3E681002AF7
S21408429040F095830A9B0120802B1146D14640F0BA
S2140842A0E481089B019D5E1B002E40F3DE81102EE4
S2140842B040F33C84CC461027A1469A4D069C07E05E
S2140842C001F1020E01460CF1080C103E102E11DD0D
S2140842D0481C1032072811928CE8A0001090EFDDD9
S2140842E0002A40F09B82103E102E4FF0010E114619
S2140842F0D446EDDC4C46E1463244BEF1070F119237
S21408430089E86000CDF840E000F3668309F1080903
S2140843100EF101007146A8E1089513F0200240F05E
S214084320898313F0100140F0198313F0400200F05F
S214084330158307980A460146043106880027079120
S2140843401FE7089543F01003E7E7089543F01003C6
S21408435007E743F0800398F800204BE60025A2F113
S214084360300118F8012B05EB850501EB4505A2F190
S21408437030010929F5D93FE60895002840F002845F
S21408438043F010039E0600F13D830799DD060A46B2
S21408439000F1F082580640F1ED82B1F9006004326F
S2140843A0F717304639460792002871F10002C0F226
S2140843B05A83611C9DF837504FF001027FF4E9AE2E
S2140843C056EA070100F04B820293012A00F08A821F
S2140843D0022A40F05A82D3460B98330943EA0773F9
S2140843E0390906F00F020F461E46835C0BF8013D9E
S2140843F056EA0703F1D1AAEB0B030593E0E600287B
S21408440040F0BD83990600F15983DA0600F1E5808D
S2140844105B0640F1E280079A136804320792BDF8FB
S2140844200C201A80B1E5782230210895079D8DF872
S21408443039202A1D07923C4A2E680B9243F0020345
S2140844408DF83810002702229BE60895002899D098
S2140844508DF8376096E798F80020002E7FF4CAADEE
S21408446001202026C6E543F0010398F80020C1E5A0
S2140844700895002840F080832B490B919F0600F191
S214084480E5820798DE06014600F16F825D0640F178
S2140844906C820027043106880791D80740F12082ED
S2140844A056EA070100F01C8230218DF8392043F0C7
S2140844B002038DF83810022263E60895002840F0BB
S2140844C055831A490B91D9E701220798114601929C
S2140844D002684FF000048DF848200246043208951A
S2140844E08DF83740059107920DF1480B029300248A
S2140844F06EE643F0400398F800207BE598F8002025
S2140845006C2A03BF98F8012043F0200308F101083D
S21408451043F010036EE598F8002001202B2669E585
S2140845206C6D08007C6D0800506D08003C6D080036
S2140845304FF0000207990895D1F800B08DF837209B
S2140845400D1DBBF1000F00F0E482671C00F0C3826B
S214084550224600215846019301F0C6FB019B00281D
S21408456000F0E882A0EB0B020795059202939DF8EF
S2140845703750002424E698F8002008F101072A2A74
S21408458000F0E982A2F130010929B8464FF000048C
S2140845903FF632AD18F8012B04EB840401EB440413
S2140845A0A2F130010929F5D926E543F0200398F849
S2140845B000201FE50895002840F0DB82002A00F05E
S2140845C0F18001218DF848204FF0000201918DF806
S2140845D0372005910DF1480B88E7079A13680432CF
S2140845E00792039A1A60D0E40FAA04992046FFF7A8
S2140845F04FFC002840F043811099D646119A01F1E5
S214084600010C0AE60FAA04990698FFF741FC002851
S21408461040F03581D14610999DF83750119A481CBC
S214084620002D3FF424AE01210DF137050A44072872
S21408463011921090C9F80410C9F8005040F3098187
S214084640002A40F0AF81099B002B3FF423AE0222DC
S2140846500846D1460EAB1D921C93014609F108097F
S21408466001300A9B802B3FF41CAE059BE41A002CF5
S2140846702FDD102C40F32082CE461026B24D069F22
S214084680DDF8109006E0881C19460EF1080E103C5E
S214084690102C10DD4B1C1032072B11928EE8600090
S2140846A01093F0DD002A65D1103C102C4FF0010065
S2140846B01146D646EEDCF146224407281192C9F880
S2140846C00050C9F80440109000F3858009F10809E5
S2140846D00130059907280A441192C9F800B0C9F8AC
S2140846E00410109040F38280002A40F01881029B44
S2140846F01092580735D5089B01995C1A002C40F390
S214084700E780D146102C40F30D82102510998F4E65
S214084710069FDDF810B006E0881C194609F108095E
S214084720103C102C11DD4B1C1032072B1192C9F8C7
S2140847300060C9F804501093EEDD42BB103C102C04
S2140847404FF001001146D146EDDC224407281192AD
S214084750C9F80060C9F80440109051DD002A40F0FE
S2140847609A81039B089A01998A42ACBF9B185B18EA
S21408477003934EE00FAA49463846FFF789FB002800
S21408478040F03E811099D646119A481C7FE70FAA3A
S21408479059463846FFF77CFB60B91099D146119AFE
S2140847A0481CBDE7119BDDF810B0002B40F0CA810D
S2140847B000231093DBF8643013F0010FBBF80C30BD
S2140847C002D19A0540F1DD805B063FF5ADAC039853
S2140847D02DB0BDE8F08F002A40F005810123D146B0
S2140847E0059ACDF870B01D921192109309F1080938
S2140847F0029B590704D5089B01995C1A002C81DC9A
S214084800039B089901988142ACBF5B181B18039359
S21408481072BB0023D1461093FFF7B7BB0FAA0499C3
S2140848202046FFF735FB50BB1099D446119A01F184
S214084830010E4AE5002A7FF4E5AE9DF837100029F8
S21408484000F01A810122D14610460DF137011D925B
S2140848501C91014609F10809013008E5029B012A66
S21408486000F09780022A0DD1029300260027B2E5B1
S2140848700FAA04990698FFF70BFB0028C9D0DDF8A5
S21408488010B097E7002600270293514600E05946E5
S214084890F20842EA4772F80806F007030746164683
S2140848A0303356EA070201F8013C01F1FF3BEED12E
S2140848B0029AD6077FF59FAD302B3FF49CAD302388
S2140848C002390BF8013CAAEB010305938B4677E403
S2140848D0039B089A8A42ACBF9B185B18039398E719
S2140848E002224EE4002F08BF0A2E51D3D346304684
S2140848F039460A22002301F085FE30320BF8012DD6
S2140849003046394600230A2201F07CFE06460F464A
S21408491056EA0703EBD16EE50594D34650E40FAA92
S21408492004990698FFF7B4FA0028A8D1D146119A38
S2140849305EE70FAA04990698FFF7AAFA00289ED100
S214084940D146FFF7BBBB00BF7C6D08006C6D080046
S2140849500431166800270122079112E407980027F9
S21408496001460431066807910BE40E680431079186
S214084970002792E516680432F7170792304639463C
S21408498012E5DBF8580000F075FEBBF80C301BE7A4
S214084990029B029301230DF1B00B30360BF8416DE4
S2140849A005930DE40FAA04990698FFF771FA0028F4
S2140849B07FF465AF1099D146119A481C57E40FAAA0
S2140849C004990698FFF764FA00287FF458AF109900
S2140849D0D146119A481C44E6002A40F087800120F8
S2140849E01146D14641E60FAA04990698FFF750FAF1
S2140849F000287FF444AF1098D146119A013068E633
S214084A00CB46D7E6079D073525F0070505F10802CA
S214084A10D5E90001079206460F46C5E4079D073507
S214084A2025F0070202F10801D2E900670791012282
S214084A30FFF7A7BB079D073525F0070202F1080117
S214084A40D2E9006707910022FFF79BBB079D073551
S214084A5025F0070101F108000790D1E900671CE579
S214084A60D346FFF7ADBB2D25764267EB47078DF893
S214084A7037500122FFF78ABB099BB3B911460120BC
S214084A80D146F2E5DBF8580000F0F4FD4FF0FF33AE
S214084A900393FFF74CBB0FAA04990698FFF7F8F99B
S214084AA000287FF4ECAE119AAAE602220EAB1D92FD
S214084AB01C930120D146D0E5344DFDE5079A1346F0
S214084AC004330793039B1168DD171A462B46C1E982
S214084AD00023FFF75ABA584607950293FFF7AAF934
S214084AE0002405909DF83750FFF76ABB0FAA049973
S214084AF00698FFF7CDF900287FF4C1AE1099D14685
S214084B00119A481CB1E51099119A0131204EFFF709
S214084B109CBB062C28BF0624079505940194DFF84D
S214084B2074B0E3E410981A4E01300EE68646174D28
S214084B30FFF7E2BB05940795029304469DF83750A5
S214084B40FFF73EBB06980FAA5946FFF7A1F90028BB
S214084B503FF42EAE2EE6079998F801200C6804312B
S214084B6044EAE474B8460791FFF744BA8DF837600C
S214084B70A7E48DF8376021E58DF837607CE48DF87A
S214084B8037603FE48DF83760FFF7FABB7C6D0800A6
S214084B906C6D0800646D08002DE9F0410C464FF076
S214084BA0000E4FF48065064617469846626EE389FF
S214084BB08989ADF58D6D21F002011992ADF80E3098
S214084BC0E269636AADF80C1016A81AA9CDF818E0C1
S214084BD007920993009104910295059500F044FD0B
S214084BE043463A4669463046FFF792F9051E07DB04
S214084BF03046694600F024F9002818BF4FF0FF3504
S214084C00BDF80C305B0603D5A38943F04003A381A7
S214084C10169800F02BFD28460DF58D6DBDE8F08141
S214084C2038B5304B054618680C4610B1836B002B18
S214084C3038D0B4F90C2093B218070CD52069A8B15F
S214084C4013F001021ED000226369A2605B42A361D2
S214084C50F0B1002038BDD9063BD5580725D42069C1
S214084C6042F00803A3819BB20028E9D103F420721E
S214084C70B2F5007FE4D02846214600F02BFDA38934
S214084C802069DDE7990758BF6269A2600028E0D16D
S214084C90B4F90C301A06DDD543F04003A3814FF073
S214084CA0FF3038BD00F024F9C3E7216B51B104F199
S214084CB04003994204D0284600F040FAB4F90C2084
S214084CC0002323630023206922F0240284E80900D5
S214084CD0C6E7092342F040022B604FF0FF30A2815E
S214084CE038BD00BFF8010720024B13B1024800F098
S214084CF005B8704700000000694F08000023014609
S214084D001A46184601F056BBB1F90C302DE9F041A9
S214084D109AB20D46110780463AD46A6843F400638F
S214084D20002AAB8170DDAC6A002C4AD000229BB208
S214084D30D8F80060C8F8002013F4805268D02A6DAE
S214084D405F0705D569682B6B521A0BB1EB6BD21A45
S214084D500023E9694046A047441C3DD00021B5F928
S214084D600C302A6923F40063AB81DB0469602A608F
S214084D7048D4296BC8F8006019B305F14003994276
S214084D8002D0404600F0DAF900202863BDE8F0813A
S214084D902E69B6B1910718BF00232C6808BF6B6947
S214084DA02E60A41BAB600AE0234632466F6AE969A8
S214084DB04046B8470028A4EB0004064404DD002C4F
S214084DC0F2DC0020BDE8F081AB894FF0FF3043F0FD
S214084DD04003AB81BDE8F081D8F800401D2CF3D81D
S214084DE0164BE340DB4313F00103EDD1B5F90C2075
S214084DF0296922F40062AA81D2046B602960B8D5BA
S214084E00002CB6D12865B4E7EA6B002A8BDCD8E715
S214084E100123E9694046A047431C024602D0AB89F5
S214084E20AC6A8DE7D8F80030002BF8D01D2B01D0DF
S214084E30162BC9D1C8F80060C3E700BF01004020A0
S214084E4038B50D46044608B1836BBBB1B5F90C00FE
S214084E5088B16B6EDB0701D4810517D52046294635
S214084E60FFF752FF6B6E0446DA0702D4AB899B0540
S214084E7007D5204638BD0446204638BD00F038F829
S214084E80E4E7A86D00F0F6FB204638BDA86D00F0F4
S214084E90EFFBE3E7014900F0B1BB00BF9D640800E3
S214084EA0002310B504468181C28103604360836095
S214084EB04366036143618361194608225C30FEF746
S214084EC045FE07480749084A084B2062E4616162C4
S214084ED0A262E36204F15800BDE8104000F0C4BBCB
S214084EE0E561080009620800456208006562080076
S214084EF010B50446144800F0BBFBA26BFAB90320B1
S214084F00124904F53B73C4F8E832C4F8E022C4F842
S214084F10E402E16360680421FFF7C2FFA06801228B
S214084F200921FFF7BDFFE06802221221FFF7B8FF4C
S214084F3001230548A363BDE8104000F09BBB024868
S214084F40BDE8104000F096BBBC150720954E08003B
S214084F50014800F08DBB00BFD0150720014800F0BF
S214084F6089BB00BFD015072038B50A4C0A4D641B0C
S214084F70A4100AD004F18043013B05EB8305013CED
S214084F8055F804399847002CF9D1BDE8384001F0A7
S214084F9091BF00BFC46E0800C06E08002DE9F0433C
S214084FA083B007468846144600F050FB012833D0E5
S214084FB0424604F15C0301A9384601F0AFF9421CE9
S214084FC0064622D090B39DF8041000250DF104097A
S214084FD008E023685A1C226019700135B54225D2AC
S214084FE015F80910A368013B002BA360F1DAA26943
S214084FF0934201DB0A29ECD12246384601F036F9FD
S214085000431CEAD103B0BDE8F083A38943F040030C
S214085010A38103B0BDE8F08308F1FF33FE2BC7D8A1
S2140850205FFA88F106468DF80410CEE7404603B0CE
S214085030BDE8F08330B5536E144613F0010FB2F98D
S2140850400C3083B005469AB201D190051CD5900461
S21408505006D4626E43F4005342F40052A38162669B
S21408506028462246FFF79AFF636E0546DA0702D4FB
S214085070A3899B0502D5284603B030BDA06D00F075
S214085080F9FA284603B030BDA06D019100F0F0FA99
S214085090B4F90C3001999AB2D9E700BFF8B50C46B6
S2140850A0234F064600F0CAFEBB68C4F57E615D68FD
S2140850B00F3125F00305294421F47F6121F00F0103
S2140850C0A1F58054B4F5805F07DB0021304601F077
S2140850D077F8BB682B44984204D0304600F0B4FEFC
S2140850E00020F8BD6142304601F06AF801300DD064
S2140850F0104BBA6819682D1B45F001053046091B88
S2140851005560196000F0A0FE0120F8BD0021304669
S21408511001F056F8BA68831A0F2BDEDD064C0549EF
S214085120246843F00103001B53600860D5E700BFFE
S2140851309807072090140720A00B0720002944D0C2
S2140851402DE9F0410D46804600F078FE55F8047CBF
S2140851506949A5F1080427F00103E2188E6850682B
S214085160B24220F003005ED0FE0750600BD455F81C
S214085170087C01F1080EE41BA5683B4475456DD014
S214085180E768EF60BD6015186D68ED073ED543F01B
S21408519001026260E350B3F5007F17D20122DB08F4
S2140851A098104D68134451F83370824001EBC300E1
S2140851B02A430838E060A7604A6041F83340FC603C
S2140851C04046BDE8F04100F03FBE70475A0A042A40
S2140851D052D89A0902F13907FF0002F13805C819B2
S2140851E0CA59083890424FD0516821F003018B42C3
S2140851F032D292689042F7D1C368A060E3609C60A0
S214085200C4604046BDE8F04100F01EBE95683B4FBE
S2140852100344BD4240D0D06843F00102E860856090
S2140852206260E350B7E7FF07034407D455F8085C05
S214085230641BE268A0682B44C2609060304A43F062
S21408524001001268606093428C60B9D32D4B4046CB
S2140852501968FFF723FFB3E71046CDE7111849682A
S214085260C90744D491680344D26843F00100CA6071
S21408527091606060E350A3E7142A16D802F15C0731
S214085280FF0002F15B05AAE70123AA104D689340C8
S2140852902B434B600346B0E743F001024C610C61B8
S2140852A0E560A5606260E3508AE7542A06D81A0BC0
S2140852B002F16F07FF0002F16E0590E7B2F5AA7FCC
S2140852C006D8DA0B02F17807FF0002F1770586E7C1
S2140852D040F25450824206D89A0C02F17D07FF002D
S2140852E002F17C057BE74FF47E777E2577E743F06F
S2140852F001016160136063E798070720A00707208D
S214085300A40B0720C01407209368002B71D02DE942
S214085310F04F8B8983B00C4619070090164625D5A2
S21408532022691AB313F0020035682BD04FF0000933
S214085330B0464F46DFF8C0A2002F55D057453B462B
S2140853404A4628BF5346E1690098666AB04700286F
S21408535056DDD8F8083081441B1A3F1AC8F80830BA
S214085360002BE9D1002003B0BDE8F08F2146009855
S214085370FFF756FC002840F03581A389356813F0FE
S2140853800200D3D113F0010944D14F46019637B332
S2140853909A05D4F8088040F185804745C346C0F092
S2140853A0AD8013F4906F40F0AE80BA4620685A4637
S2140853B0494600F0DFFCA2682368A2EB08025B44BB
S2140853C0A2602360019AD1449368A7EB0A07A3EB6F
S2140853D00A039360002BC5D0A389002FD8D1D5F82F
S2140853E000906F680835D2E7D5F800906F680835E2
S2140853F0A2E70020704721460098FFF721FD78B302
S214085400B4F90C304FF0FF3043F04003A38103B0EB
S214085410BDE8F08F814633464E46A8469A464D4626
S21408542056B3002832D0B145CB4628BFB3462068CD
S21408543023695F469842626904D9A36813449B456A
S21408544000F3A88093454DDB1346676A2A46E16950
S2140854500098B847071ED3DDB9EB0709CBD0012063
S214085460DAF808303D44DB1BF61BCAF80830002B78
S2140854703FF478AF002ED4D108F1080353F8046C33
S214085480984653F8085C0833002EF7D032460A21AF
S214085490284600F029FC002800F0A1800130A0EB87
S2140854A00509C0E720682369984202D863699F42C5
S2140854B05DD2B84528BFB8464946424600F05AFC71
S2140854C0A3682268A3EB08034244A36022600BB1DA
S2140854D0C24677E721460098FFF7B2FC00288FD12E
S2140854E0C2466FE75A46294600F044FCA26823687D
S2140854F0A2EB0B025B44A2602360ADE7B846BA464F
S214085500BB46206853E762692068216902EB4208B7
S214085510A0EB010A08EBD8780AF101004FEA680800
S21408552038444045424684BF804642465B0544D5DB
S2140855301146009800F020F98346002855D05246B8
S2140855402169FEF78DFAA38923F4906343F080035C
S214085550A3810BEB0A00A8EB0A03C4F810B0C4F842
S21408556014802060A360B846BA46BB461FE76FF0B3
S2140855700042BA4228BF3A4692FBF3F2E16903FBBF
S21408558002F300984A46666AB047B0F1000A3FF749
S21408559019AF35E71A462946019300F0EBFB226857
S2140855A0019B21461A4422600098FFF749FC019B9C
S2140855B000287FF425AF1F464EE7009800F04AFC07
S2140855C083460028C5D1009D21692846FFF7B6FD09
S2140855D00C22B4F90C302A6023F0800312E706F197
S2140855E0010920E74FF0FF30BDE60C220099B4F918
S2140855F00C300A6006E700BF00FCFF7F2DE9F84381
S21408560010F538761ED0884607464FF000097568AC
S214085610B468013D10D4A389013D012B08D9B4F91B
S2140856200E30013304D021463846C04749EA0009FF
S2140856306B1C04F16804EED13668002EE7D14846A4
S214085640BDE8F883B1464846BDE8F883044B054AEA
S2140856501B685B6B002B08BF134693F8280170473E
S214085660F80107202C060720704700BF704700BFC8
S214085670704700BF704700BF70B50C46B1F90E10F2
S21408568090B0002915461E4614DB01AA00F068FFF4
S21408569000280FDB029A4FF4806302F47042A2F5EA
S2140856A00052B2FA82F24FF40060520932602B6060
S2140856B010B070BD0023A289336012F0800004D0B9
S2140856C0402218462A6010B070BD4FF480632B60E5
S2140856D010B070BD8A890B46920706D5012103F1E2
S2140856E0430259611A601A617047F0B583B001AB7E
S2140856F06A460C460646FFF7BFFF00990546304641
S21408570000F03AF8B4F90C30D8B19DE80600154F09
S21408571043F08003F763A3812060206161611AB9B2
S2140857202B43A38103B0F0BD3046B4F90E1000F049
S2140857302BFFA0B1A38923F0030343F001031BB298
S214085740EEE79A05EED4012123F0030304F14302A1
S21408575043F00203A381616122602261E2E7B4F9A3
S2140857600C30DDE7954E0800024B0146186800F03D
S21408577003B800BFF80107202DE9F04F01F10B062A
S214085780162E83B0054640F29E8036F0070600F1D6
S214085790BD80B14200F2BA8000F050FBB6F5FC7F3F
S2140857A0C0F08582730A00F0B880042B00F26C8182
S2140857B0B30903F1390003F1380EC100B84F394474
S2140857C04C680839A14206D10CE0002A80F2AB806A
S2140857D0E468A14206D0636823F003039A1B0F2AE5
S2140857E0F3DD70463C69DFF8CCE2744500F09E8134
S2140857F0636823F003039A1B0F2A00F38381002AA9
S214085800C7F814E0C7F810E080F29180B3F5007F7F
S21408581080F054810122DB0879684FEAA30C134410
S21408582057F8338002FA0CF207EBC30C0A43ACF1C4
S2140858300801E160C4F808807A6047F83340C8F881
S2140858400C40012483109C4094427DD8144206D113
S21408585020F003006400144200F10400FAD007EBBD
S214085860C009CC468046DCF80C309C4507D15FE181
S214085870002A80F26D81DB689C4500F059815968E2
S21408588021F003018A1B0F2AF2DDDC68D3F808C072
S21408589046F0010828461E4442F00105C3F8048075
S2140858A0CCF80C40C4F808C07E613E61C6F80CE02F
S2140858B0C6F808E075605A50009300F0C5FA009BD9
S2140858C003F108041EE0102920D800F0B7FA1026C5
