S01000004672656552544F532E737265634A
S21408000058D00720713408006D3408006D34080095
S2140800106D3408006D3408006D34080000000000D8
S2140800200000000000000000000000008D16080018
S2140800306D340800000000000D1708004917080076
S2140800406D3408006D3408006D3408006D340800FF
S2140800506D3408006D3408006D3408006D340800EF
S2140800606D3408006D34080000000000E132080016
S214080070F5320800093308001D33080000000000A8
S21408008000000000FD0408006D3408006D34080008
S2140800906D3408006D3408006D3408006D340800AF
S2140800A06D340800000000006D3408006D34080048
S2140800B06D3408006D3408006D3408006D3408008F
S2140800C06D3408006D3408006D34080061010800BE
S2140800D06D3408006D3408006D3408006D3408006F
S2140800E06D3408006D3408006D3408006D3408005F
S2140800F06D34080010B5054C237833B9044B13B19A
S2140801000448AFF300800123237010BD200B07209E
S214080110000000004C9108000C4B43B10C4810B589
S2140801200C49AFF300800C48036823B910BD0A4891
S214080130036833B97047094B002BF7D0BDE8104069
S2140801401847064B002BF5D0184700BF00000000E4
S2140801504C910800240B07204C9108000000000072
S21408016030B583B002211448144B98470190019B80
S2140801704FF08062124B1A631248134B9847114D82
S214080180124C2846A04710F0807FFAD00D48104B36
S2140801909847104CB4FBF0F40F4D286820444008EC
S2140801A00E4B18600E4B98472C604FF08062044B3D
S2140801B05A6303B030BD00BF00800840FD03080046
S2140801C000100E4000000C40210208002B02080018
S2140801D02702080000EE0200D4AE0720D8AE07209B
S2140801E0B51308002DE9F04180B90C469046002A60
S2140801F00FDD8F18084E094D306821462B68984742
S2140802000134BC42F8D14046BDE8F0814FF0FF38D3
S214080210F9E78046F7E700BF10B00720DCAE0720F6
S214080220022303607047006A7047006B704700003F
S214080230F0B48CB007460E4601AC114D0FCD0FC476
S2140802400FCD0FC495E8070084E8070001AA00232D
S21408025052F8040BB6FBF0F0B0FBF7F0B0F5807F71
S21408026007D901330B2BF3D14FF6FF700CB0F0BC57
S21408027070470A2B94BF40EA03204FF6FF70F5E755
S214080280E489080070B506460D460C6844B18968CE
S21408029020460C4B984704464FF6FF7398420CD0FE
S2140802A0686840B1A968074B98474FF6FF739842AD
S2140802B005D044EA004434600024204670BD044655
S2140802C0FBE700BF3102080070B40A684B6803F009
S2140802D00F038C8A23430C8923438C7A43EA4423EE
S2140802E08C7D43EA0443CC7D43EA44430C7E43EAD0
S2140802F0844300EB4214C4F80032CB68C4F80432D6
S2140803000B69C4F80C328B7D3BB18C8B4B8B43EA64
S214080310044300EB4214C4F81832856C4FF00113FE
S2140803209340DB431D40CC7F04FA02F68C7F944052
S21408033044EA06442C438464446C234091F82140E4
S21408034004FA02F591F82040944044EA0544234311
S21408035043640123934091F8224034B3046A1C4353
S214080360046291F82440012C846E0CBF1C439C4305
S214080370846691F82540012C846E0CBF44EA03433A
S21408038024EA03438366032A14D9043AD200046F86
S214080390FF23934024EA030491F8233003FA02F279
S2140803A022430267002070BC7047046A24EA0304EC
S2140803B00462D6E7D500C36EFF24AC4023EA0403E4
S2140803C091F82320AA401A43C266EBE70B699342CA
S2140803D002D24FF6FF7070470B68CA6000EB4310F6
S2140803E0C0F8082200207047012303FA01F1416093
S2140803F07047012303FA01F18160704700EB811111
S214080400086A70472A4B994249D8A3F57A53994205
S2140804102BD910B4274CA4FB0234A40B043C264B5F
S2140804200B449B00B2FBF3F2043AFF2C39D90021A7
S21408043001316408FF2C0DD90729F9D113029BB2A4
S214080440090401F4E0210B43E4B2234303610020CE
S21408045010BC7047FF2AF1D90629EFD80131520897
S214080460FF2AEBD90629F9D9E8E74900B2FBF1F2E9
S214080470043AFF2A11D9002301335208FF2A01D96A
S214080480072BF9D1110289B21B0403F4E0230B43AE
S214080490D2B21A430261002070470023F2E7012017
S2140804A07047FF2A88BF0021D8D80021C6E700BFBA
S2140804B0801A0600F11976050012FD3F38B5044685
S2140804C00D464FF0FF338362036A80230360036B95
S2140804D00823036020230360042303600A6849682E
S2140804E0054B9847012814BF002001206B7A012B82
S2140804F004BF4023236038BD0504080000B583B058
S21408050001220DF107011048104B984772B6BFF349
S2140805105F8F00220E4B1A700E4B1B789DF8071043
S2140805200D4AD1549B2B0BD001330A4A1370012273
S214080530074B1A70BFF35F8F62B603B05DF804FB13
S2140805400022044B1A70F2E700800940C52D080007
S21408055064010720D80B07203C0B07202DE9F04143
S21408056084B02F482F4B984700224FF4C0012E48DE
S2140805702E4B98472E482F4B984755252E4C5626D7
S2140805802846A0470028FBD03046A0470028F7D0CA
S2140805904FF080515520294CA0474FF080515620E7
S2140805A0A0472420264B9847264C04212046264D53
S2140805B0A84705212046A847244B01930026029603
S2140805C0234B039301A92046224B984722494FF014
S2140805D00408C1F80080214D05272F600B234B60C7
S2140805E06B608E72AE720E812E8142F210730B61B2
S2140805F02B6140F2DC53CB60EB602046184EB047C8
S21408060029462046B04741462046164DA847394653
S2140806102046A8470648074B984704B0BDE8F0812F
S214080620108A08002146080000120E40073008000D
S214080630C0D401000100072099300800B530080032
S2140806401934080000400940F303080040420F0030
S21408065000BD010585020800E0AE072008AF0720A8
S214080660C9020800E903080070B540F69803024678
S214080670984228BF1A468B4228BF0B461C460A4E8D
S214080680B2F5487F38BF4FF4487208493046084DDF
S214080690A8472246B4F5487F38BF4FF44872054944
S2140806A03046A84770BD00BF00400940E0AE0720AE
S2140806B0CD03080008AF072038B5064D40F2DC52D7
S2140806C005492846054CA04740F2DC52044928460E
S2140806D0A04738BD00400940E0AE0720CD0308001B
S2140806E008AF072008B50948094B9847094B9847AB
S2140806F0094B98477322094B1A70094A00235380FE
S21408070093801380074A137008BD00BF1C8A080030
S214080710214608005D0508002115080030AF0720AF
S21408072038AF0720D90B0720024B187880F0010055
S214080730704700BFD90B072008B57322064B1A70FE
S2140807400023064A1370064A13800648064B984745
S214080750064B984708BD00BF30AF0720D90B0720C7
S21408076038AF07202C8A080079430800B906080025
S2140807702DE970431E4E1F4B1868B0471E4D18A330
S214080780D3E90023A8471D4C00221D4BA0478046EE
S21408079089461C4B1868B04713A3D3E90023A8471B
S2140807A00022174BA04702460B4640464946164CC1
S2140807B0A047164B9847164B83FB00231A18C317F7
S2140807C0C3EBE22340F6A61202FB130318B2002876
S2140807D0BCBF9B1818B280B2BDE87083AFF3008028
S2140807E00000000000607E400000000000887E4098
S2140807F0D93C080034AF0720A53D0800F93F08009B
S214080800000062404CAF07203D3A0800D942080075
S214080810412943D4000000002DE9704F284B1B786F
S214080820642B04D0722B30D00020BDE8708F254C86
S214080830254B1868A04782468B46244B1868A04765
S214080840234E1BA3D3E90023B047224D0022224B98
S214080850A84780468946214B1868A04716A3D3E9BF
S2140808600023B04700221C4BA84702460B464046CA
S21408087049461B4CA04702460B4650465946194C5B
S214080880A047194B9847BDE8708F184B9847184BE8
S2140808901B88181A40F2D3439842C8BFA0F6A61081
S2140808A0144B9842C1DA00F6A610BDE8708F00BF58
S2140808B00000000000607E400000000000887E40C7
S2140808C030AF0720D93C0800DC0B072034AF0720E0
S2140808D0A53D0800F93F0800000062404CAF07201D
S2140808E0413A08003D3A0800D94208007107080056
S2140808F0E00B07202DFBFFFF08B5384B9847384B11
S2140809001B78642B05D0722B35D00023354A13800C
S21408091008BD031D082B13D9002815DD324B83FBB1
S2140809200023C017C0EBE300013000EB80035B0038
S2140809301BB22E4AB2F900209342A8BF1346E5E739
S2140809402B4B98470023E1E7002801DB0023DDE76F
S214080950254B83FB0023C043C00FC0EBE30000EB2E
S214080960800043001BB2214AB2F9002051428B4254
S214080970CCDA0BB2CAE7431D0A2B13D9002815DDBB
S2140809801C4B83FB0023C017C0EB2310013000EB81
S21408099080039B001BB2154AB2F900209342A8BFF9
S2140809A01346B3E7124B98470023AFE7002801DB4E
S2140809B00023ABE70F4B83FB0023C043C00FC0EBFD
S2140809C0231000EB800083001BB2084AB2F900200F
S2140809D051428B429ADA0BB298E700BF1908080012
S2140809E030AF072038AF072067666666DA0B072041
S2140809F0390708001F85EB5108B5124B1B78722B78
S214080A0010D0732B1BD0642B00D008BD0E4B9988D2
S214080A1001F2DC51588800F2DC5089B280B20B4BE8
S214080A20984708BD084B9988C1F5BB6104315888BA
S214080A3000F2DC5089B280B2044B984708BD044BDC
S214080A409847E2E730AF072038AF07206906080066
S214080A50B906080008B5044B1B7813B9034B98472A
S214080A6008BD034B9847F9E7D90B0720F909080092
S214080A70F9080800000000002DE9F04F83B0904CFC
S214080A80904B1868A047804689468F4BC3E9008973
S214080A908E4B1868A04706460F468D4BC3E900677D
S214080AA08C4C04F148038C4A73E90201C3E902013D
S214080AB072E90201C2E90201A342F5D1DFF814B2D5
S214080AC0CBE90089DFF87CA2CAE90067834C844B2F
S214080AD0D3E900238349D1E90001A047CDE9000105
S214080AE0814DDBE9022340464946A84770A3D3E96F
S214080AF00023A04700227D4BA047DFF84CB2DDE973
S214080B000023D84780468946794BC3E90089DAE945
S214080B10022330463946A84767A3D3E90023A047EF
S214080B200022724BA047DDE90023D84702460B4651
S214080B30704CC4E90023704B1B78722B5AD06D4B4F
S214080B40D3E9004522462B46404649466B4EB047F9
S214080B50DFF888A100226A4BD0476A4BCDE900012E
S214080B600A460146C3E90012DFF87CB122462B4646
S214080B7040464946D84706460F46634BC3E90067D2
S214080B80624BB3F900004E4B9847DDE90023D8477F
S214080B9004460D465E4BC3E900455E4BD3E9002389
S214080BA030463946D04706460F465B4BC3E90067D2
S214080BB05A4BD3E9002320462946D0478046894623
S214080BC00022574B20462946DFF85CA1D047B0B92B
S214080BD00022544B20462946534CA047002861D093
S214080BE042464B4640464946444CA0474F4BC3E90D
S214080BF000010DE0206001F1004161609FE70022DE
S214080C004B4B40464946354CA047484BC3E9000184
S214080C10DFF8E8A0474BD3E9002330463946D047EB
S214080C20454BD3E90023D04704460D46434BC3E95A
S214080C300045434E02460B46D6E900012A4FB84700
S214080C4080468946C6E90089DFF800B1DBE900235B
S214080C5020462946D04706460F46CBE90067DFF808
S214080C60F0B0324BD3E90023DBE90001D047044655
S214080C700D46CBE90045DFF894B002460B464046E1
S214080C804946D047DFF8CC80C047ABF8020022467A
S214080C902B4630463946D047C047ABF8040003B069
S214080CA0BDE8F08F214BC3E90089B1E7AFF30080B8
S214080CB00000000000607E400000000000887E40C3
S214080CC0D93C080034AF0720080C07204CAF072093
S214080CD0100C0720280C0720C00C0720A53D08008C
S214080CE050010720380107203D3A080000408F4091
S214080CF0C80C0720D00C072030AF0720413A080060
S214080D000000E03FD80C0720180C072038AF072053
S214080D10200C072040010720F80B07204801072071
S214080D200000694000004940C5420800000C072042
S214080D3000000840F00B0720E80B072068AF0720E4
S214080D4050AF0720780C0720F93F080060AF07204F
S214080D5058AF0720D9420800F8B50E480E4B9847FA
S214080D600E4F0D4E0E4D3846B0470520A8470D4B82
S214080D7098470D480D4B98470D4B984700231A4641
S214080D8019460C4800680C4CA04700200B4B9847A7
S214080D90E9E700BF4C8A080079430800688A08001B
S214080DA0F524080021220800808D5B00010007203A
S214080DB07D110800B8AF0720191B0800692608002F
S214080DC02DE9F8431448154B9847DFF87890002625
S214080DD00027124CDFF870800520C8474046A04719
S214080DE00F4B98470F48A04732463B460E49D1E975
S214080DF000010E4DA8470028EED00D48A0470D4824
S214080E00A04700231A4619460B4800680B4DA8470A
S214080E1000200B4B9847DDE7788A080079430800DE
S214080E2021220800908A0800F8AF072075420800BB
S214080E30E08A0800FC8A0800C8AF0720191B0800CB
S214080E4069260800F5240800648B08002DE9F0419F
S214080E5082B01E481E4B984701221E4B1A60DFF8C8
S214080E609C801D4F1E4606E01C48194B98470020DC
S214080E7030601B4B9847C0470190B8470028F3D10D
S214080E803368002BF7D0174B19684A1C1A601648A7
S214080E900F4CA047154DA847154B98471548A0472F
S214080EA0142101A8144CA047A847142101A8A0475C
S214080EB0A847142101A8A047A847142101A8A047BD
S214080EC0A847142101A8A047D5E700BF048B08004F
S214080ED07943080044AF0720290708001C8B080040
S214080EE06926080048AF0720288B0800550A08001E
S214080EF0790A08002C8B08006924080021220800BB
S214080F002DE9F0418046184E184D194C0FE0194847
S214080F10194FB8471948B847D8F808301868184B12
S214080F2098471848B8470AE00520174B9847B0472F
S214080F3000231A4619462868A0470128E7D0002348
S214080F401A46194611480068A0470128ECD10948F6
S214080F50094FB8470E48B847D8F804301868084B01
S214080F6098470848B847DFE72122080070AF0720EF
S214080F70D11C0800308B080079430800348B080021
S214080F801D2108004C8B0800F5240800C8AF072070
S214080F90588B08002DE9704F82B02448244B984798
S214080FA000200021234BC3E900010122224B1A60CE
S214080FB01F4C82468B464FF00008DFF8B89011E0C9
S214080FC01C4BC3E900AB1D48A04725E01C48A047BA
S214080FD000231A4619461B4800681B4DA8470020E0
S214080FE01A4B98471A4E1B4D0520B0472846A0476F
S214080FF0194B9847104B1B68012BF5D11748A0478B
S21408100001A91748174B98471748A0470198174B48
S2140810109847019B012BD3D0019B022BD6D1054BB9
S214081020C3E900891248A047D0E700BF6C8B0800C8
S21408103079430800F8AF0720CCAF0720C08B08001C
S214081040108C080070AF0720191B080069260800D6
S214081050F5240800408B080021220800888B080029
S214081060AC8B0800A1430800B08B0800B513080035
S214081070EC8B08000000F03F2DE9F04F83B0834664
S2140810802748284CA0472848A04725464FF0000880
S2140810904FF000094FF0000A2EE0CDF804A04FF0FC
S2140810A08062224B1A63224B9847224BC3F800A053
S2140810B0214C01232360DBF8103018681F4B984733
S2140810C023686BB11E4F1F4E3224B8472146304660
S2140810D0A84720461C4B9847174B1B68002BF4D193
S2140810E01A48A84753465246514619480068194CAC
S2140810F0A0475046184B98470520134B9847174863
S214081100A847174B984742464B461649D1E900016F
S214081110154CA0470028C0D01448A847BDE700BF14
S214081120208C080079430800388C080000100E4010
S2140811307111080048AF072044AF07201D2108009A
S214081140550A0800748C0800F5240800808C0800EE
S214081150E4AF0720191B0800692608003C8C080025
S21408116021220800F8AF072075420800488C0800BE
S214081170014B1868704700BFE00C072000B585B023
S2140811800D4B02930D4B019300238DF80D3017205D
S2140811900B4B984701A90B480B4B984730B10B48A7
S2140811A00B4B9847002005B05DF804FB0948084B30
S2140811B098470120F7E700BFA086010000BD01059B
S2140811C01934080000000940BD040800A48C080073
S2140811D079430800908C0800F0B583B004460D46A5
S2140811E000230193204B98420DD0204B984212D0F2
S2140811F01F4B984219D01F4B9C4220D01E4B9C4236
S21408120027D003B0F0BD1F461C4E29463846B047C7
S2140812100028FAD1EFE71F46194E01A93846B0470D
S2140812200028FAD1019B2B70E8E71E46144C01A94A
S2140812303046A0470028FAD1019B2B70E1E71E46EE
S2140812400F4C01A93046A0470028FAD1019B2B7005
S214081250D7E71E460A4C01A93046A0470028FAD10F
S214081260019B2B70CDE700BF00080E4000800940A8
S21408127000C0094000000A4000400A40D32E08007B
S214081280AD15080070B50C461E4B98420DD01E4B87
S214081290984213D01D4B984219D01D4B98421FD028
S2140812A01C4B984225D0002070BD1E461A4D21467C
S2140812B03046A8470028FAD1012070BD1E46174DB3
S2140812C021463046A8470028FAD1012070BD1E46A0
S2140812D0124D21463046A8470028FAD1012070BD95
S2140812E01E460E4D21463046A8470028FAD1012052
S2140812F070BD1E46094D21463046A8470028FAD13B
S214081300012070BD00080E400080094000C009405A
S21408131000000A4000400A40C32E0800991508003D
S21408132030B585B00820154DA847154C154B1C60E0
S214081330154A164B1A60164A164B1A60164B019336
S2140813404FF4E13302934FF4006303930820A84751
S21408135001A92046114B9847114D2B680021986823
S214081360104CA0472B6800215868A0470E480F4C21
S214081370A0470F48A04705B030BD00BF1934080085
S21408138000080E4010B00720851208000CB0072091
S214081390D9110800DCAE072000BD01058D2E080017
S2140813A07001072031460800BC8C08007943080005
S2140813B0CC8C080000B58BB00A2201A9034B9847CD
S2140813C001A8034B98470BB05DF804FBF9430800E7
S2140813D0214608004E4BDA6B02F0CC004D490B68EC
S2140813E04340086013F0040F44D012F0040F1AD0DC
S2140813F012F0080F0BD1484801680131016013F05C
S214081400080F1AD0444801680139016015E04248BF
S21408141001680139016013F0080F0ED03E480168D4
S2140814200131016009E012F0080F1BD03A48016844
S2140814300131016013F0080F25D113F0400F50D08A
S21408144012F0400F35D012F0800F2AD133490A68BF
S21408145001320A6013F0800F22D0304A1368013B2D
S214081460136070472C4801680139016013F0080FB3
S214081470E3D010E013F0080FDFD012F0080F07D003
S21408148012F0040FCAD12448016801390160D4E774
S21408149012F0040FB6D12048016801310160CCE78C
S2140814A070471E490A68013A0A6013F0800FD8D0C0
S2140814B020E012F0800F0CD018490A6801320A6042
S2140814C013F0800F04D0154A1368013B1360704769
S2140814D0704712490A68013A0A6013F0800FC0D0B4
S2140814E010E013F0800FBCD012F0800F07D012F077
S2140814F0400FE8D0094A136801331360704712F0AA
S214081500400FAAD1054A136801331360704700BF1D
S21408151000120E4040AF072034AF07204CAF07201C
S21408152030B583B00F48104B9847104C0122CC2199
S21408153020460F4B98470F4B00934023CC220D2193
S21408154020460D4DA8474FF400520C4B1A60CC218C
S21408155020460B4B984700230A4A13600A4A136032
S21408156003B030BDDC8C08002146080000120E408F
S21408157007300800D51308007132080000E100E0C3
S2140815808D30080034AF07204CAF0720014B0360AE
S214081590704700BF01474E52436913F0020F1DBF44
S2140815A0C1F30801C161002001207047436913F0A8
S2140815B0010F05D08369C3F308030B60002070474A
S2140815C00120704700F1080343604FF0FF32826045
S2140815D0C3600361002303607047002303617047FC
S2140815E043685A684A6042688A605A6891605960D7
S2140815F041600861036801330360704710B40C68E3
S214081600B4F1FF3F15D000F10803C268126894428F
S21408161004D35B685A6812689442FAD25A684A60D9
S21408162091608B605960086103680133036010BCE1
S21408163070470369F2E7436882689A60836842687D
S2140816405A6003695A68904204BF82685A6000224A
S21408165002611A68013A1A601868704703480068F9
S214081660006880F3088862B600DF00BF08ED00E077
S2140816704FF0807340F8043C40F8081C002340F8FC
S2140816800C3C40F8202C403870470000064B196880
S2140816900868B0E8F00F80F309884FF0000080F380
S2140816A011884EF00D0E7047F0AC07204FF08052B0
S2140816B0014B1A60704700BF04ED00E0EFF311809D
S2140816C04FF0A00181F311887047002008B5034B3E
S2140816D09847034A13680133136008BDBD1608000F
S2140816E05801072080F311887047000008B5054A9E
S2140816F01368013B136003B108BD0020024B9847EE
S214081700FAE700BF58010720E5160800EFF309803E
S2140817100C4B1A6820E9F00F10602DE908404FF0CE
S214081720A00080F3118800F04FFF4FF0000080F310
S2140817301188BDE8084019680868B0E8F00F80F31B
S21408174009887047F0AC072008B54FF08052054B63
S2140817501A60054B9847054B98470020044B984756
S21408176008BD00BF04ED00E0BD16080041220800D1
S214081770E5160800034A044B1A600722043B1A6061
S214081780704700BF1F48010014E000E010B5094B81
S2140817901A6842F470021A601A6842F070421A60B8
S2140817A0054B98470024054B1C60054B9847204678
S2140817B010BD00BF20ED00E075170800580107208F
S2140817C05D16080010B4134A00E01A4613688342F0
S2140817D0FBD351685418A04209D041684418A34264
S2140817E00AD00360904218BF106010BC704740686B
S2140817F0014451601046F0E7074C2468A34206D01F
S2140818005B681944416013681B680360EAE7036075
S214081810E8E700BFE8AC0720E40C072038B5044624
S2140818202A4B98472A4B1B688BB1002C47D004F1EB
S214081830100212F0070F1CBF22F007020832511ED2
S21408184049F6FE7399423CD822490C6816E0214AAC
S214081850214B13600021516049F6F07298181C4D10
S214081860286049F6F475595199505A6018601B4A11
S2140818701368103B1360D8E721461C4663689A42F3
S21408188002D92368002BF7D1114B1B689C421AD04B
S2140818900D68103523680B6063689B1A202B08D8E0
S2140818A00E4A136861685B1A13600D4B9847284602
S2140818B038BDA018436062600A4B9847F0E70025D9
S2140818C0F3E70025F1E70025EFE700BF112208003F
S2140818D0E40C0720E8AC0720E80C07205C0107208A
S2140818E069230800C517080080B110B50446084BE0
S2140818F09847084A54F80C3C11680B441360A4F146
S2140819001000054B9847054B984710BD704700BF19
S214081910112208005C010720C51708006923080083
S21408192010B50446036C5BB903681BB1A36B01339F
S214081930A36310BD4068124B984700236360F5E721
S2140819406AB91A4680680F4B9847A368226C1344F6
S214081950A36062689342E9D32368A360E6E71A4661
S214081960C068084B9847226C5242E3681344E36009
S21408197021688B42DAD263681A44E260D6E700BF71
S214081980B9290800FD43080038B50346006858B171
S2140819901A6CDC681444DC605D68AC4228BFD8600A
S2140819A00846D968014B984738BD00BFFD43080074
S2140819B0F8B504461F4B9847A36C002B14DD636AE2
S2140819C093B104F124061C4D1C4F07E0A36C013BA1
S2140819D0A364A36C002B07DD636A2BB13046A847C7
S2140819E00028F3D0B847F1E74FF0FF33A364144B51
S2140819F09847104B9847636C002B14DD236993B106
S214081A0004F110060C4D0D4F07E0636C013B636450
S214081A10636C002B07DD23692BB13046A8470028E6
S214081A20F3D0B847F1E74FF0FF336364044B9847A9
S214081A30F8BD00BFCD160800D12708000129080008
S214081A40ED16080038B508B30D460446174B9847F8
S214081A502268216CE36B03FB01F3D018606000205A
S214081A60A063A2605B1A1344E3604FF0FF3363641D
S214081A70A36495B923692BB104F110000C4B984761
S214081A80012807D00B4B9847012038BD0A4B9847CA
S214081A9000BFFDE7094B9847F4E704F11000084D2E
S214081AA0A84704F12400A847ECE700BFCD160800B5
S214081AB0D1270800ED160800BD160800AD16080068
S214081AC0C5150800F8B5D8B10D4617460646502085
S214081AD00D4B9847044698B105FB06F001300A4BB3
S214081AE09847206048B1E663256401212046074BE5
S214081AF0984784F84D702046F8BD2046044B984712
S214081B00044B984700BFFDE71D180800451A080053
S214081B10E9180800BD1608002DE9F04F85B00192B7
S214081B2048B188469946044649B10027384EDFF83A
S214081B300CA1384D2EE0384B984700BFFDE7036CE4
S214081B401BB1354B984700BFFDE70027EEE74A462E
S214081B5041462046314B9847636A2BB92D4B984728
S214081B60012005B0BDE8F08F04F124002C4B9847FF
S214081B700128F3D12B4B9847F0E7264B98470020CF
S214081B80EFE702A8D0470FE02046274B9847274B99
S214081B9098470127B047A26BE36B9A42D7D3019BBD
S214081BA0002BEAD0002FECD0A847214B9847B04727
S214081BB0636CB3F1FF3F04BF00236364A36CB3F107
S214081BC0FF3F04BF0023A364A84701A902A8194B36
S214081BD09847A8B9B047D4F838B0E76BA847BB45CC
S214081BE0D2D1019904F11000134B984720460E4BAA
S214081BF098470E4B98470028CBD10A4B9847C8E71A
S214081C002046094B9847094B98470020A9E700BF8C
S214081C10CD160800ED160800BD16080021190800A4
S214081C20D1270800AD160800B11908006923080076
S214081C30112208007D2808002D27080055280800CE
S214081C402DE9F04190B10E4615469846044689B1EE
S214081C501B4B98470746A26BE36B9A4211D30024A6
S214081C603846184B98472046BDE8F081144B9847ED
S214081C7000BFFDE7036C002BEAD0114B984700BF66
S214081C80FDE74246314620460F4B9847A36CB3F112
S214081C90FF3F0AD1636A6BB104F124000B4B9847E7
S214081CA050B15DB101242C60DAE7A36C0133A3645C
S214081CB00124D5E70124D3E70124D1E70124CFE79F
S214081CC0BD160800E516080021190800D1270800E7
S214081CD02DE9F04784B0019248B1884699460446F3
S214081CE049B10027464EDFF84CA1464D4BE0464B1F
S214081CF0984700BFFDE7036C1BB1434B984700BFEE
S214081D00FDE70027EEE7E568414620463F4B984743
S214081D10B9F1000F17D1A36B013BA363236813B96E
S214081D203B4B9847606023693BB104F11000394B80
S214081D309847012801D1384B9847324B98470120DD
S214081D4004B0BDE8F087E560636A002BF5D004F1BF
S214081D502400304B98470028EFD02F4B9847ECE7E5
S214081D60284B98470020EBE702A8D04714E0B04776
S214081D7060682A4B9847A8472CE02046284B984787
S214081D80284B98470127B047A36B002BBBD1019B74
S214081D90002BE5D0002FE7D0A847234B9847B0473D
S214081DA0636CB3F1FF3F04BF00236364A36CB3F115
S214081DB0FF3F04BF0023A364A84701A902A81B4B42
S214081DC09847B0B9B047A76BA847002FD5D1236866
S214081DD0002BCCD0019904F12400154B98472046D7
S214081DE00F4B98470F4B98470028CBD10A4B98477C
S214081DF0C8E720460A4B98470A4B984700209FE7B3
S214081E00CD160800ED160800BD160800891908004A
S214081E100D290800D1270800AD1608003929080042
S214081E20B119080069230800112208007D28080057
S214081E302D2708005528080038B504460D460E4BD1
S214081E409847636CB3F1FF3F04BF00236364A36C39
S214081E50B3F1FF3F04BF0023A364084B9847A36B66
S214081E601BB12046064B984738BD294604F1240086
S214081E70044B9847F5E700BFCD160800ED16080096
S214081E80B11908008D27080010B50F4B1B6858605D
S214081E900E4B1B6898420ED304460D4B18680A4B27
S214081EA0196804310B4B98470B4B1B689C423CBF88
S214081EB0094B1C6010BD094B1868034B19680431A0
S214081EC0044B984710BD00BFF0AC0720ECAD0720C8
S214081ED0F4AC0720FD15080060010720F8AC0720C1
S214081EE02DE9F84F0A9FDDF82C900C9E48B18846DD
S214081EF015469B468246042F07D9604B984700BF75
S214081F00FDE75E4B984700BFFDE74C205C4B9847C3
S214081F100446002854D0002E48D00663AA00A521FF
S214081F203046584B984705F18045013D236B03EB37
S214081F30850323F007050A22414604F13400524B74
S214081F409847002384F83D30E762A76404F1040844
S214081F5040464E4EB04704F11800B0472461C7F11A
S214081F600503A36164625A4651462846484B98477B
S214081F70206010F0070F27D1B9F1000F01D0C9F87B
S214081F800040444B9847444A136801331360434B58
S214081F901B68EBB1424B1B68002B40D13F4B1B68BC
S214081FA0DB6A9F4224BF3D4B1C6038E0A800344BD8
S214081FB09847064620630028B0D12046394B9847F4
S214081FC04FF0FF30BDE8F88F2C4B984700BFFDE771
S214081FD0324B1C601368012B21D1334E3046334DEB
S214081FE0A84706F11400A84706F12800A84706F1F6
S214081FF03C00A84706F15000A847DFF8E49048469A
S214082000A8472B4E3046A8472A48A8472A48A84734
S2140820102A48A8472A4BC3F800902A4B1E60E06A55
S214082020294B1B68984284BF274B1860274A1368B9
S214082030236401331360264B1B68984284BF244BE5
S214082040186000EB80004146174B03EB8000214BDD
S2140820509847214B9847124B1B684BB10F4B1B6890
S214082060DB6A9F4207D91D4B98470120BDE8F88FC9
S2140820700120BDE8F88F0120BDE8F88FBD160800DE
S2140820801D180800E94408002D480800DB1508005C
S21408209071160800CD16080060AD0720F0AC0720C2
S2140820A0C0AD0720E9180800FCAC0720C5150800D5
S2140820B090AD0720ACAD0720D8AD0720C4AD0720EB
S2140820C0F4AC0720F8AC072078AD07206CAD0720E5
S2140820D074AD0720E1150800ED160800AD160800D7
S2140820E07CAD072008B528B14169094A914205D058
S2140820F0002008BD074B984700BFFDE7806A064BDF
S214082100984203D0B0FA80F0400908BD002008BD08
S214082110C4AD0720BD160800ACAD072038B570B1B1
S2140821200446174B1B68984208D0164B984720461B
S214082130154B9847012806D0144B984738BD144BC2
S214082140984700BFFDE7251D2846124B9847E06ACA
S214082150114B1B68984284BF0F4B186000EB800039
S21408216029460E4B03EB80000D4B9847044B1B6823
S214082170E26ADB6A9A42DFD30A4B9847DCE700BF7D
S214082180F0AC0720CD160800E5200800ED1608007C
S214082190BD1608003716080074AD0720FCAC0720EB
S2140821A0E1150800AD16080010B584B000230393A7
S2140821B002930193009382220D490E480E4CA047C5
S2140821C0012802D080B104B010BD0C4B98470128F6
S2140821D0F8D10B4B984701220A4B1A6000220A4B8B
S2140821E01A600A4B9847EEE7054B984700BFFDE78D
S2140821F0EC8C080041250800E11E0800B12A0800FA
S214082200BD160800C0AD0720ECAD07208D170800E6
S214082210024A136801331360704700BF68AD072091
S21408222010B5044B9847044B1C68044B9847204647
S21408223010BD00BFCD160800ECAD0720ED1608004F
S2140822403D4B1B68002B6FD12DE9F0413B4B1A68BC
S21408225001321A601B68ABB9394B1B681B68002B28
S21408226028D1374B1968374A106818601160364904
S2140822700A6801320A601B681B68FBB94FF0FF3218
S214082280324B1A602D4B1A68304B1B689A4250D353
S2140822902B4B1B681B68CBB1294B1B68DB68DC68BB
S2140822A06368264A1268934216D8294E294FDFF8E3
S2140822B0B4802FE0284B984700BFFDE7204B1B68EB
S2140822C0DB68DB685A68214B1A60DBE74FF0FF32A1
S2140822D01E4B1A60BDE8F0811C4A1360BDE8F08109
S2140822E0E06A3B68984288BF386000EB8000294661
S2140822F008EB8000194B9847114B1B681B68002B8E
S214082300E4D00F4B1B68DB68DC6863680B4A12680E
S2140823109342E1D8251D2846B047A36A002BDFD094
S21408232004F11800B047DBE70D4A13680133136061
S2140823307047BDE8F08100BF68AD0720ECAD072008
S214082340F4AC0720F8AC0720A8AD072060010720EA
S2140823503716080074AD0720BD160800E1150800FA
S21408236064AD0720FCAC07202DE9F8432F4B1B680B
S2140823701BB92F4B984700BFFDE72E4B98472B4BB2
S2140823801A68013A1A601B68002B4DD12A4B1B6845
S2140823902BB10024DFF8CC80284F294E23E00024F8
S2140823A0284B98472046BDE8F883D8F80C30DD68F7
S2140823B005F11800B84705F104094846B847E86A21
S2140823C03368984288BF306000EB800049461E4B51
S2140823D003EB80001D4B98471D4B1B68EA6ADB6AB7
S2140823E09A4228BF0124D8F80030002BDDD1194BBB
S2140823F01B6893B1174B1B6843B1174D154CA8477C
S2140824002368013B23602368002BF8D10022134B76
S2140824101A60134B98470124C2E7012CF6D00F4BDD
S2140824201B68012BBCD1F1E70024B9E768AD07208B
S214082430BD160800CD16080060AD07203716080040
S21408244074AD0720ED160800FCAC0720E11508005F
S214082450F0AC072064AD072041220800A4AD072091
S214082460AD160800ACAD072038B530B10C460546A9
S21408247039B9184B984700BFFDE7164B984700BF79
S214082480FDE7154B98472B681C44144A126893427C
S2140824900AD9A3420ED9114B1B682C609C420FD850
S2140824A00F4B984740B138BDA34208D80B4B1B6862
S2140824B09C4204D82C60F3E70A4B984738BD2C603A
S2140824C0094B18680430094B98472046084B98472C
S2140824D0E6E700BFBD16080011220800ECAD07208D
S2140824E069230800AD160800F0AC07203716080068
S2140824F0891E080010B510B90A4B984710BD044647
S214082500094B9847094B1B681C44094B186804304C
S214082510084B98472046084B9847084B984700288A
S214082520ECD1E9E7AD16080011220800ECAD07204B
S214082530F0AC072037160800891E08006923080033
S21408254080B5164DDFF87880154E24E0154B1B68CD
S214082550012B1ED82B68002BF8D0C0473468B84724
S214082560002CF7D0104B9847F368DC68201D0F4BFB
S21408257098470F4A1368013B13602B68013B2B6092
S2140825800C4B9847206BDFF83C90C8472046C84756
S214082590E0E7094B9847094FDCE700BF70AD072016
S2140825A0D8AD0720FCAC0720CD1608003716080063
S2140825B060AD0720ED160800AD1608006923080070
S2140825C011220800E9180800214B1B68EBB910B562
S2140825D0204B1B6803EB83039B001F4AD358C3B9E1
S2140825E01C4B1B686BB11B4A1B491368013B1360E5
S2140825F0136803EB830351F8233053B91368002B91
S214082600F3D1164B984700BFFDE70122144B1A601A
S2140826107047104B1B68104A9900C81802EB8000D8
S214082620446864684460194402460832944209D0F3
S21408263003EB8303084A02EB83035B68DA68094BFB
S2140826401A6010BD6068044A02EB81025060EFE72A
S21408265068AD072074AD0720FCAC0720BD1608003F
S214082660A4AD0720F0AC072038B50446254B98479C
S214082670254B1B68A34212D08CB1251D2846234B38
S2140826809847A36A002B2BD004F118001F4B9847D5
S21408269029461F481F4B98471F4B984738BD1A4B6B
S2140826A01D682C1D2046194B9847AB6AFBB9214676
S2140826B01748184B9847184B9847184B1B6843B948
S2140826C0134B1A68164B1B689A4205D0154B984749
S2140826D038BD154B984738BD00220B4B1A6038BDDD
S2140826E029460B480B4B98470B4B984738BD05F1C6
S2140826F01800064B984721460548064B9847064B50
S2140827009847DAE7CD160800F0AC07203716080019
S214082710C4AD0720E1150800ED160800C0AD072077
S21408272060AD0720C9250800AD16080038B590B179
S2140827300C460E4D296818310D4B9847286804300A
S2140827400C4B9847B4F1FF3F09D00B4B1868204450
S2140827500A4B984738BD0A4B984700BFFDE72968DB
S21408276004310848084B984738BD00BFF0AC07202E
S214082770FD15080037160800ECAD0720891E08006E
S214082780BD160800C4AD0720E115080038B578B1B5
S2140827900D46094C21681831084B984720680430C4
S2140827A0074B9847074B18682844074B984738BD87
S2140827B0064B984700BFFDE7F0AC0720E115080078
S2140827C037160800ECAD0720891E0800BD1608005D
S2140827D038B5C368DC681CB304F118052846154BE1
S2140827E09847154B1B68FBB9251D2846114B98477B
S2140827F0E06A124B1B68984284BF104B186000EBC7
S214082800800029460E4B03EB80000E4B98470E4B74
S2140828101B68E06ADB6A984234BF0020012038BD96
S2140828200A4B984700BFFDE729460948054B9847D5
S214082830EDE700BF3716080068AD072074AD07201F
S214082840FCAC0720E1150800F0AC0720BD16080010
S214082850ACAD072008B530B1054A12680260054AD3
S2140828601268426008BD044B984700BFFDE700BFEA
S214082870A8AD0720ECAD0720BD16080038B5E8B1AE
S2140828800D460446F1B1184B98472B68B3F1FF3F45
S21408289026D0164A12682168914204D0144A126853
S2140828A0616891421ED9124A12686168521A9342A8
S2140828B00CD801240F4B9847204638BD0E4B984736
S2140828C000BFFDE70C4B984700BFFDE7084A1268B3
S2140828D0521A9B1A2B602046084B98470024E9E7B3
S2140828E00024E7E70124E5E7CD160800A8AD072091
S2140828F0ECAD0720ED160800BD16080055280800A0
S2140829000122014B1A607047A4AD0720014B1868D6
S214082910704700BFF0AC0720054B1B6833B1054B6A
S2140829201B68002B0CBF0120022070470020704750
S214082930C0AD072068AD0720002831D038B5054659
S214082940C36A18490968C96A8B4211D215490968C9
S214082950C96AC1F10501816103EB8303124901EBE2
S21408296083034169994204D00E4B1B68DB6AC36235
S21408297038BD041D20460D4B98470A4B1B68D86A7D
S214082980E8620B4B1B68984284BF094B186000EB43
S21408299080002146044B03EB8000064B984738BD61
S2140829A0704700BFF0AC0720FCAC072037160800BD
S2140829B074AD0720E1150800E8B138B50446C16AC9
S2140829C0826C914216D0051D28460B4B9847A06C82
S2140829D0E062C0F10503A361084B1B68984284BFF8
S2140829E0064B186000EB80002946054B03EB800079
S2140829F0044B984738BD70473716080074AD072053
S214082A00FCAC0720E115080008B54160006191425A
S214082A100CD8D21A83699A4201D3012008BD011D39
S214082A20094B1868094B9847002008BD9A4201D2FE
S214082A30994206D2011D064B1868044B9847002099
S214082A4008BD012008BD00BFF4AD0720FD1508002D
S214082A50F0AD072070B50D4B98470D4B1B6813B1AA
S214082A600C4B984770BD0C4D28460C4EB0470C4C86
S214082A702046B0470B4B1D600B4B1C6000220C21F8
S214082A8005200A4B9847024B1860E9E7CD16080060
S214082A9024AE0720ED160800F8AD0720C515080077
S214082AA00CAE0720F0AD0720F4AD0720C51A0800C5
S214082AB010B584B00B4B98470B4B1B6873B10023BB
S214082AC0039302930193042200924FF482720749FB
S214082AD00748084CA04708B104B010BD064B9847F5
S214082AE000BFFDE7552A080024AE0720F48C08002E
S214082AF0012C0800E11E0800BD16080030B585B098
S214082B000F4C2568D5B11C460191029203903BB143
S214082B100023224601A928460A4CA04705B030BD26
S214082B20094B984701284FF000030CBF089A1A462D
S214082B3001A903480068054CA047EFE70020EDE729
S214082B4024AE0720411C080019290800191B080094
S214082B502DE9F04782B08146214B98478046214BA5
S214082B601B68984215D30023C9F800301D4BC3F8DC
S214082B700080404602B0BDE8F087002100910B4671
S214082B8052462046184CA04728B9184B984700BF0D
S214082B90FDE7174E174F33681A68C2B1DA68D2F8DD
S214082BA000A0DB68DC68251D2846B847636A20460F
S214082BB09847E369012BEED1A36953449A45DCD2C2
S214082BC063602461294630680B4B9847E3E70B4A55
S214082BD010680749086013600123C9F80030C5E784
S214082BE02122080020AE0720FD2A0800BD1608008E
S214082BF0F0AD072037160800FD150800F4AD0720CD
S214082C002DE9F04186B0DFF868814D4B1B681A68DD
S214082C10002A00F08980DB681D684A4B984703A89D
S214082C20494B98470646039B002B40F08680A842EF
S214082C300FD2A91B454B1868454B9847454B9847F4
S214082C4008B9454B984702A83F4B984707463F4E5A
S214082C5036E0404B98473A4B1B68DB68DC68201D1B
S214082C60C047E369012B14D1A1692B463246294493
S214082C7020463A4EB04701280BD1002100910B465A
S214082C802A462046364DA84718B9364B984700BFFF
S214082C90FDE7636A20469847D5E70025C9E7049903
S214082CA0A16131B13B463A46394420462B4CA047F1
S214082CB006E02C4B984700BFFDE720462A4B98476E
S214082CC02A4D00231A4603A93068A84700289CD036
S214082CD0059C1CB163690BB1201DC047039B022BE2
S214082CE0DDD0032BE9D0002BEBD10499A0690B4665
S214082CF03A4601442046194DA8470128E0D1636AA0
S214082D0020469847E369012BDAD1A2690021009191
S214082D100B46049802442046114CA0470028CFD101
S214082D20104B984700BFFDE7064B984703A8064B8D
S214082D3098470646039B002BAFD0064B984782E77A
S214082D40F0AD072011220800512B080024AE0720FA
S214082D50391E080069230800AD160800092A08006D
S214082D60FD2A0800BD160800E9180800D11C08004E
S214082D70371608000138022815D82DE9F0410E4606
S214082D8014469AB10D46DFF838800C4FD8F8000084
S214082D9015F8011B3B68984700280ADBA81B013C6E
S214082DA0F4D1BDE8F0814FF0FF3070471046BDE81B
S214082DB0F0814FF0FF30BDE8F08100BF0CB007206F
S214082DC010B00720002A51D02DE9F04F83B00546F1
S214082DD00C4692468A44264FDFF8A890254E1DE0FA
S214082DE021463846C8470028FAD121E09B46DFF836
S214082DF0988001A95846C0470028FAD1019B23703D
S214082E0019E09B46DFF8808001A95846C04700288D
S214082E10FAD1019B23700134544523D00023019333
S214082E20BD42DDD0144B9D42E0D0144B9D42E8D005
S214082E30134B9D420BD0B542EDD1DFF84C8001A96B
S214082E403046C0470028FAD1019B2370E3E79B462B
S214082E50DFF8348001A95846C0470028FAD1019BFC
S214082E602370D8E7002003B0BDE8F08F0020704735
S214082E7000080E4000400A400080094000C0094093
S214082E8000000A40D32E0800AD15080010B4AC2385
S214082E9003600B684A68B3FBF2F31B095C1E4FF627
S214082EA0FE7294420BD803628B68436040F202239A
S214082EB0C0F8203150230360002010BC7047012062
S214082EC0FBE7436913F0020F1ABFC1610020012017
S214082ED07047436913F0010F1DBF83690B7000200C
S214082EE00120704710B50E480E4B98473E2100202B
S214082EF00D4B98470D4CA0470028FCD00C4B984724
S214082F000C4A0D4B9A620D4CA0470028FCD01020A6
S214082F100B4B98470B4B98470148024B984710BDF8
S214082F2000BD0105B100072095330800E933080005
S214082F30F9330800013F0D2000060E40093408004A
S214082F40313308000935080010B54FF40042164B17
S214082F505A600B20154CA0470C20A0470D20A04710
S214082F600E20A0474FF060513B20114CA0474FF071
S214082F7060515520A0474FF060515620A0470D4994
S214082F806820A0470C495C20A0470C4A4FF44071C3
S214082F900B480C4B98474FF000612C20A0474FF089
S214082FA000612D20A04710BD501A0E4019340800A5
S214082FB0B530080079000028010000280100000844
S214082FC0000E0E40853108004264B1F1805F16D0CD
S214082FD00BD849B1B1F1006F05D1036F016F0B40F3
S214082FE023EA0203036742607047B1F1405FFBD0F3
S214082FF0B1F1605FF8D0B1F1205FF4D17047036F8C
S21408300013430367EFE7416412F0010F14BF4166EC
S214083010016612F00A0F14BF0162416212F0020F35
S21408302007D112F0080F18BFC0F88410416101607C
S2140830307047C0F88010F9E710B4019C416444B9A1
S214083040016643B1016542B941630161016010BC84
S21408305070474166F5E74165F5E70163F5E712F065
S214083060100F10D0C0F8B01012F0200F14BFC0F820
S214083070D410C0F8D01012F0400F14BFC0F8C0101B
S214083080C0F8C4107047C0F8B410704701647047A1
S214083090C06C7047806C7047430903F5001303F251
S2140830A007735B02DB6B00F01F0023FA00F000F0EA
S2140830B00100704770B582B00D46430903F500134A
S2140830C003F207735C0201F0F043B3F1205F31D0DE
S2140830D016D8B3F1006F1BD0B3F1805F16D100F09D
S2140830E01F000126864032464FF080512046224B6C
S2140830F0984715F0010F14BF66662666012017E08C
S214083100B3F1405F21D0B3F1605F1ED000200FE01E
S21408311000F01F000126864032464FF00061204628
S214083120154B984715F0010F14BF666626660120F2
S21408313002B070BD00F01F0101262A4606FA01F10A
S21408314020460E4B98473046F2E705F0605200F0EE
S2140831501F01012605EA06030093C5F38003B2F1B2
S214083160605F14BF0022012206FA01F12046044CD3
S214083170A0473046DCE700BFC92F08000730080024
S2140831803930080070B582B005460E46144602F07F
S214083190F043B3F1205F27D011D8B3F1006F16D0F3
S2140831A0B3F1805F11D10A464FF08051194B98470A
S2140831B014F0010F14BF6E662E66012012E0B3F1FC
S2140831C0405F15D0B3F1605F12D000200AE00A46CF
S2140831D04FF000610F4B984714F0010F14BF6E664E
S2140831E02E66012002B070BD0B4B98470120F9E708
S2140831F004F0605204F001030093C4F38003B2F1B4
S214083200605F14BF0022012231462846034CA047BF
S2140832100120E7E7C92F0800073008003930080002
S2140832202DE9F041044688460E4B98470546204649
S2140832300D4B9847054013D00C4C04F1600603E08C
S214083240B4420DD010345DB120684045F8D16168AD
S2140832502942F5D0E3689847636825EA0305EFE74F
S214083260BDE8F081913008009530080028AE0720A8
S214083270F8B5184C2668062E29D84FF0000C644678
S214083280154F04E00134E4B2A446A64209D3A64684
S21408329025017D598D42F5D107EB04156D689542D9
S2140832A0F0D10D4D4FEA0E1E05EB0E0445F80E1034
S2140832B06260A3600699E1600136664504BF054969
S2140832C00E6011461A46054B98470020F8BD0120A7
S2140832D0F8BD00BF98AE072028AE07205F3008006C
S2140832E008B50B210148024B984708BD000E0E4052
S2140832F02132080008B50C210148024B984708BD42
S21408330000100E402132080008B50D210148024B76
S214083310984708BD00120E402132080008B50E2155
S2140833200148024B984708BD00140E402132080099
S214083330174A136B23F0700318431063936E13F049
S214083340080F0AD14FF4006311498A6E12F0080F6D
S21408335003D1013BF9D1012070470D4A136B23F0C6
S214083360030343F002031363936E13F0080F0AD1A6
S2140833704FF4006306498A6E12F0080F05D1013B28
S214083380F9D101207047002070470020704700BF21
S21408339000060E40C8B9114A136A090289B223F416
S2140833A05C1323F0030343F45C1343F001030B435D
S2140833B01362936E13F0010FFBD0084A136A43F0AA
S2140833C09B7343F480331362704704490B6A044ABC
S2140833D01A40044B13430B62704700BF00060E40AA
S2140833E0FCFFC8FE02003701024B986E00F48030DE
S2140833F0704700BF00060E404FF00052014B9A621D
S214083400704700BF00060E40024B986E00F00200A0
S214083410704700BF00060E402C281ED81F280CD860
S214083420114B9A6901238340934318D0012303FA6A
S21408343000F00D4B18610020704720380A4BD3F86F
S21408344008210123834093430BD0012303FA00F09D
S214083450054BC3F800010020704701207047002084
S21408346070470020704700BF00060E40FEE70000C9
S21408347008B51C4B1C4A9A4210D01C4B194A9A4253
S2140834800CD2013B9B1A23F003030433134416495A
S21408349051F8040B42F8040B9A42F9D1144B154A1A
S2140834A09A420AD2013B9B1A23F0030304331344BF
S2140834B0002142F8041B9342FBD10F4B23F06042D5
S2140834C022F07F020D498A6003F16043B3F5801F3E
S2140834D003D28B6843F000538B60094B9847094B1F
S2140834E09847FEE7000007204C910800200B0720AD
S2140834F054B00720200B07200000080000ED00E06D
S21408350029430800713608003D4B1B6B03F0030384
S214083510032B0ED8DFE803F0021C3838394B5B69FA
S21408352013F0800F14BF4FF400424FF4FA42364BA4
S2140835301A60334B1B6B03F07003702B57D0304B5D
S2140835401A6B3149C2F302120B68D3400B607047FE
S2140835502B4B1B6A13F0807F03D02C4A2A4B1A6029
S214083560E7E72B4A284B1A60254B1B6A03F07003C3
S214083570102B05D0202BDCD1244A234B1A60D8E721
S214083580244A214B1A60D4E71D4B1B6A13F0807F30
S2140835900CD01E4A1C4B1A60194B1B6B03F0030316
S2140835A0022B16D01C4A184B1A60C2E7184A164B4C
S2140835B01A60134B1B6A03F07003102B05D0202BE0
S2140835C0EAD1124A104B1A60E6E7124A0E4B1A6006
S2140835D0E2E70B4A916A926A0B48C1F30A4103680C
S2140835E001FB0333D2B2B3FBF2F30360A1E7064A4A
S2140835F013680A49A1FB03135B081360704700BFF2
S21408360000060E40101A0E4068010720001BB7007F
S21408361000093D0000127A00001C4E0EABAAAAAAAA
S2140836200A4B1B6853B1094B1B681A180849914284
S21408363008DB1046054A106018467047054A034BD3
S2140836401A60F0E74FF0FF30704700BF9CAE0720C7
S214083650FC7F082058D007204FF0FF3070474FF403
S21408366000534B60002070470120704700207047C9
S21408367070B584B00420954B9847954B1860954BC9
S2140836809847954B9847954B98470B20944EB047CC
S2140836900C20B0470D20B0470E20B047914C4FF095
S2140836A080652561C4F8A0502920B0478E488F4B06
S2140836B098478F4B98478F488F4B98472561C4F893
S2140836C0A05025638D4B4FF400421A61C3F8A02022
S2140836D01A6303F5806302221A61C3F8A0201A63EE
S2140836E04FF400221A61C3F8A0201A63844D002400
S2140836F02C60844B1C60844B1C60844B1C60844B81
S2140837001C608448844B9847032221460120834B3B
S2140837109847286020B1234622462146804CA04779
S2140837200322002101207D4B9847764B186020B174
S21408373000231A4619467A4CA04703220021012086
S214083740764B9847704B186020B100231A461946E6
S214083750734CA047032200210120704B98476B4BFF
S214083760186020B100231A4619466D4CA04703225C
S21408377000210120694B9847654B186020B100234B
S2140837801A461946664CA04700231A4619465E484C
S2140837900068634CA04700231A4619465948006833
S2140837A0604CA04760485C4CA0476048A047002390
S2140837B0039302935E4A0192022200924FF400722B
S2140837C05C495D485D4CA047002840F00381002313
S2140837D0039302935A4A0192022200924FF400720F
S2140837E058495948554CA047002840F0F780002310
S2140837F003930293554A0192022200924FF40072F4
S214083800534954484D4CA047002840F0EB80304BB5
S2140838101B680022039202924F4A019202220092EB
S2140838204FF400724D494E48444CA047002840F0DB
S214083830DD80274B1B68002203920292494A0192B8
S214083840032200924FF40072474948483B4CA04771
S214083850002840F0CF8046482F4DA8471C4C2368C8
S214083860334A1A602368364A5A60384A9A603A4A8F
S214083870DA603C4A1A611B6818683E4EB0472368EF
S2140838805B681868B04723689B681868B047236861
S214083890DB681868B04723681B691868B047214674
S2140838A03548A84721683548A847354E2168304628
S2140838B0A847216804313046A847216808313046B1
S2140838C0A84721680C312F48A8475DE01D18080056
S2140838D028B00720492F0800E52E08002113080005
S2140838E01934080000100E4000C00B408D15080063
S2140838F0E5060800C027090001000720000E0E4054
S214083900B8AF072070AF0720C8AF0720E4AF07207E
S214083910E0AF0720FC8C080079430800C51A0800A9
S214083920191B0800D11C0800148D0800308D0800EB
S21408393014B00720448D0800590D0800E11E080041
S21408394024B00720748D0800950F08001CB00720C7
S2140839509C8D0800C10D080020B00720BC8D08000B
S2140839607910080018B00720E48D08004D0E0800EE
S214083970108E080069260800488E08006C8E08001D
S2140839808C8E0800BC8E0800236819681B4E3046CB
S214083990A847236859683046A84723689968304678
S2140839A0A8472368D9681648A8471648A847002392
S2140839B00393029301930123009323684FF4007244
S2140839C011491248124DA847124B98472368124AC5
S2140839D05A61FEE71148124B9847F8E61148104B13
S2140839E0984704E710480E4B984710E70F480C4BCB
S2140839F098471EE70E480A4B98472CE7EC8E0800B7
S214083A001C8F08004C8F0800648F0800010F080000
S214083A10E11E0800A92108006C010720548D080043
S214083A2079430800808D0800A48D0800C88D08001A
S214083A30F48D080081F0004102E000BF83F00043E7
S214083A4030B54FEA41044FEA430594EA050F08BF2C
S214083A5090EA020F1FBF54EA000C55EA020C7FEAF0
S214083A60645C7FEA655C00F0E2804FEA5454D4EB6D
S214083A705555B8BF6D420CDD2C4480EA020281EA37
S214083A80030382EA000083EA010180EA020281EA6F
S214083A900303362D88BF30BD11F0004F4FEA0131C1
S214083AA04FF4801C4CEA113102D0404261EB4101D0
S214083AB013F0004F4FEA03334CEA133302D0524256
S214083AC063EB430394EA050F00F0A780A4F1010412
S214083AD0D5F1200E0DDB02FA0EFC22FA05F280184C
S214083AE041F1000103FA0EF2801843FA05F3594132
S214083AF00EE0A5F120050EF1200E012A03FA0EFCB1
S214083B0028BF4CF0020C43FA05F3C01851EBE371DA
S214083B1001F0004507D54FF0000EDCF1000C7EEBF7
S214083B2000006EEB0101B1F5801F1BD3B1F5001F35
S214083B300CD349085FEA30004FEA3C0C04F1010454
S214083B404FEA445212F5800F80F09A80BCF1004F7D
S214083B5008BF5FEA500C50F1000041EB045141EAFF
S214083B60050130BD5FEA4C0C404141EB010111F400
S214083B70801FA4F10104E9D191F0000F04BF0146AB
S214083B800020B1FA81F308BF2033A3F10B03B3F189
S214083B9020020CDA0C3208DD02F1140CC2F10C0219
S214083BA001FA0CF021FA02F10CE002F11402D8BF77
S214083BB0C2F1200C01FA02F120FA0CFCDCBF41EA43
S214083BC00C019040E41AA2BF01EB0451294330BD12
S214083BD06FEA04041F3C1CDA0C340EDC04F11404EF
S214083BE0C4F1200220FA04F001FA02F340EA0300C6
S214083BF021FA04F345EA030130BDC4F10C04C4F10C
S214083C00200220FA02F001FA04F340EA03002946EB
S214083C1030BD21FA04F0294630BD94F0000F83F435
S214083C20801306BF81F480110134013D4EE77FEA18
S214083C30645C18BF7FEA655C29D094EA050F08BF64
S214083C4090EA020F05D054EA000C04BF1946104645
S214083C5030BD91EA030F1EBF0021002030BD5FEA89
S214083C60545C05D14000494128BF41F0004130BDB1
S214083C7014F580043CBF01F5801130BD01F0004505
S214083C8045F0FE4141F470014FF0000030BD7FEA78
S214083C90645C1ABF194610467FEA655C1CBF0B4673
S214083CA0024650EA013406BF52EA033591EA030F8A
S214083CB041F4002130BD00BF90F0000F04BF002182
S214083CC0704730B54FF4806404F132044FF00005B5
S214083CD04FF0000150E700BF90F0000F04BF00212E
S214083CE0704730B54FF4806404F1320410F0004594
S214083CF048BF40424FF000013EE700BF42004FEA8F
S214083D00E2014FEA31014FEA02701FBF12F07F430B
S214083D1093F07F4F81F06051704792F0000F14BF08
S214083D2093F07F4F704730B54FF4607401F000454C
S214083D3021F0004120E700BF50EA010208BF7047A3
S214083D4030B54FF000050AE050EA010208BF704798
S214083D5030B511F0004502D5404261EB41014FF401
S214083D60806404F132045FEA915C3FF4DCAE4FF005
S214083D7003025FEADC0C18BF03325FEADC0C18BFEC
S214083D80033202EBDC02C2F1200300FA03FC20FA3D
S214083D9002F001FA03FE40EA0E0021FA02F114448A
S214083DA0C1E600BF70B54FF0FF0C4CF4E06C1CEA9F
S214083DB011541DBF1CEA135594EA0C0F95EA0C0F14
S214083DC000F0DEF82C4481EA030621EA4C5123EA87
S214083DD04C5350EA013518BF52EA033541F48011B6
S214083DE043F4801338D0A0FB02CE4FF00005E1FB69
S214083DF002E506F00042E0FB03E54FF00006E1FBB3
S214083E0003569CF0000F18BF4EF0010EA4F1FF04F5
S214083E10B6F5007F64F5407404D25FEA4E0E6D4135
S214083E2046EB060642EAC62141EA55514FEAC52046
S214083E3040EA5E504FEACE2EB4F1FD0C88BFBCF5C2
S214083E40E06F1ED8BEF1004F08BF5FEA500E50F173
S214083E50000041EB045170BD06F0004646EA010139
S214083E6040EA020081EA0301B4EB5C04C2BFD4EB6B
S214083E700C0541EA045170BD41F480114FF0000E64
S214083E80013C00F3AB8014F1360FDEBF002001F0D2
S214083E90004170BDC4F10004203C35DA0C341BDC4C
S214083EA004F11404C4F1200500FA05F320FA04F01E
S214083EB001FA05F240EA020001F0004221F0004152
S214083EC010EBD37021FA04F642EB06015EEA430EC5
S214083ED008BF20EAD37070BDC4F10C04C4F12005F5
S214083EE000FA04F320FA05F001FA04F240EA0200A8
S214083EF001F0004110EBD37041F100015EEA430E79
S214083F0008BF20EAD37070BDC4F1200500FA05F298
S214083F104EEA020E20FA04F301FA05F243EA020317
S214083F2021FA04F001F0004121FA04F220EA020026
S214083F3000EBD3705EEA430E08BF20EAD37070BD6C
S214083F4094F0000F0FD101F00046400041EB01014C
S214083F5011F4801F08BF013CF7D041EA060195F02E
S214083F60000F18BF704703F00046520043EB0303E8
S214083F7013F4801F08BF013DF7D043EA06037047D5
S214083F8094EA0C0F0CEA135518BF95EA0C0F0CD0E0
S214083F9050EA410618BF52EA4306D1D181EA030126
S214083FA001F000414FF0000070BD50EA410606BF20
S214083FB01046194652EA430619D094EA0C0F02D165
S214083FC050EA013613D195EA0C0F05D152EA0336AA
S214083FD01CBF104619460AD181EA030101F00041C8
S214083FE041F0FE4141F470014FF0000070BD41F011
S214083FF0FE4141F4780170BD70B54FF0FF0C4CF4EB
S214084000E06C1CEA11541DBF1CEA135594EA0C0F09
S21408401095EA0C0F00F0A7F8A4EB050481EA030E56
S21408402052EA03354FEA013100F088804FEA03333D
S2140840304FF0805545EA131343EA12634FEA02220B
S21408404045EA111545EA10654FEA00260EF00041CC
S2140840509D4208BF964244F1FD0404F5407402D21E
S2140840605B084FEA3202B61A65EB03055B084FEAAF
S21408407032024FF480104FF4002CB6EB020E75EBAC
S214084080030E22BFB61A754640EA0C005B084FEAD4
S2140840903202B6EB020E75EB030E22BFB61A754651
S2140840A040EA5C005B084FEA3202B6EB020E75EB9C
S2140840B0030E22BFB61A754640EA9C005B084FEA14
S2140840C03202B6EB020E75EB030E22BFB61A754621
S2140840D040EADC0055EA060E18D04FEA051545EA10
S2140840E016754FEA06164FEAC30343EA52734FEAB9
S2140840F0C2025FEA1C1CC0D111F4801F0BD141EA32
S21408410000014FF000004FF0004CB6E711F4801F96
S21408411004BF01430020B4F1FD0C88BFBCF5E06F76
S2140841203FF6AFAEB5EB030C04BFB6EB020C5FEA86
S214084130500C50F1000041EB045170BD0EF0004EDB
S2140841404EEA113114EB5C04C2BFD4EB0C0541EA0D
S214084150045170BD41F480114FF0000E013C90E60A
S21408416045EA060E8DE60CEA135594EA0C0F08BFCE
S21408417095EA0C0F3FF43BAF94EA0C0F0AD150EACD
S21408418001347FF434AF95EA0C0F7FF425AF104660
S21408419019462CE795EA0C0F06D152EA03353FF488
S2140841A0FDAE1046194622E750EA410618BF52EA05
S2140841B043067FF4C5AE50EA41047FF40DAF52EAD9
S2140841C043057FF4EBAE12E74FF0FF3C06E000BF76
S2140841D04FF0010C02E000BF4FF0010C4DF804CD83
S2140841E04FEA410C7FEA6C5C4FEA430C18BF7FEA43
S2140841F06C5C1BD001B050EA410C0CBF52EA430C71
S21408420091EA030F02BF90EA020F0020704710F1F0
S214084210000F91EA030F58BF994208BF90422CBF7F
S214084220D8176FEAE37040F0010070474FEA410C78
S2140842307FEA6C5C02D150EA013C07D14FEA430C96
S2140842407FEA6C5CD6D152EA033CD3D05DF8040B07
S214084250704700BF8446104662468C461946634639
S21408426000E000BF01B5FFF7B7FF002848BF10F110
S214084270000F01BD4DF808EDFFF7F4FF0CBF012055
S21408428000205DF808FB00BF4DF808EDFFF7EAFFD1
S21408429034BF012000205DF808FB00BF4DF808ED8C
S2140842A0FFF7E0FF94BF012000205DF808FB00BF81
S2140842B04DF808EDFFF7CEFF94BF012000205DF80B
S2140842C008FB00BF4DF808EDFFF7C4FF34BF012018
S2140842D000205DF808FB00BF4FEA410212F5001205
S2140842E015D211D56FF47873B3EB625212D94FEA30
S2140842F0C12343F0004343EA505311F0004F23FA1A
S21408430002F018BF404270474FF00000704750EA6E
S214084310013005D111F0004008BF6FF0004070472B
S2140843204FF00000704700BF70B50F4E0F4D761B5C
S214084330B61018BF002405D0013455F8043B98473A
S214084340A642F9D10A4E0B4D04F0EAFE761BB610CB
S21408435018BF002406D0013455F8043B9847A642F7
S214084360F9D170BD70BD00BF2C9108002C910800D3
S214084370349108002C9108000FB410B5074B82B092
S21408438004AC54F8042B186823468168019400F09E
S214084390FFFA02B0BDE8104004B07047700107206D
S2140843A00FB410B5074B82B004AC54F8042B186849
S2140843B023464168019401F073F902B0BDE8104045
S2140843C004B0704770010720931E222B10D80A2AC3
S2140843D010B506D000230C46194400F059FA2046BA
S2140843E010BD0028F6DA2D2340420B700123F2E7B1
S2140843F000200870704700BFFFF7E6BF844641EA12
S214084400000313F0030349D1403A23D30B68036033
S2140844104B6843608B688360CB68C3600B69036135
S2140844204B6943618B698361CB69C3610B6A03621D
S2140844304B6A43628B6A8362CB6AC3620B6B036305
S2140844404B6B43638B6B8363CB6BC36340304031EA
S214084450403ADBD230320BD30B6803604B684360BC
S2140844608B688360CB68C36010301031103AF3D283
S2140844700C3205D351F8043B40F8043B043AF9D211
S214084480043208D0D2071CBF11F8013B00F8013BE4
S21408449001D30B8803806046704700BF082A13D3F1
S2140844A08B07B1D010F00303AED0C3F10403D21AC1
S2140844B0DB071CBF11F8013B00F8013BA4D331F819
S2140844C0023B20F8023B9FE7043AD9D3013A11F899
S2140844D0013B00F8013BF9D20B7803704B78437028
S2140844E08B7883706046704770B4860746D0541E33
S2140844F0002A41D0CAB2034602E014F1FF343BD387
S21408450003F8012B9D07F8D1032C2ED9CDB245EA26
S21408451005250F2C45EA054519D9264603F110024C
S214084520103E0F2E42F8105C42F80C5C42F8085C0D
S21408453042F8045C02F11002F2D8A4F1100222F04C
S2140845400F0204F00F041032032C13440DD91E4634
S2140845502246043A032A46F8045BFAD8221F22F0B9
S21408456003020432134404F003042CB1C9B21C44F9
S21408457003F8011B9C42FBD170BC704714460346E7
S214084580C2E700BFF0B5054689B008460C460127C5
S21408459000F01EF90226C31920490393AB6B04AA40
S2140845A004940590AC68079702960691019253B357
S2140845B0636E13F0010FB4F90C309AB201D190056E
S2140845C025D5910406D4626E43F4005322F40052B3
S2140845D0A3816266284601AA214602F0B7F9636EEF
S2140845E000280CBF0A254FF0FF35DA0702D4A38946
S2140845F09B0502D5284609B0F0BDA06D02F0A0FBC9
S214084600284609B0F0BD284601F0BCFED0E7A06DEC
S21408461002F094FBB4F90C309AB2D2E72C8B08005F
S214084620024B01461868FFF7ADBF00BF70010720B0
S21408463000290CBF022200224FF4806300F000B865
S2140846402DE9F043614D83B02D6804460F46904629
S2140846501E4615B1AB6B002B64D0B8F1020F06D01E
S214084660B8F1010F00F29F80002EC0F29C80636EA6
S214084670D80734D52146284601F01AFE216B41B1E9
S21408468004F14003994202D0284602F079F8002344
S21408469023630022B4F90C30A26162601A063AD489
S2140846A023F44A6323F00303B8F1020FA3811DD055
S2140846B001AB6A462146284602F044FBA389184304
S2140846C0A081002E32D1009E304602F0B3FB07468A
S2140846D000286BD0A38943F08003A38128E0A38930
S2140846E09905C7D4A06D02F029FBC3E7002500266C
S2140846F00120616E04F1430243F00203A660CE0770
S214084700A38160612260226101D498053ED52846BF
S21408471003B0BDE8F0832169284602F031F8B4F901
S2140847200C30BDE7284601F02DFE96E7002FCBD0CB
S214084730AB6B002B33D0009BB4F90C209E421CBFF9
S21408474042F40062A281B8F1010F04BF42F00102F0
S214084750A28192B212F008032760276166610ED024
S214084760D1071AD50023656E764215F00105A661B5
S214084770A36009D00025284603B0BDE8F083A360EF
S214084780656E15F00105F5D19305C0D4A06D02F04D
S214084790D7FA284603B0BDE8F083A660F0E72846B7
S2140847A001F0F0FDC7E74FF0FF35B0E7DDF8009001
S2140847B0B14504D0484602F03DFB074620B9B4F997
S2140847C00C304FF0FF3592E74E4683E7700107201E
S2140847D020F0030110F00300C0F1000051F8043B7C
S2140847E000F1040C4FEACC0C6FF000021CBF22FA52
S2140847F00CF213434FF0010C4CEA0C2C4CEA0C4C10
S214084800A3EB0C0222EA030212EACC1204BF51F808
S214084810043B0430F4D0C2F1000102EA0102B2FA05
S21408482082F2C2F11F0200EBD200704740EA010391
S21408483013F0030F70B4034624D0A2B10C78013AE3
S2140848401C70013101333CB16AB111F8014B013AD1
S21408485003F8014B002CF7D12AB100211A4403F8BB
S214084860011B9A42FBD170BC70470E4651F8045B98
S214084870A5F1013424EA050414F0803F05D1043A72
S21408488043F8045B032AF0D8D7E73146D6E700BFDB
S214084890F0B58BB06F461546DFF870E004460E4656
S2140848A0BEE80F000FC7BEE80F000FC79EE803005C
S2140848B0AB1E47F8040B222B397022D8711E084607
S2140848C0002300E01346B4FBF5F205FB12440AAFDA
S2140848D03C4414F8287C144600F8017F5A1C002C27
S2140848E0F0D1B454F2184BB101344D781778181B30
S2140848F0844201F8017F02F80159F5DB30460BB017
S214084900F0BD002030700BB0F0BD00BF708F0800FF
S2140849102DE9F84F4B6E93469C042FD59368126882
S21408492053B30E46074602F1080919E920045FEA60
S2140849309A0817D00024043D01E0A04510D032465E
S21408494055F8041F384601F0BFFD431C04F1010466
S214084950F3D10023CBF80830CBF80430BDE8F88F45
S214084960DBF808302AF0030AA3EB0A03CBF8083072
S21408497009F10809002BD8D10020EAE701F0E6FF84
S2140849800023CBF80830CBF80430BDE8F88F00BF1A
S2140849902DE9F04FADB01D468B469046079306901E
S2140849A018B1836B002B00F0F380DBF86430BBF99A
S2140849B00C00DF0781B202D48E0540F1FC808C041F
S2140849C00AD4DBF8643040F4005123F40053ABF803
S2140849D00C10CBF8643089B2080740F1B380DBF8D6
S2140849E01030002B00F0AE8001F01A030A2B00F0FE
S2140849F0B58000230DF1700AD1460B9303931193EB
S214084A001093CDF83CA0CDF810B098F80030444686
S214084A10FBB1252B02D11CE0252B03D014F8013F4F
S214084A20002BF9D1A4EB08059DB1109B119A013310
S214084A302A44072BC9F80080C9F80450119210932D
S214084A407ADD002A40F0B584D146039B10922B44A9
S214084A5003932378002B00F0E58300204FF0000333
S214084A6004F101088DF83730627806460546034695
S214084A704FF0FF3408F10108A2F12001582900F28E
S214084A80D982DFE811F02802D702D7023002D7020F
S214084A90D702D702D702D702D702A0008802D702C9
S214084AA0A800B802D702A601AB01AB01AB01AB0167
S214084AB0AB01AB01AB01AB01AB01D702D702D70202
S214084AC0D702D702D702D702D702D702D702B90130
S214084AD0D702D702D702D702D702D702D702D70201
S214084AE0D702D7029E01D702D702D702D702D7022B
S214084AF0A201D702D7025A02D702D702D702D70294
S214084B00D702D702D702D702D702D70261022202FB
S214084B10D702D702D70276022202D702D7027B0232
S214084B20D702FC0189011002D202D7029502D702E9
S214084B30AD00D702D702350209F10809039B2B44BA
S214084B40039386E75946069801F0A2FA18BBBBF805
S214084B500C1001F01A030A2B7FF44BAFBBF90E308A
S214084B60002BFFF646AFDBF86430DB0705D48F056D
S214084B7003D4DBF8580002F0E3F82B4642465946C1
S214084B80069800F049FD039003982DB0BDE8F08F15
S214084B9001F0F8FB09E7DBF86430D90704D4BBF862
S214084BA00C309A0540F1AE844FF0FF330393039818
S214084BB02DB0BDE8F08FDBF8580002F0BFF8BBF95F
S214084BC00C0081B2FBE607990A460D680432002DF0
S214084BD0079202DA6D4243F0040398F8002049E78A
S214084BE008959E0600F15A840799DD060A4600F1E4
S214084BF0EF83580640F1EC83002701220E88043123
S214084C0007914FF0000100258DF83710611C00F061
S214084C10178123F08001029156EA070140F01581BA
S214084C20002C40F05B83002A40F0B68313F00103A3
S214084C30059300F0558430230DF1B00B0BF8413D79
S214084C40059BA342B8BF234601930DB101330193D8
S214084C50029B13F00203099302D0019B02330193CF
S214084C60029B13F084030A9340F01582089B019A6E
S214084C709D1A002D40F30F82102D40F38484109B5C
S214084C80CE461027A146119AC54E1946069C07E03F
S214084C9001F1020C01460EF1080E103D102D11DD33
S214084CA0481C1032072811928EE8C0001090EFDDDD
S214084CB0002A40F0D981103D102D11464FF0010C06
S214084CC0D646EDDC4C466146F1462A440729119241
S214084CD0C9F80060C9F80450109100F3EB829DF8FB
S214084CE0375009F10809481C002D40F0DC81099B63
S214084CF0002B00F0F68102210EAB0A440728119219
S214084D001090C9F80410C9F8003040F3E681002A6C
S214084D1040F095830A9B0120802B1146D14640F02F
S214084D20E481089B019D5E1B002E40F3DE81102E59
S214084D3040F33C84CC461027A1469A4D069C07E0D3
S214084D4001F1020E01460CF1080C103E102E11DD82
S214084D50481C1032072811928CE8A0001090EFDD4E
S214084D60002A40F09B82103E102E4FF0010E11468E
S214084D70D446EDDC4C46E1463244BEF1070F1192AC
S214084D8089E86000CDF840E000F3668309F1080979
S214084D900EF101007146A8E1089513F0200240F0D4
S214084DA0898313F0100140F0198313F0400200F0D5
S214084DB0158307980A460146043106880027079196
S214084DC01FE7089543F01003E7E7089543F010033C
S214084DD007E743F0800398F800204BE60025A2F189
S214084DE0300118F8012B05EB850501EB4505A2F106
S214084DF030010929F5D93FE60895002840F00284D5
S214084E0043F010039E0600F13D830799DD060A4627
S214084E1000F1F082580640F1ED82B1F900600432E4
S214084E20F717304639460792002871F10002C0F29B
S214084E305A83611C9DF837504FF001027FF4E9AEA3
S214084E4056EA070100F04B820293012A00F08A8294
S214084E50022A40F05A82D3460B98330943EA07736E
S214084E60390906F00F020F461E46835C0BF8013D13
S214084E7056EA0703F1D1AAEB0B030593E0E60028F0
S214084E8040F0BD83990600F15983DA0600F1E58003
S214084E905B0640F1E280079A136804320792BDF871
S214084EA00C201A80B1E5782230210895079D8DF8E8
S214084EB039202A1D07923C4A2E680B9243F00203BB
S214084EC08DF83810002702229BE60895002899D00E
S214084ED08DF8376096E798F80020002E7FF4CAAD64
S214084EE001202026C6E543F0010398F80020C1E516
S214084EF00895002840F080832B490B919F0600F107
S214084F00E5820798DE06014600F16F825D0640F1ED
S214084F106C820027043106880791D80740F1208262
S214084F2056EA070100F01C8230218DF8392043F03C
S214084F3002038DF83810022263E60895002840F030
S214084F4055831A490B91D9E7012207981146019211
S214084F5002684FF000048DF848200246043208958F
S214084F608DF83740059107920DF1480B02930024FF
S214084F706EE643F0400398F800207BE598F800209A
S214084F806C2A03BF98F8012043F0200308F10108B3
S214084F9043F010036EE598F8002001202B2669E5FB
S214084FA0C88F0800D88F0800AC8F0800988F0800B4
S214084FB04FF0000207990895D1F800B08DF8372011
S214084FC00D1DBBF1000F00F0E482671C00F0C382E1
S214084FD0224600215846019302F01AFA019B00283F
S214084FE000F0E882A0EB0B020795059202939DF865
S214084FF03750002424E698F8002008F101072A2AEA
S21408500000F0E982A2F130010929B8464FF0000401
S2140850103FF632AD18F8012B04EB840401EB440488
S214085020A2F130010929F5D926E543F0200398F8BE
S21408503000201FE50895002840F0DB82002A00F0D3
S214085040F18001218DF848204FF0000201918DF87B
S214085050372005910DF1480B88E7079A1368043244
S2140850600792039A1A60D0E40FAA04992046FFF71D
S2140850704FFC002840F043811099D646119A01F15A
S214085080010C0AE60FAA04990698FFF741FC0028C7
S21408509040F03581D14610999DF83750119A481C32
S2140850A0002D3FF424AE01210DF137050A440728E8
S2140850B011921090C9F80410C9F8005040F30981FD
S2140850C0002A40F0AF81099B002B3FF423AE022252
S2140850D00846D1460EAB1D921C93014609F10809F5
S2140850E001300A9B802B3FF41CAE059BE41A002C6B
S2140850F02FDD102C40F32082CE461026B24D069F98
S214085100DDF8109006E0881C19460EF1080E103CD3
S214085110102C10DD4B1C1032072B11928EE8600005
S2140851201093F0DD002A65D1103C102C4FF00100DA
S2140851301146D646EEDCF146224407281192C9F8F5
S2140851400050C9F80440109000F3858009F108095A
S2140851500130059907280A441192C9F800B0C9F821
S2140851600410109040F38280002A40F01881029BB9
S2140851701092580735D5089B01995C1A002C40F305
S214085180E780D146102C40F30D82102510998F4EDB
S214085190069FDDF810B006E0881C194609F10809D4
S2140851A0103C102C11DD4B1C1032072B1192C9F83D
S2140851B00060C9F804501093EEDD42BB103C102C7A
S2140851C04FF001001146D146EDDC22440728119223
S2140851D0C9F80060C9F80440109051DD002A40F074
S2140851E09A81039B089A01998A42ACBF9B185B1860
S2140851F003934EE00FAA49463846FFF789FB002876
S21408520040F03E811099D646119A481C7FE70FAAAF
S21408521059463846FFF77CFB60B91099D146119A73
S214085220481CBDE7119BDDF810B0002B40F0CA8182
S21408523000231093DBF8643013F0010FBBF80C3032
S21408524002D19A0540F1DD805B063FF5ADAC0398C8
S2140852502DB0BDE8F08F002A40F005810123D14625
S214085260059ACDF870B01D921192109309F10809AD
S214085270029B590704D5089B01995C1A002C81DC0F
S214085280039B089901988142ACBF5B181B180393CF
S21408529072BB0023D1461093FFF7B7BB0FAA049939
S2140852A02046FFF735FB50BB1099D446119A01F1FA
S2140852B0010E4AE5002A7FF4E5AE9DF8371000296E
S2140852C000F01A810122D14610460DF137011D92D1
S2140852D01C91014609F10809013008E5029B012ADC
S2140852E000F09780022A0DD1029300260027B2E527
S2140852F00FAA04990698FFF70BFB0028C9D0DDF81B
S21408530010B097E7002600270293514600E059465A
S214085310F20842EA4772F80806F0070307461646F8
S214085320303356EA070201F8013C01F1FF3BEED1A3
S214085330029AD6077FF59FAD302B3FF49CAD3023FD
S21408534002390BF8013CAAEB010305938B4677E478
S214085350039B089A8A42ACBF9B185B18039398E78E
S21408536002224EE4002F08BF0A2E51D3D3463046F9
S21408537039460A22002303F0ADF930320BF8012D26
S2140853803046394600230A2203F0A4F906460F469B
S21408539056EA0703EBD16EE50594D34650E40FAA08
S2140853A004990698FFF7B4FA0028A8D1D146119AAE
S2140853B05EE70FAA04990698FFF7AAFA00289ED176
S2140853C0D146FFF7BBBB00BFD88F0800C88F0800C0
S2140853D00431166800270122079112E4079800276F
S2140853E001460431066807910BE40E6804310791FC
S2140853F0002792E516680432F717079230463946B2
S21408540012E5DBF8580001F09BFCBBF80C301BE7F4
S214085410029B029301230DF1B00B30360BF8416D59
S21408542005930DE40FAA04990698FFF771FA002869
S2140854307FF465AF1099D146119A481C57E40FAA15
S21408544004990698FFF764FA00287FF458AF109975
S214085450D146119A481C44E6002A40F0878001206D
S2140854601146D14641E60FAA04990698FFF750FA66
S21408547000287FF444AF1098D146119A013068E6A8
S214085480CB46D7E6079D073525F0070505F1080240
S214085490D5E90001079206460F46C5E4079D07357D
S2140854A025F0070202F10801D2E9006707910122F8
S2140854B0FFF7A7BB079D073525F0070202F108018D
S2140854C0D2E9006707910022FFF79BBB079D0735C7
S2140854D025F0070101F108000790D1E900671CE5EF
S2140854E0D346FFF7ADBB2D25764267EB47078DF809
S2140854F037500122FFF78ABB099BB3B91146012032
S214085500D146F2E5DBF8580001F01AFC4FF0FF33FD
S2140855100393FFF74CBB0FAA04990698FFF7F8F910
S21408552000287FF4ECAE119AAAE602220EAB1D9272
S2140855301C930120D146D0E5344DFDE5079A134665
S21408554004330793039B1168DD171A462B46C1E9F7
S2140855500023FFF75ABA584607950293FFF738F91B
S214085560002405909DF83750FFF76ABB0FAA0499E8
S2140855700698FFF7CDF900287FF4C1AE1099D146FA
S214085580119A481CB1E51099119A0131204EFFF77F
S2140855909CBB062C28BF0624079505940194DFF8C3
S2140855A074B0E3E410981A4E01300EE68646174D9E
S2140855B0FFF7E2BB05940795029304469DF837501B
S2140855C0FFF73EBB06980FAA5946FFF7A1F9002831
S2140855D03FF42EAE2EE6079998F801200C680431A1
S2140855E044EAE474B8460791FFF744BA8DF8376082
S2140855F0A7E48DF8376021E58DF837607CE48DF8F0
S21408560037603FE48DF83760FFF7FABBD88F08009D
S214085610C88F0800C08F08002DE9F0410C464FF0EF
S214085620000E4FF48065064617469846626EE38974
S2140856308989ADF58D6D21F002011992ADF80E300D
S214085640E269636AADF80C1016A81AA9CDF818E036
S21408565007920993009104910295059501F06AFB5B
S21408566043463A4669463046FFF792F9051E07DB79
S2140856703046694600F01CFE002818BF4FF0FF357C
S214085680BDF80C305B0603D5A38943F04003A3811D
S214085690169801F051FB28460DF58D6DBDE8F08192
S2140856A02DE9F04F8B46D9B0496E0693BBF90C30FE
S2140856B011F0010F814699B202D1880540F1D683D0
S2140856C0890409D4DBF8641043F4005321F400512C
S2140856D0ABF80C30CBF86410174600233E46079309
S2140856E004939A46059316F8013B0B936BB301F0A7
S2140856F013FB0B9B1844457815F0080534D0DBF8E7
S21408570004301A4612E001F007FBDBF800301A787E
S214085710013310444278120710D5DBF804200AF14A
S214085720010A013ACBF80030CBF80420002AEADC5C
S2140857305946484602F0E2F80028E4D037463E4686
S21408574016F8013B0B93002BD1D1DBF86430DA074F
S21408575000F19D81BBF80C309B0500F19881DBF8C1
S214085760580001F0EDFA92E1252B40F082802C4695
S2140857707F78731C782F00F28E81DFE817F07C01A3
S2140857808C018C018C018C018C018C018C018C01A4
S2140857908C018C018C018C018C018C018C018C0194
S2140857A08C018C018C018C018C018C018C018C0184
S2140857B08C018C018C018C018C018C018C018C0174
S2140857C08C018C018C018C0179008C018C018C0178
S2140857D08C0177018C018C018C018C018C016F0186
S2140857E06F016F016F016F016F016F016F016F012C
S2140857F06F018C018C018C018C018C018C018C0151
S2140858008C018C018C016B018C018C018C018C0144
S2140858108C018C018C0166018C018C012D018C0198
S2140858208C018C018C018C018C018C018C0124016B
S2140858308C018C011B018C018C018C018C018C0164
S2140858408C018C01160105018C018C018C0100016C
S21408585093008C018C015E018C01460144014001D5
S2140858608C018C013D018C0136018C018C012401D0
S2140858701E46DBF80430002B40F38383DBF8003049
S21408588016F8012C197891427FF45FAFDBF80420F4
S2140858900133013ACBF800300AF1010ACBF80420AC
S2140858A037464CE70393AC4B032607930023049331
S2140858B0DBF80430002B71DD6B0631D5022E00F0C4
S2140858C00482032E00F04C81012E00F01981002C72
