:0200000280007C
:1000000030D00720C53A0800C13A0800C13A0800BC
:10001000C13A0800C13A0800C13A080000000000D7
:10002000000000000000000000000000E1220800C5
:10003000C13A080000000000612308009D23080069
:10004000C13A0800C13A0800C13A0800C13A0800A4
:10005000C13A0800C13A0800C13A0800C13A080094
:10006000C13A0800C13A0800000000003539080014
:10007000493908005D3908007139080000000000A6
:10008000000000002D050800C13A0800C13A080030
:10009000C13A0800C13A0800C13A0800C13A080054
:1000A000C13A080000000000C13A0800C13A080047
:1000B000C13A0800C13A0800C13A0800C13A080034
:1000C000C13A0800C13A0800C13A080061010800BD
:1000D000C13A0800C13A0800C13A0800C13A080014
:1000E000C13A0800C13A0800C13A0800C13A080004
:1000F000C13A080010B5054C237833B9044B13B14D
:100100000448AFF300800123237010BD200B0720AB
:1001100000000000F48B08000C4B43B10C4810B5F4
:100120000C49AFF300800C48036823B910BD0A489E
:10013000036833B97047094B002BF7D0BDE8104076
:100140001847064B002BF5D0184700BF00000000F1
:10015000F48B0800240B0720F48B0800000000003B
:1001600030B583B002211448144B98470190019B8D
:100170004FF08062124B1A631248134B9847114D8F
:10018000124C2846A04710F0807FFAD00D48104B43
:100190009847104CB4FBF0F40F4D286820444008F9
:1001A0000E4B18600E4B98472C604FF08062044B4A
:1001B0005A6303B030BD00BF008008402D04080022
:1001C00000100E4000000C40210208002B02080025
:1001D0002702080000EE020098AE07209CAE072020
:1001E000152008002DE9F04180B90C469046002A00
:1001F0000FDD8F18084E094D306821462B6898474F
:100200000134BC42F8D14046BDE8F0814FF0FF38E0
:10021000F9E78046F7E700BFE8AF0720A0AE072068
:10022000022303607047006A7047006B704700004C
:10023000F0B48CB007460E4601AC114D0FCD0FC483
:100240000FCD0FC495E8070084E8070001AA00233A
:1002500052F8040BB6FBF0F0B0FBF7F0B0F5807F7E
:1002600007D901330B2BF3D14FF6FF700CB0F0BC64
:1002700070470A2B94BF40EA03204FF6FF70F5E762
:10028000F083080070B506460D460C6844B18968D5
:1002900020460C4B984704464FF6FF7398420CD00B
:1002A000686840B1A968074B98474FF6FF739842BA
:1002B00005D044EA004434600024204670BD044662
:1002C000FBE700BF3102080070B40A684B6803F016
:1002D0000F038C8A23430C8923438C7A43EA4423FB
:1002E0008C7D43EA0443CC7D43EA44430C7E43EADD
:1002F000844300EB4214C4F80032CB68C4F80432E3
:100300000B69C4F80C328B7D3BB18C8B4B8B43EA71
:10031000044300EB4214C4F81832856C4FF001130B
:100320009340DB431D40CC7F04FA02F68C7F94405F
:1003300044EA06442C438464446C234091F82140F1
:1003400004FA02F591F82040944044EA054423431E
:1003500043640123934091F8224034B3046A1C4360
:10036000046291F82440012C846E0CBF1C439C4312
:10037000846691F82540012C846E0CBF44EA034347
:1003800024EA03438366032A14D9043AD200046F93
:10039000FF23934024EA030491F8233003FA02F286
:1003A00022430267002070BC7047046A24EA0304F9
:1003B0000462D6E7D500C36EFF24AC4023EA0403F1
:1003C00091F82320AA401A43C266EBE70B699342D7
:1003D00002D24FF6FF7070470B68CA6000EB431003
:1003E000C0F8082200207047012303FA01F14160A0
:1003F0007047012303FA01F18160704710B489014D
:100400004318022444504FF0FF319962196A5A6030
:1004100010BC7047890105234350704789010223AE
:100420004350704700EB81110869704700EB811160
:10043000086A70472A4B994249D8A3F57A539942E2
:100440002BD910B4274CA4FB0234A40B043C264B3C
:100450000B449B00B2FBF3F2043AFF2C39D9002184
:1004600001316408FF2C0DD90729F9D113029BB281
:10047000090401F4E0210B43E4B2234303610020AB
:1004800010BC7047FF2AF1D90629EFD80131520874
:10049000FF2AEBD90629F9D9E8E74900B2FBF1F2C6
:1004A000043AFF2A11D9002301335208FF2A01D947
:1004B000072BF9D1110289B21B0403F4E0230B438B
:1004C000D2B21A430261002070470023F2E70120F4
:1004D0007047FF2A88BF0021D8D80021C6E700BF97
:1004E000801A0600F11976050012FD3F38B5044662
:1004F0000D464FF0FF338362036A80230360036B72
:100500000823036020230360042303600A6849680A
:10051000054B9847012814BF002001206B7A012B5E
:1005200004BF4023236038BD3504080000B583B004
:1005300001220DF107011048104B984772B6BFF326
:100540005F8F00220E4B1A700E4B1B789DF8071020
:100550000D4AD1549B2B0BD001330A4A1370012250
:10056000074B1A70BFF35F8F62B603B05DF804FBF0
:100570000022044B1A70F2E7008009402934080079
:1005800064010720D80B07203C0B07202DE9F04120
:1005900084B02F482F4B984700224FF4C0012E48BB
:1005A0002E4B98472E482F4B984755252E4C5626B4
:1005B0002846A0470028FBD03046A0470028F7D0A7
:1005C0004FF080515520294CA0474FF080515620C4
:1005D000A0472420264B9847264C04212046264D30
:1005E000A84705212046A847244B019300260296E0
:1005F000234B039301A92046224B984722494FF0F1
:100600000408C1F80080214D05272F600B234B60A3
:100610006B608E72AE720E812E8142F210730B618E
:100620002B6140F2DC53CB60EB602046184EB047A4
:1006300029462046B04741462046164DA847394630
:100640002046A8470648074B984704B0BDE8F0810C
:100650001C8408007D56080000120E405B3608001E
:10066000C0D4010001000720ED360800093708005A
:100670006D3A080000400940F303080040420F00B3
:1006800000BD010585020800A4AE0720CCAE0720FE
:10069000C9020800E903080070B540F69803024655
:1006A000984228BF1A468B4228BF0B461C460A4E6A
:1006B000B2F5487F38BF4FF4487208493046084DBC
:1006C000A8472246B4F5487F38BF4FF44872054921
:1006D0003046A84770BD00BF00400940A4AE0720C7
:1006E000CD030800CCAE072038B5064D40F2DC52F1
:1006F00005492846054CA04740F2DC5204492846EB
:10070000A04738BD00400940A4AE0720CD03080033
:10071000CCAE072008B50948094B9847094B9847C4
:10072000094B98477322094B1A70094A00235380DA
:1007300093801380074A137008BD00BF78840800B7
:100740007D5608008D05080081210800F4AE0720C1
:10075000FCAE0720D90B0720024B187880F001006F
:10076000704700BFD90B07202DE9F0470D466422E2
:10077000374B1A70374C8442B8BF0446B4F5967FA5
:10078000A8BF4FF49674344B1C80002C42DB84EAE3
:10079000E476A6EBE476324630493148314B98474F
:1007A000002D30D00122304B1A70304B1E80AA46EB
:1007B0002F4F304B1868B8472F4E21A3D3E90023A1
:1007C000B0472E4C00222E4BA047804689462D4B29
:1007D0001868B8471CA3D3E90023B0470022284B70
:1007E000A04702460B4640464946274CA047274BA8
:1007F000984700EB4500264B186051462548194B99
:100800009847BDE8F0870022174B1A70124B1C80E6
:10081000BDE8F08784EAE476A6EBE47632461E492A
:100820000F48104B9847002DEDD001220E4B1A7047
:100830000E4B1E80AA466D42BAE700BFAFF30080A0
:100840000000000000607E400000000000887E4044
:10085000F4AE0720D4FEFFFFFCAE07206C84080036
:100860004C840800FD530800D90B0720DA0B072041
:10087000F1480800F8AE0720BD490800114C0800F7
:100880000000624010AF0720594608001D4F0800C5
:10089000DC0B0720288408004084080070B5722211
:1008A000224B1A706FF063058542B8BF0546642D70
:1008B000A8BF64251E4C84FB01346318CC17C4EB1D
:1008C00023244FF4B47303FB141424B2194B1D807A
:1008D00085EAE576A6EBE5763246174B174931EA0D
:1008E000250128BF19461648164B9847002C16DBE1
:1008F0000122154B1A70154B1E8040F6A61303FB00
:1009000004F30B4A82FB03121A44DB17C3EB2223C6
:100910000F4A1380A1B20F480A4B984770BD0022BE
:10092000094B1A70034B1D8070BD00BFF4AE072049
:10093000B7600BB6FCAE07208884080090840800DE
:100940009C840800FD530800D90B0720DA0B072010
:10095000E00B0720BC84080008B57322064B1A7010
:100960000023064A1370064A13800648064B984730
:10097000064B984708BD00BFF4AE0720D90B0720EF
:10098000FCAE0720D8840800FD530800E9060800E3
:100990002DE970431E4E1F4B1868B0471E4D18A31B
:1009A000D3E90023A8471D4C00221D4BA0478046D9
:1009B00089461C4B1868B04713A3D3E90023A84706
:1009C0000022174BA04702460B4640464946164CAC
:1009D000A047164B9847164B83FB00231A18C317E2
:1009E000C3EBE22340F6A61202FB130318B2002861
:1009F000BCBF9B1818B280B2BDE87083AFF3008013
:100A00000000000000607E400000000000887E4082
:100A1000F1480800F8AE0720BD490800114C080055
:100A20000000624010AF0720554608001D4F080027
:100A3000412943D4000000002DE9704F284B1B785A
:100A4000642B04D0722B30D00020BDE8708F254C71
:100A5000254B1868A04782468B46244B1868A04750
:100A6000234E1BA3D3E90023B047224D0022224B83
:100A7000A84780468946214B1868A04716A3D3E9AA
:100A80000023B04700221C4BA84702460B464046B5
:100A900049461B4CA04702460B4650465946194C46
:100AA000A047194B9847BDE8708F184B9847184BD3
:100AB0001B88181A40F2D3439842C8BFA0F6A6106C
:100AC000144B9842C1DA00F6A610BDE8708F00BF43
:100AD0000000000000607E400000000000887E40B2
:100AE000F4AE0720F1480800DC0B0720F8AE072021
:100AF000BD490800114C08000000624010AF0720FB
:100B000059460800554608001D4F08009109080085
:100B1000E00B07202DFBFFFF08B5384B9847384BFB
:100B20001B78642B05D0722B35D00023354A1380F7
:100B300008BD031D082B13D9002815DD324B83FB9C
:100B40000023C017C0EBE300013000EB80035B0023
:100B50001BB22E4AB2F900209342A8BF1346E5E724
:100B60002B4B98470023E1E7002801DB0023DDE75A
:100B7000254B83FB0023C043C00FC0EBE30000EB19
:100B8000800043001BB2214AB2F9002051428B423F
:100B9000CCDA0BB2CAE7431D0A2B13D9002815DDA6
:100BA0001C4B83FB0023C017C0EB2310013000EB6C
:100BB00080039B001BB2154AB2F900209342A8BFE4
:100BC0001346B3E7124B98470023AFE7002801DB39
:100BD0000023ABE70F4B83FB0023C043C00FC0EBE8
:100BE000231000EB800083001BB2084AB2F90020FA
:100BF00051428B429ADA0BB298E700BF390A0800DB
:100C0000F4AE0720FCAE072067666666DA0B0720A5
:100C1000590908001F85EB5108B5124B1B78722B40
:100C200010D0732B1BD0642B00D008BD0E4B9988BD
:100C300001F2DC51588800F2DC5089B280B20B4BD3
:100C4000984708BD084B9988C1F5BB6104315888A5
:100C500000F2DC5089B280B2044B984708BD044BC7
:100C60009847E2E7F4AE0720FCAE0720990608009B
:100C7000E906080008B5044B1B7813B9034B9847E5
:100C800008BD034B9847F9E7D90B0720190C08005A
:100C9000190B0800000000002DE9F04F83B0A24CB2
:100CA000A24B1868A04780468946A14BC3E900893A
:100CB000A04B1868A04706460F469F4BC3E9006744
:100CC0009E4C04F148039E4A73E90201C3E9020104
:100CD00072E90201C2E90201A342F5D1DFF85CB278
:100CE000CBE90089DFF8C0A2CAE90067954C964BB2
:100CF000D3E900239549D1E90001A047CDE90001DE
:100D0000934DDBE9022340464946A84782A3D3E935
:100D10000023A04700228F4BA047DFF890B2DDE907
:100D20000023D847804689468B4BC3E90089DAE91E
:100D3000022330463946A84779A3D3E90023A047C8
:100D40000022844BA047DDE90023D84705460C4626
:100D500002460B468149C1E90023814B93F800A06C
:100D6000BAF1720F00F09E802A462346404649465B
:100D70007C4EB04700227C4B724EB04706460F4671
:100D80007A4BC3E90067DFF8C8B12A4623464046DC
:100D90004946D84704460D46754BC3E90045754B97
:100DA000B3F90000604B984732463B46D8470646A9
:100DB0000F46714BC3E90067BAF1730F00F09E80D4
:100DC000DFF880816D4BD3E9002320462946C047D8
:100DD00004460D466A4BC3E900456A4BD3E900233C
:100DE00030463946C047804689460022664B304629
:100DF0003946DFF8BCA1D047002800F0DF80002290
:100E0000624B404649464F4EB047614BC3E9000133
:100E1000DFF850A15F4BD3E9002320462946D04795
:100E20005D4BD3E90023D04704460D465B4BC3E935
:100E300000455B4E02460B46D6E90001444FB847D9
:100E400080468946C6E90089DFF858B1DBE900230E
:100E500020462946D04706460F46CBE90067DFF813
:100E600054B14B4BD3E90023DBE90001D0470446E2
:100E70000D46CBE90045DFF8FCB002460B46404684
:100E80004946D047DFF83081C047ABF80200224620
:100E90002B4630463946D047C047ABF8040003B074
:100EA000BDE8F08F0D6004F100424A60284E2A46EA
:100EB000234640464946B04700222B4B214FB847B6
:100EC00082468B46294BC3E900AB2A46234640465F
:100ED0004946244CA04704460D46254BC3E900452E
:100EE000244BB3F90000104B984752465B46B0477D
:100EF00006460F46204BC3E9006761E70022002346
:100F00002749C1E900232749C1E90023194B0022E1
:100F10005A809A80C3E700BF0000000000607E4056
:100F20000000000000887E40F1480800F8AE07206D
:100F3000080C072010AF0720100C0720280C0720F2
:100F4000C00C0720BD4908005001072038010720C8
:100F50005546080000408F40C80C0720D00C0720E1
:100F6000F4AE0720594608000000E03FD80C0720E7
:100F7000180C0720FCAE0720200C0720400107209A
:100F8000F80B0720480107200000694000000840D6
:100F9000000C0720F00B0720E80B072030AF0720DC
:100FA00018AF072028AF0720780C0720114C080045
:100FB000DD4E080020AF07201D4F080000220A4B1D
:100FC00030463946094EB04718B9094BC3E9008984
:100FD0001EE742464B4640464946064EB047044B44
:100FE000C3E9000114E700BF00004940DD4E0800DE
:100FF000000C0720594608002DE9F04F83B08246C7
:101000008B4690469946944EDDE90E23DDE90C01AE
:10101000B04704460D4642464B4650465946B047F7
:10102000CDE900018D4F02460B46B8478046894600
:1010300022462B4620462946B84702460B464046E4
:101040004946874EB047874B98470022864BB847A2
:1010500082468B46854E02460B46DDE90001B047CD
:101060008046894652465B4620462946B04782461E
:101070008B46002200237E4EB047002800F09B8064
:1010800000220023404649467A4EB047002871D0DE
:101090000020002103B0BDE8F08F0022002350465D
:1010A0005946744EB04730B10022002340464946AD
:1010B000714EB04780B900220023504659466E4E0B
:1010C000B047D8B900220023504659466A4EB0476F
:1010D000D0B900200021DDE720462946674B98471C
:1010E0000022674B5D4CA04757A3D3E900235F4C18
:1010F000A0470022634B5A4CA047CBE700220023B5
:1011000040464946B047D0B90022002340464946F0
:101110005D4EB04700282AD020462946574B9847B5
:101120000022574B4D4CA04747A3D3E900234F4C17
:10113000A04747A3D3E90023494CA047AAE720468C
:1011400029464E4B984700224D4B444CA0473EA3A6
:10115000D3E90023454CA0470022494B404CA0470F
:1011600098E70020474995E70020454992E700208D
:1011700000218FE700220023504659463D4EB047DC
:1011800008BB00220023404649463B4EB04700289A
:10119000EAD10022002350465946374EB047D0B11D
:1011A0000022002340464946314EB04798B128A15D
:1011B000D1E900016EE700220023504659462D4E2A
:1011C000B0470028E5D00022002340464946284E7B
:1011D000B0470028C5D12D4E20462946B0472C4F98
:1011E0000028B8BF4042B84704460D46DDE900017B
:1011F000B0470028B8BF4042B84702460B462046D9
:1012000029461A4CA04704460D46002200235046AA
:101210005946184EB04700283FF43FAF0022002344
:1012200040464946B04700283FF43EAF2046294695
:10123000124B98470022124B084CA04702A3D3E957
:1012400000230A4CA04725E7F1D4C853FB210940ED
:101250000000000000E0704055460800BD4908004D
:10126000594608001544080000002440114C0800AD
:101270008D4E0800DD4E0800A14E0800C940080050
:101280000080664000805640C94E08001D4F08008F
:10129000F14808002DE9F843124CA04780468946E2
:1012A000DDE90A23DDE90801A04706460F460E4C9A
:1012B00042464B4640464946A0478046894632460C
:1012C0003B4630463946A04702460B464046494613
:1012D000064DA847064B98470022064BA047BDE89D
:1012E000F88300BF55460800BD490800594608006C
:1012F0001544080000002440F8B51048104B9847EA
:10130000104F0F4E104D3846B0470520A8470F4BE1
:1013100098470F480F4B98470F4B984702200F4CA8
:10132000A0470820A04700231A4619460C48006829
:101330000C4CA04700200C4B9847E4E7F8840800C9
:10134000FD53080090850800B12F0800DD2C08002F
:10135000808D5B0001000720851C08009D17080098
:1013600080AF07201D2708009D3008002DE9F843B5
:101370003E483F4B9847DFF830813E4F3E4D3F4E51
:1013800059E000223E4B1A60994612E00220A8471D
:10139000B0F5FA7F16D80223C9F800300124394B82
:1013A0001B68042B0CBF05200C20374B9847002CE2
:1013B00032D10120A847B0F5FA7FE7D80124C9F857
:1013C0000040ECE70320A847B0F5FA7F04D80323D8
:1013D000C9F800300124E2E705213220B04700249B
:1013E000DDE7DFF89C90294C05213220B047D9F881
:1013F0000000A0470028F7D0214B1B6823F0020310
:10140000012B02D00A213220B0471E4B1B68052B4E
:1014100027D00C201C4B98471D48154CA0471D4851
:10142000A04700231A4619461B4800681B4CA047DA
:1014300000201B4B98470520C04738460C4B984767
:10144000184B98470F4B1B68042B9AD00A2B98D047
:10145000052BC6D00B2BC4D0062B01D00C2BDBD117
:10146000FEE70620084B9847D6E700BF1485080022
:10147000FD5308002C850800151D08009D08080074
:10148000D4AF072038AF07209D170800FD1D0800C6
:10149000348508005085080090AF07201D270800FC
:1014A0009D300800DD2C0800B12F08002DE9F04127
:1014B00082B01E481E4B984701221E4B1A60DFF86F
:1014C0009C801D4F1E4606E01C48194B9847002083
:1014D00030601B4B9847C0470190B8470028F3D1B4
:1014E0003368002BF7D0174B19684A1C1A6016484E
:1014F0000F4CA047154DA847154B98471548A047D6
:10150000142101A8144CA047A847142101A8A04702
:10151000A847142101A8A047A847142101A8A04763
:10152000A847142101A8A047D5E700BF58850800A7
:10153000FD53080008AF0720590708007085080010
:101540009D3008000CAF07207C850800750C080052
:10155000990C080080850800252F0800DD2C080064
:101560002DE9F04180460122814B1A60814D1C46D5
:10157000814E08E000231A46194680480068804FD3
:10158000B847012820D0A8472368023B0B2BFAD884
:1015900001A252F823F000BF75150800DB15080002
:1015A000FF150800231608004516080067160800F6
:1015B00089160800AF160800DB160800011708009E
:1015C000271708004B1708006E486F4B9847D8F84C
:1015D000043018686D4B9847D5E700231A46194622
:1015E0006B480068664FB8470128CCD16948664B04
:1015F0009847D8F804301868644B9847C3E700232D
:101600001A461946624800685D4FB8470128BAD1AA
:1016100060485D4B9847D8F8083018685B4B98478E
:10162000B1E700231A4619463068554FB8470128DC
:10163000A9D15848544B9847D8F808301868534BEC
:101640009847A0E700231A46194630684C4FB84720
:10165000012898D14F484C4B9847D8F80830186863
:101660004A4B98478FE700231A4619463068444F83
:10167000B847012887D14748434B9847D8F80030EE
:101680001868424B98477EE700231A4619463B48A4
:1016900000683B4FB84701287FF475AF3D483A4B8F
:1016A0009847D8F804301868384B98476BE7002300
:1016B0001A46194636480068314FB847012803D00A
:1016C0000520354B98475EE732482F4B9847D8F8AE
:1016D000043018682D4B984755E700231A461946E1
:1016E0002B480068264FB84701287FF44CAF2948A3
:1016F000254B9847D8F808301868244B984742E79C
:1017000000231A4619461D4800681D4FB847012896
:101710007FF439AF1F481C4B9847D8F8043018683D
:101720001A4B98472FE700231A4619463068144F82
:10173000B84701287FF427AF1648134B9847D8F8CD
:1017400008301868114B98471DE700231A461946C0
:1017500030680B4FB84701287FF415AF0D480A4B8E
:101760009847D8F800301868084B98470BE700BF37
:1017700038AF0720DD2C080090AF072080AF07208E
:101780004528080084850800FD530800412C080006
:101790003CAF0720A0850800B12F0800014B18605E
:1017A000704700BF38AF07202DE9F04F87B0059094
:1017B0008848894B9847DFF820A27BE0874B1B685D
:1017C000022B0ED0032B69D10021C820844B9847EF
:1017D000059BDB681868834B98470220824B98472B
:1017E0005CE0DFF878B2DFF87892DFF87882D8E949
:1017F0000023CDE902237D4FD7E90023CDE9002363
:10180000DBE90023D9E90001794CA047794EB047C4
:10181000044604907848D047784D2046A847784C35
:10182000A047D9E90001D8E90023CDE90223D7E98F
:101830000023CDE90023DBE90023724FB8470022E3
:10184000714B724FB847B04706467148D047304693
:10185000A847A0476F4930466F4B9847D8B96D49A4
:1018600030466E4B98470028BDD004996C486D4BAC
:1018700098476D4B984781B26C4B198009B2C820CC
:101880006B4B9847059BDB681868564B98470320BD
:10189000554B984702E00420534B98476548D04782
:1018A00000231A46194664480068644CA04700208B
:1018B000634B98470520634B98476348D047634B79
:1018C0009847634B1B68012B3FF478AF022B13D072
:1018D000424B1B68082B00F0CD80092BDED1002184
:1018E000C8203F4B9847059BDB6818683D4B9847DD
:1018F00008203D4B9847D1E7384B1B68022B0ED090
:10190000032BCBD10021C820354B9847059BDB68C2
:101910001868344B98470220334B9847BEE7DFF8EE
:101920003CB1DFF84491DFF83C81D8E90023CDE9F0
:101930000223484FD7E90023CDE90023DBE9002348
:10194000D9E900012A4CA0472A4EB047044604902A
:101950002948D047294D2046A847294CA047D9E916
:101960000001D8E90023CDE90223D7E90023CDE91E
:101970000023DBE90023234FB8470022224B234FEB
:10198000B847B04706463448D0473046A847A04736
:1019900020493046204B9847002867D11D493046E2
:1019A0001E4B98470028BCD004991D481D4B9847F2
:1019B0001D4B984781B21D4B198009B2C8201C4BA2
:1019C0009847059BDB681868064B98470320064B31
:1019D000984763E7B8850800FD53080038AF072033
:1019E00069070800412C08009D17080058AF072020
:1019F000F90F08006D4F0800D48508001553080042
:101A00001520080095120800008036405546080051
:101A1000008608000000FA43D9520800015308006C
:101A20000000B4431550080061530800BEAF072002
:101A30009D0808008C8608003CAF07201D27080081
:101A40009D300800B12F0800AC850800DD2C08008F
:101A500094AF072070AF07203086080060AF0720E2
:101A600048AF072088AF072068AF072004202E4B1F
:101A7000984713E7DFF8FCB0DFF8FC90DFF8FC8054
:101A8000D8E90023CDE90223284FD7E90023CDE987
:101A90000023DBE90023D9E90001254CA047254EAE
:101AA000B047044604902448D047244D2046A84718
:101AB000234CA047D9E90001D8E90023CDE902234E
:101AC000D7E90023CDE90023DBE900231D4FB84708
:101AD00000221D4B1D4FB847B04706461C48D04753
:101AE0003046A847A0471B4930461B4B9847B0B922
:101AF00018493046194B98470028BDD0049918481A
:101B0000184B9847184B984781B2184B198009B267
:101B1000C820174B98470920034B9847BEE60A2078
:101B2000014B9847BAE600BF9D170800A0AF0720F9
:101B3000F90F08006D4F0800D48508001553080000
:101B40001520080095120800008036405546080010
:101B5000608608000000FA43D952080001530800CB
:101B60000000B4431550080061530800BEAF0720C1
:101B70009D08080060AF072050AF072088AF0720FE
:101B80002DE9F04F83B083462748284CA0472848CA
:101B9000A04725464FF000084FF000094FF0000A1B
:101BA0002EE0CDF804A04FF08062224B1A63224B46
:101BB0009847224BC3F800A0214C01232360DBF897
:101BC000103018681F4B984723686BB11E4F1F4E8B
:101BD0003224B84721463046A84720461C4B984738
:101BE000174B1B68002BF4D11A48A847534652469E
:101BF000514619480068194CA0475046184B984761
:101C00000520134B98471748A847174B984742465B
:101C10004B461649D1E90001154CA0470028C0D019
:101C20001448A847BDE700BF9C860800FD53080084
:101C3000B486080000100E40791C08000CAF072085
:101C400008AF0720412C0800750C0800F08608003A
:101C5000B12F0800FC860800ACAF07201D27080044
:101C60009D300800B8860800DD2C0800C8AF0720AA
:101C70008D4E0800C4860800014B1868704700BFED
:101C8000E00C072000B585B00D4B02930D4B01937E
:101C900000238DF80D3017200B4B984701A90B48F6
:101CA0000B4B984730B10B480B4B9847002005B0C1
:101CB0005DF804FB0948084B98470120F7E700BF8F
:101CC000A086010000BD01056D3A08000000094032
:101CD000ED04080020870800FD5308000C87080069
:101CE00008B54FF4FA73064A1360064A13601B20C6
:101CF000054B9847002211460448054B984708BDFC
:101D0000B8AF0720C0AF07206D3A080000000840B8
:101D1000FD0308002DE9F041044600212F48304B17
:101D20009847012C56D0032C0BBF61260F26622446
:101D3000602406F01F07012505FA07F7760906F566
:101D4000001606F20776760237603761C6F8A07093
:101D500004F01F039D40640904F5001404F20774A5
:101D6000640225606561C4F8A050656377630C2048
:101D7000DFF88480C04737633C20C0477763E36B5C
:101D80001D42FCD000211548164B9847DFF84C80C7
:101D9000154F164EE36B1D4204D000214046B84754
:101DA000B042F7D90D4D002128460F4B9847440803
:101DB0000F48A0FB0434A40800212846084B98478C
:101DC00004EB840040000B4CA4FB0030C0F34F1028
:101DD000BDE8F0813A260E24ABE700BF00000840C2
:101DE0001D040800150408002504080059EC010032
:101DF000310CC33009CB3D8D0100072010B50446DE
:101E00000A4B9847B0F5FA7F0AD9094B1B68094A73
:101E100012689342DDBF074A13600020012010BD05
:101E20002046024B9847024B1860EEE7151D08004C
:101E3000C0AF0720B8AF0720F0B583B004460D4609
:101E400000230193204B98420DD0204B984212D092
:101E50001F4B984219D01F4B9C4220D01E4B9C42D6
:101E600027D003B0F0BD1F461C4E29463846B04768
:101E70000028FAD1EFE71F46194E01A93846B047AE
:101E80000028FAD1019B2B70E8E71E46144C01A9EB
:101E90003046A0470028FAD1019B2B70E1E71E468F
:101EA0000F4C01A93046A0470028FAD1019B2B70A6
:101EB000D7E71E460A4C01A93046A0470028FAD1B0
:101EC000019B2B70CDE700BF00080E400080094049
:101ED00000C0094000000A4000400A4037350800B1
:101EE0001522080070B50C461E4B98420DD01E4BB3
:101EF000984213D01D4B984219D01D4B98421FD0C9
:101F00001C4B984225D0002070BD1E461A4D21461C
:101F10003046A8470028FAD1012070BD1E46174D53
:101F200021463046A8470028FAD1012070BD1E4640
:101F3000124D21463046A8470028FAD1012070BD35
:101F40001E460E4D21463046A8470028FAD10120F2
:101F500070BD1E46094D21463046A8470028FAD1DB
:101F6000012070BD00080E400080094000C00940FB
:101F700000000A4000400A402735080001220800FE
:101F800030B585B00820154DA847154C154B1C6081
:101F9000154A164B1A60164A164B1A60164B0193D7
:101FA0004FF4E13302934FF4006303930820A847F2
:101FB00001A92046114B9847114D2B6800219868C4
:101FC000104CA0472B6800215868A0470E480F4CC2
:101FD000A0470F48A04705B030BD00BF6D3A0800CC
:101FE00000080E40E8AF0720E51E0800E4AF072018
:101FF000391E0800A0AE072000BD0105F13408001D
:10200000740107208D56080038870800FD5308002A
:102010004887080000B58BB00A2201A9034B9847F6
:1020200001A8034B98470BB05DF804FB555408001A
:102030007D5608004E4BDA6B02F0CC004D490B6820
:102040004340086013F0040F44D012F0040F1AD07C
:1020500012F0080F0BD1484801680131016013F0FC
:10206000080F1AD0444801680139016015E0424860
:1020700001680139016013F0080F0ED03E48016875
:102080000131016009E012F0080F1BD03A480168E5
:102090000131016013F0080F25D113F0400F50D02B
:1020A00012F0400F35D012F0800F2AD133490A6860
:1020B00001320A6013F0800F22D0304A1368013BCE
:1020C000136070472C4801680139016013F0080F54
:1020D000E3D010E013F0080FDFD012F0080F07D0A4
:1020E00012F0040FCAD12448016801390160D4E715
:1020F00012F0040FB6D12048016801310160CCE72D
:1021000070471E490A68013A0A6013F0800FD8D060
:1021100020E012F0800F0CD018490A6801320A60E2
:1021200013F0800F04D0154A1368013B1360704709
:10213000704712490A68013A0A6013F0800FC0D054
:1021400010E013F0800FBCD012F0800F07D012F017
:10215000400FE8D0094A136801331360704712F04A
:10216000400FAAD1054A136801331360704700BFBE
:1021700000120E4004AF0720F8AE072010AF072072
:1021800030B583B01048114CA0471148A047114CFE
:102190000122CC212046104B9847104B009340233E
:1021A000CC220D2120460E4DA8474FF400520D4B76
:1021B0001A60CC2120460C4B984700230B4A136031
:1021C0000B4A136003B030BD588708007D560800E5
:1021D0006887080000120E405B36080035200800B2
:1021E000C538080000E100E0E1360800F8AE07203D
:1021F00010AF0720014B0360704700BF01474E52EC
:10220000436913F0020F1DBFC1F30801C161002033
:1022100001207047436913F0010F05D08369C3F3B0
:1022200008030B60002070470120704700F108038D
:1022300043604FF0FF328260C3600361002303609C
:10224000704700230361704743685A684A604268D8
:102250008A605A689160596041600861036801337F
:102260000360704710B40C68B4F1FF3F15D000F163
:102270000803C2681268944204D35B685A68126803
:102280009442FAD25A684A6091608B605960086142
:1022900003680133036010BC70470369F2E74368C9
:1022A00082689A60836842685A6003695A689042FB
:1022B00004BF82685A60002202611A68013A1A60FB
:1022C000186870474FF0807340F8043C40F8081CD1
:1022D000002340F80C3C40F8202C403870470000A8
:1022E000064B19680868B0E8F00F80F309884FF0D2
:1022F000000080F311884EF00D0E7047F0AC0720FF
:102300004FF08052014B1A60704700BF04ED00E0AF
:10231000EFF311804FF0A00181F311887047002086
:1023200008B5034B9847034A13680133136008BD8F
:10233000112308005801072080F31188704700001E
:1023400008B5054A1368013B136003B108BD0020BE
:10235000024B9847FAE700BF5801072039230800CD
:10236000EFF309800C4B1A6820E9F00F10602DE99B
:1023700008404FF0A00080F3118800F03FFE4FF0BE
:10238000000080F31188BDE8084019680868B0E8CB
:10239000F00F80F309887047F0AC072008B54FF0C4
:1023A0008052054B1A60054B9847054B9847002013
:1023B000044B984708BD00BF04ED00E0112308005E
:1023C000FD2C08003923080010B4134A00E01A4617
:1023D00013688342FBD351685418A04209D0416866
:1023E0004418A3420AD00360904218BF106010BC8A
:1023F00070474068014451601046F0E7074C24687C
:10240000A34206D05B681944416013681B680360EF
:10241000EAE70360E8E700BFE8AC0720E40C072028
:1024200038B504462A4B98472A4B1B688BB1002CC1
:1024300047D004F1100212F0070F1CBF22F0070270
:102440000832511E49F6FE7399423CD822490C6865
:1024500016E0214A214B13600021516049F6F072C9
:1024600098181C4D286049F6F475595199505A60D6
:1024700018601B4A1368103B1360D8E721461C46BE
:1024800063689A4202D92368002BF7D1114B1B686D
:102490009C421AD00D68103523680B6063689B1A44
:1024A000202B08D80E4A136861685B1A13600D4B25
:1024B0009847284638BDA018436062600A4B984789
:1024C000F0E70025F3E70025F1E70025EFE700BF7F
:1024D000CD2C0800E40C0720E8AC0720E80C07200E
:1024E0005C010720252E0800C923080080B110B523
:1024F0000446084B9847084A54F80C3C11680B44B2
:102500001360A4F11000054B9847054B984710BD88
:10251000704700BFCD2C08005C010720C9230800CC
:10252000252E080010B50446036C5BB903681BB187
:10253000A36B0133A36310BD4068124B984700237F
:102540006360F5E76AB91A4680680F4B9847A3683D
:10255000226C1344A36062689342E9D32368A360AA
:10256000E6E71A46C068084B9847226C5242E36877
:102570001344E36021688B42DAD263681A44E26054
:10258000D6E700BF893308005954080038B5034620
:10259000006858B11A6CDC681444DC605D68AC42B9
:1025A00028BFD8600846D968014B984738BD00BF9E
:1025B00059540800F8B504461F4B9847A36C002BEC
:1025C00014DD636A93B104F124061C4D1C4F07E02F
:1025D000A36C013BA364A36C002B07DD636A2BB1E2
:1025E0003046A8470028F3D0B847F1E74FF0FF3353
:1025F000A364144B9847104B9847636C002B14DD71
:10260000236993B104F110060C4D0D4F07E0636C84
:10261000013B6364636C002B07DD23692BB13046FB
:10262000A8470028F3D0B847F1E74FF0FF336364C1
:10263000044B9847F8BD00BF21230800C1310800B2
:10264000F13208004123080038B508B30D460446AE
:10265000174B98472268216CE36B03FB01F3D018FA
:1026600060600020A063A2605B1A1344E3604FF037
:10267000FF336364A36495B923692BB104F110009F
:102680000C4B9847012807D00B4B9847012038BDC9
:102690000A4B984700BFFDE7094B9847F4E704F160
:1026A0001000084DA84704F12400A847ECE700BF3C
:1026B00021230800C131080041230800112308002C
:1026C000012308002D220800F8B5D8B10D461746A1
:1026D000064650200D4B9847044698B105FB06F07E
:1026E00001300A4B9847206048B1E6632564012118
:1026F0002046074B984784F84D702046F8BD204689
:10270000044B9847044B984700BFFDE7212408007D
:1027100049260800ED240800112308002DE9F04F98
:1027200085B0019248B188469946044649B10027D0
:10273000384EDFF80CA1384D2EE0384B984700BFDB
:10274000FDE7036C1BB1354B984700BFFDE7002741
:10275000EEE74A4641462046314B9847636A2BB91B
:102760002D4B9847012005B0BDE8F08F04F12400FF
:102770002C4B98470128F3D12B4B9847F0E7264B79
:1027800098470020EFE702A8D0470FE02046274BEC
:102790009847274B98470127B047A26BE36B9A42B3
:1027A000D7D3019B002BEAD0002FECD0A847214BB8
:1027B0009847B047636CB3F1FF3F04BF00236364E5
:1027C000A36CB3F1FF3F04BF0023A364A84701A992
:1027D00002A8194B9847A8B9B047D4F838B0E76BAE
:1027E000A847BB45D2D1019904F11000134B98477B
:1027F00020460E4B98470E4B98470028CBD10A4BEA
:102800009847C8E72046094B9847094B984700204E
:10281000A9E700BF21230800412308001123080075
:1028200025250800C131080001230800B52508004E
:10283000252E0800CD2C08006D32080061310800FB
:10284000453208002DE9F04784B0019248B188462E
:102850009946044649B10027464EDFF84CA1464D43
:102860004BE0464B984700BFFDE7036C1BB1434B61
:10287000984700BFFDE70027EEE7E56841462046A0
:102880003F4B9847B9F1000F17D1A36B013BA363EE
:10289000236813B93B4B9847606023693BB104F14F
:1028A0001000394B9847012801D1384B9847324BDB
:1028B0009847012004B0BDE8F087E560636A002B0B
:1028C000F5D004F12400304B98470028EFD02F4B6F
:1028D0009847ECE7284B98470020EBE702A8D04741
:1028E00014E0B04760682A4B9847A8472CE0204680
:1028F000284B9847284B98470127B047A36B002BDC
:10290000BBD1019B002BE5D0002FE7D0A847234B7C
:102910009847B047636CB3F1FF3F04BF0023636483
:10292000A36CB3F1FF3F04BF0023A364A84701A930
:1029300002A81B4B9847B0B9B047A76BA847002F18
:10294000D5D12368002BCCD0019904F12400154B7C
:10295000984720460F4B98470F4B98470028CBD1FC
:102960000A4B9847C8E720460A4B98470A4B9847B6
:1029700000209FE7212308004123080011230800BD
:102980008D250800FD320800C13108000123080030
:1029900009330800B5250800252E0800CD2C0800B5
:1029A0006D320800613108004532080010B50F4B48
:1029B0001B6858600E4B1B6898420ED304460D4BA3
:1029C00018680A4B196804310B4B98470B4B1B686E
:1029D0009C423CBF094B1C6010BD094B1868034B5F
:1029E00019680431044B984710BD00BFF0AC0720B4
:1029F000E8AD0720F4AC072065220800600107203D
:102A0000F8AC07202DE9F84F0A9FDDF82C900C9EBA
:102A100048B1884615469B468246042F07D9604B2D
:102A2000984700BFFDE75E4B984700BFFDE74C208D
:102A30005C4B98470446002854D0002E48D00663CB
:102A4000AA00A5213046584B984705F18045013D25
:102A5000236B03EB850323F007050A22414604F1AB
:102A60003400524B9847002384F83D30E762A76456
:102A700004F1040840464E4EB04704F11800B04738
:102A80002461C7F10503A36164625A465146284692
:102A9000484B9847206010F0070F27D1B9F1000F7D
:102AA00001D0C9F80040444B9847444A13680133A9
:102AB0001360434B1B68EBB1424B1B68002B40D1AA
:102AC0003F4B1B68DB6A9F4224BF3D4B1C6038E0D4
:102AD000A800344B9847064620630028B0D1204612
:102AE000394B98474FF0FF30BDE8F88F2C4B984793
:102AF00000BFFDE7324B1C601368012B21D1334E20
:102B00003046334DA84706F11400A84706F12800C7
:102B1000A84706F13C00A84706F15000A847DFF897
:102B2000E4904846A8472B4E3046A8472A48A84775
:102B30002A48A8472A48A8472A4BC3F800902A4B9E
:102B40001E60E06A294B1B68984284BF274B1860BF
:102B5000274A1368236401331360264B1B6898428D
:102B600084BF244B186000EB80004146174B03EBF9
:102B70008000214B9847214B9847124B1B684BB163
:102B80000F4B1B68DB6A9F4207D91D4B98470120FA
:102B9000BDE8F88F0120BDE8F88F0120BDE8F88F6F
:102BA0001123080021240800455508008958080011
:102BB00043220800C52208002123080060AD072039
:102BC000F0AC0720BCAD0720ED240800FCAC0720CA
:102BD0002D2208008CAD0720A8AD0720D4AD07201A
:102BE000C0AD0720F4AC0720F8AC072074AD072077
:102BF0006CAD072070AD0720492208004123080072
:102C00000123080078AD072008B528B14169094AB9
:102C1000914205D0002008BD074B984700BFFDE753
:102C2000806A064B984203D0B0FA80F0400908BD94
:102C3000002008BDC0AD072011230800A8AD072063
:102C400038B570B10446174B1B68984208D0164B34
:102C500098472046154B9847012806D0144B9847B3
:102C600038BD144B984700BFFDE7251D2846124B81
:102C70009847E06A114B1B68984284BF0F4B18605D
:102C800000EB800029460E4B03EB80000D4B98476C
:102C9000044B1B68E26ADB6A9A42DFD30A4B98470F
:102CA000DCE700BFF0AC072021230800092C080056
:102CB00041230800112308009F22080070AD07205F
:102CC000FCAC07204922080001230800024A1368CF
:102CD00001331360704700BF68AD072010B5044B87
:102CE0009847044B1C68044B9847204610BD00BF12
:102CF00021230800E8AD0720412308003D4B1B6855
:102D0000002B6FD12DE9F0413B4B1A6801321A605C
:102D10001B68ABB9394B1B681B68002B28D1374B9C
:102D20001968374A10681860116036490A6801321C
:102D30000A601B681B68FBB94FF0FF32324B1A6008
:102D40002D4B1A68304B1B689A4250D32B4B1B6893
:102D50001B68CBB1294B1B68DB68DC686368264ABB
:102D60001268934216D8294E294FDFF8B4802FE01D
:102D7000284B984700BFFDE7204B1B68DB68DB68EA
:102D80005A68214B1A60DBE74FF0FF321E4B1A6086
:102D9000BDE8F0811C4A1360BDE8F081E06A3B6841
:102DA000984288BF386000EB8000294608EB80001D
:102DB000194B9847114B1B681B68002BE4D00F4B35
:102DC0001B68DB68DC6863680B4A12689342E1D8D1
:102DD000251D2846B047A36A002BDFD004F1180058
:102DE000B047DBE70D4A1368013313607047BDE855
:102DF000F08100BF68AD0720E8AD0720F4AC0720E4
:102E0000F8AC0720A4AD0720600107209F2208002E
:102E100070AD0720112308004922080064AD072087
:102E2000FCAC07202DE9F8432F4B1B681BB92F4B37
:102E3000984700BFFDE72E4B98472B4B1A68013A85
:102E40001A601B68002B4DD12A4B1B682BB1002444
:102E5000DFF8CC80284F294E23E00024284B9847E8
:102E60002046BDE8F883D8F80C30DD6805F118007D
:102E7000B84705F104094846B847E86A33689842FC
:102E800088BF306000EB800049461E4B03EB80009A
:102E90001D4B98471D4B1B68EA6ADB6A9A4228BFA4
:102EA0000124D8F80030002BDDD1194B1B6893B1F9
:102EB000174B1B6843B1174D154CA8472368013BBE
:102EC00023602368002BF8D10022134B1A60134BA8
:102ED00098470124C2E7012CF6D00F4B1B68012B49
:102EE000BCD1F1E70024B9E768AD07201123080041
:102EF0002123080060AD07209F22080070AD072045
:102F000041230800FCAC072049220800F0AC072050
:102F100064AD0720FD2C0800A0AD072001230800A8
:102F2000A8AD072038B530B10C46054639B9184B65
:102F3000984700BFFDE7164B984700BFFDE7154BCC
:102F400098472B681C44144A126893420AD9A3423A
:102F50000ED9114B1B682C609C420FD80F4B984721
:102F600040B138BDA34208D80B4B1B689C4204D823
:102F70002C60F3E70A4B984738BD2C60094B186862
:102F80000430094B98472046084B9847E6E700BFB6
:102F900011230800CD2C0800E8AD0720252E0800DD
:102FA00001230800F0AC07209F220800AD2908008B
:102FB00010B510B90A4B984710BD0446094B984705
:102FC000094B1B681C44094B18680430084B984790
:102FD0002046084B9847084B98470028ECD1E9E772
:102FE00001230800CD2C0800E8AD0720F0AC072035
:102FF0009F220800AD290800252E0800214B1B68E0
:10300000EBB910B5204B1B6803EB83039B001F4AF1
:10301000D358C3B91C4B1B686BB11B4A1B491368BF
:10302000013B1360136803EB830351F8233053B95A
:103030001368002BF3D1164B984700BFFDE7012220
:10304000144B1A607047104B1B68104A9900C8183F
:1030500002EB800044686468446019440246083208
:10306000944209D003EB8303084A02EB83035B68B5
:10307000DA68094B1A6010BD6068044A02EB8102ED
:103080005060EFE768AD072070AD0720FCAC07206B
:1030900011230800A0AD0720F0AC072038B5044686
:1030A000254B9847254B1B68A34212D08CB1251D98
:1030B0002846234B9847A36A002B2BD004F1180015
:1030C0001F4B984729461F481F4B98471F4B98474F
:1030D00038BD1A4B1D682C1D2046194B9847AB6A0A
:1030E000FBB921461748184B9847184B9847184B7F
:1030F0001B6843B9134B1A68164B1B689A4205D0DC
:10310000154B984738BD154B984738BD00220B4BDF
:103110001A6038BD29460B480B4B98470B4B984714
:1031200038BD05F11800064B984721460548064B67
:103130009847064B9847DAE721230800F0AC0720B0
:103140009F220800C0AD0720492208004123080043
:10315000BCAD072060AD0720FD2F0800012308004B
:1031600038B590B10C460E4D296818310D4B984773
:10317000286804300C4B9847B4F1FF3F09D00B4B43
:10318000186820440A4B984738BD0A4B984700BF3F
:10319000FDE7296804310848084B984738BD00BF4F
:1031A000F0AC0720652208009F220800E8AD072048
:1031B000AD29080011230800C0AD072049220800EE
:1031C00038B5C368DC681CB304F118052846154BF4
:1031D0009847154B1B68FBB9251D2846114B98478E
:1031E000E06A124B1B68984284BF104B186000EBDA
:1031F000800029460E4B03EB80000E4B98470E4B88
:103200001B68E06ADB6A984234BF0020012038BDA9
:103210000A4B984700BFFDE729460948054B9847E8
:10322000EDE700BF9F22080068AD072070AD0720C2
:10323000FCAC072049220800F0AC0720112308004D
:10324000A8AD072008B530B1054A12680260054AEA
:103250001268426008BD044B984700BFFDE700BFFD
:10326000A4AD0720E8AD07201123080038B5E8B168
:103270000D460446F1B1184B98472B68B3F1FF3F58
:1032800026D0164A12682168914204D0144A126866
:10329000616891421ED9124A12686168521A9342BB
:1032A0000CD801240F4B9847204638BD0E4B984749
:1032B00000BFFDE70C4B984700BFFDE7084A1268C6
:1032C000521A9B1A2B602046084B98470024E9E7C6
:1032D0000024E7E70124E5E721230800A4AD072047
:1032E000E8AD0720412308001123080045320800FB
:1032F0000122014B1A607047A0AD0720014B1868EE
:10330000704700BFF0AC0720002831D038B5054623
:10331000C36A18490968C96A8B4211D215490968FC
:10332000C96AC1F10501816103EB8303124901EB15
:1033300083034169994204D00E4B1B68DB6AC36268
:1033400038BD041D20460D4B98470A4B1B68D86AB0
:10335000E8620B4B1B68984284BF094B186000EB76
:1033600080002146044B03EB8000064B984738BD94
:10337000704700BFF0AC0720FCAC07209F2208007C
:1033800070AD072049220800E8B138B50446C16A8B
:10339000826C914216D0051D28460B4B9847A06CB5
:1033A000E062C0F10503A361084B1B68984284BF2B
:1033B000064B186000EB80002946054B03EB8000AC
:1033C000044B984738BD70479F22080070AD072016
:1033D000FCAC0720492208000138022815D82DE945
:1033E000F0410E4614469AB10D46DFF838800C4F76
:1033F000D8F8000015F8011B3B68984700280ADB45
:10340000A81B013CF4D1BDE8F0814FF0FF307047BC
:103410001046BDE8F0814FF0FF30BDE8F08100BFFD
:10342000E4AF0720E8AF0720002A51D02DE9F04F84
:1034300083B005460C4692468A44264FDFF8A89092
:10344000254E1DE021463846C8470028FAD121E024
:103450009B46DFF8988001A95846C0470028FAD15A
:10346000019B237019E09B46DFF8808001A9584634
:10347000C0470028FAD1019B23700134544523D062
:1034800000230193BD42DDD0144B9D42E0D0144B8C
:103490009D42E8D0134B9D420BD0B542EDD1DFF8F1
:1034A0004C8001A93046C0470028FAD1019B237007
:1034B000E3E79B46DFF8348001A95846C04700285F
:1034C000FAD1019B2370D8E7002003B0BDE8F08F4C
:1034D0000020704700080E4000400A40008009406C
:1034E00000C0094000000A403735080015220800D6
:1034F00010B4AC2303600B684A68B3FBF2F31B09FA
:103500005C1E4FF6FE7294420BD803628B684360D8
:1035100040F20223C0F8203150230360002010BC89
:1035200070470120FBE7436913F0020F1ABFC16126
:10353000002001207047436913F0010F1DBF83690C
:103540000B7000200120704710B50E480E4B9847B5
:103550003E2100200D4B98470D4CA0470028FCD081
:103560000C4B98470C4A0D4B9A620D4CA047002813
:10357000FCD010200B4B98470B4B98470148024B4F
:10358000984710BD00BD0105B1000720E9390800CA
:103590003D3A08004D3A0800013F0D2000060E405C
:1035A0005D3A0800853908005D3B080010B54FF40E
:1035B0000042124B5A600B20114CA0470C20A04730
:1035C0000D20A0470E20A0474FF060513B200D4C2E
:1035D000A0474FF060515520A0474FF06051562052
:1035E000A04709496820A04708495C20A047084A2D
:1035F0004FF440710748084B984710BD501A0E40D1
:103600006D3A0800093708007900002801000028F9
:1036100001000008000E0E40D93708004264B1F1E5
:10362000805F16D00BD849B1B1F1006F05D1036F9F
:10363000016F0B4023EA0203036742607047B1F158
:10364000405FFBD0B1F1605FF8D0B1F1205FF4D101
:103650007047036F13430367EFE7416412F0010FF4
:1036600014BF4166016612F00A0F14BF0162416285
:1036700012F0020F07D112F0080F18BFC0F8841023
:10368000416101607047C0F88010F9E710B4019CF7
:10369000416444B9016643B1016542B941630161C6
:1036A000016010BC70474166F5E74165F5E70163CD
:1036B000F5E712F0100F10D0C0F8B01012F0200F84
:1036C00014BFC0F8D410C0F8D01012F0400F14BFCF
:1036D000C0F8C010C0F8C4107047C0F8B4107047EC
:1036E00001647047C06C7047806C7047430903F5F4
:1036F000001303F207735B02DB6B00F01F0023FA79
:1037000000F000F00100704770B582B00D4643092B
:1037100003F5001303F207735C0201F0F043B3F109
:10372000205F31D016D8B3F1006F1BD0B3F1805FAA
:1037300016D100F01F000126864032464FF080511E
:103740002046224B984715F0010F14BF6666266687
:10375000012017E0B3F1405F21D0B3F1605F1ED0CC
:1037600000200FE000F01F000126864032464FF097
:1037700000612046154B984715F0010F14BF66668F
:103780002666012002B070BD00F01F0101262A4606
:1037900006FA01F120460E4B98473046F2E705F055
:1037A000605200F01F01012605EA06030093C5F3ED
:1037B0008003B2F1605F14BF0022012206FA01F11A
:1037C0002046044CA0473046DCE700BF1D36080009
:1037D0005B3608008D36080070B582B005460E468F
:1037E000144602F0F043B3F1205F27D011D8B3F1B3
:1037F000006F16D0B3F1805F11D10A464FF08051AF
:10380000194B984714F0010F14BF6E662E66012005
:1038100012E0B3F1405F15D0B3F1605F12D0002029
:103820000AE00A464FF000610F4B984714F0010F71
:1038300014BF6E662E66012002B070BD0B4B984718
:103840000120F9E704F0605204F001030093C4F38F
:103850008003B2F1605F14BF002201223146284686
:10386000034CA0470120E7E71D3608005B3608003F
:103870008D3608002DE9F041044688460E4B9847E6
:10388000054620460D4B9847054013D00C4C04F1DB
:10389000600603E0B4420DD010345DB120684045AD
:1038A000F8D161682942F5D0E3689847636825EA52
:1038B0000305EFE7BDE8F081E5360800E9360800CA
:1038C000ECAD0720F8B5184C2668062E29D84FF025
:1038D000000C6446154F04E00134E4B2A446A6424D
:1038E00009D3A64625017D598D42F5D107EB041574
:1038F0006D689542F0D10D4D4FEA0E1E05EB0E049A
:1039000045F80E106260A3600699E16001366645D5
:1039100004BF05490E6011461A46054B9847002022
:10392000F8BD0120F8BD00BF5CAE0720ECAD07205C
:10393000B336080008B50B210148024B984708BD73
:10394000000E0E407538080008B50C210148024BE6
:10395000984708BD00100E407538080008B50D21C5
:103960000148024B984708BD00120E407538080008
:1039700008B50E210148024B984708BD00140E40BF
:1039800075380800174A136B23F07003184310634F
:10399000936E13F0080F0AD14FF4006311498A6E39
:1039A00012F0080F03D1013BF9D1012070470D4AF5
:1039B000136B23F0030343F002031363936E13F0BE
:1039C000080F0AD14FF4006306498A6E12F0080FFF
:1039D00005D1013BF9D1012070470020704700203C
:1039E000704700BF00060E40C8B9114A136A0902A9
:1039F00089B223F45C1323F0030343F45C1343F014
:103A000001030B431362936E13F0010FFBD0084ABE
:103A1000136A43F09B7343F4803313627047044985
:103A20000B6A044A1A40044B13430B62704700BFF1
:103A300000060E40FCFFC8FE02003701024B986EE4
:103A400000F48030704700BF00060E404FF0005277
:103A5000014B9A62704700BF00060E40024B986E01
:103A600000F00200704700BF00060E402C281ED850
:103A70001F280CD8114B9A6901238340934318D017
:103A8000012303FA00F00D4B186100207047203825
:103A90000A4BD3F808210123834093430BD0012321
:103AA00003FA00F0054BC3F8000100207047012025
:103AB0007047002070470020704700BF00060E408E
:103AC000FEE7000008B51C4B1C4A9A4210D01C4B64
:103AD000194A9A420CD2013B9B1A23F00303043388
:103AE0001344164951F8040B42F8040B9A42F9D1D9
:103AF000144B154A9A420AD2013B9B1A23F0030346
:103B000004331344002142F8041B9342FBD10F4BB2
:103B100023F0604222F07F020D498A6003F1604386
:103B2000B3F5801F03D28B6843F000538B60094BC1
:103B30009847094B9847FEE700000720F48B0800E0
:103B4000200B07202CB00720200B072000000800C6
:103B500000ED00E0AD530800C53C08003D4B1B6B79
:103B600003F00303032B0ED8DFE803F0021C383800
:103B7000394B5B6913F0800F14BF4FF400424FF4D0
:103B8000FA42364B1A60334B1B6B03F07003702BF9
:103B900057D0304B1A6B3149C2F302120B68D34035
:103BA0000B6070472B4B1B6A13F0807F03D02C4AAD
:103BB0002A4B1A60E7E72B4A284B1A60254B1B6AF1
:103BC00003F07003102B05D0202BDCD1244A234BAB
:103BD0001A60D8E7244A214B1A60D4E71D4B1B6AB0
:103BE00013F0807F0CD01E4A1C4B1A60194B1B6BC4
:103BF00003F00303022B16D01C4A184B1A60C2E7CD
:103C0000184A164B1A60134B1B6A03F07003102BF3
:103C100005D0202BEAD1124A104B1A60E6E7124A6F
:103C20000E4B1A60E2E70B4A916A926A0B48C1F3A5
:103C30000A41036801FB0333D2B2B3FBF2F3036022
:103C4000A1E7064A13680A49A1FB03135B08136046
:103C5000704700BF00060E40101A0E406801072092
:103C6000001BB70000093D0000127A00001C4E0E38
:103C7000ABAAAAAA0A4B1B6853B1094B1B681A18B6
:103C80000849914208DB1046054A10601846704703
:103C9000054A034B1A60F0E74FF0FF30704700BF52
:103CA00060AE0720FC7F082030D007204FF0FF30A7
:103CB00070474FF400534B6000207047012070475D
:103CC0000020704770B584B00420954B9847954B01
:103CD0001860954B9847954B9847954B98470B2004
:103CE000944EB0470C20B0470D20B0470E20B0478F
:103CF000914C4FF080652561C4F8A0502920B04751
:103D00008E488F4B98478F4B98478F488F4B9847DB
:103D10002561C4F8A05025638D4B4FF400421A6111
:103D2000C3F8A0201A6303F5806302221A61C3F866
:103D3000A0201A634FF400221A61C3F8A0201A636E
:103D4000844D00242C60844B1C60844B1C60844B8D
:103D50001C60844B1C608448844B98470322214696
:103D60000120834B9847286020B1234622462146F4
:103D7000804CA0470322002101207D4B9847764BC1
:103D8000186020B100231A4619467A4CA047032236
:103D900000210120764B9847704B186020B100231A
:103DA0001A461946734CA047032200210120704B8C
:103DB00098476B4B186020B100231A4619466D4C8A
:103DC000A047032200210120694B9847654B1860EA
:103DD00020B100231A461946664CA04700231A4614
:103DE00019465C480068634CA04700231A461946F0
:103DF00059480068604CA04700231A4619465748A6
:103E00000068A04700231A46194655480068A04795
:103E10005A48564CA0475A48A047002303930293A0
:103E2000584A0192012200924FF4007256495748B5
:103E3000574CA047002840F00A813A4B1B680022EB
:103E400003920292534A0192022200924FF40072AE
:103E5000514952484E4CA047002840F0FC800023B6
:103E6000039302934E4A0192022200924FF4007291
:103E70004C494D48464CA047002840F0F080294B63
:103E80001B68002203920292484A01920222009289
:103E90004FF40072464947483D4CA047002840F087
:103EA000E280002303930293434A0192032200928B
:103EB0004FF4007241494248354CA047002840F079
:103EC000D6804048294DA847164C23682D4A1A60D1
:103ED0002368304A5A60324A9A60344ADA60364A75
:103EE0001A611B681868384EB04723685B68186809
:103EF000B04723689B681868B0472368DB68186878
:103F0000B04723681B691868B04721462F48A84767
:103F100021682F48A8472F4E21683046A8475BE00C
:103F20002124080000B00720AD35080049350800FD
:103F3000811F08006D3A080000100E4000C00B40C1
:103F4000F521080015070800C02709000100072017
:103F5000000E0E4080AF07203CAF072090AF072037
:103F6000ACAF0720A8AF07207C870800FD530800EE
:103F7000C92608001D270800452808009487080066
:103F8000B0870800ECAF0720C4870800F9120800CA
:103F9000052A0800FCAF0720F4870800A9170800CD
:103FA000F4AF07201C8808006D130800F8AF072045
:103FB0003C880800811B0800F0AF072064880800D7
:103FC000AD140800908808009D300800C8880800DB
:103FD000EC8808000C890800216804313046A847A5
:103FE000216808313046A84721680C312248A8478B
:103FF00023681968214E3046A8472368596830461F
:10400000A847236899683046A8472368D9681C48A0
:10401000A8471C48A8470023039302930193012358
:10402000009323684FF4007217491848184DA847A9
:104030002368184A5A61184B9847184E184D194C66
:104040003046A8470120A047174B9847F8E7174884
:10405000174B9847F1E61748154B9847FFE6164867
:10406000134B98470BE71548114B984719E714482D
:104070000F4B984725E700BF3C8908006C89080072
:104080009C890800CC890800E489080061150800B3
:10409000052A08006C010720E11C0800C0C62D009D
:1040A00001000720151D080015200800D48708000E
:1040B000FD5308000088080024880800488808008C
:1040C00074880800000000002DE9F84FC24B21F071
:1040D00000469E420D468A46044610DDBF4B9E4276
:1040E00000F3B58000F0B080BD4BBE49BE4CBAF1C4
:1040F000000FD8BF0B4620461946BDE8F88FBB4BD2
:104100009E4200F3C180A3F1DE739E4240F3AB8078
:104110004FF0FF3B22462B462046294600F04EFC3E
:1041200002460B468046894600F048FC92A3D3E93C
:10413000002306460F4600F041FC91A3D3E900237B
:1041400000F08AFA32463B4600F038FC8EA3D3E9F1
:10415000002300F081FA32463B4600F02FFC8CA38E
:10416000D3E9002300F078FA32463B4600F026FC03
:1041700089A3D3E9002300F06FFA32463B4600F0F2
:104180001DFC87A3D3E9002300F066FA42464B46A4
:1041900000F014FC84A3D3E900238046894630460E
:1041A000394600F00BFC82A3D3E9002300F052FA59
:1041B00032463B4600F002FC7FA3D3E9002300F027
:1041C00049FA32463B4600F0F9FB7DA3D3E90023D0
:1041D00000F040FA32463B4600F0F0FB7AA3D3E908
:1041E000002300F037FA32463B4600F0E7FBBBF114
:1041F000FF3F02460B466ED04046494600F02CFA7F
:1042000022462B4600F0DAFB794E7A4B4FEACB0B75
:104210005E449B44DBE9002300F01CFA22462B4657
:1042200000F018FA0B460246D6E9000100F012FA37
:10423000BAF1000F04460B46BFF65DAF01F1004333
:1042400020461946BDE8F88F00283FF44DAF2246BE
:104250002B462046294600F0FFF904460B4620462F
:104260001946BDE8F88F5AA3D3E9002300F0F4F90A
:104270000022614B00F032FE00283FF449AF2B468C
:1042800020461946BDE8F88F00F0C0F85B4B0446A5
:104290009E420D4630DCA3F550239E4255DC02467B
:1042A0000B4600F0D9F90022534B00F0D3F900225D
:1042B00006460F464FF080432046294600F0CCF9D1
:1042C00002460B463046394600F0A2FC4FF0000B88
:1042D00004460D461EE74046494600F0BDF9224619
:1042E0002B4600F06BFB0B4602462946204600F0A9
:1042F000B1F904460B46FEE6414B9E421ADC002211
:10430000404B00F0A7F9002206460F463D4B2046E1
:10431000294600F053FB0022374B00F09DF902467E
:104320000B463046394600F073FC4FF0020B044652
:104330000D46EFE602460B460020334900F068FCCC
:104340004FF0030B04460D46E4E600222A4B00F032
:1043500081F9002206460F46274B2046294600F0E9
:104360007BF902460B463046394600F051FC4FF0CF
:10437000010B04460D46CDE611DA22E33AAD903F3B
:10438000EB0D76244B7BA93F513DD0A0660DB13F8C
:104390006E204CC5CD45B73FFF8300922449C23FF4
:1043A0000D5555555555D53F2F6C6A2C44B4A2BFB9
:1043B0009AFDDE522DDEAD3F6D9A74AFF2B0B33F81
:1043C000711623FEC671BC3FC4EB98999999C93FF9
:1043D0009C7500883CE4377EFFFF0F440000F07FAF
:1043E000FB21F93FFB21F9BF182D4454FFFFDB3FB0
:1043F000F0890800108A08000000F03FFFFFF23F3C
:10440000FF7F03400000F83F0000F0BF21F00041B3
:10441000704700BF2DE9F04F8BB004460D4600F009
:1044200057F8294B064693F900A00F46BAF1FF3F13
:1044300012D022462B462046294600F059FD8346DD
:1044400050B94FF000084FF0000920462946424677
:104450004B4600F025FD20B9304639460BB0BDE88B
:10446000F08F0122194BCDF820B0CDE90445CDE9FC
:1044700002458DE80C00BAF1000F17D042464B46BA
:104480004046494600F0C4FBBAF1020FCDE90601EF
:104490000ED100F085FF21230360089B73B9DDE98D
:1044A0000667304639460BB0BDE8F08FCDE9068986
:1044B000684600F0C9F80028EFD1EAE700F070FF85
:1044C000089B0360EBE700BF70010720308A0800FB
:1044D0002DE9F8435B4F05468F430C4600F0928070
:1044E00000290B4602466FDD0F157BD0A7F2FF3780
:1044F000C3F31303F80743F480135CD4002616209B
:10450000B6464FF4001103EBD2747F1023445200DF
:104510000EEB01049C424FEAD2754FEA420203DCE3
:104520001B1B04EB010E0E44013805EB43034FEA5D
:104530005101EDD1202484464FF0004109E020D004
:1045400003EBD275013C4FEA51012B444FEA420282
:1045500020D0734501EB0C05F1DD002D05EB010CBE
:1045600009DBF0469542A3EB0E0300D9013BC6469A
:10457000521B0844E4E7BCF1000FF2DB0EF1010826
:10458000F0E79542DCD8002D05EB010C44DB9846A2
:104590000023ECE7134313D14008731003F17F535A
:1045A00003F5001303EB07594946F20748BF40F0F3
:1045B0000040BDE8F8835B0003EBD27352009DE737
:1045C000411C2DD00130E7E7064621F000473E436D
:1045D000EFD069BB0F46D30A153F5205002BFAD026
:1045E000DE0220D4002400E004465B00DD0204F17A
:1045F0000100F9D5C0F1200122FA01F10B433F1B64
:10460000824073E702460B4600F0D8F92A4623465B
:1046100000F022F8BDE8F883BCF1000FAEDAB6E78F
:1046200001362046B9E7002020214FF0FF34E3E7B0
:1046300002460B4600F00EF802460B4600F0E8FA80
:10464000B7E700BF0000F07F0020704781F0004115
:1046500002E000BF83F0004330B54FEA41044FEA67
:10466000430594EA050F08BF90EA020F1FBF54EA02
:10467000000C55EA020C7FEA645C7FEA655C00F09E
:10468000E2804FEA5454D4EB5555B8BF6D420CDD6F
:104690002C4480EA020281EA030382EA000083EAF2
:1046A000010180EA020281EA0303362D88BF30BD92
:1046B00011F0004F4FEA01314FF4801C4CEA1131E8
:1046C00002D0404261EB410113F0004F4FEA033347
:1046D0004CEA133302D0524263EB430394EA050FD2
:1046E00000F0A780A4F10104D5F1200E0DDB02FA41
:1046F0000EFC22FA05F2801841F1000103FA0EF2D5
:10470000801843FA05F359410EE0A5F120050EF19A
:10471000200E012A03FA0EFC28BF4CF0020C43FACB
:1047200005F3C01851EBE37101F0004507D54FF0D8
:10473000000EDCF1000C7EEB00006EEB0101B1F528
:10474000801F1BD3B1F5001F0CD349085FEA30006E
:104750004FEA3C0C04F101044FEA445212F5800F79
:1047600080F09A80BCF1004F08BF5FEA500C50F116
:10477000000041EB045141EA050130BD5FEA4C0CF9
:10478000404141EB010111F4801FA4F10104E9D182
:1047900091F0000F04BF01460020B1FA81F308BF79
:1047A0002033A3F10B03B3F120020CDA0C3208DD45
:1047B00002F1140CC2F10C0201FA0CF021FA02F120
:1047C0000CE002F11402D8BFC2F1200C01FA02F190
:1047D00020FA0CFCDCBF41EA0C019040E41AA2BFB5
:1047E00001EB0451294330BD6FEA04041F3C1CDA7D
:1047F0000C340EDC04F11404C4F1200220FA04F09D
:1048000001FA02F340EA030021FA04F345EA030146
:1048100030BDC4F10C04C4F1200220FA02F001FA08
:1048200004F340EA0300294630BD21FA04F029468A
:1048300030BD94F0000F83F4801306BF81F4801123
:104840000134013D4EE77FEA645C18BF7FEA655C96
:1048500029D094EA050F08BF90EA020F05D054EA68
:10486000000C04BF1946104630BD91EA030F1EBF6D
:104870000021002030BD5FEA545C05D14000494171
:1048800028BF41F0004130BD14F580043CBF01F564
:10489000801130BD01F0004545F0FE4141F470014A
:1048A0004FF0000030BD7FEA645C1ABF1946104625
:1048B0007FEA655C1CBF0B46024650EA013406BF26
:1048C00052EA033591EA030F41F4002130BD00BFE5
:1048D00090F0000F04BF0021704730B54FF48064A2
:1048E00004F132044FF000054FF0000150E700BF23
:1048F00090F0000F04BF0021704730B54FF4806482
:1049000004F1320410F0004548BF40424FF000016E
:104910003EE700BF42004FEAE2014FEA31014FEAB1
:1049200002701FBF12F07F4393F07F4F81F0605100
:10493000704792F0000F14BF93F07F4F704730B56F
:104940004FF4607401F0004521F0004120E700BF02
:1049500050EA010208BF704730B54FF000050AE089
:1049600050EA010208BF704730B511F0004502D58A
:10497000404261EB41014FF4806404F132045FEA8C
:10498000915C3FF4DCAE4FF003025FEADC0C18BF31
:1049900003325FEADC0C18BF033202EBDC02C2F127
:1049A000200300FA03FC20FA02F001FA03FE40EAB9
:1049B0000E0021FA02F11444C1E600BF70B54FF0B9
:1049C000FF0C4CF4E06C1CEA11541DBF1CEA13559B
:1049D00094EA0C0F95EA0C0F00F0DEF82C4481EA03
:1049E000030621EA4C5123EA4C5350EA013518BF23
:1049F00052EA033541F4801143F4801338D0A0FB10
:104A000002CE4FF00005E1FB02E506F00042E0FBBC
:104A100003E54FF00006E1FB03569CF0000F18BFC2
:104A20004EF0010EA4F1FF04B6F5007F64F540746A
:104A300004D25FEA4E0E6D4146EB060642EAC621FD
:104A400041EA55514FEAC52040EA5E504FEACE2E6A
:104A5000B4F1FD0C88BFBCF5E06F1ED8BEF1004F6D
:104A600008BF5FEA500E50F1000041EB045170BDE9
:104A700006F0004646EA010140EA020081EA03012D
:104A8000B4EB5C04C2BFD4EB0C0541EA045170BD29
:104A900041F480114FF0000E013C00F3AB8014F1A3
:104AA000360FDEBF002001F0004170BDC4F10004EC
:104AB000203C35DA0C341BDC04F11404C4F120056D
:104AC00000FA05F320FA04F001FA05F240EA0200C8
:104AD00001F0004221F0004110EBD37021FA04F6FE
:104AE00042EB06015EEA430E08BF20EAD37070BDB8
:104AF000C4F10C04C4F1200500FA04F320FA05F017
:104B000001FA04F240EA020001F0004110EBD37018
:104B100041F100015EEA430E08BF20EAD37070BD88
:104B2000C4F1200500FA05F24EEA020E20FA04F361
:104B300001FA05F243EA020321FA04F001F0004110
:104B400021FA04F220EA020000EBD3705EEA430E81
:104B500008BF20EAD37070BD94F0000F0FD101F0B0
:104B60000046400041EB010111F4801F08BF013CE9
:104B7000F7D041EA060195F0000F18BF704703F027
:104B80000046520043EB030313F4801F08BF013DAE
:104B9000F7D043EA0603704794EA0C0F0CEA13556A
:104BA00018BF95EA0C0F0CD050EA410618BF52EA24
:104BB0004306D1D181EA030101F000414FF000002A
:104BC00070BD50EA410606BF1046194652EA430638
:104BD00019D094EA0C0F02D150EA013613D195EAAC
:104BE0000C0F05D152EA03361CBF104619460AD1F4
:104BF00081EA030101F0004141F0FE4141F47001FE
:104C00004FF0000070BD41F0FE4141F4780170BDED
:104C100070B54FF0FF0C4CF4E06C1CEA11541DBF52
:104C20001CEA135594EA0C0F95EA0C0F00F0A7F854
:104C3000A4EB050481EA030E52EA03354FEA013181
:104C400000F088804FEA03334FF0805545EA131394
:104C500043EA12634FEA022245EA111545EA10655C
:104C60004FEA00260EF000419D4208BF964244F1F3
:104C7000FD0404F5407402D25B084FEA3202B61A12
:104C800065EB03055B084FEA32024FF480104FF4E6
:104C9000002CB6EB020E75EB030E22BFB61A75465A
:104CA00040EA0C005B084FEA3202B6EB020E75EBED
:104CB000030E22BFB61A754640EA5C005B084FEA55
:104CC0003202B6EB020E75EB030E22BFB61A754622
:104CD00040EA9C005B084FEA3202B6EB020E75EB2D
:104CE000030E22BFB61A754640EADC0055EA060EEE
:104CF00018D04FEA051545EA16754FEA06164FEA31
:104D0000C30343EA52734FEAC2025FEA1C1CC0D1DC
:104D100011F4801F0BD141EA00014FF000004FF069
:104D2000004CB6E711F4801F04BF01430020B4F12A
:104D3000FD0C88BFBCF5E06F3FF6AFAEB5EB030CE2
:104D400004BFB6EB020C5FEA500C50F1000041EBDF
:104D5000045170BD0EF0004E4EEA113114EB5C04AC
:104D6000C2BFD4EB0C0541EA045170BD41F480117F
:104D70004FF0000E013C90E645EA060E8DE60CEA87
:104D8000135594EA0C0F08BF95EA0C0F3FF43BAFA4
:104D900094EA0C0F0AD150EA01347FF434AF95EA5B
:104DA0000C0F7FF425AF104619462CE795EA0C0F3F
:104DB00006D152EA03353FF4FDAE1046194622E70C
:104DC00050EA410618BF52EA43067FF4C5AE50EAE6
:104DD00041047FF40DAF52EA43057FF4EBAE12E7D6
:104DE0004FF0FF3C06E000BF4FF0010C02E000BFB7
:104DF0004FF0010C4DF804CD4FEA410C7FEA6C5C9A
:104E00004FEA430C18BF7FEA6C5C1BD001B050EA3C
:104E1000410C0CBF52EA430C91EA030F02BF90EA27
:104E2000020F0020704710F1000F91EA030F58BFE6
:104E3000994208BF90422CBFD8176FEAE37040F048
:104E4000010070474FEA410C7FEA6C5C02D150EAE6
:104E5000013C07D14FEA430C7FEA6C5CD6D152EAA1
:104E6000033CD3D05DF8040B704700BF8446104666
:104E700062468C461946634600E000BF01B5FFF765
:104E8000B7FF002848BF10F1000F01BD4DF808ED35
:104E9000FFF7F4FF0CBF012000205DF808FB00BF06
:104EA0004DF808EDFFF7EAFF34BF012000205DF860
:104EB00008FB00BF4DF808EDFFF7E0FF94BF0120AD
:104EC00000205DF808FB00BF4DF808EDFFF7CEFFAE
:104ED00094BF012000205DF808FB00BF4DF808EDED
:104EE000FFF7C4FF34BF012000205DF808FB00BFBE
:104EF0004FEA410C7FEA6C5C02D150EA013C0AD1D6
:104F00004FEA430C7FEA6C5C02D152EA033C02D1C7
:104F10004FF0000070474FF0010070474FEA410228
:104F200012F5001215D211D56FF47873B3EB6252FB
:104F300012D94FEAC12343F0004343EA505311F022
:104F4000004F23FA02F018BF404270474FF00000B4
:104F5000704750EA013005D111F0004008BF6FF0F2
:104F6000004070474FF00000704700BF4FEA410219
:104F7000B2F1E04324BFB3F5001CDCF1FE5C0DD9B7
:104F800001F0004C4FEAC0024CEA5070B2F1004F01
:104F900040EB830008BF20F00100704711F0804F04
:104FA00021D113F13872BCBF01F00040704741F4C9
:104FB00080114FEA5252C2F11802C2F1200C10FACD
:104FC0000CF320FA02F018BF40F001004FEAC123B1
:104FD0004FEAD32303FA0CFC40EA0C0023FA02F355
:104FE0004FEA4303CCE77FEA625307D150EA01332B
:104FF0001EBF4FF0FE4040F44000704701F00040FB
:1050000040F0FE4040F40000704700BF80F00040D8
:1050100002E000BF81F0004142001FBF5FEA410390
:1050200092EA030F7FEA226C7FEA236C6AD04FEA90
:105030001262D2EB1363C1BFD218414048404140D5
:10504000B8BF5B42192B88BF704710F0004F40F487
:10505000000020F07F4018BF404211F0004F41F4A3
:10506000000121F07F4118BF494292EA030F3FD06F
:10507000A2F1010241FA03FC10EB0C00C3F1200382
:1050800001FA03F100F0004302D5494260EB400011
:10509000B0F5000F13D3B0F1807F06D340084FEA7C
:1050A000310102F10102FE2A51D2B1F1004F40EB71
:1050B000C25008BF20F0010040EA030070474900D9
:1050C00040EB000010F4000FA2F10102EDD1B0FAA4
:1050D00080FCACF1080CB2EB0C0200FA0CF0AABF99
:1050E00000EBC25052421843BCBFD0401843704737
:1050F00092F0000F81F4000106BF80F4000001323D
:10510000013BB5E74FEA41037FEA226C18BF7FEA13
:10511000236C21D092EA030F04D092F0000F08BF55
:105120000846704790EA010F1CBF0020704712F03C
:105130007F4F04D1400028BF40F00040704712F17B
:1051400000723CBF00F50000704700F0004343F0E0
:10515000FE4040F4000070477FEA226216BF084616
:105160007FEA23630146420206BF5FEA412390EAD9
:10517000010F40F4800070474FF0000304E000BFCF
:1051800010F0004348BF40425FEA000C08BF704780
:1051900043F0964301464FF000001CE050EA010244
:1051A00008BF70474FF000030AE000BF50EA010259
:1051B00008BF704711F0004302D5404261EB410146
:1051C0005FEA010C02BF84460146002043F0B6436B
:1051D00008BFA3F18053A3F50003BCFA8CF2083A90
:1051E000A3EBC25310DB01FA02FC634400FA02FC99
:1051F000C2F12002BCF1004F20FA02F243EB0200A0
:1052000008BF20F00100704702F1200201FA02FC01
:10521000C2F1200250EA4C0021FA02F243EB0200F4
:1052200008BF20EADC7070474FF0FF3C06E000BF8B
:105230004FF0010C02E000BF4FF0010C4DF804CD1F
:105240004FEA40024FEA41037FEA226C18BF7FEA2F
:10525000236C11D001B052EA530C18BF90EA010F31
:1052600058BFB2EB030088BFC81738BF6FEAE170C0
:1052700018BF40F0010070477FEA226C02D15FEA5C
:10528000402C05D17FEA236CE4D15FEA412CE1D0C8
:105290005DF8040B704700BF844608466146FFE78F
:1052A0000FB5FFF7C9FF002848BF10F1000F0FBD71
:1052B0004DF808EDFFF7F4FF0CBF012000205DF86A
:1052C00008FB00BF4DF808EDFFF7EAFF34BF0120EF
:1052D00000205DF808FB00BF4DF808EDFFF7E0FF88
:1052E00094BF012000205DF808FB00BF4DF808EDD9
:1052F000FFF7D2FF94BF012000205DF808FB00BF3C
:105300004DF808EDFFF7C8FF34BF012000205DF81D
:1053100008FB00BF4FEA4002B2F1FE4F0FD34FF03F
:105320009E03B3EB12620DD94FEA002343F0004312
:1053300010F0004F23FA02F018BF404270474FF0C0
:105340000000704712F1610F01D1420205D110F047
:10535000004008BF6FF0004070474FF000007047FA
:1053600042000ED2B2F1FE4F0BD34FF09E03B3EBCF
:10537000126209D44FEA002343F0004323FA02F0FB
:1053800070474FF00000704712F1610F01D14202E7
:1053900002D14FF0FF3070474FF00000704700BF60
:1053A000014B1868704700BF7401072070B50F4E9D
:1053B0000F4D761BB61018BF002405D0013455F8E8
:1053C000043B9847A642F9D10A4E0B4D03F0FCFB73
:1053D000761BB61018BF002406D0013455F8043BE4
:1053E0009847A642F9D170BD70BD00BFD48B0800AC
:1053F000D48B0800DC8B0800D48B08000FB410B5E8
:10540000074B82B004AC54F8042B1868234681681B
:10541000019400F0EBFA02B0BDE8104004B0704710
:1054200074010720931E222B10D80A2A10B506D02B
:1054300000230C46194400F059FA204610BD0028FC
:10544000F6DA2D2340420B700123F2E700200870AA
:10545000704700BFFFF7E6BF844641EA000313F040
:10546000030349D1403A23D30B6803604B68436080
:105470008B688360CB68C3600B6903614B694361D0
:105480008B698361CB69C3610B6A03624B6A4362B8
:105490008B6A8362CB6AC3620B6B03634B6B4363A0
:1054A0008B6B8363CB6BC36340304031403ADBD2BC
:1054B00030320BD30B6803604B6843608B688360AA
:1054C000CB68C36010301031103AF3D20C3205D3E0
:1054D00051F8043B40F8043B043AF9D2043208D0B6
:1054E000D2071CBF11F8013B00F8013B01D30B8828
:1054F00003806046704700BF082A13D38B07B1D0E2
:1055000010F00303AED0C3F10403D21ADB071CBFB3
:1055100011F8013B00F8013BA4D331F8023B20F81D
:10552000023B9FE7043AD9D3013A11F8013B00F856
:10553000013BF9D20B7803704B7843708B78837002
:105540006046704770B4860746D0541E002A41D08A
:10555000CAB2034602E014F1FF343BD303F8012B37
:105560009D07F8D1032C2ED9CDB245EA05250F2C85
:1055700045EA054519D9264603F11002103E0F2EC3
:1055800042F8105C42F80C5C42F8085C42F8045C9B
:1055900002F11002F2D8A4F1100222F00F0204F07E
:1055A0000F041032032C13440DD91E462246043A30
:1055B000032A46F8045BFAD8221F22F003020432C1
:1055C000134404F003042CB1C9B21C4403F8011BBA
:1055D0009C42FBD170BC704714460346C2E700BF33
:1055E000F0B5054689B008460C46012700F01EF9C3
:1055F0000226C31920490393AB6B04AA04940590B7
:10560000AC68079702960691019253B3636E13F04C
:10561000010FB4F90C309AB201D1900525D591044F
:1056200006D4626E43F4005322F40052A3816266F2
:10563000284601AA214601F0D5FB636E00280CBF65
:105640000A254FF0FF35DA0702D4A3899B0502D55E
:10565000284609B0F0BDA06D01F07AFD284609B0DA
:10566000F0BD284601F0B2F9D0E7A06D01F06EFD63
:10567000B4F90C309AB2D2E780850800024B01469B
:105680001868FFF7ADBF00BF7401072000290CBFE9
:10569000022200224FF4806300F000B82DE9F043AD
:1056A000614D83B02D6804460F4690461E4615B1E5
:1056B000AB6B002B64D0B8F1020F06D0B8F1010F2C
:1056C00000F29F80002EC0F29C80636ED80734D514
:1056D0002146284601F022F9216B41B104F1400333
:1056E000994202D0284601F097FA00232363002252
:1056F000B4F90C30A26162601A063AD423F44A630A
:1057000023F00303B8F1020FA3811DD001AB6A4659
:105710002146284601F01EFDA3891843A081002ED2
:1057200032D1009E304601F08DFD074600286BD037
:10573000A38943F08003A38128E0A3899905C7D4F6
:10574000A06D01F003FDC3E7002500260120616E76
:1057500004F1430243F00203A660CE07A381606117
:105760002260226101D498053ED5284603B0BDE8E9
:10577000F0832169284601F04FFAB4F90C30BDE7F7
:10578000284601F023F996E7002FCBD0AB6B002B16
:1057900033D0009BB4F90C209E421CBF42F400623F
:1057A000A281B8F1010F04BF42F00102A28192B2BE
:1057B00012F008032760276166610ED0D1071AD561
:1057C0000023656E764215F00105A661A36009D03D
:1057D0000025284603B0BDE8F083A360656E15F090
:1057E0000105F5D19305C0D4A06D01F0B1FC2846A8
:1057F00003B0BDE8F083A660F0E7284601F0E6F8C4
:10580000C7E74FF0FF35B0E7DDF80090B14504D0B1
:10581000484601F017FD074620B9B4F90C304FF0A7
:10582000FF3592E74E4683E77401072020F003011D
:1058300010F00300C0F1000051F8043B00F1040C2B
:105840004FEACC0C6FF000021CBF22FA0CF213439B
:105850004FF0010C4CEA0C2C4CEA0C4CA3EB0C0264
:1058600022EA030212EACC1204BF51F8043B0430CE
:10587000F4D0C2F1000102EA0102B2FA82F2C2F1EE
:105880001F0200EBD200704740EA010313F0030F40
:1058900070B4034624D0A2B10C78013A1C700131D7
:1058A00001333CB16AB111F8014B013A03F8014BE5
:1058B000002CF7D12AB100211A4403F8011B9A42A7
:1058C000FBD170BC70470E4651F8045BA5F1013462
:1058D00024EA050414F0803F05D1043A43F8045B40
:1058E000032AF0D8D7E73146D6E700BFF0B58BB032
:1058F0006F461546DFF870E004460E46BEE80F001E
:105900000FC7BEE80F000FC79EE80300AB1E47F8A5
:10591000040B222B397022D8711E0846002300E0A8
:105920001346B4FBF5F205FB12440AAF3C4414F8ED
:10593000287C144600F8017F5A1C002CF0D1B45486
:10594000F2184BB101344D781778181B844201F8D6
:10595000017F02F80159F5DB30460BB0F0BD0020A5
:1059600030700BB0F0BD00BF3C8A08002DE9F84F45
:105970004B6E93469C042FD59368126853B30E4622
:10598000074602F1080919E920045FEA9A0817D0CE
:105990000024043D01E0A04510D0324655F8041F14
:1059A000384601F0B5F8431C04F10104F3D100239B
:1059B000CBF80830CBF80430BDE8F88FDBF80830BE
:1059C0002AF0030AA3EB0A03CBF8083009F108090F
:1059D000002BD8D10020EAE701F004FA0023CBF82D
:1059E0000830CBF80430BDE8F88F00BF2DE9F04F48
:1059F000ADB01D468B4690460793069018B1836B59
:105A0000002B00F0F380DBF86430BBF90C00DF07FB
:105A100081B202D48E0540F1FC808C040AD4DBF8FC
:105A2000643040F4005123F40053ABF80C10CBF871
:105A3000643089B2080740F1B380DBF81030002BE6
:105A400000F0AE8001F01A030A2B00F0B5800023AD
:105A50000DF1700AD1460B93039311931093CDF877
:105A60003CA0CDF810B098F800304446FBB1252B8F
:105A700002D11CE0252B03D014F8013F002BF9D1F3
:105A8000A4EB08059DB1109B119A01332A44072B02
:105A9000C9F80080C9F80450119210937ADD002AE9
:105AA00040F0B584D146039B10922B440393237896
:105AB000002B00F0E58300204FF0000304F1010803
:105AC0008DF8373062780646054603464FF0FF34BE
:105AD00008F10108A2F12001582900F2D982DFE87B
